{
  "contractName": "AirdropLander",
  "abi": [
    {
      "inputs": [
        {
          "internalType": "address",
          "name": "_tokenInstance",
          "type": "address"
        },
        {
          "internalType": "uint256",
          "name": "claimableAmount",
          "type": "uint256"
        }
      ],
      "stateMutability": "nonpayable",
      "type": "constructor"
    },
    {
      "inputs": [],
      "name": "claimableAmount",
      "outputs": [
        {
          "internalType": "uint256",
          "name": "",
          "type": "uint256"
        }
      ],
      "stateMutability": "view",
      "type": "function",
      "constant": true
    },
    {
      "inputs": [],
      "name": "tokenInstance",
      "outputs": [
        {
          "internalType": "contract IERC20",
          "name": "",
          "type": "address"
        }
      ],
      "stateMutability": "view",
      "type": "function",
      "constant": true
    },
    {
      "inputs": [],
      "name": "requestTokens",
      "outputs": [],
      "stateMutability": "nonpayable",
      "type": "function"
    }
  ],
  "bytecode": "0x608060405234801561001057600080fd5b506040516105673803806105678339818101604052604081101561003357600080fd5b810190808051906020019092919080519060200190929190505050600073ffffffffffffffffffffffffffffffffffffffff168273ffffffffffffffffffffffffffffffffffffffff16141561008857600080fd5b816000806101000a81548173ffffffffffffffffffffffffffffffffffffffff021916908373ffffffffffffffffffffffffffffffffffffffff160217905550809050505061048b806100dc6000396000f3fe608060405234801561001057600080fd5b50600436106100415760003560e01c8063359cf2b714610046578063658030b314610050578063a556f8461461009a575b600080fd5b61004e6100b8565b005b6100586103f9565b604051808273ffffffffffffffffffffffffffffffffffffffff1673ffffffffffffffffffffffffffffffffffffffff16815260200191505060405180910390f35b6100a261041e565b6040518082815260200191505060405180910390f35b600180546000809054906101000a900473ffffffffffffffffffffffffffffffffffffffff1673ffffffffffffffffffffffffffffffffffffffff166370a08231306040518263ffffffff1660e01b8152600401808273ffffffffffffffffffffffffffffffffffffffff1673ffffffffffffffffffffffffffffffffffffffff16815260200191505060206040518083038186803b15801561015a57600080fd5b505afa15801561016e573d6000803e3d6000fd5b505050506040513d602081101561018457600080fd5b81019080805190602001909291905050508161019c57fe5b0411610210576040517f08c379a00000000000000000000000000000000000000000000000000000000081526004018080602001828103825260208152602001807f4572726f723a20636f6e74726163742066756e6420697320657863656564656481525060200191505060405180910390fd5b60001515600260003373ffffffffffffffffffffffffffffffffffffffff1673ffffffffffffffffffffffffffffffffffffffff16815260200190815260200160002060009054906101000a900460ff161515146102b9576040517f08c379a00000000000000000000000000000000000000000000000000000000081526004018080602001828103825260318152602001806104256031913960400191505060405180910390fd5b6000809054906101000a900473ffffffffffffffffffffffffffffffffffffffff1673ffffffffffffffffffffffffffffffffffffffff1663a9059cbb336001546040518363ffffffff1660e01b8152600401808373ffffffffffffffffffffffffffffffffffffffff1673ffffffffffffffffffffffffffffffffffffffff16815260200182815260200192505050602060405180830381600087803b15801561036357600080fd5b505af1158015610377573d6000803e3d6000fd5b505050506040513d602081101561038d57600080fd5b8101908080519060200190929190505050506001600260003373ffffffffffffffffffffffffffffffffffffffff1673ffffffffffffffffffffffffffffffffffffffff16815260200190815260200160002060006101000a81548160ff021916908315150217905550565b6000809054906101000a900473ffffffffffffffffffffffffffffffffffffffff1681565b6001548156fe4572726f723a20706172746963697061746564206164647265737365732063616e6e6f7420636c61696d20746f6b656e73a26469706673582212205cf98e36cdf3c1fa21a9de630a33afa85be4c189f6e594af7bcd651863c4934c64736f6c63430006080033",
  "immutableReferences": {},
  "source": "pragma solidity >=0.6.8;\n\nimport \"../lib/ERC20.sol\";\n\ncontract AirdropLander {\n    IERC20 public tokenInstance;\n    uint256 public claimableAmount;\n\n    mapping(address => bool) participants;\n\n    constructor(address _tokenInstance, uint256 claimableAmount) public {\n        require(_tokenInstance != address(0));\n        tokenInstance = IERC20(_tokenInstance);\n        claimableAmount = claimableAmount;\n    }\n\n    function requestTokens() public {\n        require(\n            tokenInstance.balanceOf(address(this)) / claimableAmount > 1,\n            'Error: contract fund is exceeded'\n        );\n\n        require(\n            participants[msg.sender] == false,\n            'Error: participated addresses cannot claim tokens'\n        );\n\n        tokenInstance.transfer(msg.sender, claimableAmount);\n        participants[msg.sender] = true;\n    }\n}\n",
  "sourcePath": "/Users/khangtd/Workspace/Cabin/elastic-xbt/elastic-bitcoin-xbt-contract/contracts/airdrop/AirdropLander.sol",
  "compiler": {
    "name": "solc",
    "version": "0.6.8+commit.0bbfe453.Emscripten.clang"
  },
  "schemaVersion": "3.3.3",
  "updatedAt": "2020-12-26T14:43:01.939Z",
  "networkType": "ethereum",
  "devdoc": {
    "methods": {}
  },
  "userdoc": {
    "methods": {}
  }
}