{
  "_format": "hh-sol-artifact-1",
  "contractName": "AirdropLanderV2",
  "sourceName": "contracts/distribution/AirdropLanderV2.sol",
  "abi": [
    {
      "inputs": [
        {
          "internalType": "address",
          "name": "_tokenInstance",
          "type": "address"
        },
        {
          "internalType": "address payable",
          "name": "routerAddress",
          "type": "address"
        },
        {
          "internalType": "address payable",
          "name": "_foundationAddress",
          "type": "address"
        }
      ],
      "stateMutability": "nonpayable",
      "type": "constructor"
    },
    {
      "stateMutability": "payable",
      "type": "fallback"
    },
    {
      "inputs": [],
      "name": "approveSwap",
      "outputs": [],
      "stateMutability": "nonpayable",
      "type": "function"
    },
    {
      "inputs": [],
      "name": "distributeTokens",
      "outputs": [],
      "stateMutability": "payable",
      "type": "function"
    },
    {
      "inputs": [],
      "name": "emergencyWithdraw",
      "outputs": [],
      "stateMutability": "nonpayable",
      "type": "function"
    },
    {
      "inputs": [],
      "name": "pancakePair",
      "outputs": [
        {
          "internalType": "contract IPancakePair",
          "name": "",
          "type": "address"
        }
      ],
      "stateMutability": "view",
      "type": "function"
    },
    {
      "inputs": [],
      "name": "pancakeRouter",
      "outputs": [
        {
          "internalType": "contract IPancakeRouter02",
          "name": "",
          "type": "address"
        }
      ],
      "stateMutability": "view",
      "type": "function"
    },
    {
      "inputs": [],
      "name": "primaryToken",
      "outputs": [
        {
          "internalType": "address",
          "name": "",
          "type": "address"
        }
      ],
      "stateMutability": "view",
      "type": "function"
    },
    {
      "inputs": [
        {
          "internalType": "uint256",
          "name": "_bonusRate",
          "type": "uint256"
        }
      ],
      "name": "setBonusRate",
      "outputs": [],
      "stateMutability": "nonpayable",
      "type": "function"
    },
    {
      "inputs": [
        {
          "internalType": "address payable",
          "name": "_foundationAddress",
          "type": "address"
        }
      ],
      "name": "setFoundationAddress",
      "outputs": [],
      "stateMutability": "nonpayable",
      "type": "function"
    },
    {
      "inputs": [
        {
          "internalType": "address",
          "name": "newOwner",
          "type": "address"
        }
      ],
      "name": "setOwner",
      "outputs": [],
      "stateMutability": "nonpayable",
      "type": "function"
    },
    {
      "inputs": [
        {
          "internalType": "address",
          "name": "tokenAddress",
          "type": "address"
        }
      ],
      "name": "setPrimaryToken",
      "outputs": [],
      "stateMutability": "nonpayable",
      "type": "function"
    },
    {
      "inputs": [
        {
          "internalType": "address payable",
          "name": "routerAddress",
          "type": "address"
        }
      ],
      "name": "setRouter",
      "outputs": [],
      "stateMutability": "nonpayable",
      "type": "function"
    },
    {
      "inputs": [],
      "name": "tokenInstance",
      "outputs": [
        {
          "internalType": "contract ERC20UpgradeSafe",
          "name": "",
          "type": "address"
        }
      ],
      "stateMutability": "view",
      "type": "function"
    },
    {
      "inputs": [],
      "name": "withdrawBNBFund",
      "outputs": [],
      "stateMutability": "nonpayable",
      "type": "function"
    }
  ],
  "bytecode": "0x608060405260026006553480156200001657600080fd5b5060405162002bfa38038062002bfa83398181016040528101906200003c919062000703565b33600160006101000a81548173ffffffffffffffffffffffffffffffffffffffff021916908373ffffffffffffffffffffffffffffffffffffffff1602179055506200008e83620000b960201b60201c565b6200009f816200024360201b60201c565b620000b0826200038d60201b60201c565b505050620009c2565b600160009054906101000a900473ffffffffffffffffffffffffffffffffffffffff1673ffffffffffffffffffffffffffffffffffffffff163373ffffffffffffffffffffffffffffffffffffffff16146200014c576040517f08c379a00000000000000000000000000000000000000000000000000000000081526004016200014390620008cf565b60405180910390fd5b600073ffffffffffffffffffffffffffffffffffffffff168173ffffffffffffffffffffffffffffffffffffffff161415620001bf576040517f08c379a0000000000000000000000000000000000000000000000000000000008152600401620001b690620008f1565b60405180910390fd5b806000806101000a81548173ffffffffffffffffffffffffffffffffffffffff021916908373ffffffffffffffffffffffffffffffffffffffff16021790555080600560006101000a81548173ffffffffffffffffffffffffffffffffffffffff021916908373ffffffffffffffffffffffffffffffffffffffff16021790555050565b600160009054906101000a900473ffffffffffffffffffffffffffffffffffffffff1673ffffffffffffffffffffffffffffffffffffffff163373ffffffffffffffffffffffffffffffffffffffff1614620002d6576040517f08c379a0000000000000000000000000000000000000000000000000000000008152600401620002cd90620008cf565b60405180910390fd5b600073ffffffffffffffffffffffffffffffffffffffff168173ffffffffffffffffffffffffffffffffffffffff16141562000349576040517f08c379a0000000000000000000000000000000000000000000000000000000008152600401620003409062000913565b60405180910390fd5b80600260006101000a81548173ffffffffffffffffffffffffffffffffffffffff021916908373ffffffffffffffffffffffffffffffffffffffff16021790555050565b600160009054906101000a900473ffffffffffffffffffffffffffffffffffffffff1673ffffffffffffffffffffffffffffffffffffffff163373ffffffffffffffffffffffffffffffffffffffff161462000420576040517f08c379a00000000000000000000000000000000000000000000000000000000081526004016200041790620008cf565b60405180910390fd5b80600360006101000a81548173ffffffffffffffffffffffffffffffffffffffff021916908373ffffffffffffffffffffffffffffffffffffffff1602179055506000600360009054906101000a900473ffffffffffffffffffffffffffffffffffffffff1673ffffffffffffffffffffffffffffffffffffffff1663c45a01556040518163ffffffff1660e01b815260040160206040518083038186803b158015620004cc57600080fd5b505afa158015620004e1573d6000803e3d6000fd5b505050506040513d601f19601f82011682018060405250810190620005079190620006d7565b905060008173ffffffffffffffffffffffffffffffffffffffff1663e6a43905600560009054906101000a900473ffffffffffffffffffffffffffffffffffffffff16600360009054906101000a900473ffffffffffffffffffffffffffffffffffffffff1673ffffffffffffffffffffffffffffffffffffffff1663ad5c46486040518163ffffffff1660e01b815260040160206040518083038186803b158015620005b357600080fd5b505afa158015620005c8573d6000803e3d6000fd5b505050506040513d601f19601f82011682018060405250810190620005ee9190620006d7565b6040518363ffffffff1660e01b81526004016200060d929190620008a2565b60206040518083038186803b1580156200062657600080fd5b505afa1580156200063b573d6000803e3d6000fd5b505050506040513d601f19601f82011682018060405250810190620006619190620006d7565b905080600460006101000a81548173ffffffffffffffffffffffffffffffffffffffff021916908373ffffffffffffffffffffffffffffffffffffffff160217905550505050565b600081519050620006ba816200098e565b92915050565b600081519050620006d181620009a8565b92915050565b600060208284031215620006ea57600080fd5b6000620006fa84828501620006a9565b91505092915050565b6000806000606084860312156200071957600080fd5b60006200072986828701620006a9565b93505060206200073c86828701620006c0565b92505060406200074f86828701620006c0565b9150509250925092565b620007648162000946565b82525050565b600062000779602e8362000935565b91507f4572726f723a204f6e6c79206f776e65722063616e2068616e646c652074686960008301527f73206f7065726174696f6e203b290000000000000000000000000000000000006020830152604082019050919050565b6000620007e160258362000935565b91507f4572726f723a2063616e6e6f742061646420746f6b656e206174204e6f57686560008301527f7265203a290000000000000000000000000000000000000000000000000000006020830152604082019050919050565b60006200084960278362000935565b91507f4572726f723a2063616e6e6f74206164642061646472657373206174204e6f5760008301527f68657265203a29000000000000000000000000000000000000000000000000006020830152604082019050919050565b6000604082019050620008b9600083018562000759565b620008c8602083018462000759565b9392505050565b60006020820190508181036000830152620008ea816200076a565b9050919050565b600060208201905081810360008301526200090c81620007d2565b9050919050565b600060208201905081810360008301526200092e816200083a565b9050919050565b600082825260208201905092915050565b600062000953826200096e565b9050919050565b600062000967826200096e565b9050919050565b600073ffffffffffffffffffffffffffffffffffffffff82169050919050565b620009998162000946565b8114620009a557600080fd5b50565b620009b3816200095a565b8114620009bf57600080fd5b50565b61222880620009d26000396000f3fe6080604052600436106100c65760003560e01c80639b18182a1161007f578063c21ebd0711610059578063c21ebd07146101fd578063db2e21bc14610228578063e4fcf3291461023f578063f41377ca14610268576100c7565b80639b18182a14610192578063b8c9d25c146101a9578063c0d78655146101d4576100c7565b806313af4035146100c95780636131a129146100f25780636408406f14610109578063658030b31461013257806391ac094c1461015d5780639ab1b48414610188576100c7565b5b005b3480156100d557600080fd5b506100f060048036038101906100eb91906118a4565b610291565b005b3480156100fe57600080fd5b50610107610365565b005b34801561011557600080fd5b50610130600480360381019061012b91906118a4565b6104c6565b005b34801561013e57600080fd5b5061014761064a565b6040516101549190611e45565b60405180910390f35b34801561016957600080fd5b5061017261066f565b60405161017f9190611d94565b60405180910390f35b610190610695565b005b34801561019e57600080fd5b506101a7610a11565b005b3480156101b557600080fd5b506101be610c38565b6040516101cb9190611e60565b60405180910390f35b3480156101e057600080fd5b506101fb60048036038101906101f691906118f6565b610c5e565b005b34801561020957600080fd5b50610212610f69565b60405161021f9190611e7b565b60405180910390f35b34801561023457600080fd5b5061023d610f8f565b005b34801561024b57600080fd5b5061026660048036038101906102619190611948565b611248565b005b34801561027457600080fd5b5061028f600480360381019061028a91906118f6565b6112e2565b005b600160009054906101000a900473ffffffffffffffffffffffffffffffffffffffff1673ffffffffffffffffffffffffffffffffffffffff163373ffffffffffffffffffffffffffffffffffffffff1614610321576040517f08c379a000000000000000000000000000000000000000000000000000000000815260040161031890611f24565b60405180910390fd5b80600160006101000a81548173ffffffffffffffffffffffffffffffffffffffff021916908373ffffffffffffffffffffffffffffffffffffffff16021790555050565b3373ffffffffffffffffffffffffffffffffffffffff16600160009054906101000a900473ffffffffffffffffffffffffffffffffffffffff1673ffffffffffffffffffffffffffffffffffffffff16146103f5576040517f08c379a00000000000000000000000000000000000000000000000000000000081526004016103ec90611f04565b60405180910390fd5b6000600260009054906101000a900473ffffffffffffffffffffffffffffffffffffffff1673ffffffffffffffffffffffffffffffffffffffff164760405161043d90611d7f565b60006040518083038185875af1925050503d806000811461047a576040519150601f19603f3d011682016040523d82523d6000602084013e61047f565b606091505b50509050806104c3576040517f08c379a00000000000000000000000000000000000000000000000000000000081526004016104ba90611fc4565b60405180910390fd5b50565b600160009054906101000a900473ffffffffffffffffffffffffffffffffffffffff1673ffffffffffffffffffffffffffffffffffffffff163373ffffffffffffffffffffffffffffffffffffffff1614610556576040517f08c379a000000000000000000000000000000000000000000000000000000000815260040161054d90611f24565b60405180910390fd5b600073ffffffffffffffffffffffffffffffffffffffff168173ffffffffffffffffffffffffffffffffffffffff1614156105c6576040517f08c379a00000000000000000000000000000000000000000000000000000000081526004016105bd90611f44565b60405180910390fd5b806000806101000a81548173ffffffffffffffffffffffffffffffffffffffff021916908373ffffffffffffffffffffffffffffffffffffffff16021790555080600560006101000a81548173ffffffffffffffffffffffffffffffffffffffff021916908373ffffffffffffffffffffffffffffffffffffffff16021790555050565b6000809054906101000a900473ffffffffffffffffffffffffffffffffffffffff1681565b600560009054906101000a900473ffffffffffffffffffffffffffffffffffffffff1681565b60003410156106d9576040517f08c379a00000000000000000000000000000000000000000000000000000000081526004016106d090611fa4565b60405180910390fd5b60008060009054906101000a900473ffffffffffffffffffffffffffffffffffffffff1673ffffffffffffffffffffffffffffffffffffffff166370a08231306040518263ffffffff1660e01b81526004016107359190611daf565b60206040518083038186803b15801561074d57600080fd5b505afa158015610761573d6000803e3d6000fd5b505050506040513d601f19601f820116820180604052508101906107859190611971565b905061079034611426565b60008060009054906101000a900473ffffffffffffffffffffffffffffffffffffffff1673ffffffffffffffffffffffffffffffffffffffff166370a08231306040518263ffffffff1660e01b81526004016107ec9190611daf565b60206040518083038186803b15801561080457600080fd5b505afa158015610818573d6000803e3d6000fd5b505050506040513d601f19601f8201168201806040525081019061083c9190611971565b90506000610853838361166690919063ffffffff16565b9050600068056bc75e2d6310000090508082111561086f578091505b6000610899606461088b600654866116b090919063ffffffff16565b61172090919063ffffffff16565b9050808301841061095a576000809054906101000a900473ffffffffffffffffffffffffffffffffffffffff1673ffffffffffffffffffffffffffffffffffffffff1663a9059cbb338386016040518363ffffffff1660e01b8152600401610902929190611dca565b602060405180830381600087803b15801561091c57600080fd5b505af1158015610930573d6000803e3d6000fd5b505050506040513d601f19601f82011682018060405250810190610954919061191f565b50610a0a565b6000809054906101000a900473ffffffffffffffffffffffffffffffffffffffff1673ffffffffffffffffffffffffffffffffffffffff1663a9059cbb33856040518363ffffffff1660e01b81526004016109b6929190611dca565b602060405180830381600087803b1580156109d057600080fd5b505af11580156109e4573d6000803e3d6000fd5b505050506040513d601f19601f82011682018060405250810190610a08919061191f565b505b5050505050565b60007fffffffffffffffffffffffffffffffffffffffffffffffffffffffffffffffff9050600360009054906101000a900473ffffffffffffffffffffffffffffffffffffffff1673ffffffffffffffffffffffffffffffffffffffff1663ad5c46486040518163ffffffff1660e01b815260040160206040518083038186803b158015610a9e57600080fd5b505afa158015610ab2573d6000803e3d6000fd5b505050506040513d601f19601f82011682018060405250810190610ad691906118cd565b73ffffffffffffffffffffffffffffffffffffffff1663095ea7b330836040518363ffffffff1660e01b8152600401610b10929190611dca565b602060405180830381600087803b158015610b2a57600080fd5b505af1158015610b3e573d6000803e3d6000fd5b505050506040513d601f19601f82011682018060405250810190610b62919061191f565b50600560009054906101000a900473ffffffffffffffffffffffffffffffffffffffff1673ffffffffffffffffffffffffffffffffffffffff1663095ea7b3600360009054906101000a900473ffffffffffffffffffffffffffffffffffffffff16836040518363ffffffff1660e01b8152600401610be2929190611e1c565b602060405180830381600087803b158015610bfc57600080fd5b505af1158015610c10573d6000803e3d6000fd5b505050506040513d601f19601f82011682018060405250810190610c34919061191f565b5050565b600460009054906101000a900473ffffffffffffffffffffffffffffffffffffffff1681565b600160009054906101000a900473ffffffffffffffffffffffffffffffffffffffff1673ffffffffffffffffffffffffffffffffffffffff163373ffffffffffffffffffffffffffffffffffffffff1614610cee576040517f08c379a0000000000000000000000000000000000000000000000000000000008152600401610ce590611f24565b60405180910390fd5b80600360006101000a81548173ffffffffffffffffffffffffffffffffffffffff021916908373ffffffffffffffffffffffffffffffffffffffff1602179055506000600360009054906101000a900473ffffffffffffffffffffffffffffffffffffffff1673ffffffffffffffffffffffffffffffffffffffff1663c45a01556040518163ffffffff1660e01b815260040160206040518083038186803b158015610d9957600080fd5b505afa158015610dad573d6000803e3d6000fd5b505050506040513d601f19601f82011682018060405250810190610dd191906118cd565b905060008173ffffffffffffffffffffffffffffffffffffffff1663e6a43905600560009054906101000a900473ffffffffffffffffffffffffffffffffffffffff16600360009054906101000a900473ffffffffffffffffffffffffffffffffffffffff1673ffffffffffffffffffffffffffffffffffffffff1663ad5c46486040518163ffffffff1660e01b815260040160206040518083038186803b158015610e7c57600080fd5b505afa158015610e90573d6000803e3d6000fd5b505050506040513d601f19601f82011682018060405250810190610eb491906118cd565b6040518363ffffffff1660e01b8152600401610ed1929190611df3565b60206040518083038186803b158015610ee957600080fd5b505afa158015610efd573d6000803e3d6000fd5b505050506040513d601f19601f82011682018060405250810190610f2191906118cd565b905080600460006101000a81548173ffffffffffffffffffffffffffffffffffffffff021916908373ffffffffffffffffffffffffffffffffffffffff160217905550505050565b600360009054906101000a900473ffffffffffffffffffffffffffffffffffffffff1681565b600160009054906101000a900473ffffffffffffffffffffffffffffffffffffffff1673ffffffffffffffffffffffffffffffffffffffff163373ffffffffffffffffffffffffffffffffffffffff161461101f576040517f08c379a000000000000000000000000000000000000000000000000000000000815260040161101690611f24565b60405180910390fd5b6000809054906101000a900473ffffffffffffffffffffffffffffffffffffffff1673ffffffffffffffffffffffffffffffffffffffff1663a9059cbb336000809054906101000a900473ffffffffffffffffffffffffffffffffffffffff1673ffffffffffffffffffffffffffffffffffffffff166370a08231306040518263ffffffff1660e01b81526004016110b79190611daf565b60206040518083038186803b1580156110cf57600080fd5b505afa1580156110e3573d6000803e3d6000fd5b505050506040513d601f19601f820116820180604052508101906111079190611971565b6040518363ffffffff1660e01b8152600401611124929190611dca565b602060405180830381600087803b15801561113e57600080fd5b505af1158015611152573d6000803e3d6000fd5b505050506040513d601f19601f82011682018060405250810190611176919061191f565b506000600260009054906101000a900473ffffffffffffffffffffffffffffffffffffffff1673ffffffffffffffffffffffffffffffffffffffff16476040516111bf90611d7f565b60006040518083038185875af1925050503d80600081146111fc576040519150601f19603f3d011682016040523d82523d6000602084013e611201565b606091505b5050905080611245576040517f08c379a000000000000000000000000000000000000000000000000000000000815260040161123c90611fc4565b60405180910390fd5b50565b600160009054906101000a900473ffffffffffffffffffffffffffffffffffffffff1673ffffffffffffffffffffffffffffffffffffffff163373ffffffffffffffffffffffffffffffffffffffff16146112d8576040517f08c379a00000000000000000000000000000000000000000000000000000000081526004016112cf90611f24565b60405180910390fd5b8060068190555050565b600160009054906101000a900473ffffffffffffffffffffffffffffffffffffffff1673ffffffffffffffffffffffffffffffffffffffff163373ffffffffffffffffffffffffffffffffffffffff1614611372576040517f08c379a000000000000000000000000000000000000000000000000000000000815260040161136990611f24565b60405180910390fd5b600073ffffffffffffffffffffffffffffffffffffffff168173ffffffffffffffffffffffffffffffffffffffff1614156113e2576040517f08c379a00000000000000000000000000000000000000000000000000000000081526004016113d990611f64565b60405180910390fd5b80600260006101000a81548173ffffffffffffffffffffffffffffffffffffffff021916908373ffffffffffffffffffffffffffffffffffffffff16021790555050565b6060600267ffffffffffffffff8111801561144057600080fd5b5060405190808252806020026020018201604052801561146f5781602001602082028036833780820191505090505b509050600360009054906101000a900473ffffffffffffffffffffffffffffffffffffffff1673ffffffffffffffffffffffffffffffffffffffff1663ad5c46486040518163ffffffff1660e01b815260040160206040518083038186803b1580156114da57600080fd5b505afa1580156114ee573d6000803e3d6000fd5b505050506040513d601f19601f8201168201806040525081019061151291906118cd565b8160008151811061151f57fe5b602002602001019073ffffffffffffffffffffffffffffffffffffffff16908173ffffffffffffffffffffffffffffffffffffffff1681525050600560009054906101000a900473ffffffffffffffffffffffffffffffffffffffff168160018151811061158957fe5b602002602001019073ffffffffffffffffffffffffffffffffffffffff16908173ffffffffffffffffffffffffffffffffffffffff16815250506000349050600360009054906101000a900473ffffffffffffffffffffffffffffffffffffffff1673ffffffffffffffffffffffffffffffffffffffff1663b6f9de95826000853061016842016040518663ffffffff1660e01b815260040161162f9493929190611e96565b6000604051808303818588803b15801561164857600080fd5b505af115801561165c573d6000803e3d6000fd5b5050505050505050565b60006116a883836040518060400160405280601e81526020017f536166654d6174683a207375627472616374696f6e206f766572666c6f77000081525061176a565b905092915050565b6000808314156116c3576000905061171a565b60008284029050828482816116d457fe5b0414611715576040517f08c379a000000000000000000000000000000000000000000000000000000000815260040161170c90611f84565b60405180910390fd5b809150505b92915050565b600061176283836040518060400160405280601a81526020017f536166654d6174683a206469766973696f6e206279207a65726f0000000000008152506117c5565b905092915050565b60008383111582906117b2576040517f08c379a00000000000000000000000000000000000000000000000000000000081526004016117a99190611ee2565b60405180910390fd5b5060008385039050809150509392505050565b6000808311829061180c576040517f08c379a00000000000000000000000000000000000000000000000000000000081526004016118039190611ee2565b60405180910390fd5b50600083858161181857fe5b049050809150509392505050565b60008135905061183581612196565b92915050565b60008151905061184a81612196565b92915050565b60008135905061185f816121ad565b92915050565b600081519050611874816121c4565b92915050565b600081359050611889816121db565b92915050565b60008151905061189e816121db565b92915050565b6000602082840312156118b657600080fd5b60006118c484828501611826565b91505092915050565b6000602082840312156118df57600080fd5b60006118ed8482850161183b565b91505092915050565b60006020828403121561190857600080fd5b600061191684828501611850565b91505092915050565b60006020828403121561193157600080fd5b600061193f84828501611865565b91505092915050565b60006020828403121561195a57600080fd5b60006119688482850161187a565b91505092915050565b60006020828403121561198357600080fd5b60006119918482850161188f565b91505092915050565b60006119a683836119c1565b60208301905092915050565b6119bb8161209e565b82525050565b6119ca81612044565b82525050565b6119d981612044565b82525050565b60006119ea82611ff4565b6119f48185612017565b93506119ff83611fe4565b8060005b83811015611a30578151611a17888261199a565b9750611a228361200a565b925050600181019050611a03565b5085935050505092915050565b611a46816120b0565b82525050565b611a55816120d4565b82525050565b611a64816120f8565b82525050565b611a738161211c565b82525050565b6000611a8482611fff565b611a8e8185612033565b9350611a9e818560208601612152565b611aa781612185565b840191505092915050565b6000611abf602983612033565b91507f4572726f723a206f6e6c79206f776e65722063616e2063616c6c20666f72207760008301527f69746864726177616c00000000000000000000000000000000000000000000006020830152604082019050919050565b6000611b25602e83612033565b91507f4572726f723a204f6e6c79206f776e65722063616e2068616e646c652074686960008301527f73206f7065726174696f6e203b290000000000000000000000000000000000006020830152604082019050919050565b6000611b8b602583612033565b91507f4572726f723a2063616e6e6f742061646420746f6b656e206174204e6f57686560008301527f7265203a290000000000000000000000000000000000000000000000000000006020830152604082019050919050565b6000611bf1602783612033565b91507f4572726f723a2063616e6e6f74206164642061646472657373206174204e6f5760008301527f68657265203a29000000000000000000000000000000000000000000000000006020830152604082019050919050565b6000611c57602183612033565b91507f536166654d6174683a206d756c7469706c69636174696f6e206f766572666c6f60008301527f77000000000000000000000000000000000000000000000000000000000000006020830152604082019050919050565b6000611cbd601f83612033565b91507f4572726f723a20656d70747920746178206973206e6f7420616c6c6f776564006000830152602082019050919050565b6000611cfd600083612028565b9150600082019050919050565b6000611d17603083612033565b91507f4572726f723a2043616e6e6f7420776974686472617720746f2074686520666f60008301527f756e646174696f6e2061646472657373000000000000000000000000000000006020830152604082019050919050565b611d7981612094565b82525050565b6000611d8a82611cf0565b9150819050919050565b6000602082019050611da960008301846119d0565b92915050565b6000602082019050611dc460008301846119b2565b92915050565b6000604082019050611ddf60008301856119b2565b611dec6020830184611d70565b9392505050565b6000604082019050611e0860008301856119d0565b611e1560208301846119d0565b9392505050565b6000604082019050611e3160008301856119d0565b611e3e6020830184611d70565b9392505050565b6000602082019050611e5a6000830184611a3d565b92915050565b6000602082019050611e756000830184611a4c565b92915050565b6000602082019050611e906000830184611a5b565b92915050565b6000608082019050611eab6000830187611a6a565b8181036020830152611ebd81866119df565b9050611ecc60408301856119b2565b611ed96060830184611d70565b95945050505050565b60006020820190508181036000830152611efc8184611a79565b905092915050565b60006020820190508181036000830152611f1d81611ab2565b9050919050565b60006020820190508181036000830152611f3d81611b18565b9050919050565b60006020820190508181036000830152611f5d81611b7e565b9050919050565b60006020820190508181036000830152611f7d81611be4565b9050919050565b60006020820190508181036000830152611f9d81611c4a565b9050919050565b60006020820190508181036000830152611fbd81611cb0565b9050919050565b60006020820190508181036000830152611fdd81611d0a565b9050919050565b6000819050602082019050919050565b600081519050919050565b600081519050919050565b6000602082019050919050565b600082825260208201905092915050565b600081905092915050565b600082825260208201905092915050565b600061204f82612074565b9050919050565b600061206182612074565b9050919050565b60008115159050919050565b600073ffffffffffffffffffffffffffffffffffffffff82169050919050565b6000819050919050565b60006120a98261212e565b9050919050565b60006120bb826120c2565b9050919050565b60006120cd82612074565b9050919050565b60006120df826120e6565b9050919050565b60006120f182612074565b9050919050565b60006121038261210a565b9050919050565b600061211582612074565b9050919050565b600061212782612094565b9050919050565b600061213982612140565b9050919050565b600061214b82612074565b9050919050565b60005b83811015612170578082015181840152602081019050612155565b8381111561217f576000848401525b50505050565b6000601f19601f8301169050919050565b61219f81612044565b81146121aa57600080fd5b50565b6121b681612056565b81146121c157600080fd5b50565b6121cd81612068565b81146121d857600080fd5b50565b6121e481612094565b81146121ef57600080fd5b5056fea2646970667358221220ca0b1a02afb1223caa27bc7e456df6dde171af8d144e1c238ad126da66aa1ce064736f6c63430006080033",
  "linkReferences": {},
  "deployedLinkReferences": {}
}