{
  "contractName": "AirdropLander",
  "abi": [
    {
      "inputs": [
        {
          "internalType": "address",
          "name": "_tokenInstance",
          "type": "address"
        },
        {
          "internalType": "uint256",
          "name": "_claimableAmount",
          "type": "uint256"
        },
        {
          "internalType": "uint256",
          "name": "_nextPeriodWaitTime",
          "type": "uint256"
        },
        {
          "internalType": "uint256",
          "name": "_bonusMinRate",
          "type": "uint256"
        },
        {
          "internalType": "uint256",
          "name": "_bonusMaxRate",
          "type": "uint256"
        }
      ],
      "stateMutability": "nonpayable",
      "type": "constructor"
    },
    {
      "inputs": [],
      "name": "bonusMaxRate",
      "outputs": [
        {
          "internalType": "uint256",
          "name": "",
          "type": "uint256"
        }
      ],
      "stateMutability": "view",
      "type": "function",
      "constant": true
    },
    {
      "inputs": [],
      "name": "bonusMinRate",
      "outputs": [
        {
          "internalType": "uint256",
          "name": "",
          "type": "uint256"
        }
      ],
      "stateMutability": "view",
      "type": "function",
      "constant": true
    },
    {
      "inputs": [],
      "name": "claimableAmount",
      "outputs": [
        {
          "internalType": "uint256",
          "name": "",
          "type": "uint256"
        }
      ],
      "stateMutability": "view",
      "type": "function",
      "constant": true
    },
    {
      "inputs": [],
      "name": "nextPeriodWaitTime",
      "outputs": [
        {
          "internalType": "uint256",
          "name": "",
          "type": "uint256"
        }
      ],
      "stateMutability": "view",
      "type": "function",
      "constant": true
    },
    {
      "inputs": [],
      "name": "owner",
      "outputs": [
        {
          "internalType": "address",
          "name": "",
          "type": "address"
        }
      ],
      "stateMutability": "view",
      "type": "function",
      "constant": true
    },
    {
      "inputs": [
        {
          "internalType": "address",
          "name": "",
          "type": "address"
        }
      ],
      "name": "participantWaitTime",
      "outputs": [
        {
          "internalType": "uint256",
          "name": "",
          "type": "uint256"
        }
      ],
      "stateMutability": "view",
      "type": "function",
      "constant": true
    },
    {
      "inputs": [],
      "name": "tokenInstance",
      "outputs": [
        {
          "internalType": "contract ERC20UpgradeSafe",
          "name": "",
          "type": "address"
        }
      ],
      "stateMutability": "view",
      "type": "function",
      "constant": true
    },
    {
      "inputs": [
        {
          "internalType": "address",
          "name": "who",
          "type": "address"
        }
      ],
      "name": "participantWaitTimeOf",
      "outputs": [
        {
          "internalType": "uint256",
          "name": "",
          "type": "uint256"
        }
      ],
      "stateMutability": "view",
      "type": "function",
      "constant": true
    },
    {
      "inputs": [],
      "name": "requestTokens",
      "outputs": [
        {
          "internalType": "uint256",
          "name": "",
          "type": "uint256"
        }
      ],
      "stateMutability": "nonpayable",
      "type": "function"
    }
  ],
  "bytecode": "0x60806040523480156200001157600080fd5b506040516200119e3803806200119e833981810160405260a08110156200003757600080fd5b810190808051906020019092919080519060200190929190805190602001909291908051906020019092919080519060200190929190505050600073ffffffffffffffffffffffffffffffffffffffff168573ffffffffffffffffffffffffffffffffffffffff161415620000f8576040517f08c379a0000000000000000000000000000000000000000000000000000000008152600401808060200182810382526025815260200180620010ac6025913960400191505060405180910390fd5b846000806101000a81548173ffffffffffffffffffffffffffffffffffffffff021916908373ffffffffffffffffffffffffffffffffffffffff16021790555033600360006101000a81548173ffffffffffffffffffffffffffffffffffffffff021916908373ffffffffffffffffffffffffffffffffffffffff1602179055506200018a84620001b860201b60201c565b6200019b836200038e60201b60201c565b620001ad82826200049c60201b60201c565b50505050506200063b565b3373ffffffffffffffffffffffffffffffffffffffff16600360009054906101000a900473ffffffffffffffffffffffffffffffffffffffff1673ffffffffffffffffffffffffffffffffffffffff161462000260576040517f08c379a000000000000000000000000000000000000000000000000000000000815260040180806020018281038252602d81526020018062001144602d913960400191505060405180910390fd5b60008111620002bb576040517f08c379a0000000000000000000000000000000000000000000000000000000008152600401808060200182810382526026815260200180620010f26026913960400191505060405180910390fd5b60008060009054906101000a900473ffffffffffffffffffffffffffffffffffffffff1673ffffffffffffffffffffffffffffffffffffffff1663313ce5676040518163ffffffff1660e01b815260040160206040518083038186803b1580156200032557600080fd5b505afa1580156200033a573d6000803e3d6000fd5b505050506040513d60208110156200035157600080fd5b810190808051906020019092919050505060ff1690506200038481600a0a83620005b060201b620006911790919060201c565b6001819055505050565b3373ffffffffffffffffffffffffffffffffffffffff16600360009054906101000a900473ffffffffffffffffffffffffffffffffffffffff1673ffffffffffffffffffffffffffffffffffffffff161462000436576040517f08c379a00000000000000000000000000000000000000000000000000000000081526004018080602001828103825260268152602001806200105f6026913960400191505060405180910390fd5b603c81101562000492576040517f08c379a000000000000000000000000000000000000000000000000000000000815260040180806020018281038252602d81526020018062001171602d913960400191505060405180910390fd5b8060048190555050565b3373ffffffffffffffffffffffffffffffffffffffff16600360009054906101000a900473ffffffffffffffffffffffffffffffffffffffff1673ffffffffffffffffffffffffffffffffffffffff161462000544576040517f08c379a0000000000000000000000000000000000000000000000000000000008152600401808060200182810382526027815260200180620010856027913960400191505060405180910390fd5b8082106200059e576040517f08c379a000000000000000000000000000000000000000000000000000000000815260040180806020018281038252602c81526020018062001118602c913960400191505060405180910390fd5b81600581905550806006819055505050565b600080831415620005c5576000905062000635565b6000828402905082848281620005d757fe5b041462000630576040517f08c379a0000000000000000000000000000000000000000000000000000000008152600401808060200182810382526021815260200180620010d16021913960400191505060405180910390fd5b809150505b92915050565b610a14806200064b6000396000f3fe608060405234801561001057600080fd5b50600436106100935760003560e01c806399a550bc1161006657806399a550bc146101a25780639dd463e3146101c0578063a556f84614610218578063f2f7f6ac14610236578063f95df60a1461025457610093565b8063359cf2b714610098578063658030b3146100b65780638da5cb5b146101005780638e7f15da1461014a575b600080fd5b6100a0610272565b6040518082815260200191505060405180910390f35b6100be6105cd565b604051808273ffffffffffffffffffffffffffffffffffffffff1673ffffffffffffffffffffffffffffffffffffffff16815260200191505060405180910390f35b6101086105f2565b604051808273ffffffffffffffffffffffffffffffffffffffff1673ffffffffffffffffffffffffffffffffffffffff16815260200191505060405180910390f35b61018c6004803603602081101561016057600080fd5b81019080803573ffffffffffffffffffffffffffffffffffffffff169060200190929190505050610618565b6040518082815260200191505060405180910390f35b6101aa610630565b6040518082815260200191505060405180910390f35b610202600480360360208110156101d657600080fd5b81019080803573ffffffffffffffffffffffffffffffffffffffff169060200190929190505050610636565b6040518082815260200191505060405180910390f35b61022061067f565b6040518082815260200191505060405180910390f35b61023e610685565b6040518082815260200191505060405180910390f35b61025c61068b565b6040518082815260200191505060405180910390f35b60008061027d610717565b905060006102a9606461029b8460015461069190919063ffffffff16565b61077790919063ffffffff16565b90506000816000809054906101000a900473ffffffffffffffffffffffffffffffffffffffff1673ffffffffffffffffffffffffffffffffffffffff166370a08231306040518263ffffffff1660e01b8152600401808273ffffffffffffffffffffffffffffffffffffffff1673ffffffffffffffffffffffffffffffffffffffff16815260200191505060206040518083038186803b15801561034c57600080fd5b505afa158015610360573d6000803e3d6000fd5b505050506040513d602081101561037657600080fd5b810190808051906020019092919050505003905060008113610400576040517f08c379a00000000000000000000000000000000000000000000000000000000081526004018080602001828103825260208152602001807f4572726f723a20636f6e74726163742066756e6420697320657863656564656481525060200191505060405180910390fd5b42600260003373ffffffffffffffffffffffffffffffffffffffff1673ffffffffffffffffffffffffffffffffffffffff168152602001908152602001600020541115610498576040517f08c379a000000000000000000000000000000000000000000000000000000000815260040180806020018281038252602b815260200180610993602b913960400191505060405180910390fd5b6000809054906101000a900473ffffffffffffffffffffffffffffffffffffffff1673ffffffffffffffffffffffffffffffffffffffff1663a9059cbb33846040518363ffffffff1660e01b8152600401808373ffffffffffffffffffffffffffffffffffffffff1673ffffffffffffffffffffffffffffffffffffffff16815260200182815260200192505050602060405180830381600087803b15801561054057600080fd5b505af1158015610554573d6000803e3d6000fd5b505050506040513d602081101561056a57600080fd5b8101908080519060200190929190505050506004544201600260003373ffffffffffffffffffffffffffffffffffffffff1673ffffffffffffffffffffffffffffffffffffffff1681526020019081526020016000208190555081935050505090565b6000809054906101000a900473ffffffffffffffffffffffffffffffffffffffff1681565b600360009054906101000a900473ffffffffffffffffffffffffffffffffffffffff1681565b60026020528060005260406000206000915090505481565b60045481565b6000600260008373ffffffffffffffffffffffffffffffffffffffff1673ffffffffffffffffffffffffffffffffffffffff168152602001908152602001600020549050919050565b60015481565b60055481565b60065481565b6000808314156106a45760009050610711565b60008284029050828482816106b557fe5b041461070c576040517f08c379a00000000000000000000000000000000000000000000000000000000081526004018080602001828103825260218152602001806109be6021913960400191505060405180910390fd5b809150505b92915050565b600080444260405160200180838152602001828152602001925050506040516020818303038152906040528051906020012060001c9050600060055461076c60055460065403846107c190919063ffffffff16565b019050809250505090565b60006107b983836040518060400160405280601a81526020017f536166654d6174683a206469766973696f6e206279207a65726f00000000000081525061080b565b905092915050565b600061080383836040518060400160405280601881526020017f536166654d6174683a206d6f64756c6f206279207a65726f00000000000000008152506108d1565b905092915050565b600080831182906108b7576040517f08c379a00000000000000000000000000000000000000000000000000000000081526004018080602001828103825283818151815260200191508051906020019080838360005b8381101561087c578082015181840152602081019050610861565b50505050905090810190601f1680156108a95780820380516001836020036101000a031916815260200191505b509250505060405180910390fd5b5060008385816108c357fe5b049050809150509392505050565b600080831415829061097e576040517f08c379a00000000000000000000000000000000000000000000000000000000081526004018080602001828103825283818151815260200191508051906020019080838360005b83811015610943578082015181840152602081019050610928565b50505050905090810190601f1680156109705780820380516001836020036101000a031916815260200191505b509250505060405180910390fd5b5082848161098857fe5b069050939250505056fe4572726f723a207061727469636970616e7420776169742074696d65206973206e6f742072656163686564536166654d6174683a206d756c7469706c69636174696f6e206f766572666c6f77a264697066735822122012f15985c79984c2acbc0725073c628c6cbabfe3174cb06c607f03b172938c1d64736f6c634300060800334572726f723a206f6e6c79206f776e65722063616e2061646a75737420776169742074696d654572726f723a206f6e6c79206f776e65722063616e2061646a75737420626f6e757320726174654572726f723a2063616e6e6f742061646420746f6b656e206174204e6f5768657265203a29536166654d6174683a206d756c7469706c69636174696f6e206f766572666c6f774572726f723a20636c61696d61626c6520616d6f756e742063616e6e6f74206265207a65726f4572726f723a2066726f6d2076616c7565206d757374206265206c657373207468616e20746f2076616c75654572726f723a206f6e6c79206f776e65722063616e2061646a75737420636c61696d61626c6520616d6f756e744572726f723a20576169742074696d652073686f756c64206265206174206c656173742031206d696e75746573",
  "immutableReferences": {},
  "source": "pragma solidity >=0.6.8;\n\nimport \"@openzeppelin/contracts-ethereum-package/contracts/math/SafeMath.sol\";\nimport \"../lib/ERC20.sol\";\n\ncontract AirdropLander {\n    using SafeMath for uint256;\n\n    ERC20UpgradeSafe public tokenInstance;\n\n    uint256 public claimableAmount;\n\n    mapping(address => uint256) public participantWaitTime;\n\n    address public owner;\n\n    uint256 public nextPeriodWaitTime; // in sec value\n\n    uint256 public bonusMinRate;\n\n    uint256 public bonusMaxRate;\n\n    constructor(\n        address _tokenInstance,\n        uint256 _claimableAmount,\n        uint256 _nextPeriodWaitTime,\n        uint256 _bonusMinRate,\n        uint256 _bonusMaxRate\n    ) public {\n        require(_tokenInstance != address(0), 'Error: cannot add token at NoWhere :)');\n\n        // set distribution token address\n        tokenInstance = ERC20UpgradeSafe(_tokenInstance);\n\n        // set owner\n        owner = msg.sender;\n\n        // set claimable amount\n        setClaimableAmount(_claimableAmount);\n\n        // set next period wait time\n        setNextPeriodWaitTime(_nextPeriodWaitTime);\n\n        // set next period wait time\n        setBonusRate(_bonusMinRate, _bonusMaxRate);\n    }\n\n    function setBonusRate(uint256 from, uint256 to) private {\n        require(\n            owner == msg.sender,\n            'Error: only owner can adjust bonus rate'\n        );\n\n        require(\n            uint256(from) < uint256(to),\n            'Error: from value must be less than to value'\n        );\n\n        // set bonus rate\n        bonusMinRate = uint256(from);\n        bonusMaxRate = uint256(to);\n    }\n\n    function setNextPeriodWaitTime(uint256 _nextPeriodWaitTime) private {\n        require(\n            owner == msg.sender,\n            'Error: only owner can adjust wait time'\n        );\n        require(uint256(_nextPeriodWaitTime) >= 1 minutes, 'Error: Wait time should be at least 1 minutes');\n\n        // set next period wait time\n        nextPeriodWaitTime = uint256(_nextPeriodWaitTime);\n    }\n\n    function setClaimableAmount(uint256 _claimableAmount) private {\n        require(\n            owner == msg.sender,\n            'Error: only owner can adjust claimable amount'\n        );\n        require(uint256(_claimableAmount) > 0, 'Error: claimable amount cannot be zero');\n\n        uint256 decimals = uint256(tokenInstance.decimals());\n        claimableAmount = uint256(_claimableAmount.mul(10 ** decimals));\n    }\n\n    function calculateBonusRate() private view returns (uint256) {\n        uint256 randomHash = uint256(\n            keccak256(\n                abi.encodePacked(block.difficulty, now)\n            )\n        );\n        uint256 bonusRate = randomHash.mod(bonusMaxRate - bonusMinRate) + bonusMinRate;\n        return bonusRate;\n    }\n\n    function participantWaitTimeOf(address who) public view returns (uint256){\n        return participantWaitTime[who];\n    }\n\n    function requestTokens() public returns (uint256) {\n        // now have some fun, maybe users will receive more than standard rewards\n        uint256 bonusRate = calculateBonusRate();\n        uint256 actualReward = claimableAmount.mul(bonusRate).div(100);\n\n        int256 remainingFund = int256(\n            tokenInstance.balanceOf(address(this))\n        ) - int256(actualReward);\n\n        require(\n            remainingFund > 0,\n            'Error: contract fund is exceeded'\n        );\n\n        require(\n            participantWaitTime[msg.sender] <= block.timestamp,\n            'Error: participant wait time is not reached'\n        );\n\n        tokenInstance.transfer(msg.sender, actualReward);\n        participantWaitTime[msg.sender] = block.timestamp + nextPeriodWaitTime;\n\n        return actualReward;\n    }\n}\n",
  "sourcePath": "/Users/khangtd/Workspace/Cabin/elastic-xbt/elastic-bitcoin-xbt-contract/contracts/airdrop/AirdropLander.sol",
  "compiler": {
    "name": "solc",
    "version": "0.6.8+commit.0bbfe453.Emscripten.clang"
  },
  "schemaVersion": "3.3.3",
  "updatedAt": "2020-12-27T07:36:53.613Z",
  "networkType": "ethereum",
  "devdoc": {
    "methods": {}
  },
  "userdoc": {
    "methods": {}
  }
}