{
  "_format": "hh-sol-artifact-1",
  "contractName": "AirdropLander",
  "sourceName": "contracts/airdrop/AirdropLander.sol",
  "abi": [
    {
      "inputs": [
        {
          "internalType": "address",
          "name": "_tokenInstance",
          "type": "address"
        },
        {
          "internalType": "uint256",
          "name": "_claimableAmount",
          "type": "uint256"
        },
        {
          "internalType": "uint256",
          "name": "_nextPeriodWaitTime",
          "type": "uint256"
        },
        {
          "internalType": "uint256",
          "name": "_bonusMinRate",
          "type": "uint256"
        },
        {
          "internalType": "uint256",
          "name": "_bonusMaxRate",
          "type": "uint256"
        }
      ],
      "stateMutability": "nonpayable",
      "type": "constructor"
    },
    {
      "inputs": [],
      "name": "bonusMaxRate",
      "outputs": [
        {
          "internalType": "uint256",
          "name": "",
          "type": "uint256"
        }
      ],
      "stateMutability": "view",
      "type": "function"
    },
    {
      "inputs": [],
      "name": "bonusMinRate",
      "outputs": [
        {
          "internalType": "uint256",
          "name": "",
          "type": "uint256"
        }
      ],
      "stateMutability": "view",
      "type": "function"
    },
    {
      "inputs": [],
      "name": "claimableAmount",
      "outputs": [
        {
          "internalType": "uint256",
          "name": "",
          "type": "uint256"
        }
      ],
      "stateMutability": "view",
      "type": "function"
    },
    {
      "inputs": [],
      "name": "nextPeriodWaitTime",
      "outputs": [
        {
          "internalType": "uint256",
          "name": "",
          "type": "uint256"
        }
      ],
      "stateMutability": "view",
      "type": "function"
    },
    {
      "inputs": [],
      "name": "owner",
      "outputs": [
        {
          "internalType": "address",
          "name": "",
          "type": "address"
        }
      ],
      "stateMutability": "view",
      "type": "function"
    },
    {
      "inputs": [
        {
          "internalType": "address",
          "name": "",
          "type": "address"
        }
      ],
      "name": "participantWaitTime",
      "outputs": [
        {
          "internalType": "uint256",
          "name": "",
          "type": "uint256"
        }
      ],
      "stateMutability": "view",
      "type": "function"
    },
    {
      "inputs": [
        {
          "internalType": "address",
          "name": "who",
          "type": "address"
        }
      ],
      "name": "participantWaitTimeOf",
      "outputs": [
        {
          "internalType": "uint256",
          "name": "",
          "type": "uint256"
        }
      ],
      "stateMutability": "view",
      "type": "function"
    },
    {
      "inputs": [],
      "name": "requestTokens",
      "outputs": [],
      "stateMutability": "nonpayable",
      "type": "function"
    },
    {
      "inputs": [],
      "name": "tokenInstance",
      "outputs": [
        {
          "internalType": "contract ERC20UpgradeSafe",
          "name": "",
          "type": "address"
        }
      ],
      "stateMutability": "view",
      "type": "function"
    }
  ],
  "bytecode": "0x60806040523480156200001157600080fd5b506040516200118538038062001185833981810160405260a08110156200003757600080fd5b810190808051906020019092919080519060200190929190805190602001909291908051906020019092919080519060200190929190505050600073ffffffffffffffffffffffffffffffffffffffff168573ffffffffffffffffffffffffffffffffffffffff161415620000f8576040517f08c379a0000000000000000000000000000000000000000000000000000000008152600401808060200182810382526025815260200180620010936025913960400191505060405180910390fd5b846000806101000a81548173ffffffffffffffffffffffffffffffffffffffff021916908373ffffffffffffffffffffffffffffffffffffffff16021790555033600360006101000a81548173ffffffffffffffffffffffffffffffffffffffff021916908373ffffffffffffffffffffffffffffffffffffffff1602179055506200018a84620001b860201b60201c565b6200019b836200038e60201b60201c565b620001ad82826200049c60201b60201c565b50505050506200063b565b3373ffffffffffffffffffffffffffffffffffffffff16600360009054906101000a900473ffffffffffffffffffffffffffffffffffffffff1673ffffffffffffffffffffffffffffffffffffffff161462000260576040517f08c379a000000000000000000000000000000000000000000000000000000000815260040180806020018281038252602d8152602001806200112b602d913960400191505060405180910390fd5b60008111620002bb576040517f08c379a0000000000000000000000000000000000000000000000000000000008152600401808060200182810382526026815260200180620010d96026913960400191505060405180910390fd5b60008060009054906101000a900473ffffffffffffffffffffffffffffffffffffffff1673ffffffffffffffffffffffffffffffffffffffff1663313ce5676040518163ffffffff1660e01b815260040160206040518083038186803b1580156200032557600080fd5b505afa1580156200033a573d6000803e3d6000fd5b505050506040513d60208110156200035157600080fd5b810190808051906020019092919050505060ff1690506200038481600a0a83620005b060201b620006781790919060201c565b6001819055505050565b3373ffffffffffffffffffffffffffffffffffffffff16600360009054906101000a900473ffffffffffffffffffffffffffffffffffffffff1673ffffffffffffffffffffffffffffffffffffffff161462000436576040517f08c379a0000000000000000000000000000000000000000000000000000000008152600401808060200182810382526026815260200180620010466026913960400191505060405180910390fd5b603c81101562000492576040517f08c379a000000000000000000000000000000000000000000000000000000000815260040180806020018281038252602d81526020018062001158602d913960400191505060405180910390fd5b8060048190555050565b3373ffffffffffffffffffffffffffffffffffffffff16600360009054906101000a900473ffffffffffffffffffffffffffffffffffffffff1673ffffffffffffffffffffffffffffffffffffffff161462000544576040517f08c379a00000000000000000000000000000000000000000000000000000000081526004018080602001828103825260278152602001806200106c6027913960400191505060405180910390fd5b8082106200059e576040517f08c379a000000000000000000000000000000000000000000000000000000000815260040180806020018281038252602c815260200180620010ff602c913960400191505060405180910390fd5b81600581905550806006819055505050565b600080831415620005c5576000905062000635565b6000828402905082848281620005d757fe5b041462000630576040517f08c379a0000000000000000000000000000000000000000000000000000000008152600401808060200182810382526021815260200180620010b86021913960400191505060405180910390fd5b809150505b92915050565b6109fb806200064b6000396000f3fe608060405234801561001057600080fd5b50600436106100935760003560e01c806399a550bc1161006657806399a550bc1461018e5780639dd463e3146101ac578063a556f84614610204578063f2f7f6ac14610222578063f95df60a1461024057610093565b8063359cf2b714610098578063658030b3146100a25780638da5cb5b146100ec5780638e7f15da14610136575b600080fd5b6100a061025e565b005b6100aa6105b4565b604051808273ffffffffffffffffffffffffffffffffffffffff1673ffffffffffffffffffffffffffffffffffffffff16815260200191505060405180910390f35b6100f46105d9565b604051808273ffffffffffffffffffffffffffffffffffffffff1673ffffffffffffffffffffffffffffffffffffffff16815260200191505060405180910390f35b6101786004803603602081101561014c57600080fd5b81019080803573ffffffffffffffffffffffffffffffffffffffff1690602001909291905050506105ff565b6040518082815260200191505060405180910390f35b610196610617565b6040518082815260200191505060405180910390f35b6101ee600480360360208110156101c257600080fd5b81019080803573ffffffffffffffffffffffffffffffffffffffff16906020019092919050505061061d565b6040518082815260200191505060405180910390f35b61020c610666565b6040518082815260200191505060405180910390f35b61022a61066c565b6040518082815260200191505060405180910390f35b610248610672565b6040518082815260200191505060405180910390f35b60006102686106fe565b9050600061029460646102868460015461067890919063ffffffff16565b61075e90919063ffffffff16565b90506000816000809054906101000a900473ffffffffffffffffffffffffffffffffffffffff1673ffffffffffffffffffffffffffffffffffffffff166370a08231306040518263ffffffff1660e01b8152600401808273ffffffffffffffffffffffffffffffffffffffff1673ffffffffffffffffffffffffffffffffffffffff16815260200191505060206040518083038186803b15801561033757600080fd5b505afa15801561034b573d6000803e3d6000fd5b505050506040513d602081101561036157600080fd5b8101908080519060200190929190505050039050600081136103eb576040517f08c379a00000000000000000000000000000000000000000000000000000000081526004018080602001828103825260208152602001807f4572726f723a20636f6e74726163742066756e6420697320657863656564656481525060200191505060405180910390fd5b42600260003373ffffffffffffffffffffffffffffffffffffffff1673ffffffffffffffffffffffffffffffffffffffff168152602001908152602001600020541115610483576040517f08c379a000000000000000000000000000000000000000000000000000000000815260040180806020018281038252602b81526020018061097a602b913960400191505060405180910390fd5b6000809054906101000a900473ffffffffffffffffffffffffffffffffffffffff1673ffffffffffffffffffffffffffffffffffffffff1663a9059cbb33846040518363ffffffff1660e01b8152600401808373ffffffffffffffffffffffffffffffffffffffff1673ffffffffffffffffffffffffffffffffffffffff16815260200182815260200192505050602060405180830381600087803b15801561052b57600080fd5b505af115801561053f573d6000803e3d6000fd5b505050506040513d602081101561055557600080fd5b8101908080519060200190929190505050506004544201600260003373ffffffffffffffffffffffffffffffffffffffff1673ffffffffffffffffffffffffffffffffffffffff16815260200190815260200160002081905550505050565b6000809054906101000a900473ffffffffffffffffffffffffffffffffffffffff1681565b600360009054906101000a900473ffffffffffffffffffffffffffffffffffffffff1681565b60026020528060005260406000206000915090505481565b60045481565b6000600260008373ffffffffffffffffffffffffffffffffffffffff1673ffffffffffffffffffffffffffffffffffffffff168152602001908152602001600020549050919050565b60015481565b60055481565b60065481565b60008083141561068b57600090506106f8565b600082840290508284828161069c57fe5b04146106f3576040517f08c379a00000000000000000000000000000000000000000000000000000000081526004018080602001828103825260218152602001806109a56021913960400191505060405180910390fd5b809150505b92915050565b600080444260405160200180838152602001828152602001925050506040516020818303038152906040528051906020012060001c9050600060055461075360055460065403846107a890919063ffffffff16565b019050809250505090565b60006107a083836040518060400160405280601a81526020017f536166654d6174683a206469766973696f6e206279207a65726f0000000000008152506107f2565b905092915050565b60006107ea83836040518060400160405280601881526020017f536166654d6174683a206d6f64756c6f206279207a65726f00000000000000008152506108b8565b905092915050565b6000808311829061089e576040517f08c379a00000000000000000000000000000000000000000000000000000000081526004018080602001828103825283818151815260200191508051906020019080838360005b83811015610863578082015181840152602081019050610848565b50505050905090810190601f1680156108905780820380516001836020036101000a031916815260200191505b509250505060405180910390fd5b5060008385816108aa57fe5b049050809150509392505050565b6000808314158290610965576040517f08c379a00000000000000000000000000000000000000000000000000000000081526004018080602001828103825283818151815260200191508051906020019080838360005b8381101561092a57808201518184015260208101905061090f565b50505050905090810190601f1680156109575780820380516001836020036101000a031916815260200191505b509250505060405180910390fd5b5082848161096f57fe5b069050939250505056fe4572726f723a207061727469636970616e7420776169742074696d65206973206e6f742072656163686564536166654d6174683a206d756c7469706c69636174696f6e206f766572666c6f77a2646970667358221220671dc75c5f7c8290da3e70d0488ceeeb0eb0b34a049ebbcec1ba96fb35195d7a64736f6c634300060800334572726f723a206f6e6c79206f776e65722063616e2061646a75737420776169742074696d654572726f723a206f6e6c79206f776e65722063616e2061646a75737420626f6e757320726174654572726f723a2063616e6e6f742061646420746f6b656e206174204e6f5768657265203a29536166654d6174683a206d756c7469706c69636174696f6e206f766572666c6f774572726f723a20636c61696d61626c6520616d6f756e742063616e6e6f74206265207a65726f4572726f723a2066726f6d2076616c7565206d757374206265206c657373207468616e20746f2076616c75654572726f723a206f6e6c79206f776e65722063616e2061646a75737420636c61696d61626c6520616d6f756e744572726f723a20576169742074696d652073686f756c64206265206174206c656173742031206d696e75746573",
  "linkReferences": {},
  "deployedLinkReferences": {}
}