{
  "contractName": "AirdropLander",
  "abi": [
    {
      "inputs": [
        {
          "internalType": "address",
          "name": "_tokenInstance",
          "type": "address"
        },
        {
          "internalType": "uint256",
          "name": "_claimableAmount",
          "type": "uint256"
        },
        {
          "internalType": "uint256",
          "name": "_nextPeriodWaitTime",
          "type": "uint256"
        },
        {
          "internalType": "uint256",
          "name": "_bonusMinRate",
          "type": "uint256"
        },
        {
          "internalType": "uint256",
          "name": "_bonusMaxRate",
          "type": "uint256"
        }
      ],
      "stateMutability": "nonpayable",
      "type": "constructor"
    },
    {
      "inputs": [],
      "name": "claimableAmount",
      "outputs": [
        {
          "internalType": "uint256",
          "name": "",
          "type": "uint256"
        }
      ],
      "stateMutability": "view",
      "type": "function",
      "constant": true
    },
    {
      "inputs": [],
      "name": "tokenInstance",
      "outputs": [
        {
          "internalType": "contract ERC20UpgradeSafe",
          "name": "",
          "type": "address"
        }
      ],
      "stateMutability": "view",
      "type": "function",
      "constant": true
    },
    {
      "inputs": [
        {
          "internalType": "address",
          "name": "who",
          "type": "address"
        }
      ],
      "name": "participantWaitTimeOf",
      "outputs": [
        {
          "internalType": "uint256",
          "name": "",
          "type": "uint256"
        }
      ],
      "stateMutability": "view",
      "type": "function",
      "constant": true
    },
    {
      "inputs": [],
      "name": "requestTokens",
      "outputs": [],
      "stateMutability": "nonpayable",
      "type": "function"
    }
  ],
  "bytecode": "0x60806040523480156200001157600080fd5b5060405162000fed38038062000fed833981810160405260a08110156200003757600080fd5b810190808051906020019092919080519060200190929190805190602001909291908051906020019092919080519060200190929190505050600073ffffffffffffffffffffffffffffffffffffffff168573ffffffffffffffffffffffffffffffffffffffff161415620000f8576040517f08c379a000000000000000000000000000000000000000000000000000000000815260040180806020018281038252602581526020018062000efb6025913960400191505060405180910390fd5b846000806101000a81548173ffffffffffffffffffffffffffffffffffffffff021916908373ffffffffffffffffffffffffffffffffffffffff16021790555033600360006101000a81548173ffffffffffffffffffffffffffffffffffffffff021916908373ffffffffffffffffffffffffffffffffffffffff1602179055506200018a84620001b860201b60201c565b6200019b836200038e60201b60201c565b620001ad82826200049c60201b60201c565b50505050506200063b565b3373ffffffffffffffffffffffffffffffffffffffff16600360009054906101000a900473ffffffffffffffffffffffffffffffffffffffff1673ffffffffffffffffffffffffffffffffffffffff161462000260576040517f08c379a000000000000000000000000000000000000000000000000000000000815260040180806020018281038252602d81526020018062000f93602d913960400191505060405180910390fd5b60008111620002bb576040517f08c379a000000000000000000000000000000000000000000000000000000000815260040180806020018281038252602681526020018062000f416026913960400191505060405180910390fd5b60008060009054906101000a900473ffffffffffffffffffffffffffffffffffffffff1673ffffffffffffffffffffffffffffffffffffffff1663313ce5676040518163ffffffff1660e01b815260040160206040518083038186803b1580156200032557600080fd5b505afa1580156200033a573d6000803e3d6000fd5b505050506040513d60208110156200035157600080fd5b810190808051906020019092919050505060ff1690506200038481600a0a83620005b060201b620004cc1790919060201c565b6001819055505050565b3373ffffffffffffffffffffffffffffffffffffffff16600360009054906101000a900473ffffffffffffffffffffffffffffffffffffffff1673ffffffffffffffffffffffffffffffffffffffff161462000436576040517f08c379a000000000000000000000000000000000000000000000000000000000815260040180806020018281038252602681526020018062000eae6026913960400191505060405180910390fd5b603c81101562000492576040517f08c379a000000000000000000000000000000000000000000000000000000000815260040180806020018281038252602d81526020018062000fc0602d913960400191505060405180910390fd5b8060048190555050565b3373ffffffffffffffffffffffffffffffffffffffff16600360009054906101000a900473ffffffffffffffffffffffffffffffffffffffff1673ffffffffffffffffffffffffffffffffffffffff161462000544576040517f08c379a000000000000000000000000000000000000000000000000000000000815260040180806020018281038252602781526020018062000ed46027913960400191505060405180910390fd5b8082106200059e576040517f08c379a000000000000000000000000000000000000000000000000000000000815260040180806020018281038252602c81526020018062000f67602c913960400191505060405180910390fd5b81600581905550806006819055505050565b600080831415620005c5576000905062000635565b6000828402905082848281620005d757fe5b041462000630576040517f08c379a000000000000000000000000000000000000000000000000000000000815260040180806020018281038252602181526020018062000f206021913960400191505060405180910390fd5b809150505b92915050565b610863806200064b6000396000f3fe608060405234801561001057600080fd5b506004361061004c5760003560e01c8063359cf2b714610051578063658030b31461005b5780639dd463e3146100a5578063a556f846146100fd575b600080fd5b61005961011b565b005b610063610458565b604051808273ffffffffffffffffffffffffffffffffffffffff1673ffffffffffffffffffffffffffffffffffffffff16815260200191505060405180910390f35b6100e7600480360360208110156100bb57600080fd5b81019080803573ffffffffffffffffffffffffffffffffffffffff16906020019092919050505061047d565b6040518082815260200191505060405180910390f35b6101056104c6565b6040518082815260200191505060405180910390f35b6000610139610128610552565b6001546104cc90919063ffffffff16565b90506000816000809054906101000a900473ffffffffffffffffffffffffffffffffffffffff1673ffffffffffffffffffffffffffffffffffffffff166370a08231306040518263ffffffff1660e01b8152600401808273ffffffffffffffffffffffffffffffffffffffff1673ffffffffffffffffffffffffffffffffffffffff16815260200191505060206040518083038186803b1580156101dc57600080fd5b505afa1580156101f0573d6000803e3d6000fd5b505050506040513d602081101561020657600080fd5b810190808051906020019092919050505003905060008113610290576040517f08c379a00000000000000000000000000000000000000000000000000000000081526004018080602001828103825260208152602001807f4572726f723a20636f6e74726163742066756e6420697320657863656564656481525060200191505060405180910390fd5b42600260003373ffffffffffffffffffffffffffffffffffffffff1673ffffffffffffffffffffffffffffffffffffffff168152602001908152602001600020541115610328576040517f08c379a000000000000000000000000000000000000000000000000000000000815260040180806020018281038252602b8152602001806107e2602b913960400191505060405180910390fd5b6000809054906101000a900473ffffffffffffffffffffffffffffffffffffffff1673ffffffffffffffffffffffffffffffffffffffff1663a9059cbb33846040518363ffffffff1660e01b8152600401808373ffffffffffffffffffffffffffffffffffffffff1673ffffffffffffffffffffffffffffffffffffffff16815260200182815260200192505050602060405180830381600087803b1580156103d057600080fd5b505af11580156103e4573d6000803e3d6000fd5b505050506040513d60208110156103fa57600080fd5b8101908080519060200190929190505050506004544201600260003373ffffffffffffffffffffffffffffffffffffffff1673ffffffffffffffffffffffffffffffffffffffff168152602001908152602001600020819055505050565b6000809054906101000a900473ffffffffffffffffffffffffffffffffffffffff1681565b6000600260008373ffffffffffffffffffffffffffffffffffffffff1673ffffffffffffffffffffffffffffffffffffffff168152602001908152602001600020549050919050565b60015481565b6000808314156104df576000905061054c565b60008284029050828482816104f057fe5b0414610547576040517f08c379a000000000000000000000000000000000000000000000000000000000815260040180806020018281038252602181526020018061080d6021913960400191505060405180910390fd5b809150505b92915050565b600080444260405160200180838152602001828152602001925050506040516020818303038152906040528051906020012060001c905060006005546105a760055460065403846105c690919063ffffffff16565b0190506105bf6006548261061090919063ffffffff16565b9250505090565b600061060883836040518060400160405280601881526020017f536166654d6174683a206d6f64756c6f206279207a65726f000000000000000081525061065a565b905092915050565b600061065283836040518060400160405280601a81526020017f536166654d6174683a206469766973696f6e206279207a65726f00000000000081525061071b565b905092915050565b6000808314158290610707576040517f08c379a00000000000000000000000000000000000000000000000000000000081526004018080602001828103825283818151815260200191508051906020019080838360005b838110156106cc5780820151818401526020810190506106b1565b50505050905090810190601f1680156106f95780820380516001836020036101000a031916815260200191505b509250505060405180910390fd5b5082848161071157fe5b0690509392505050565b600080831182906107c7576040517f08c379a00000000000000000000000000000000000000000000000000000000081526004018080602001828103825283818151815260200191508051906020019080838360005b8381101561078c578082015181840152602081019050610771565b50505050905090810190601f1680156107b95780820380516001836020036101000a031916815260200191505b509250505060405180910390fd5b5060008385816107d357fe5b04905080915050939250505056fe4572726f723a207061727469636970616e7420776169742074696d65206973206e6f742072656163686564536166654d6174683a206d756c7469706c69636174696f6e206f766572666c6f77a2646970667358221220392d46e63b66676efd3fe083e6534dc8f2195ec4a15a672ae67d332dddb7b72e64736f6c634300060800334572726f723a206f6e6c79206f776e65722063616e2061646a75737420776169742074696d654572726f723a206f6e6c79206f776e65722063616e2061646a75737420626f6e757320726174654572726f723a2063616e6e6f742061646420746f6b656e206174204e6f5768657265203a29536166654d6174683a206d756c7469706c69636174696f6e206f766572666c6f774572726f723a20636c61696d61626c6520616d6f756e742063616e6e6f74206265207a65726f4572726f723a2066726f6d2076616c7565206d757374206265206c657373207468616e20746f2076616c75654572726f723a206f6e6c79206f776e65722063616e2061646a75737420636c61696d61626c6520616d6f756e744572726f723a20576169742074696d652073686f756c64206265206174206c656173742031206d696e75746573",
  "immutableReferences": {},
  "source": "pragma solidity >=0.6.8;\n\nimport \"@openzeppelin/contracts-ethereum-package/contracts/math/SafeMath.sol\";\nimport \"../lib/ERC20.sol\";\n\ncontract AirdropLander {\n    using SafeMath for uint256;\n\n    ERC20UpgradeSafe public tokenInstance;\n\n    uint256 public claimableAmount;\n\n    mapping(address => uint256) participantWaitTime;\n\n    address private owner;\n\n    uint256 private nextPeriodWaitTime; // in sec value\n\n    uint256 private bonusMinRate;\n\n    uint256 private bonusMaxRate;\n\n    constructor(\n        address _tokenInstance,\n        uint256 _claimableAmount,\n        uint256 _nextPeriodWaitTime,\n        uint256 _bonusMinRate,\n        uint256 _bonusMaxRate\n    ) public {\n        require(_tokenInstance != address(0), 'Error: cannot add token at NoWhere :)');\n\n        // set distribution token address\n        tokenInstance = ERC20UpgradeSafe(_tokenInstance);\n\n        // set owner\n        owner = msg.sender;\n\n        // set claimable amount\n        setClaimableAmount(_claimableAmount);\n\n        // set next period wait time\n        setNextPeriodWaitTime(_nextPeriodWaitTime);\n\n        // set next period wait time\n        setBonusRate(_bonusMinRate, _bonusMaxRate);\n    }\n\n    function setBonusRate(uint256 from, uint256 to) private {\n        require(\n            owner == msg.sender,\n            'Error: only owner can adjust bonus rate'\n        );\n\n        require(\n            uint256(from) < uint256(to),\n            'Error: from value must be less than to value'\n        );\n\n        // set bonus rate\n        bonusMinRate = uint256(from);\n        bonusMaxRate = uint256(to);\n    }\n\n    function setNextPeriodWaitTime(uint256 _nextPeriodWaitTime) private {\n        require(\n            owner == msg.sender,\n            'Error: only owner can adjust wait time'\n        );\n        require(uint256(_nextPeriodWaitTime) >= 1 minutes, 'Error: Wait time should be at least 1 minutes');\n\n        // set next period wait time\n        nextPeriodWaitTime = uint256(_nextPeriodWaitTime);\n    }\n\n    function setClaimableAmount(uint256 _claimableAmount) private {\n        require(\n            owner == msg.sender,\n            'Error: only owner can adjust claimable amount'\n        );\n        require(uint256(_claimableAmount) > 0, 'Error: claimable amount cannot be zero');\n\n        uint256 decimals = uint256(tokenInstance.decimals());\n        claimableAmount = uint256(_claimableAmount.mul(10 ** decimals));\n    }\n\n    function calculateBonusRate() private view returns (uint256) {\n        uint256 randomHash = uint256(\n            keccak256(\n                abi.encodePacked(block.difficulty, now)\n            )\n        );\n        uint256 bonusRate = randomHash.mod(bonusMaxRate - bonusMinRate) + bonusMinRate;\n        return bonusRate.div(bonusMaxRate);\n    }\n\n    function participantWaitTimeOf(address who) public view returns (uint256){\n        return participantWaitTime[who];\n    }\n\n    function requestTokens() public {\n        // now have some fun, maybe users will receive more than standard rewards\n        uint256 actualReward = claimableAmount.mul(\n            calculateBonusRate()\n        );\n\n        int256 remainingFund = int256(\n            tokenInstance.balanceOf(address(this))\n        ) - int256(actualReward);\n\n        require(\n            remainingFund > 0,\n            'Error: contract fund is exceeded'\n        );\n\n        require(\n            participantWaitTime[msg.sender] <= block.timestamp,\n            'Error: participant wait time is not reached'\n        );\n\n        tokenInstance.transfer(msg.sender, actualReward);\n        participantWaitTime[msg.sender] = block.timestamp + nextPeriodWaitTime;\n    }\n}\n",
  "sourcePath": "/Users/khangtd/Workspace/Cabin/elastic-xbt/elastic-bitcoin-xbt-contract/contracts/airdrop/AirdropLander.sol",
  "compiler": {
    "name": "solc",
    "version": "0.6.8+commit.0bbfe453.Emscripten.clang"
  },
  "schemaVersion": "3.3.3",
  "updatedAt": "2020-12-27T06:16:31.383Z",
  "networkType": "ethereum",
  "devdoc": {
    "methods": {}
  },
  "userdoc": {
    "methods": {}
  }
}