{
  "_format": "hh-sol-artifact-1",
  "contractName": "FomoLotto",
  "sourceName": "contracts/games/FomoLotto/FomoLotto.sol",
  "abi": [
    {
      "inputs": [],
      "stateMutability": "nonpayable",
      "type": "constructor"
    },
    {
      "stateMutability": "payable",
      "type": "fallback"
    },
    {
      "inputs": [
        {
          "internalType": "address",
          "name": "_primaryToken",
          "type": "address"
        },
        {
          "internalType": "address",
          "name": "_routerAddress",
          "type": "address"
        },
        {
          "internalType": "address payable",
          "name": "airdropFundAddress",
          "type": "address"
        }
      ],
      "name": "activate",
      "outputs": [],
      "stateMutability": "nonpayable",
      "type": "function"
    },
    {
      "inputs": [],
      "name": "activated_",
      "outputs": [
        {
          "internalType": "bool",
          "name": "",
          "type": "bool"
        }
      ],
      "stateMutability": "view",
      "type": "function"
    },
    {
      "inputs": [
        {
          "internalType": "address",
          "name": "_tokenContract",
          "type": "address"
        }
      ],
      "name": "addWhitelist",
      "outputs": [],
      "stateMutability": "nonpayable",
      "type": "function"
    },
    {
      "inputs": [],
      "name": "adminEndRound",
      "outputs": [],
      "stateMutability": "nonpayable",
      "type": "function"
    },
    {
      "inputs": [
        {
          "internalType": "address",
          "name": "playerAddress",
          "type": "address"
        }
      ],
      "name": "burnFundByPlayerAddress",
      "outputs": [],
      "stateMutability": "nonpayable",
      "type": "function"
    },
    {
      "inputs": [],
      "name": "burnFundFee",
      "outputs": [
        {
          "internalType": "uint256",
          "name": "",
          "type": "uint256"
        }
      ],
      "stateMutability": "view",
      "type": "function"
    },
    {
      "inputs": [],
      "name": "burnFund_",
      "outputs": [
        {
          "internalType": "uint256",
          "name": "",
          "type": "uint256"
        }
      ],
      "stateMutability": "view",
      "type": "function"
    },
    {
      "inputs": [],
      "name": "burnFunds",
      "outputs": [],
      "stateMutability": "nonpayable",
      "type": "function"
    },
    {
      "inputs": [
        {
          "internalType": "uint256",
          "name": "_amountIn",
          "type": "uint256"
        },
        {
          "internalType": "bool",
          "name": "useBNB",
          "type": "bool"
        }
      ],
      "name": "buyXidXBN",
      "outputs": [],
      "stateMutability": "payable",
      "type": "function"
    },
    {
      "inputs": [
        {
          "internalType": "uint256",
          "name": "_rID",
          "type": "uint256"
        },
        {
          "internalType": "uint256",
          "name": "_eth",
          "type": "uint256"
        }
      ],
      "name": "calcKeysReceived",
      "outputs": [
        {
          "internalType": "uint256",
          "name": "",
          "type": "uint256"
        }
      ],
      "stateMutability": "view",
      "type": "function"
    },
    {
      "inputs": [
        {
          "internalType": "uint256",
          "name": "_rndInit_",
          "type": "uint256"
        },
        {
          "internalType": "uint256",
          "name": "_rndInc_",
          "type": "uint256"
        },
        {
          "internalType": "uint256",
          "name": "_rndMax_",
          "type": "uint256"
        },
        {
          "internalType": "uint256",
          "name": "_burnFundFee",
          "type": "uint256"
        },
        {
          "internalType": "uint256",
          "name": "_initialBurnFee",
          "type": "uint256"
        }
      ],
      "name": "configRound",
      "outputs": [],
      "stateMutability": "nonpayable",
      "type": "function"
    },
    {
      "inputs": [],
      "name": "emergencyWithdraw",
      "outputs": [],
      "stateMutability": "nonpayable",
      "type": "function"
    },
    {
      "inputs": [],
      "name": "getBuyPrice",
      "outputs": [
        {
          "internalType": "uint256",
          "name": "",
          "type": "uint256"
        }
      ],
      "stateMutability": "view",
      "type": "function"
    },
    {
      "inputs": [],
      "name": "getCurrentRoundInfo",
      "outputs": [
        {
          "internalType": "uint256",
          "name": "",
          "type": "uint256"
        },
        {
          "internalType": "uint256",
          "name": "",
          "type": "uint256"
        },
        {
          "internalType": "uint256",
          "name": "",
          "type": "uint256"
        },
        {
          "internalType": "uint256",
          "name": "",
          "type": "uint256"
        },
        {
          "internalType": "uint256",
          "name": "",
          "type": "uint256"
        },
        {
          "internalType": "uint256",
          "name": "",
          "type": "uint256"
        },
        {
          "internalType": "address",
          "name": "",
          "type": "address"
        }
      ],
      "stateMutability": "view",
      "type": "function"
    },
    {
      "inputs": [
        {
          "internalType": "address",
          "name": "_addr",
          "type": "address"
        }
      ],
      "name": "getPlayerInfoByAddress",
      "outputs": [
        {
          "internalType": "uint256",
          "name": "",
          "type": "uint256"
        },
        {
          "internalType": "uint256",
          "name": "",
          "type": "uint256"
        },
        {
          "internalType": "uint256",
          "name": "",
          "type": "uint256"
        },
        {
          "internalType": "uint256",
          "name": "",
          "type": "uint256"
        }
      ],
      "stateMutability": "view",
      "type": "function"
    },
    {
      "inputs": [
        {
          "internalType": "address",
          "name": "_pID",
          "type": "address"
        }
      ],
      "name": "getPlayerVaults",
      "outputs": [
        {
          "internalType": "uint256",
          "name": "",
          "type": "uint256"
        },
        {
          "internalType": "uint256",
          "name": "",
          "type": "uint256"
        }
      ],
      "stateMutability": "view",
      "type": "function"
    },
    {
      "inputs": [
        {
          "internalType": "uint256",
          "name": "roundId",
          "type": "uint256"
        }
      ],
      "name": "getRoundInfo",
      "outputs": [
        {
          "internalType": "uint256",
          "name": "",
          "type": "uint256"
        },
        {
          "internalType": "uint256",
          "name": "",
          "type": "uint256"
        },
        {
          "internalType": "uint256",
          "name": "",
          "type": "uint256"
        },
        {
          "internalType": "uint256",
          "name": "",
          "type": "uint256"
        },
        {
          "internalType": "uint256",
          "name": "",
          "type": "uint256"
        },
        {
          "internalType": "uint256",
          "name": "",
          "type": "uint256"
        },
        {
          "internalType": "address",
          "name": "",
          "type": "address"
        }
      ],
      "stateMutability": "view",
      "type": "function"
    },
    {
      "inputs": [],
      "name": "getTimeLeft",
      "outputs": [
        {
          "internalType": "uint256",
          "name": "",
          "type": "uint256"
        }
      ],
      "stateMutability": "view",
      "type": "function"
    },
    {
      "inputs": [
        {
          "internalType": "uint256",
          "name": "_keys",
          "type": "uint256"
        }
      ],
      "name": "iWantXKeys",
      "outputs": [
        {
          "internalType": "uint256",
          "name": "",
          "type": "uint256"
        }
      ],
      "stateMutability": "view",
      "type": "function"
    },
    {
      "inputs": [],
      "name": "initialBurnFee",
      "outputs": [
        {
          "internalType": "uint256",
          "name": "",
          "type": "uint256"
        }
      ],
      "stateMutability": "view",
      "type": "function"
    },
    {
      "inputs": [
        {
          "internalType": "address",
          "name": "_tokenContract",
          "type": "address"
        }
      ],
      "name": "isWhitelisted",
      "outputs": [
        {
          "internalType": "bool",
          "name": "",
          "type": "bool"
        }
      ],
      "stateMutability": "view",
      "type": "function"
    },
    {
      "inputs": [],
      "name": "name",
      "outputs": [
        {
          "internalType": "string",
          "name": "",
          "type": "string"
        }
      ],
      "stateMutability": "view",
      "type": "function"
    },
    {
      "inputs": [],
      "name": "owner_",
      "outputs": [
        {
          "internalType": "address",
          "name": "",
          "type": "address"
        }
      ],
      "stateMutability": "view",
      "type": "function"
    },
    {
      "inputs": [],
      "name": "playerFees",
      "outputs": [
        {
          "internalType": "uint256",
          "name": "",
          "type": "uint256"
        }
      ],
      "stateMutability": "view",
      "type": "function"
    },
    {
      "inputs": [
        {
          "internalType": "address",
          "name": "",
          "type": "address"
        },
        {
          "internalType": "uint256",
          "name": "",
          "type": "uint256"
        }
      ],
      "name": "plyrRnds_",
      "outputs": [
        {
          "internalType": "uint256",
          "name": "eth",
          "type": "uint256"
        },
        {
          "internalType": "uint256",
          "name": "keys",
          "type": "uint256"
        },
        {
          "internalType": "uint256",
          "name": "mask",
          "type": "uint256"
        },
        {
          "internalType": "uint256",
          "name": "ico",
          "type": "uint256"
        }
      ],
      "stateMutability": "view",
      "type": "function"
    },
    {
      "inputs": [
        {
          "internalType": "address",
          "name": "",
          "type": "address"
        }
      ],
      "name": "plyr_",
      "outputs": [
        {
          "internalType": "uint256",
          "name": "win",
          "type": "uint256"
        },
        {
          "internalType": "uint256",
          "name": "gen",
          "type": "uint256"
        },
        {
          "internalType": "uint256",
          "name": "lrnd",
          "type": "uint256"
        },
        {
          "internalType": "uint256",
          "name": "lastActivityDate",
          "type": "uint256"
        },
        {
          "internalType": "string",
          "name": "lastActivityName",
          "type": "string"
        }
      ],
      "stateMutability": "view",
      "type": "function"
    },
    {
      "inputs": [],
      "name": "potWinnerShare",
      "outputs": [
        {
          "internalType": "uint256",
          "name": "",
          "type": "uint256"
        }
      ],
      "stateMutability": "view",
      "type": "function"
    },
    {
      "inputs": [],
      "name": "primaryToken_",
      "outputs": [
        {
          "internalType": "contract IERC20",
          "name": "",
          "type": "address"
        }
      ],
      "stateMutability": "view",
      "type": "function"
    },
    {
      "inputs": [],
      "name": "rID_",
      "outputs": [
        {
          "internalType": "uint256",
          "name": "",
          "type": "uint256"
        }
      ],
      "stateMutability": "view",
      "type": "function"
    },
    {
      "inputs": [
        {
          "internalType": "uint256",
          "name": "_eth",
          "type": "uint256"
        }
      ],
      "name": "reLoadXid",
      "outputs": [],
      "stateMutability": "nonpayable",
      "type": "function"
    },
    {
      "inputs": [],
      "name": "rndInc_",
      "outputs": [
        {
          "internalType": "uint256",
          "name": "",
          "type": "uint256"
        }
      ],
      "stateMutability": "view",
      "type": "function"
    },
    {
      "inputs": [],
      "name": "rndInit_",
      "outputs": [
        {
          "internalType": "uint256",
          "name": "",
          "type": "uint256"
        }
      ],
      "stateMutability": "view",
      "type": "function"
    },
    {
      "inputs": [],
      "name": "rndMax_",
      "outputs": [
        {
          "internalType": "uint256",
          "name": "",
          "type": "uint256"
        }
      ],
      "stateMutability": "view",
      "type": "function"
    },
    {
      "inputs": [
        {
          "internalType": "uint256",
          "name": "",
          "type": "uint256"
        }
      ],
      "name": "round_",
      "outputs": [
        {
          "internalType": "address",
          "name": "addr",
          "type": "address"
        },
        {
          "internalType": "uint256",
          "name": "end",
          "type": "uint256"
        },
        {
          "internalType": "bool",
          "name": "ended",
          "type": "bool"
        },
        {
          "internalType": "uint256",
          "name": "strt",
          "type": "uint256"
        },
        {
          "internalType": "uint256",
          "name": "keys",
          "type": "uint256"
        },
        {
          "internalType": "uint256",
          "name": "eth",
          "type": "uint256"
        },
        {
          "internalType": "uint256",
          "name": "pot",
          "type": "uint256"
        },
        {
          "internalType": "uint256",
          "name": "mask",
          "type": "uint256"
        }
      ],
      "stateMutability": "view",
      "type": "function"
    },
    {
      "inputs": [],
      "name": "router_",
      "outputs": [
        {
          "internalType": "contract IPancakeRouter02",
          "name": "",
          "type": "address"
        }
      ],
      "stateMutability": "view",
      "type": "function"
    },
    {
      "inputs": [
        {
          "internalType": "address payable",
          "name": "value",
          "type": "address"
        }
      ],
      "name": "setAirdropFund",
      "outputs": [],
      "stateMutability": "nonpayable",
      "type": "function"
    },
    {
      "inputs": [
        {
          "internalType": "uint256",
          "name": "_playerFees",
          "type": "uint256"
        }
      ],
      "name": "setPlayerFees",
      "outputs": [],
      "stateMutability": "nonpayable",
      "type": "function"
    },
    {
      "inputs": [
        {
          "internalType": "uint256",
          "name": "_potWinnerShare",
          "type": "uint256"
        }
      ],
      "name": "setPotWinnerShare",
      "outputs": [],
      "stateMutability": "nonpayable",
      "type": "function"
    },
    {
      "inputs": [
        {
          "internalType": "address",
          "name": "_primaryTokenAddress",
          "type": "address"
        }
      ],
      "name": "setPrimaryToken",
      "outputs": [],
      "stateMutability": "nonpayable",
      "type": "function"
    },
    {
      "inputs": [
        {
          "internalType": "address",
          "name": "_routerAddress",
          "type": "address"
        }
      ],
      "name": "setRouter",
      "outputs": [],
      "stateMutability": "nonpayable",
      "type": "function"
    },
    {
      "inputs": [
        {
          "internalType": "uint256",
          "name": "taxPercent",
          "type": "uint256"
        },
        {
          "internalType": "uint256",
          "name": "cappedDeductedBNB",
          "type": "uint256"
        }
      ],
      "name": "setXBNTaxFees",
      "outputs": [],
      "stateMutability": "nonpayable",
      "type": "function"
    },
    {
      "inputs": [],
      "name": "taxFeePercentXBN",
      "outputs": [
        {
          "internalType": "uint256",
          "name": "",
          "type": "uint256"
        }
      ],
      "stateMutability": "view",
      "type": "function"
    },
    {
      "inputs": [],
      "name": "viewRouter",
      "outputs": [
        {
          "internalType": "address",
          "name": "",
          "type": "address"
        }
      ],
      "stateMutability": "view",
      "type": "function"
    },
    {
      "inputs": [],
      "name": "withdraw",
      "outputs": [],
      "stateMutability": "nonpayable",
      "type": "function"
    }
  ],
  "bytecode": "0x6080604052610e10600155600a60025561708060035560056004556005805560356006556050600755600a6012556802b5e3af16b18800006013556000601460006101000a81548160ff02191690831515021790555034801561006157600080fd5b50600160008190555033600c60006101000a81548173ffffffffffffffffffffffffffffffffffffffff021916908373ffffffffffffffffffffffffffffffffffffffff1602179055506158c980620000bb6000396000f3fe60806040526004361061026b5760003560e01c80638b68cd9d11610144578063cf808000116100b6578063e79dc6d61161007a578063e79dc6d6146108f7578063ee0b5d8b14610922578063f203adc014610962578063f265dd001461098d578063f80f5dd5146109cb578063fc8e0b40146109f45761026c565b8063cf80800014610822578063d53b26791461085f578063db2e21bc1461088a578063e1bfd681146108a1578063e7663079146108cc5761026c565b8063c0d7865511610108578063c0d78655146106fc578063c33073ce14610725578063c68b0cd414610750578063c7e284b814610791578063cb7028c1146107bc578063ce89c80c146107e55761026c565b80638b68cd9d1461064a578063922f8d8314610675578063ae2539bc146106a0578063be405bd8146106c9578063bfba7c83146106e05761026c565b80633ee6d933116101dd578063624ae5c0116101a1578063624ae5c0146105405780636408406f1461056b578063666a7c9b14610594578063747dff42146105ab578063863a5e65146105dc57806388c3ffb0146106075761026c565b80633ee6d933146104565780633f06f94114610481578063452b381d146104ac5780634f1cb291146104ec578063592ed93c146105175761026c565b8063183f98111161022f578063183f98111461034157806319d7943a1461036c57806324c33d3314610395578063266e2ce2146103d95780633af32abf146104025780633ccfd60b1461043f5761026c565b8063018a25e81461026e578063045ec5631461029957806306fdde03146102c4578063086fbe86146102ef578063119b90cd146103185761026c565b5b005b34801561027a57600080fd5b50610283610a1d565b6040516102909190615585565b60405180910390f35b3480156102a557600080fd5b506102ae610b5b565b6040516102bb9190615585565b60405180910390f35b3480156102d057600080fd5b506102d9610b61565b6040516102e69190615343565b60405180910390f35b3480156102fb57600080fd5b5061031660048036038101906103119190614888565b610b9a565b005b34801561032457600080fd5b5061033f600480360381019061033a91906148b1565b610c6e565b005b34801561034d57600080fd5b50610356610ddc565b6040516103639190615585565b60405180910390f35b34801561037857600080fd5b50610393600480360381019061038e9190614965565b610de2565b005b3480156103a157600080fd5b506103bc60048036038101906103b79190614965565b610f14565b6040516103d0989796959493929190615274565b60405180910390f35b3480156103e557600080fd5b5061040060048036038101906103fb91906149f3565b610f89565b005b34801561040e57600080fd5b506104296004803603810190610424919061485f565b61102b565b60405161043691906152f2565b60405180910390f35b34801561044b57600080fd5b50610454611081565b005b34801561046257600080fd5b5061046b61137c565b6040516104789190615585565b60405180910390f35b34801561048d57600080fd5b50610496611382565b6040516104a39190615585565b60405180910390f35b3480156104b857600080fd5b506104d360048036038101906104ce9190614900565b611388565b6040516104e394939291906155c9565b60405180910390f35b3480156104f857600080fd5b506105016113c5565b60405161050e91906150bc565b60405180910390f35b34801561052357600080fd5b5061053e6004803603810190610539919061485f565b6113ef565b005b34801561054c57600080fd5b5061055561149c565b6040516105629190615585565b60405180910390f35b34801561057757600080fd5b50610592600480360381019061058d919061485f565b6114a2565b005b3480156105a057600080fd5b506105a961157f565b005b3480156105b757600080fd5b506105c0611633565b6040516105d39796959493929190615668565b60405180910390f35b3480156105e857600080fd5b506105f1611707565b6040516105fe9190615328565b60405180910390f35b34801561061357600080fd5b5061062e60048036038101906106299190614965565b61172d565b6040516106419796959493929190615668565b60405180910390f35b34801561065657600080fd5b5061065f611801565b60405161066c9190615585565b60405180910390f35b34801561068157600080fd5b5061068a611807565b6040516106979190615585565b60405180910390f35b3480156106ac57600080fd5b506106c760048036038101906106c29190614a2f565b61180d565b005b3480156106d557600080fd5b506106de6118c7565b005b6106fa60048036038101906106f591906149b7565b611961565b005b34801561070857600080fd5b50610723600480360381019061071e919061485f565b611d51565b005b34801561073157600080fd5b5061073a611e25565b6040516107479190615585565b60405180910390f35b34801561075c57600080fd5b506107776004803603810190610772919061485f565b611e2b565b60405161078895949392919061560e565b60405180910390f35b34801561079d57600080fd5b506107a6611ef9565b6040516107b39190615585565b60405180910390f35b3480156107c857600080fd5b506107e360048036038101906107de9190614965565b611fb0565b005b3480156107f157600080fd5b5061080c600480360381019061080791906149f3565b612162565b6040516108199190615585565b60405180910390f35b34801561082e57600080fd5b5061084960048036038101906108449190614965565b61227a565b6040516108569190615585565b60405180910390f35b34801561086b57600080fd5b506108746123ac565b60405161088191906152f2565b60405180910390f35b34801561089657600080fd5b5061089f6123bf565b005b3480156108ad57600080fd5b506108b6612658565b6040516108c3919061530d565b60405180910390f35b3480156108d857600080fd5b506108e161267e565b6040516108ee91906150bc565b60405180910390f35b34801561090357600080fd5b5061090c6126a4565b6040516109199190615585565b60405180910390f35b34801561092e57600080fd5b506109496004803603810190610944919061485f565b6126aa565b60405161095994939291906155c9565b60405180910390f35b34801561096e57600080fd5b50610977612852565b6040516109849190615585565b60405180910390f35b34801561099957600080fd5b506109b460048036038101906109af919061485f565b612858565b6040516109c29291906155a0565b60405180910390f35b3480156109d757600080fd5b506109f260048036038101906109ed919061485f565b612ce0565b005b348015610a0057600080fd5b50610a1b6004803603810190610a169190614965565b612f93565b005b600080600a5490506000429050601060008381526020019081526020016000206003015481118015610af35750601060008381526020019081526020016000206001015481111580610af25750601060008381526020019081526020016000206001015481118015610af15750600073ffffffffffffffffffffffffffffffffffffffff166010600084815260200190815260200160002060000160009054906101000a900473ffffffffffffffffffffffffffffffffffffffff1673ffffffffffffffffffffffffffffffffffffffff16145b5b5b15610b4c57610b43670de0b6b3a7640000610b35670de0b6b3a7640000601060008781526020019081526020016000206004015461302d90919063ffffffff16565b61308090919063ffffffff16565b92505050610b58565b6544364c5bb000925050505b90565b60025481565b6040518060400160405280600981526020017f466f6d6f4c6f74746f000000000000000000000000000000000000000000000081525081565b600c60009054906101000a900473ffffffffffffffffffffffffffffffffffffffff1673ffffffffffffffffffffffffffffffffffffffff163373ffffffffffffffffffffffffffffffffffffffff1614610c2a576040517f08c379a0000000000000000000000000000000000000000000000000000000008152600401610c21906153a5565b60405180910390fd5b80601160006101000a81548173ffffffffffffffffffffffffffffffffffffffff021916908373ffffffffffffffffffffffffffffffffffffffff16021790555050565b600c60009054906101000a900473ffffffffffffffffffffffffffffffffffffffff1673ffffffffffffffffffffffffffffffffffffffff163373ffffffffffffffffffffffffffffffffffffffff1614610cfe576040517f08c379a0000000000000000000000000000000000000000000000000000000008152600401610cf5906153e5565b60405180910390fd5b60001515601460009054906101000a900460ff16151514610d54576040517f08c379a0000000000000000000000000000000000000000000000000000000008152600401610d4b906154e5565b60405180910390fd5b610d5d82611d51565b610d6683612ce0565b610d6f836114a2565b610d7881610b9a565b6001601460006101000a81548160ff0219169083151502179055506001600a81905550426010600060018152602001908152602001600020600301819055506001544201601060006001815260200190815260200160002060010181905550505050565b60065481565b60011515601460009054906101000a900460ff16151514610e38576040517f08c379a0000000000000000000000000000000000000000000000000000000008152600401610e2f90615505565b60405180910390fd5b3373ffffffffffffffffffffffffffffffffffffffff163273ffffffffffffffffffffffffffffffffffffffff1614610ea6576040517f08c379a0000000000000000000000000000000000000000000000000000000008152600401610e9d906153c5565b60405180910390fd5b80610eb0816130bf565b60026000541415610ef6576040517f08c379a0000000000000000000000000000000000000000000000000000000008152600401610eed90615525565b60405180910390fd5b6002600081905550610f083383613156565b60016000819055505050565b60106020528060005260406000206000915090508060000160009054906101000a900473ffffffffffffffffffffffffffffffffffffffff16908060010154908060020160009054906101000a900460ff16908060030154908060040154908060050154908060060154908060070154905088565b600c60009054906101000a900473ffffffffffffffffffffffffffffffffffffffff1673ffffffffffffffffffffffffffffffffffffffff163373ffffffffffffffffffffffffffffffffffffffff1614611019576040517f08c379a0000000000000000000000000000000000000000000000000000000008152600401611010906153a5565b60405180910390fd5b81601281905550806013819055505050565b6000600d60008373ffffffffffffffffffffffffffffffffffffffff1673ffffffffffffffffffffffffffffffffffffffff16815260200190815260200160002060009054906101000a900460ff169050919050565b60011515601460009054906101000a900460ff161515146110d7576040517f08c379a00000000000000000000000000000000000000000000000000000000081526004016110ce90615505565b60405180910390fd5b3373ffffffffffffffffffffffffffffffffffffffff163273ffffffffffffffffffffffffffffffffffffffff1614611145576040517f08c379a000000000000000000000000000000000000000000000000000000000815260040161113c906153c5565b60405180910390fd5b6002600054141561118b576040517f08c379a000000000000000000000000000000000000000000000000000000000815260040161118290615525565b60405180910390fd5b60026000819055506000600a549050600042905060006010600084815260200190815260200160002060010154821180156111ed5750600015156010600085815260200190815260200160002060020160009054906101000a900460ff161515145b801561125c5750600073ffffffffffffffffffffffffffffffffffffffff166010600085815260200190815260200160002060000160009054906101000a900473ffffffffffffffffffffffffffffffffffffffff1673ffffffffffffffffffffffffffffffffffffffff1614155b1561126a576112696132fd565b5b611273336134e0565b905060003373ffffffffffffffffffffffffffffffffffffffff1682600067ffffffffffffffff811180156112a757600080fd5b506040519080825280601f01601f1916602001820160405280156112da5781602001600182028036833780820191505090505b506040516112e89190615090565b60006040518083038185875af1925050503d8060008114611325576040519150601f19603f3d011682016040523d82523d6000602084013e61132a565b606091505b505090508061136e576040517f08c379a000000000000000000000000000000000000000000000000000000000815260040161136590615405565b60405180910390fd5b505050506001600081905550565b60015481565b60125481565b600f602052816000526040600020602052806000526040600020600091509150508060000154908060010154908060020154908060030154905084565b6000600960009054906101000a900473ffffffffffffffffffffffffffffffffffffffff16905090565b600c60009054906101000a900473ffffffffffffffffffffffffffffffffffffffff1673ffffffffffffffffffffffffffffffffffffffff163373ffffffffffffffffffffffffffffffffffffffff161461147f576040517f08c379a0000000000000000000000000000000000000000000000000000000008152600401611476906153a5565b60405180910390fd5b600061148a826134e0565b9050611497816001613691565b505050565b600a5481565b600c60009054906101000a900473ffffffffffffffffffffffffffffffffffffffff1673ffffffffffffffffffffffffffffffffffffffff163373ffffffffffffffffffffffffffffffffffffffff1614611532576040517f08c379a0000000000000000000000000000000000000000000000000000000008152600401611529906153a5565b60405180910390fd5b80600860006101000a81548173ffffffffffffffffffffffffffffffffffffffff021916908373ffffffffffffffffffffffffffffffffffffffff16021790555061157c81612ce0565b50565b600c60009054906101000a900473ffffffffffffffffffffffffffffffffffffffff1673ffffffffffffffffffffffffffffffffffffffff163373ffffffffffffffffffffffffffffffffffffffff161461160f576040517f08c379a0000000000000000000000000000000000000000000000000000000008152600401611606906153a5565b60405180910390fd5b6000600b54111561163157611627600b546001613691565b506000600b819055505b565b600080600080600080600080600a54905080601060008381526020019081526020016000206004015460106000848152602001908152602001600020600101546010600085815260200190815260200160002060030154601060008681526020019081526020016000206006015460106000878152602001908152602001600020600501546010600088815260200190815260200160002060000160009054906101000a900473ffffffffffffffffffffffffffffffffffffffff1697509750975097509750975097505090919293949596565b600960009054906101000a900473ffffffffffffffffffffffffffffffffffffffff1681565b60008060008060008060008088905080601060008381526020019081526020016000206004015460106000848152602001908152602001600020600101546010600085815260200190815260200160002060030154601060008681526020019081526020016000206006015460106000878152602001908152602001600020600501546010600088815260200190815260200160002060000160009054906101000a900473ffffffffffffffffffffffffffffffffffffffff16975097509750975097509750975050919395979092949650565b60035481565b600b5481565b600c60009054906101000a900473ffffffffffffffffffffffffffffffffffffffff1673ffffffffffffffffffffffffffffffffffffffff163373ffffffffffffffffffffffffffffffffffffffff161461189d576040517f08c379a0000000000000000000000000000000000000000000000000000000008152600401611894906153a5565b60405180910390fd5b84600281905550836002819055508260038190555081600481905550806005819055505050505050565b600c60009054906101000a900473ffffffffffffffffffffffffffffffffffffffff1673ffffffffffffffffffffffffffffffffffffffff163373ffffffffffffffffffffffffffffffffffffffff1614611957576040517f08c379a000000000000000000000000000000000000000000000000000000000815260040161194e906153a5565b60405180910390fd5b61195f6132fd565b565b60011515601460009054906101000a900460ff161515146119b7576040517f08c379a00000000000000000000000000000000000000000000000000000000081526004016119ae90615505565b60405180910390fd5b3373ffffffffffffffffffffffffffffffffffffffff163273ffffffffffffffffffffffffffffffffffffffff1614611a25576040517f08c379a0000000000000000000000000000000000000000000000000000000008152600401611a1c906153c5565b60405180910390fd5b60026000541415611a6b576040517f08c379a0000000000000000000000000000000000000000000000000000000008152600401611a6290615525565b60405180910390fd5b60026000819055506000600a54905060006005549050681b1ae4d6e2ef50000060106000848152602001908152602001600020600601541115611ab857600260055481611ab457fe5b0490505b6000611ae06064611ad2848861379890919063ffffffff16565b61380590919063ffffffff16565b90506000809050600115158515151415611b515760003411611b37576040517f08c379a0000000000000000000000000000000000000000000000000000000008152600401611b2e906154a5565b60405180910390fd5b611b4a823461381e90919063ffffffff16565b9050611d09565b60008611611b94576040517f08c379a0000000000000000000000000000000000000000000000000000000008152600401611b8b906154a5565b60405180910390fd5b73__$9436495c816881953685746084c3158ab7$__63741a41c333600860009054906101000a900473ffffffffffffffffffffffffffffffffffffffff16896040518463ffffffff1660e01b8152600401611bf1939291906150f2565b60006040518083038186803b158015611c0957600080fd5b505af4158015611c1d573d6000803e3d6000fd5b50505050611c34828761381e90919063ffffffff16565b9550600047905073__$9436495c816881953685746084c3158ab7$__6310432ec9600960009054906101000a900473ffffffffffffffffffffffffffffffffffffffff16600860009054906101000a900473ffffffffffffffffffffffffffffffffffffffff168a306040518563ffffffff1660e01b8152600401611cbc94939291906151c0565b60006040518083038186803b158015611cd457600080fd5b505af4158015611ce8573d6000803e3d6000fd5b505050506000479050611d04828261381e90919063ffffffff16565b925050505b6000611d16826000613691565b9050611d2b818361381e90919063ffffffff16565b9150611d36826130bf565b611d40338361386e565b505050505060016000819055505050565b600c60009054906101000a900473ffffffffffffffffffffffffffffffffffffffff1673ffffffffffffffffffffffffffffffffffffffff163373ffffffffffffffffffffffffffffffffffffffff1614611de1576040517f08c379a0000000000000000000000000000000000000000000000000000000008152600401611dd8906153a5565b60405180910390fd5b80600960006101000a81548173ffffffffffffffffffffffffffffffffffffffff021916908373ffffffffffffffffffffffffffffffffffffffff16021790555050565b60055481565b600e602052806000526040600020600091509050806000015490806001015490806002015490806003015490806004018054600181600116156101000203166002900480601f016020809104026020016040519081016040528092919081815260200182805460018160011615610100020316600290048015611eef5780601f10611ec457610100808354040283529160200191611eef565b820191906000526020600020905b815481529060010190602001808311611ed257829003601f168201915b5050505050905085565b600080600a54905060004290506010600083815260200190815260200160002060010154811015611fa6576010600083815260200190815260200160002060030154811115611f7457611f6b81601060008581526020019081526020016000206001015461381e90919063ffffffff16565b92505050611fad565b611f9d81601060008581526020019081526020016000206003015461381e90919063ffffffff16565b92505050611fad565b6000925050505b90565b600c60009054906101000a900473ffffffffffffffffffffffffffffffffffffffff1673ffffffffffffffffffffffffffffffffffffffff163373ffffffffffffffffffffffffffffffffffffffff1614612040576040517f08c379a0000000000000000000000000000000000000000000000000000000008152600401612037906153a5565b60405180910390fd5b600c60009054906101000a900473ffffffffffffffffffffffffffffffffffffffff1673ffffffffffffffffffffffffffffffffffffffff163373ffffffffffffffffffffffffffffffffffffffff16146120d0576040517f08c379a00000000000000000000000000000000000000000000000000000000081526004016120c790615445565b60405180910390fd5b6050811015612114576040517f08c379a000000000000000000000000000000000000000000000000000000000815260040161210b90615385565b60405180910390fd5b6064811115612158576040517f08c379a000000000000000000000000000000000000000000000000000000000815260040161214f90615365565b60405180910390fd5b8060078190555050565b6000804290506010600085815260200190815260200160002060030154811180156122315750601060008581526020019081526020016000206001015481111580612230575060106000858152602001908152602001600020600101548111801561222f5750600073ffffffffffffffffffffffffffffffffffffffff166010600086815260200190815260200160002060000160009054906101000a900473ffffffffffffffffffffffffffffffffffffffff1673ffffffffffffffffffffffffffffffffffffffff16145b5b5b156122675761225f8360106000878152602001908152602001600020600501546139ba90919063ffffffff16565b915050612274565b612270836139f9565b9150505b92915050565b600080600a5490506000429050601060008381526020019081526020016000206003015481118015612350575060106000838152602001908152602001600020600101548111158061234f575060106000838152602001908152602001600020600101548111801561234e5750600073ffffffffffffffffffffffffffffffffffffffff166010600084815260200190815260200160002060000160009054906101000a900473ffffffffffffffffffffffffffffffffffffffff1673ffffffffffffffffffffffffffffffffffffffff16145b5b5b15612399576123908461238286601060008781526020019081526020016000206004015461302d90919063ffffffff16565b61308090919063ffffffff16565b925050506123a7565b6123a284613a9d565b925050505b919050565b601460009054906101000a900460ff1681565b600c60009054906101000a900473ffffffffffffffffffffffffffffffffffffffff1673ffffffffffffffffffffffffffffffffffffffff163373ffffffffffffffffffffffffffffffffffffffff161461244f576040517f08c379a0000000000000000000000000000000000000000000000000000000008152600401612446906153a5565b60405180910390fd5b60003373ffffffffffffffffffffffffffffffffffffffff1647604051612475906150a7565b60006040518083038185875af1925050503d80600081146124b2576040519150601f19603f3d011682016040523d82523d6000602084013e6124b7565b606091505b50509050806124fb576040517f08c379a00000000000000000000000000000000000000000000000000000000081526004016124f290615545565b60405180910390fd5b600860009054906101000a900473ffffffffffffffffffffffffffffffffffffffff1673ffffffffffffffffffffffffffffffffffffffff1663a9059cbb33600860009054906101000a900473ffffffffffffffffffffffffffffffffffffffff1673ffffffffffffffffffffffffffffffffffffffff166370a08231306040518263ffffffff1660e01b815260040161259591906150d7565b60206040518083038186803b1580156125ad57600080fd5b505afa1580156125c1573d6000803e3d6000fd5b505050506040513d601f19601f820116820180604052508101906125e5919061498e565b6040518363ffffffff1660e01b8152600401612602929190615129565b602060405180830381600087803b15801561261c57600080fd5b505af1158015612630573d6000803e3d6000fd5b505050506040513d601f19601f82011682018060405250810190612654919061493c565b5050565b600860009054906101000a900473ffffffffffffffffffffffffffffffffffffffff1681565b600c60009054906101000a900473ffffffffffffffffffffffffffffffffffffffff1681565b60045481565b6000806000806000600a549050600f60008773ffffffffffffffffffffffffffffffffffffffff1673ffffffffffffffffffffffffffffffffffffffff168152602001908152602001600020600082815260200190815260200160002060010154600e60008873ffffffffffffffffffffffffffffffffffffffff1673ffffffffffffffffffffffffffffffffffffffff168152602001908152602001600020600001546127ee61279d89600e60008c73ffffffffffffffffffffffffffffffffffffffff1673ffffffffffffffffffffffffffffffffffffffff16815260200190815260200160002060020154613b2c565b600e60008b73ffffffffffffffffffffffffffffffffffffffff1673ffffffffffffffffffffffffffffffffffffffff1681526020019081526020016000206001015461302d90919063ffffffff16565b600f60008a73ffffffffffffffffffffffffffffffffffffffff1673ffffffffffffffffffffffffffffffffffffffff1681526020019081526020016000206000858152602001908152602001600020600001549450945094509450509193509193565b60075481565b6000806000600a5490506010600082815260200190815260200160002060010154421180156128ae5750600015156010600083815260200190815260200160002060020160009054906101000a900460ff161515145b801561291d5750600073ffffffffffffffffffffffffffffffffffffffff166010600083815260200190815260200160002060000160009054906101000a900473ffffffffffffffffffffffffffffffffffffffff1673ffffffffffffffffffffffffffffffffffffffff1614155b15612bf2578373ffffffffffffffffffffffffffffffffffffffff166010600083815260200190815260200160002060000160009054906101000a900473ffffffffffffffffffffffffffffffffffffffff1673ffffffffffffffffffffffffffffffffffffffff161415612ae257612a1560646129bc600754601060008681526020019081526020016000206006015461379890919063ffffffff16565b816129c357fe5b04600e60008773ffffffffffffffffffffffffffffffffffffffff1673ffffffffffffffffffffffffffffffffffffffff1681526020019081526020016000206000015461302d90919063ffffffff16565b612ad8612a87600f60008873ffffffffffffffffffffffffffffffffffffffff1673ffffffffffffffffffffffffffffffffffffffff168152602001908152602001600020600085815260200190815260200160002060020154612a798886613c28565b61381e90919063ffffffff16565b600e60008873ffffffffffffffffffffffffffffffffffffffff1673ffffffffffffffffffffffffffffffffffffffff1681526020019081526020016000206001015461302d90919063ffffffff16565b9250925050612cdb565b600e60008573ffffffffffffffffffffffffffffffffffffffff1673ffffffffffffffffffffffffffffffffffffffff16815260200190815260200160002060000154612be8612b97600f60008873ffffffffffffffffffffffffffffffffffffffff1673ffffffffffffffffffffffffffffffffffffffff168152602001908152602001600020600085815260200190815260200160002060020154612b898886613c28565b61381e90919063ffffffff16565b600e60008873ffffffffffffffffffffffffffffffffffffffff1673ffffffffffffffffffffffffffffffffffffffff1681526020019081526020016000206001015461302d90919063ffffffff16565b9250925050612cdb565b600e60008573ffffffffffffffffffffffffffffffffffffffff1673ffffffffffffffffffffffffffffffffffffffff16815260200190815260200160002060000154612cd5612c8486600e60008973ffffffffffffffffffffffffffffffffffffffff1673ffffffffffffffffffffffffffffffffffffffff16815260200190815260200160002060020154613b2c565b600e60008873ffffffffffffffffffffffffffffffffffffffff1673ffffffffffffffffffffffffffffffffffffffff1681526020019081526020016000206001015461302d90919063ffffffff16565b92509250505b915091565b600c60009054906101000a900473ffffffffffffffffffffffffffffffffffffffff1673ffffffffffffffffffffffffffffffffffffffff163373ffffffffffffffffffffffffffffffffffffffff1614612d70576040517f08c379a0000000000000000000000000000000000000000000000000000000008152600401612d67906153a5565b60405180910390fd5b600c60009054906101000a900473ffffffffffffffffffffffffffffffffffffffff1673ffffffffffffffffffffffffffffffffffffffff163373ffffffffffffffffffffffffffffffffffffffff1614612e00576040517f08c379a0000000000000000000000000000000000000000000000000000000008152600401612df790615445565b60405180910390fd5b73__$9436495c816881953685746084c3158ab7$__6352a23bbb82600960009054906101000a900473ffffffffffffffffffffffffffffffffffffffff167fffffffffffffffffffffffffffffffffffffffffffffffffffffffffffffffff6040518463ffffffff1660e01b8152600401612e7d93929190615189565b60006040518083038186803b158015612e9557600080fd5b505af4158015612ea9573d6000803e3d6000fd5b5050505073__$9436495c816881953685746084c3158ab7$__6352a23bbb82307fffffffffffffffffffffffffffffffffffffffffffffffffffffffffffffffff6040518463ffffffff1660e01b8152600401612f0893929190615152565b60006040518083038186803b158015612f2057600080fd5b505af4158015612f34573d6000803e3d6000fd5b505050506001600d60008373ffffffffffffffffffffffffffffffffffffffff1673ffffffffffffffffffffffffffffffffffffffff16815260200190815260200160002060006101000a81548160ff02191690831515021790555050565b600c60009054906101000a900473ffffffffffffffffffffffffffffffffffffffff1673ffffffffffffffffffffffffffffffffffffffff163373ffffffffffffffffffffffffffffffffffffffff1614613023576040517f08c379a000000000000000000000000000000000000000000000000000000000815260040161301a906153a5565b60405180910390fd5b8060068190555050565b6000818301905082811015613077576040517f08c379a000000000000000000000000000000000000000000000000000000000815260040161306e906154c5565b60405180910390fd5b80905092915050565b60006130b76130a061309b848661381e90919063ffffffff16565b613a9d565b6130a985613a9d565b61381e90919063ffffffff16565b905092915050565b633b9aca00811015613106576040517f08c379a00000000000000000000000000000000000000000000000000000000081526004016130fd90615425565b60405180910390fd5b69152d02c7e14af6800000811115613153576040517f08c379a000000000000000000000000000000000000000000000000000000000815260040161314a90615565565b60405180910390fd5b50565b6000600a54905060004290506010600083815260200190815260200160002060010154811180156131ae5750600015156010600084815260200190815260200160002060020160009054906101000a900460ff161515145b156131bc576131bb6132fd565b5b601060008381526020019081526020016000206003015481118015613285575060106000838152602001908152602001600020600101548111158061328457506010600083815260200190815260200160002060010154811180156132835750600073ffffffffffffffffffffffffffffffffffffffff166010600084815260200190815260200160002060000160009054906101000a900473ffffffffffffffffffffffffffffffffffffffff1673ffffffffffffffffffffffffffffffffffffffff16145b5b5b156132f7576132a583613297866134e0565b61381e90919063ffffffff16565b600e60008673ffffffffffffffffffffffffffffffffffffffff1673ffffffffffffffffffffffffffffffffffffffff168152602001908152602001600020600101819055506132f6828585613cbf565b5b50505050565b600160106000600a54815260200190815260200160002060020160006101000a81548160ff021916908315150217905550600060106000600a54815260200190815260200160002060000160009054906101000a900473ffffffffffffffffffffffffffffffffffffffff169050600060106000600a548152602001908152602001600020600601549050600060646133a16007548461379890919063ffffffff16565b816133a857fe5b04905060006133c0828461381e90919063ffffffff16565b9050613417600e60008673ffffffffffffffffffffffffffffffffffffffff1673ffffffffffffffffffffffffffffffffffffffff168152602001908152602001600020600001548361302d90919063ffffffff16565b600e60008673ffffffffffffffffffffffffffffffffffffffff1673ffffffffffffffffffffffffffffffffffffffff16815260200190815260200160002060000181905550600a600081548092919060010191905055504260106000600a548152602001908152602001600020600301819055506134a16001544261302d90919063ffffffff16565b60106000600a548152602001908152602001600020600101819055508060106000600a5481526020019081526020016000206006018190555050505050565b600061352e82600e60008573ffffffffffffffffffffffffffffffffffffffff1673ffffffffffffffffffffffffffffffffffffffff16815260200190815260200160002060020154614053565b60006135c7600e60008573ffffffffffffffffffffffffffffffffffffffff1673ffffffffffffffffffffffffffffffffffffffff16815260200190815260200160002060010154600e60008673ffffffffffffffffffffffffffffffffffffffff1673ffffffffffffffffffffffffffffffffffffffff1681526020019081526020016000206000015461302d90919063ffffffff16565b90506000811115613688576000600e60008573ffffffffffffffffffffffffffffffffffffffff1673ffffffffffffffffffffffffffffffffffffffff168152602001908152602001600020600001819055506000600e60008573ffffffffffffffffffffffffffffffffffffffff1673ffffffffffffffffffffffffffffffffffffffff16815260200190815260200160002060010181905550600061366f826000613691565b9050613684818361381e90919063ffffffff16565b9150505b80915050919050565b600073__$9436495c816881953685746084c3158ab7$__63ed6de617600960009054906101000a900473ffffffffffffffffffffffffffffffffffffffff16600860009054906101000a900473ffffffffffffffffffffffffffffffffffffffff16601254601354601160009054906101000a900473ffffffffffffffffffffffffffffffffffffffff1689896040518863ffffffff1660e01b81526004016137409796959493929190615205565b60206040518083038186803b15801561375857600080fd5b505af415801561376c573d6000803e3d6000fd5b505050506040513d601f19601f82011682018060405250810190613790919061498e565b905092915050565b6000808314156137ab57600090506137ff565b8183029050818382816137ba57fe5b04146137fb576040517f08c379a00000000000000000000000000000000000000000000000000000000081526004016137f290615465565b60405180910390fd5b8090505b92915050565b60008082848161381157fe5b0490508091505092915050565b600082821115613863576040517f08c379a000000000000000000000000000000000000000000000000000000000815260040161385a90615485565b60405180910390fd5b818303905092915050565b6000600a54905060004290506010600083815260200190815260200160002060010154811180156138c65750600015156010600084815260200190815260200160002060020160009054906101000a900460ff161515145b156138d4576138d36132fd565b5b600a549150601060008381526020019081526020016000206003015481101580156139a357506010600083815260200190815260200160002060010154811115806139a257506010600083815260200190815260200160002060010154811180156139a15750600073ffffffffffffffffffffffffffffffffffffffff166010600084815260200190815260200160002060000160009054906101000a900473ffffffffffffffffffffffffffffffffffffffff1673ffffffffffffffffffffffffffffffffffffffff16145b5b5b156139b4576139b3828585613cbf565b5b50505050565b60006139f16139c8846139f9565b6139e36139de858761302d90919063ffffffff16565b6139f9565b61381e90919063ffffffff16565b905092915050565b60006309502f90613a8e6d03b2a1d15167e7c5699bfde00000613a80613a7b7a0dac7055469777a6122ee4310dd6c14410500f2904840000000000613a6d6b01027e72f1f1281308800000613a5f670de0b6b3a76400008b61379890919063ffffffff16565b61379890919063ffffffff16565b61302d90919063ffffffff16565b6141c8565b61381e90919063ffffffff16565b81613a9557fe5b049050919050565b6000613ab0670de0b6b3a764000061421b565b613b1d6002613ae8613ad3670de0b6b3a76400008761379890919063ffffffff16565b65886c8f67307061379890919063ffffffff16565b81613aef57fe5b04613b0f613afc8661421b565b6304a817c861379890919063ffffffff16565b61302d90919063ffffffff16565b81613b2457fe5b049050919050565b6000613c20600f60008573ffffffffffffffffffffffffffffffffffffffff1673ffffffffffffffffffffffffffffffffffffffff168152602001908152602001600020600084815260200190815260200160002060020154670de0b6b3a7640000613c0a600f60008873ffffffffffffffffffffffffffffffffffffffff1673ffffffffffffffffffffffffffffffffffffffff168152602001908152602001600020600087815260200190815260200160002060010154601060008881526020019081526020016000206007015461379890919063ffffffff16565b81613c1157fe5b0461381e90919063ffffffff16565b905092915050565b6000670de0b6b3a7640000613caf600f60008673ffffffffffffffffffffffffffffffffffffffff1673ffffffffffffffffffffffffffffffffffffffff168152602001908152602001600020600085815260200190815260200160002060010154601060008681526020019081526020016000206007015461379890919063ffffffff16565b81613cb657fe5b04905092915050565b6000600f60008473ffffffffffffffffffffffffffffffffffffffff1673ffffffffffffffffffffffffffffffffffffffff1681526020019081526020016000206000858152602001908152602001600020600101541415613d2557613d248261422e565b5b633b9aca0081111561404e576000613d5c8260106000878152602001908152602001600020600501546139ba90919063ffffffff16565b9050670de0b6b3a76400008110613e3757613d778185614311565b8273ffffffffffffffffffffffffffffffffffffffff166010600086815260200190815260200160002060000160009054906101000a900473ffffffffffffffffffffffffffffffffffffffff1673ffffffffffffffffffffffffffffffffffffffff1614613e3657826010600086815260200190815260200160002060000160006101000a81548173ffffffffffffffffffffffffffffffffffffffff021916908373ffffffffffffffffffffffffffffffffffffffff1602179055505b5b613e9d600f60008573ffffffffffffffffffffffffffffffffffffffff1673ffffffffffffffffffffffffffffffffffffffff1681526020019081526020016000206000868152602001908152602001600020600101548261302d90919063ffffffff16565b600f60008573ffffffffffffffffffffffffffffffffffffffff1673ffffffffffffffffffffffffffffffffffffffff168152602001908152602001600020600086815260200190815260200160002060010181905550613f5a600f60008573ffffffffffffffffffffffffffffffffffffffff1673ffffffffffffffffffffffffffffffffffffffff1681526020019081526020016000206000868152602001908152602001600020600001548361302d90919063ffffffff16565b600f60008573ffffffffffffffffffffffffffffffffffffffff1673ffffffffffffffffffffffffffffffffffffffff168152602001908152602001600020600086815260200190815260200160002060000181905550613fda60106000868152602001908152602001600020600401548261302d90919063ffffffff16565b601060008681526020019081526020016000206004018190555061401d60106000868152602001908152602001600020600501548361302d90919063ffffffff16565b6010600086815260200190815260200160002060050181905550614040826144a6565b61404c848484846144dd565b505b505050565b600061405f8383613b2c565b905060008111156141c3576140bf600e60008573ffffffffffffffffffffffffffffffffffffffff1673ffffffffffffffffffffffffffffffffffffffff168152602001908152602001600020600101548261302d90919063ffffffff16565b600e60008573ffffffffffffffffffffffffffffffffffffffff1673ffffffffffffffffffffffffffffffffffffffff1681526020019081526020016000206001018190555061416b600f60008573ffffffffffffffffffffffffffffffffffffffff1673ffffffffffffffffffffffffffffffffffffffff1681526020019081526020016000206000848152602001908152602001600020600201548261302d90919063ffffffff16565b600f60008573ffffffffffffffffffffffffffffffffffffffff1673ffffffffffffffffffffffffffffffffffffffff1681526020019081526020016000206000848152602001908152602001600020600201819055505b505050565b60008060026141d884600161302d565b816141df57fe5b0490508291505b818110156142155780915060026142068285816141ff57fe5b048361302d565b8161420d57fe5b0490506141e6565b50919050565b60006142278283613798565b9050919050565b6000600e60008373ffffffffffffffffffffffffffffffffffffffff1673ffffffffffffffffffffffffffffffffffffffff16815260200190815260200160002060020154146142c5576142c481600e60008473ffffffffffffffffffffffffffffffffffffffff1673ffffffffffffffffffffffffffffffffffffffff16815260200190815260200160002060020154614053565b5b600a54600e60008373ffffffffffffffffffffffffffffffffffffffff1673ffffffffffffffffffffffffffffffffffffffff1681526020019081526020016000206002018190555050565b6000429050600060106000848152602001908152602001600020600101548211801561439f5750600073ffffffffffffffffffffffffffffffffffffffff166010600085815260200190815260200160002060000160009054906101000a900473ffffffffffffffffffffffffffffffffffffffff1673ffffffffffffffffffffffffffffffffffffffff16145b156143e3576143dc826143ce600254670de0b6b3a764000088816143bf57fe5b0461379890919063ffffffff16565b61302d90919063ffffffff16565b9050614434565b6144316010600085815260200190815260200160002060010154614423600254670de0b6b3a7640000888161441457fe5b0461379890919063ffffffff16565b61302d90919063ffffffff16565b90505b6144498260035461302d90919063ffffffff16565b811015614470578060106000858152602001908152602001600020600101819055506144a0565b6144858260035461302d90919063ffffffff16565b60106000858152602001908152602001600020600101819055505b50505050565b60006144bc60148361380590919063ffffffff16565b90506144d381600b5461302d90919063ffffffff16565b600b819055505050565b600060646144f66006548561379890919063ffffffff16565b816144fd57fe5b049050614531606461451a6004548661379890919063ffffffff16565b8161452157fe5b048461381e90919063ffffffff16565b92506000614548828561381e90919063ffffffff16565b90506000614558878785876145d7565b9050600081111561457957614576818461381e90919063ffffffff16565b92505b6145b460106000898152602001908152602001600020600601546145a6838561302d90919063ffffffff16565b61302d90919063ffffffff16565b601060008981526020019081526020016000206006018190555050505050505050565b600080601060008781526020019081526020016000206004015461460c670de0b6b3a76400008661379890919063ffffffff16565b8161461357fe5b04905061463f60106000888152602001908152602001600020600701548261302d90919063ffffffff16565b60106000888152602001908152602001600020600701819055506000670de0b6b3a7640000614677858461379890919063ffffffff16565b8161467e57fe5b049050614732600f60008873ffffffffffffffffffffffffffffffffffffffff1673ffffffffffffffffffffffffffffffffffffffff16815260200190815260200160002060008981526020019081526020016000206002015461472483670de0b6b3a764000061470e89601060008f81526020019081526020016000206007015461379890919063ffffffff16565b8161471557fe5b0461381e90919063ffffffff16565b61302d90919063ffffffff16565b600f60008873ffffffffffffffffffffffffffffffffffffffff1673ffffffffffffffffffffffffffffffffffffffff1681526020019081526020016000206000898152602001908152602001600020600201819055506147d5670de0b6b3a76400006147be601060008b8152602001908152602001600020600401548561379890919063ffffffff16565b816147c557fe5b048661381e90919063ffffffff16565b92505050949350505050565b6000813590506147f081615837565b92915050565b6000813590506148058161584e565b92915050565b60008135905061481a81615865565b92915050565b60008151905061482f81615865565b92915050565b6000813590506148448161587c565b92915050565b6000815190506148598161587c565b92915050565b60006020828403121561487157600080fd5b600061487f848285016147e1565b91505092915050565b60006020828403121561489a57600080fd5b60006148a8848285016147f6565b91505092915050565b6000806000606084860312156148c657600080fd5b60006148d4868287016147e1565b93505060206148e5868287016147e1565b92505060406148f6868287016147f6565b9150509250925092565b6000806040838503121561491357600080fd5b6000614921858286016147e1565b925050602061493285828601614835565b9150509250929050565b60006020828403121561494e57600080fd5b600061495c84828501614820565b91505092915050565b60006020828403121561497757600080fd5b600061498584828501614835565b91505092915050565b6000602082840312156149a057600080fd5b60006149ae8482850161484a565b91505092915050565b600080604083850312156149ca57600080fd5b60006149d885828601614835565b92505060206149e98582860161480b565b9150509250929050565b60008060408385031215614a0657600080fd5b6000614a1485828601614835565b9250506020614a2585828601614835565b9150509250929050565b600080600080600060a08688031215614a4757600080fd5b6000614a5588828901614835565b9550506020614a6688828901614835565b9450506040614a7788828901614835565b9350506060614a8888828901614835565b9250506080614a9988828901614835565b9150509295509295909350565b614aaf81615763565b82525050565b614abe81615763565b82525050565b614acd8161571b565b82525050565b614adc81615709565b82525050565b614aeb81615709565b82525050565b614afa8161572d565b82525050565b614b098161572d565b82525050565b6000614b1a826156d7565b614b2481856156ed565b9350614b348185602086016157f3565b80840191505092915050565b614b4981615775565b82525050565b614b5881615799565b82525050565b614b67816157bd565b82525050565b6000614b78826156e2565b614b8281856156f8565b9350614b928185602086016157f3565b614b9b81615826565b840191505092915050565b6000614bb36007836156f8565b91507f6d617820313030000000000000000000000000000000000000000000000000006000830152602082019050919050565b6000614bf36006836156f8565b91507f6d696e20383000000000000000000000000000000000000000000000000000006000830152602082019050919050565b6000614c33602e836156f8565b91507f4572726f723a204f6e6c79206f776e65722063616e2068616e646c652074686960008301527f73206f7065726174696f6e203b290000000000000000000000000000000000006020830152604082019050919050565b6000614c996011836156f8565b91507f736f7272792068756d616e73206f6e6c790000000000000000000000000000006000830152602082019050919050565b6000614cd9601c836156f8565b91507f6f6e6c79206f776e6572206a7573742063616e206163746976617465000000006000830152602082019050919050565b6000614d196024836156f8565b91507f736166655472616e736665724554483a20424e42207472616e7366657220666160008301527f696c6564000000000000000000000000000000000000000000000000000000006020830152604082019050919050565b6000614d7f600f836156f8565b91507f6d696e20302e30303030303030303100000000000000000000000000000000006000830152602082019050919050565b6000614dbf600a836156f8565b91507f6f6e6c79206f776e6572000000000000000000000000000000000000000000006000830152602082019050919050565b6000614dff6013836156f8565b91507f536166654d617468206d756c206661696c6564000000000000000000000000006000830152602082019050919050565b6000614e3f6000836156ed565b9150600082019050919050565b6000614e596013836156f8565b91507f536166654d61746820737562206661696c6564000000000000000000000000006000830152602082019050919050565b6000614e996015836156f8565b91507f4572726f723a20696e76616c696420616d6f756e7400000000000000000000006000830152602082019050919050565b6000614ed96013836156f8565b91507f536166654d61746820616464206661696c6564000000000000000000000000006000830152602082019050919050565b6000614f19601b836156f8565b91507f666f6d6f6c6f74746f20616c72656164792061637469766174656400000000006000830152602082019050919050565b6000614f596011836156f8565b91507f697473206e6f74207265616479207965740000000000000000000000000000006000830152602082019050919050565b6000614f99601f836156f8565b91507f5265656e7472616e637947756172643a207265656e7472616e742063616c6c006000830152602082019050919050565b6000614fd96030836156f8565b91507f4572726f723a2043616e6e6f7420776974686472617720746f2074686520666f60008301527f756e646174696f6e2061646472657373000000000000000000000000000000006020830152604082019050919050565b600061503f600a836156f8565b91507f6d617820313030303030000000000000000000000000000000000000000000006000830152602082019050919050565b61507b81615759565b82525050565b61508a81615759565b82525050565b600061509c8284614b0f565b915081905092915050565b60006150b282614e32565b9150819050919050565b60006020820190506150d16000830184614ad3565b92915050565b60006020820190506150ec6000830184614aa6565b92915050565b60006060820190506151076000830186614ab5565b6151146020830185614ae2565b6151216040830184615081565b949350505050565b600060408201905061513e6000830185614aa6565b61514b6020830184615072565b9392505050565b60006060820190506151676000830186614ae2565b6151746020830185614ab5565b6151816040830184614b5e565b949350505050565b600060608201905061519e6000830186614ae2565b6151ab6020830185614ae2565b6151b86040830184614b5e565b949350505050565b60006080820190506151d56000830187614ae2565b6151e26020830186614ae2565b6151ef6040830185615081565b6151fc6060830184614ac4565b95945050505050565b600060e08201905061521a600083018a614ae2565b6152276020830189614ae2565b6152346040830188615081565b6152416060830187615081565b61524e6080830186614ab5565b61525b60a0830185615081565b61526860c0830184614b00565b98975050505050505050565b60006101008201905061528a600083018b614ad3565b615297602083018a615072565b6152a46040830189614af1565b6152b16060830188615072565b6152be6080830187615072565b6152cb60a0830186615072565b6152d860c0830185615072565b6152e560e0830184615072565b9998505050505050505050565b60006020820190506153076000830184614af1565b92915050565b60006020820190506153226000830184614b40565b92915050565b600060208201905061533d6000830184614b4f565b92915050565b6000602082019050818103600083015261535d8184614b6d565b905092915050565b6000602082019050818103600083015261537e81614ba6565b9050919050565b6000602082019050818103600083015261539e81614be6565b9050919050565b600060208201905081810360008301526153be81614c26565b9050919050565b600060208201905081810360008301526153de81614c8c565b9050919050565b600060208201905081810360008301526153fe81614ccc565b9050919050565b6000602082019050818103600083015261541e81614d0c565b9050919050565b6000602082019050818103600083015261543e81614d72565b9050919050565b6000602082019050818103600083015261545e81614db2565b9050919050565b6000602082019050818103600083015261547e81614df2565b9050919050565b6000602082019050818103600083015261549e81614e4c565b9050919050565b600060208201905081810360008301526154be81614e8c565b9050919050565b600060208201905081810360008301526154de81614ecc565b9050919050565b600060208201905081810360008301526154fe81614f0c565b9050919050565b6000602082019050818103600083015261551e81614f4c565b9050919050565b6000602082019050818103600083015261553e81614f8c565b9050919050565b6000602082019050818103600083015261555e81614fcc565b9050919050565b6000602082019050818103600083015261557e81615032565b9050919050565b600060208201905061559a6000830184615072565b92915050565b60006040820190506155b56000830185615072565b6155c26020830184615072565b9392505050565b60006080820190506155de6000830187615072565b6155eb6020830186615072565b6155f86040830185615072565b6156056060830184615072565b95945050505050565b600060a0820190506156236000830188615072565b6156306020830187615072565b61563d6040830186615072565b61564a6060830185615072565b818103608083015261565c8184614b6d565b90509695505050505050565b600060e08201905061567d600083018a615072565b61568a6020830189615072565b6156976040830188615072565b6156a46060830187615072565b6156b16080830186615072565b6156be60a0830185615072565b6156cb60c0830184614ad3565b98975050505050505050565b600081519050919050565b600081519050919050565b600081905092915050565b600082825260208201905092915050565b600061571482615739565b9050919050565b600061572682615739565b9050919050565b60008115159050919050565b600073ffffffffffffffffffffffffffffffffffffffff82169050919050565b6000819050919050565b600061576e826157cf565b9050919050565b600061578082615787565b9050919050565b600061579282615739565b9050919050565b60006157a4826157ab565b9050919050565b60006157b682615739565b9050919050565b60006157c882615759565b9050919050565b60006157da826157e1565b9050919050565b60006157ec82615739565b9050919050565b60005b838110156158115780820151818401526020810190506157f6565b83811115615820576000848401525b50505050565b6000601f19601f8301169050919050565b61584081615709565b811461584b57600080fd5b50565b6158578161571b565b811461586257600080fd5b50565b61586e8161572d565b811461587957600080fd5b50565b61588581615759565b811461589057600080fd5b5056fea264697066735822122063fa765877426fef981059ba526055f128681e8e653d487be36f5775961bc0ac64736f6c63430006080033",
  "linkReferences": {
    "contracts/games/FomoLotto/library/Utils.sol": {
      "Utils": [
        {
          "length": 20,
          "start": 7249
        },
        {
          "length": 20,
          "start": 7416
        },
        {
          "length": 20,
          "start": 11965
        },
        {
          "length": 20,
          "start": 12138
        },
        {
          "length": 20,
          "start": 14160
        }
      ]
    }
  },
  "deployedLinkReferences": {
    "contracts/games/FomoLotto/library/Utils.sol": {
      "Utils": [
        {
          "length": 20,
          "start": 7062
        },
        {
          "length": 20,
          "start": 7229
        },
        {
          "length": 20,
          "start": 11778
        },
        {
          "length": 20,
          "start": 11951
        },
        {
          "length": 20,
          "start": 13973
        }
      ]
    }
  }
}