{
  "_format": "hh-sol-artifact-1",
  "contractName": "FomoLotto",
  "sourceName": "contracts/games/FomoLotto/FomoLotto.sol",
  "abi": [
    {
      "inputs": [],
      "stateMutability": "nonpayable",
      "type": "constructor"
    },
    {
      "stateMutability": "payable",
      "type": "fallback"
    },
    {
      "inputs": [],
      "name": "WBNB_",
      "outputs": [
        {
          "internalType": "contract IERC20",
          "name": "",
          "type": "address"
        }
      ],
      "stateMutability": "view",
      "type": "function"
    },
    {
      "inputs": [
        {
          "internalType": "address",
          "name": "_primaryToken",
          "type": "address"
        },
        {
          "internalType": "address",
          "name": "_wbnbAddress",
          "type": "address"
        },
        {
          "internalType": "address",
          "name": "_routerAddress",
          "type": "address"
        },
        {
          "internalType": "address payable",
          "name": "airdropFundAddress",
          "type": "address"
        }
      ],
      "name": "activate",
      "outputs": [],
      "stateMutability": "nonpayable",
      "type": "function"
    },
    {
      "inputs": [],
      "name": "activated_",
      "outputs": [
        {
          "internalType": "bool",
          "name": "",
          "type": "bool"
        }
      ],
      "stateMutability": "view",
      "type": "function"
    },
    {
      "inputs": [
        {
          "internalType": "address",
          "name": "_tokenContract",
          "type": "address"
        }
      ],
      "name": "addWhitelist",
      "outputs": [],
      "stateMutability": "nonpayable",
      "type": "function"
    },
    {
      "inputs": [
        {
          "internalType": "address",
          "name": "playerAddress",
          "type": "address"
        }
      ],
      "name": "burnFundByPlayerAddress",
      "outputs": [],
      "stateMutability": "nonpayable",
      "type": "function"
    },
    {
      "inputs": [],
      "name": "burnFundFee",
      "outputs": [
        {
          "internalType": "uint256",
          "name": "",
          "type": "uint256"
        }
      ],
      "stateMutability": "view",
      "type": "function"
    },
    {
      "inputs": [],
      "name": "burnFund_",
      "outputs": [
        {
          "internalType": "uint256",
          "name": "",
          "type": "uint256"
        }
      ],
      "stateMutability": "view",
      "type": "function"
    },
    {
      "inputs": [],
      "name": "burnFunds",
      "outputs": [],
      "stateMutability": "nonpayable",
      "type": "function"
    },
    {
      "inputs": [
        {
          "internalType": "uint256",
          "name": "_amountIn",
          "type": "uint256"
        },
        {
          "internalType": "bool",
          "name": "useBNB",
          "type": "bool"
        }
      ],
      "name": "buyXidXBN",
      "outputs": [],
      "stateMutability": "payable",
      "type": "function"
    },
    {
      "inputs": [
        {
          "internalType": "uint256",
          "name": "_rID",
          "type": "uint256"
        },
        {
          "internalType": "uint256",
          "name": "_eth",
          "type": "uint256"
        }
      ],
      "name": "calcKeysReceived",
      "outputs": [
        {
          "internalType": "uint256",
          "name": "",
          "type": "uint256"
        }
      ],
      "stateMutability": "view",
      "type": "function"
    },
    {
      "inputs": [
        {
          "internalType": "uint256",
          "name": "_rndInit_",
          "type": "uint256"
        },
        {
          "internalType": "uint256",
          "name": "_rndInc_",
          "type": "uint256"
        },
        {
          "internalType": "uint256",
          "name": "_rndMax_",
          "type": "uint256"
        },
        {
          "internalType": "uint256",
          "name": "_burnFundFee",
          "type": "uint256"
        },
        {
          "internalType": "uint256",
          "name": "_initialBurnFee",
          "type": "uint256"
        }
      ],
      "name": "configRound",
      "outputs": [],
      "stateMutability": "nonpayable",
      "type": "function"
    },
    {
      "inputs": [],
      "name": "emergencyWithdraw",
      "outputs": [],
      "stateMutability": "nonpayable",
      "type": "function"
    },
    {
      "inputs": [],
      "name": "getBuyPrice",
      "outputs": [
        {
          "internalType": "uint256",
          "name": "",
          "type": "uint256"
        }
      ],
      "stateMutability": "view",
      "type": "function"
    },
    {
      "inputs": [],
      "name": "getCurrentRoundInfo",
      "outputs": [
        {
          "internalType": "uint256",
          "name": "",
          "type": "uint256"
        },
        {
          "internalType": "uint256",
          "name": "",
          "type": "uint256"
        },
        {
          "internalType": "uint256",
          "name": "",
          "type": "uint256"
        },
        {
          "internalType": "uint256",
          "name": "",
          "type": "uint256"
        },
        {
          "internalType": "uint256",
          "name": "",
          "type": "uint256"
        },
        {
          "internalType": "uint256",
          "name": "",
          "type": "uint256"
        },
        {
          "internalType": "address",
          "name": "",
          "type": "address"
        }
      ],
      "stateMutability": "view",
      "type": "function"
    },
    {
      "inputs": [
        {
          "internalType": "address",
          "name": "_addr",
          "type": "address"
        }
      ],
      "name": "getPlayerInfoByAddress",
      "outputs": [
        {
          "internalType": "uint256",
          "name": "",
          "type": "uint256"
        },
        {
          "internalType": "uint256",
          "name": "",
          "type": "uint256"
        },
        {
          "internalType": "uint256",
          "name": "",
          "type": "uint256"
        },
        {
          "internalType": "uint256",
          "name": "",
          "type": "uint256"
        }
      ],
      "stateMutability": "view",
      "type": "function"
    },
    {
      "inputs": [
        {
          "internalType": "address",
          "name": "_pID",
          "type": "address"
        }
      ],
      "name": "getPlayerVaults",
      "outputs": [
        {
          "internalType": "uint256",
          "name": "",
          "type": "uint256"
        },
        {
          "internalType": "uint256",
          "name": "",
          "type": "uint256"
        }
      ],
      "stateMutability": "view",
      "type": "function"
    },
    {
      "inputs": [],
      "name": "getTimeLeft",
      "outputs": [
        {
          "internalType": "uint256",
          "name": "",
          "type": "uint256"
        }
      ],
      "stateMutability": "view",
      "type": "function"
    },
    {
      "inputs": [
        {
          "internalType": "uint256",
          "name": "_keys",
          "type": "uint256"
        }
      ],
      "name": "iWantXKeys",
      "outputs": [
        {
          "internalType": "uint256",
          "name": "",
          "type": "uint256"
        }
      ],
      "stateMutability": "view",
      "type": "function"
    },
    {
      "inputs": [],
      "name": "initialBurnFee",
      "outputs": [
        {
          "internalType": "uint256",
          "name": "",
          "type": "uint256"
        }
      ],
      "stateMutability": "view",
      "type": "function"
    },
    {
      "inputs": [
        {
          "internalType": "address",
          "name": "_tokenContract",
          "type": "address"
        }
      ],
      "name": "isWhitelisted",
      "outputs": [
        {
          "internalType": "bool",
          "name": "",
          "type": "bool"
        }
      ],
      "stateMutability": "view",
      "type": "function"
    },
    {
      "inputs": [],
      "name": "name",
      "outputs": [
        {
          "internalType": "string",
          "name": "",
          "type": "string"
        }
      ],
      "stateMutability": "view",
      "type": "function"
    },
    {
      "inputs": [],
      "name": "owner_",
      "outputs": [
        {
          "internalType": "address",
          "name": "",
          "type": "address"
        }
      ],
      "stateMutability": "view",
      "type": "function"
    },
    {
      "inputs": [],
      "name": "playerFees",
      "outputs": [
        {
          "internalType": "uint256",
          "name": "",
          "type": "uint256"
        }
      ],
      "stateMutability": "view",
      "type": "function"
    },
    {
      "inputs": [
        {
          "internalType": "address",
          "name": "",
          "type": "address"
        },
        {
          "internalType": "uint256",
          "name": "",
          "type": "uint256"
        }
      ],
      "name": "plyrRnds_",
      "outputs": [
        {
          "internalType": "uint256",
          "name": "eth",
          "type": "uint256"
        },
        {
          "internalType": "uint256",
          "name": "keys",
          "type": "uint256"
        },
        {
          "internalType": "uint256",
          "name": "mask",
          "type": "uint256"
        },
        {
          "internalType": "uint256",
          "name": "ico",
          "type": "uint256"
        }
      ],
      "stateMutability": "view",
      "type": "function"
    },
    {
      "inputs": [
        {
          "internalType": "address",
          "name": "",
          "type": "address"
        }
      ],
      "name": "plyr_",
      "outputs": [
        {
          "internalType": "uint256",
          "name": "win",
          "type": "uint256"
        },
        {
          "internalType": "uint256",
          "name": "gen",
          "type": "uint256"
        },
        {
          "internalType": "uint256",
          "name": "lrnd",
          "type": "uint256"
        },
        {
          "internalType": "uint256",
          "name": "lastActivityDate",
          "type": "uint256"
        },
        {
          "internalType": "string",
          "name": "lastActivityName",
          "type": "string"
        }
      ],
      "stateMutability": "view",
      "type": "function"
    },
    {
      "inputs": [],
      "name": "potWinnerShare",
      "outputs": [
        {
          "internalType": "uint256",
          "name": "",
          "type": "uint256"
        }
      ],
      "stateMutability": "view",
      "type": "function"
    },
    {
      "inputs": [],
      "name": "primaryToken_",
      "outputs": [
        {
          "internalType": "contract IERC20",
          "name": "",
          "type": "address"
        }
      ],
      "stateMutability": "view",
      "type": "function"
    },
    {
      "inputs": [],
      "name": "rID_",
      "outputs": [
        {
          "internalType": "uint256",
          "name": "",
          "type": "uint256"
        }
      ],
      "stateMutability": "view",
      "type": "function"
    },
    {
      "inputs": [
        {
          "internalType": "uint256",
          "name": "_eth",
          "type": "uint256"
        }
      ],
      "name": "reLoadXid",
      "outputs": [],
      "stateMutability": "nonpayable",
      "type": "function"
    },
    {
      "inputs": [],
      "name": "rndInc_",
      "outputs": [
        {
          "internalType": "uint256",
          "name": "",
          "type": "uint256"
        }
      ],
      "stateMutability": "view",
      "type": "function"
    },
    {
      "inputs": [],
      "name": "rndInit_",
      "outputs": [
        {
          "internalType": "uint256",
          "name": "",
          "type": "uint256"
        }
      ],
      "stateMutability": "view",
      "type": "function"
    },
    {
      "inputs": [],
      "name": "rndMax_",
      "outputs": [
        {
          "internalType": "uint256",
          "name": "",
          "type": "uint256"
        }
      ],
      "stateMutability": "view",
      "type": "function"
    },
    {
      "inputs": [
        {
          "internalType": "uint256",
          "name": "",
          "type": "uint256"
        }
      ],
      "name": "round_",
      "outputs": [
        {
          "internalType": "address",
          "name": "addr",
          "type": "address"
        },
        {
          "internalType": "uint256",
          "name": "end",
          "type": "uint256"
        },
        {
          "internalType": "bool",
          "name": "ended",
          "type": "bool"
        },
        {
          "internalType": "uint256",
          "name": "strt",
          "type": "uint256"
        },
        {
          "internalType": "uint256",
          "name": "keys",
          "type": "uint256"
        },
        {
          "internalType": "uint256",
          "name": "eth",
          "type": "uint256"
        },
        {
          "internalType": "uint256",
          "name": "pot",
          "type": "uint256"
        },
        {
          "internalType": "uint256",
          "name": "mask",
          "type": "uint256"
        }
      ],
      "stateMutability": "view",
      "type": "function"
    },
    {
      "inputs": [],
      "name": "router_",
      "outputs": [
        {
          "internalType": "contract IPancakeRouter02",
          "name": "",
          "type": "address"
        }
      ],
      "stateMutability": "view",
      "type": "function"
    },
    {
      "inputs": [
        {
          "internalType": "address payable",
          "name": "value",
          "type": "address"
        }
      ],
      "name": "setAirdropFund",
      "outputs": [],
      "stateMutability": "nonpayable",
      "type": "function"
    },
    {
      "inputs": [
        {
          "internalType": "uint256",
          "name": "_playerFees",
          "type": "uint256"
        }
      ],
      "name": "setPlayerFees",
      "outputs": [],
      "stateMutability": "nonpayable",
      "type": "function"
    },
    {
      "inputs": [
        {
          "internalType": "uint256",
          "name": "_potWinnerShare",
          "type": "uint256"
        }
      ],
      "name": "setPotWinnerShare",
      "outputs": [],
      "stateMutability": "nonpayable",
      "type": "function"
    },
    {
      "inputs": [
        {
          "internalType": "address",
          "name": "_primaryTokenAddress",
          "type": "address"
        }
      ],
      "name": "setPrimaryToken",
      "outputs": [],
      "stateMutability": "nonpayable",
      "type": "function"
    },
    {
      "inputs": [
        {
          "internalType": "address",
          "name": "_routerAddress",
          "type": "address"
        }
      ],
      "name": "setRouter",
      "outputs": [],
      "stateMutability": "nonpayable",
      "type": "function"
    },
    {
      "inputs": [
        {
          "internalType": "address",
          "name": "_wbnbAddress",
          "type": "address"
        }
      ],
      "name": "setWBNB",
      "outputs": [],
      "stateMutability": "nonpayable",
      "type": "function"
    },
    {
      "inputs": [
        {
          "internalType": "uint256",
          "name": "taxPercent",
          "type": "uint256"
        },
        {
          "internalType": "uint256",
          "name": "cappedDeductedBNB",
          "type": "uint256"
        }
      ],
      "name": "setXBNTaxFees",
      "outputs": [],
      "stateMutability": "nonpayable",
      "type": "function"
    },
    {
      "inputs": [],
      "name": "taxFeePercentXBN",
      "outputs": [
        {
          "internalType": "uint256",
          "name": "",
          "type": "uint256"
        }
      ],
      "stateMutability": "view",
      "type": "function"
    },
    {
      "inputs": [],
      "name": "viewRouter",
      "outputs": [
        {
          "internalType": "address",
          "name": "",
          "type": "address"
        }
      ],
      "stateMutability": "view",
      "type": "function"
    },
    {
      "inputs": [],
      "name": "withdraw",
      "outputs": [],
      "stateMutability": "nonpayable",
      "type": "function"
    }
  ],
  "bytecode": "0x6080604052610e10600155600a6002556201518060035560056004556005805560356006556050600755600a6013556802b5e3af16b18800006014556000601560006101000a81548160ff02191690831515021790555034801561006257600080fd5b50600160008190555033600d60006101000a81548173ffffffffffffffffffffffffffffffffffffffff021916908373ffffffffffffffffffffffffffffffffffffffff160217905550615e1680620000bc6000396000f3fe60806040526004361061026b5760003560e01c8063922f8d8311610144578063d53b2679116100b6578063ee0b5d8b1161007a578063ee0b5d8b146108f3578063f203adc014610933578063f23b59d51461095e578063f265dd0014610987578063f80f5dd5146109c5578063fc8e0b40146109ee5761026c565b8063d53b267914610830578063db2e21bc1461085b578063e1bfd68114610872578063e76630791461089d578063e79dc6d6146108c85761026c565b8063c68b0cd411610108578063c68b0cd4146106f8578063c7e284b814610739578063cab27a6414610764578063cb7028c11461078d578063ce89c80c146107b6578063cf808000146107f35761026c565b8063922f8d8314610634578063ae2539bc1461065f578063bfba7c8314610688578063c0d78655146106a4578063c33073ce146106cd5761026c565b80633f06f941116101dd5780636408406f116101a15780636408406f14610542578063666a7c9b1461056b5780636d0cce5914610582578063747dff42146105ad578063863a5e65146105de5780638b68cd9d146106095761026c565b80633f06f94114610458578063452b381d146104835780634f1cb291146104c3578063592ed93c146104ee578063624ae5c0146105175761026c565b806319d7943a1161022f57806319d7943a1461034357806324c33d331461036c578063266e2ce2146103b05780633af32abf146103d95780633ccfd60b146104165780633ee6d9331461042d5761026c565b8063018a25e81461026e578063045ec5631461029957806306fdde03146102c4578063086fbe86146102ef578063183f9811146103185761026c565b5b005b34801561027a57600080fd5b50610283610a17565b6040516102909190615ad2565b60405180910390f35b3480156102a557600080fd5b506102ae610b55565b6040516102bb9190615ad2565b60405180910390f35b3480156102d057600080fd5b506102d9610b5b565b6040516102e69190615870565b60405180910390f35b3480156102fb57600080fd5b5061031660048036038101906103119190614db5565b610b94565b005b34801561032457600080fd5b5061032d610c68565b60405161033a9190615ad2565b60405180910390f35b34801561034f57600080fd5b5061036a60048036038101906103659190614ea6565b610c6e565b005b34801561037857600080fd5b50610393600480360381019061038e9190614ea6565b610da0565b6040516103a79897969594939291906157a1565b60405180910390f35b3480156103bc57600080fd5b506103d760048036038101906103d29190614f34565b610e15565b005b3480156103e557600080fd5b5061040060048036038101906103fb9190614d8c565b610eb7565b60405161040d919061581f565b60405180910390f35b34801561042257600080fd5b5061042b610f0d565b005b34801561043957600080fd5b50610442611467565b60405161044f9190615ad2565b60405180910390f35b34801561046457600080fd5b5061046d61146d565b60405161047a9190615ad2565b60405180910390f35b34801561048f57600080fd5b506104aa60048036038101906104a59190614e41565b611473565b6040516104ba9493929190615b16565b60405180910390f35b3480156104cf57600080fd5b506104d86114b0565b6040516104e5919061562e565b60405180910390f35b3480156104fa57600080fd5b5061051560048036038101906105109190614d8c565b6114da565b005b34801561052357600080fd5b5061052c61161e565b6040516105399190615ad2565b60405180910390f35b34801561054e57600080fd5b5061056960048036038101906105649190614d8c565b611624565b005b34801561057757600080fd5b506105806116f8565b005b34801561058e57600080fd5b506105976117a4565b6040516105a4919061583a565b60405180910390f35b3480156105b957600080fd5b506105c26117ca565b6040516105d59796959493929190615bb5565b60405180910390f35b3480156105ea57600080fd5b506105f361189e565b6040516106009190615855565b60405180910390f35b34801561061557600080fd5b5061061e6118c4565b60405161062b9190615ad2565b60405180910390f35b34801561064057600080fd5b506106496118ca565b6040516106569190615ad2565b60405180910390f35b34801561066b57600080fd5b5061068660048036038101906106819190614f70565b6118d0565b005b6106a2600480360381019061069d9190614ef8565b61198a565b005b3480156106b057600080fd5b506106cb60048036038101906106c69190614d8c565b611ecc565b005b3480156106d957600080fd5b506106e2611fa0565b6040516106ef9190615ad2565b60405180910390f35b34801561070457600080fd5b5061071f600480360381019061071a9190614d8c565b611fa6565b604051610730959493929190615b5b565b60405180910390f35b34801561074557600080fd5b5061074e612074565b60405161075b9190615ad2565b60405180910390f35b34801561077057600080fd5b5061078b60048036038101906107869190614d8c565b61212b565b005b34801561079957600080fd5b506107b460048036038101906107af9190614ea6565b6121ff565b005b3480156107c257600080fd5b506107dd60048036038101906107d89190614f34565b6123b1565b6040516107ea9190615ad2565b60405180910390f35b3480156107ff57600080fd5b5061081a60048036038101906108159190614ea6565b6124c9565b6040516108279190615ad2565b60405180910390f35b34801561083c57600080fd5b506108456125fb565b604051610852919061581f565b60405180910390f35b34801561086757600080fd5b5061087061260e565b005b34801561087e57600080fd5b506108876128a7565b604051610894919061583a565b60405180910390f35b3480156108a957600080fd5b506108b26128cd565b6040516108bf919061562e565b60405180910390f35b3480156108d457600080fd5b506108dd6128f3565b6040516108ea9190615ad2565b60405180910390f35b3480156108ff57600080fd5b5061091a60048036038101906109159190614d8c565b6128f9565b60405161092a9493929190615b16565b60405180910390f35b34801561093f57600080fd5b50610948612aa1565b6040516109559190615ad2565b60405180910390f35b34801561096a57600080fd5b5061098560048036038101906109809190614dde565b612aa7565b005b34801561099357600080fd5b506109ae60048036038101906109a99190614d8c565b612caa565b6040516109bc929190615aed565b60405180910390f35b3480156109d157600080fd5b506109ec60048036038101906109e79190614d8c565b613132565b005b3480156109fa57600080fd5b50610a156004803603810190610a109190614ea6565b6133ee565b005b600080600b5490506000429050601160008381526020019081526020016000206003015481118015610aed5750601160008381526020019081526020016000206001015481111580610aec5750601160008381526020019081526020016000206001015481118015610aeb5750600073ffffffffffffffffffffffffffffffffffffffff166011600084815260200190815260200160002060000160009054906101000a900473ffffffffffffffffffffffffffffffffffffffff1673ffffffffffffffffffffffffffffffffffffffff16145b5b5b15610b4657610b3d670de0b6b3a7640000610b2f670de0b6b3a7640000601160008781526020019081526020016000206004015461348890919063ffffffff16565b6134db90919063ffffffff16565b92505050610b52565b6544364c5bb000925050505b90565b60025481565b6040518060400160405280600981526020017f466f6d6f4c6f74746f000000000000000000000000000000000000000000000081525081565b600d60009054906101000a900473ffffffffffffffffffffffffffffffffffffffff1673ffffffffffffffffffffffffffffffffffffffff163373ffffffffffffffffffffffffffffffffffffffff1614610c24576040517f08c379a0000000000000000000000000000000000000000000000000000000008152600401610c1b906158d2565b60405180910390fd5b80601260006101000a81548173ffffffffffffffffffffffffffffffffffffffff021916908373ffffffffffffffffffffffffffffffffffffffff16021790555050565b60065481565b60011515601560009054906101000a900460ff16151514610cc4576040517f08c379a0000000000000000000000000000000000000000000000000000000008152600401610cbb90615a52565b60405180910390fd5b3373ffffffffffffffffffffffffffffffffffffffff163273ffffffffffffffffffffffffffffffffffffffff1614610d32576040517f08c379a0000000000000000000000000000000000000000000000000000000008152600401610d29906158f2565b60405180910390fd5b80610d3c8161351a565b60026000541415610d82576040517f08c379a0000000000000000000000000000000000000000000000000000000008152600401610d7990615a72565b60405180910390fd5b6002600081905550610d9433836135b1565b60016000819055505050565b60116020528060005260406000206000915090508060000160009054906101000a900473ffffffffffffffffffffffffffffffffffffffff16908060010154908060020160009054906101000a900460ff16908060030154908060040154908060050154908060060154908060070154905088565b600d60009054906101000a900473ffffffffffffffffffffffffffffffffffffffff1673ffffffffffffffffffffffffffffffffffffffff163373ffffffffffffffffffffffffffffffffffffffff1614610ea5576040517f08c379a0000000000000000000000000000000000000000000000000000000008152600401610e9c906158d2565b60405180910390fd5b81601381905550806014819055505050565b6000600e60008373ffffffffffffffffffffffffffffffffffffffff1673ffffffffffffffffffffffffffffffffffffffff16815260200190815260200160002060009054906101000a900460ff169050919050565b60011515601560009054906101000a900460ff16151514610f63576040517f08c379a0000000000000000000000000000000000000000000000000000000008152600401610f5a90615a52565b60405180910390fd5b3373ffffffffffffffffffffffffffffffffffffffff163273ffffffffffffffffffffffffffffffffffffffff1614610fd1576040517f08c379a0000000000000000000000000000000000000000000000000000000008152600401610fc8906158f2565b60405180910390fd5b60026000541415611017576040517f08c379a000000000000000000000000000000000000000000000000000000000815260040161100e90615a72565b60405180910390fd5b60026000819055506000600b549050600042905060006011600084815260200190815260200160002060010154821180156110795750600015156011600085815260200190815260200160002060020160009054906101000a900460ff161515145b80156110e85750600073ffffffffffffffffffffffffffffffffffffffff166011600085815260200190815260200160002060000160009054906101000a900473ffffffffffffffffffffffffffffffffffffffff1673ffffffffffffffffffffffffffffffffffffffff1614155b156112bd5760016011600085815260200190815260200160002060020160006101000a81548160ff0219169083151502179055506111253361378c565b905060008111156111be57600860009054906101000a900473ffffffffffffffffffffffffffffffffffffffff1673ffffffffffffffffffffffffffffffffffffffff16632e1a7d4d826040518263ffffffff1660e01b815260040161118b9190615ad2565b600060405180830381600087803b1580156111a557600080fd5b505af11580156111b9573d6000803e3d6000fd5b505050505b60003373ffffffffffffffffffffffffffffffffffffffff1682600067ffffffffffffffff811180156111f057600080fd5b506040519080825280601f01601f1916602001820160405280156112235781602001600182028036833780820191505090505b506040516112319190615602565b60006040518083038185875af1925050503d806000811461126e576040519150601f19603f3d011682016040523d82523d6000602084013e611273565b606091505b50509050806112b7576040517f08c379a00000000000000000000000000000000000000000000000000000000081526004016112ae90615932565b60405180910390fd5b5061145a565b6112c63361378c565b9050600081111561135f57600860009054906101000a900473ffffffffffffffffffffffffffffffffffffffff1673ffffffffffffffffffffffffffffffffffffffff16632e1a7d4d826040518263ffffffff1660e01b815260040161132c9190615ad2565b600060405180830381600087803b15801561134657600080fd5b505af115801561135a573d6000803e3d6000fd5b505050505b60003373ffffffffffffffffffffffffffffffffffffffff1682600067ffffffffffffffff8111801561139157600080fd5b506040519080825280601f01601f1916602001820160405280156113c45781602001600182028036833780820191505090505b506040516113d29190615602565b60006040518083038185875af1925050503d806000811461140f576040519150601f19603f3d011682016040523d82523d6000602084013e611414565b606091505b5050905080611458576040517f08c379a000000000000000000000000000000000000000000000000000000000815260040161144f90615932565b60405180910390fd5b505b5050506001600081905550565b60015481565b60135481565b6010602052816000526040600020602052806000526040600020600091509150508060000154908060010154908060020154908060030154905084565b6000600a60009054906101000a900473ffffffffffffffffffffffffffffffffffffffff16905090565b600d60009054906101000a900473ffffffffffffffffffffffffffffffffffffffff1673ffffffffffffffffffffffffffffffffffffffff163373ffffffffffffffffffffffffffffffffffffffff161461156a576040517f08c379a0000000000000000000000000000000000000000000000000000000008152600401611561906158d2565b60405180910390fd5b60006115758261378c565b9050600081111561160e57600860009054906101000a900473ffffffffffffffffffffffffffffffffffffffff1673ffffffffffffffffffffffffffffffffffffffff16632e1a7d4d826040518263ffffffff1660e01b81526004016115db9190615ad2565b600060405180830381600087803b1580156115f557600080fd5b505af1158015611609573d6000803e3d6000fd5b505050505b61161981600161393d565b505050565b600b5481565b600d60009054906101000a900473ffffffffffffffffffffffffffffffffffffffff1673ffffffffffffffffffffffffffffffffffffffff163373ffffffffffffffffffffffffffffffffffffffff16146116b4576040517f08c379a00000000000000000000000000000000000000000000000000000000081526004016116ab906158d2565b60405180910390fd5b80600960006101000a81548173ffffffffffffffffffffffffffffffffffffffff021916908373ffffffffffffffffffffffffffffffffffffffff16021790555050565b600d60009054906101000a900473ffffffffffffffffffffffffffffffffffffffff1673ffffffffffffffffffffffffffffffffffffffff163373ffffffffffffffffffffffffffffffffffffffff1614611788576040517f08c379a000000000000000000000000000000000000000000000000000000000815260040161177f906158d2565b60405180910390fd5b6000600c5411156117a2576117a0600c54600161393d565b505b565b600860009054906101000a900473ffffffffffffffffffffffffffffffffffffffff1681565b600080600080600080600080600b54905080601160008381526020019081526020016000206004015460116000848152602001908152602001600020600101546011600085815260200190815260200160002060030154601160008681526020019081526020016000206006015460116000878152602001908152602001600020600501546011600088815260200190815260200160002060000160009054906101000a900473ffffffffffffffffffffffffffffffffffffffff1697509750975097509750975097505090919293949596565b600a60009054906101000a900473ffffffffffffffffffffffffffffffffffffffff1681565b60035481565b600c5481565b600d60009054906101000a900473ffffffffffffffffffffffffffffffffffffffff1673ffffffffffffffffffffffffffffffffffffffff163373ffffffffffffffffffffffffffffffffffffffff1614611960576040517f08c379a0000000000000000000000000000000000000000000000000000000008152600401611957906158d2565b60405180910390fd5b84600281905550836002819055508260038190555081600481905550806005819055505050505050565b60011515601560009054906101000a900460ff161515146119e0576040517f08c379a00000000000000000000000000000000000000000000000000000000081526004016119d790615a52565b60405180910390fd5b3373ffffffffffffffffffffffffffffffffffffffff163273ffffffffffffffffffffffffffffffffffffffff1614611a4e576040517f08c379a0000000000000000000000000000000000000000000000000000000008152600401611a45906158f2565b60405180910390fd5b60026000541415611a94576040517f08c379a0000000000000000000000000000000000000000000000000000000008152600401611a8b90615a72565b60405180910390fd5b60026000819055506000600b54905060006005549050681b1ae4d6e2ef50000060116000848152602001908152602001600020600601541115611ae157600260055481611add57fe5b0490505b6000611b096064611afb8488613a4490919063ffffffff16565b613ab190919063ffffffff16565b90506000809050600115158515151415611b7a5760003411611b60576040517f08c379a0000000000000000000000000000000000000000000000000000000008152600401611b57906159f2565b60405180910390fd5b611b738234613aca90919063ffffffff16565b9050611e84565b60008611611bbd576040517f08c379a0000000000000000000000000000000000000000000000000000000008152600401611bb4906159f2565b60405180910390fd5b73__$9436495c816881953685746084c3158ab7$__63741a41c333600960009054906101000a900473ffffffffffffffffffffffffffffffffffffffff16896040518463ffffffff1660e01b8152600401611c1a93929190615664565b60006040518083038186803b158015611c3257600080fd5b505af4158015611c46573d6000803e3d6000fd5b50505050611c5d8287613aca90919063ffffffff16565b95506000600860009054906101000a900473ffffffffffffffffffffffffffffffffffffffff1673ffffffffffffffffffffffffffffffffffffffff166370a08231306040518263ffffffff1660e01b8152600401611cbc9190615649565b60206040518083038186803b158015611cd457600080fd5b505afa158015611ce8573d6000803e3d6000fd5b505050506040513d601f19601f82011682018060405250810190611d0c9190614ecf565b905073__$9436495c816881953685746084c3158ab7$__632606222a600a60009054906101000a900473ffffffffffffffffffffffffffffffffffffffff16600960009054906101000a900473ffffffffffffffffffffffffffffffffffffffff168a6040518463ffffffff1660e01b8152600401611d8d939291906156fb565b60006040518083038186803b158015611da557600080fd5b505af4158015611db9573d6000803e3d6000fd5b505050506000600860009054906101000a900473ffffffffffffffffffffffffffffffffffffffff1673ffffffffffffffffffffffffffffffffffffffff166370a08231306040518263ffffffff1660e01b8152600401611e1a9190615649565b60206040518083038186803b158015611e3257600080fd5b505afa158015611e46573d6000803e3d6000fd5b505050506040513d601f19601f82011682018060405250810190611e6a9190614ecf565b9050611e7f8282613aca90919063ffffffff16565b925050505b6000611e9182600061393d565b9050611ea68183613aca90919063ffffffff16565b9150611eb18261351a565b611ebb3383613b1a565b505050505060016000819055505050565b600d60009054906101000a900473ffffffffffffffffffffffffffffffffffffffff1673ffffffffffffffffffffffffffffffffffffffff163373ffffffffffffffffffffffffffffffffffffffff1614611f5c576040517f08c379a0000000000000000000000000000000000000000000000000000000008152600401611f53906158d2565b60405180910390fd5b80600a60006101000a81548173ffffffffffffffffffffffffffffffffffffffff021916908373ffffffffffffffffffffffffffffffffffffffff16021790555050565b60055481565b600f602052806000526040600020600091509050806000015490806001015490806002015490806003015490806004018054600181600116156101000203166002900480601f01602080910402602001604051908101604052809291908181526020018280546001816001161561010002031660029004801561206a5780601f1061203f5761010080835404028352916020019161206a565b820191906000526020600020905b81548152906001019060200180831161204d57829003601f168201915b5050505050905085565b600080600b549050600042905060116000838152602001908152602001600020600101548110156121215760116000838152602001908152602001600020600301548111156120ef576120e6816011600085815260200190815260200160002060010154613aca90919063ffffffff16565b92505050612128565b612118816011600085815260200190815260200160002060030154613aca90919063ffffffff16565b92505050612128565b6000925050505b90565b600d60009054906101000a900473ffffffffffffffffffffffffffffffffffffffff1673ffffffffffffffffffffffffffffffffffffffff163373ffffffffffffffffffffffffffffffffffffffff16146121bb576040517f08c379a00000000000000000000000000000000000000000000000000000000081526004016121b2906158d2565b60405180910390fd5b80600860006101000a81548173ffffffffffffffffffffffffffffffffffffffff021916908373ffffffffffffffffffffffffffffffffffffffff16021790555050565b600d60009054906101000a900473ffffffffffffffffffffffffffffffffffffffff1673ffffffffffffffffffffffffffffffffffffffff163373ffffffffffffffffffffffffffffffffffffffff161461228f576040517f08c379a0000000000000000000000000000000000000000000000000000000008152600401612286906158d2565b60405180910390fd5b600d60009054906101000a900473ffffffffffffffffffffffffffffffffffffffff1673ffffffffffffffffffffffffffffffffffffffff163373ffffffffffffffffffffffffffffffffffffffff161461231f576040517f08c379a000000000000000000000000000000000000000000000000000000000815260040161231690615992565b60405180910390fd5b6050811015612363576040517f08c379a000000000000000000000000000000000000000000000000000000000815260040161235a906158b2565b60405180910390fd5b60648111156123a7576040517f08c379a000000000000000000000000000000000000000000000000000000000815260040161239e90615892565b60405180910390fd5b8060078190555050565b600080429050601160008581526020019081526020016000206003015481118015612480575060116000858152602001908152602001600020600101548111158061247f575060116000858152602001908152602001600020600101548111801561247e5750600073ffffffffffffffffffffffffffffffffffffffff166011600086815260200190815260200160002060000160009054906101000a900473ffffffffffffffffffffffffffffffffffffffff1673ffffffffffffffffffffffffffffffffffffffff16145b5b5b156124b6576124ae836011600087815260200190815260200160002060050154613d2f90919063ffffffff16565b9150506124c3565b6124bf83613d6e565b9150505b92915050565b600080600b549050600042905060116000838152602001908152602001600020600301548111801561259f575060116000838152602001908152602001600020600101548111158061259e575060116000838152602001908152602001600020600101548111801561259d5750600073ffffffffffffffffffffffffffffffffffffffff166011600084815260200190815260200160002060000160009054906101000a900473ffffffffffffffffffffffffffffffffffffffff1673ffffffffffffffffffffffffffffffffffffffff16145b5b5b156125e8576125df846125d186601160008781526020019081526020016000206004015461348890919063ffffffff16565b6134db90919063ffffffff16565b925050506125f6565b6125f184613e12565b925050505b919050565b601560009054906101000a900460ff1681565b600d60009054906101000a900473ffffffffffffffffffffffffffffffffffffffff1673ffffffffffffffffffffffffffffffffffffffff163373ffffffffffffffffffffffffffffffffffffffff161461269e576040517f08c379a0000000000000000000000000000000000000000000000000000000008152600401612695906158d2565b60405180910390fd5b60003373ffffffffffffffffffffffffffffffffffffffff16476040516126c490615619565b60006040518083038185875af1925050503d8060008114612701576040519150601f19603f3d011682016040523d82523d6000602084013e612706565b606091505b505090508061274a576040517f08c379a000000000000000000000000000000000000000000000000000000000815260040161274190615a92565b60405180910390fd5b600960009054906101000a900473ffffffffffffffffffffffffffffffffffffffff1673ffffffffffffffffffffffffffffffffffffffff1663a9059cbb33600960009054906101000a900473ffffffffffffffffffffffffffffffffffffffff1673ffffffffffffffffffffffffffffffffffffffff166370a08231306040518263ffffffff1660e01b81526004016127e49190615649565b60206040518083038186803b1580156127fc57600080fd5b505afa158015612810573d6000803e3d6000fd5b505050506040513d601f19601f820116820180604052508101906128349190614ecf565b6040518363ffffffff1660e01b815260040161285192919061569b565b602060405180830381600087803b15801561286b57600080fd5b505af115801561287f573d6000803e3d6000fd5b505050506040513d601f19601f820116820180604052508101906128a39190614e7d565b5050565b600960009054906101000a900473ffffffffffffffffffffffffffffffffffffffff1681565b600d60009054906101000a900473ffffffffffffffffffffffffffffffffffffffff1681565b60045481565b6000806000806000600b549050601060008773ffffffffffffffffffffffffffffffffffffffff1673ffffffffffffffffffffffffffffffffffffffff168152602001908152602001600020600082815260200190815260200160002060010154600f60008873ffffffffffffffffffffffffffffffffffffffff1673ffffffffffffffffffffffffffffffffffffffff16815260200190815260200160002060000154612a3d6129ec89600f60008c73ffffffffffffffffffffffffffffffffffffffff1673ffffffffffffffffffffffffffffffffffffffff16815260200190815260200160002060020154613ea1565b600f60008b73ffffffffffffffffffffffffffffffffffffffff1673ffffffffffffffffffffffffffffffffffffffff1681526020019081526020016000206001015461348890919063ffffffff16565b601060008a73ffffffffffffffffffffffffffffffffffffffff1673ffffffffffffffffffffffffffffffffffffffff1681526020019081526020016000206000858152602001908152602001600020600001549450945094509450509193509193565b60075481565b600d60009054906101000a900473ffffffffffffffffffffffffffffffffffffffff1673ffffffffffffffffffffffffffffffffffffffff163373ffffffffffffffffffffffffffffffffffffffff1614612b37576040517f08c379a0000000000000000000000000000000000000000000000000000000008152600401612b2e90615912565b60405180910390fd5b60001515601560009054906101000a900460ff16151514612b8d576040517f08c379a0000000000000000000000000000000000000000000000000000000008152600401612b8490615a32565b60405180910390fd5b73__$9436495c816881953685746084c3158ab7$__6352a23bbb84847fffffffffffffffffffffffffffffffffffffffffffffffffffffffffffffffff6040518463ffffffff1660e01b8152600401612be8939291906156c4565b60006040518083038186803b158015612c0057600080fd5b505af4158015612c14573d6000803e3d6000fd5b50505050612c2182611ecc565b612c2a8361212b565b612c3384613132565b612c3c84611624565b612c4581610b94565b6001601560006101000a81548160ff0219169083151502179055506001600b8190555042601160006001815260200190815260200160002060030181905550600154420160116000600181526020019081526020016000206001018190555050505050565b6000806000600b549050601160008281526020019081526020016000206001015442118015612d005750600015156011600083815260200190815260200160002060020160009054906101000a900460ff161515145b8015612d6f5750600073ffffffffffffffffffffffffffffffffffffffff166011600083815260200190815260200160002060000160009054906101000a900473ffffffffffffffffffffffffffffffffffffffff1673ffffffffffffffffffffffffffffffffffffffff1614155b15613044578373ffffffffffffffffffffffffffffffffffffffff166011600083815260200190815260200160002060000160009054906101000a900473ffffffffffffffffffffffffffffffffffffffff1673ffffffffffffffffffffffffffffffffffffffff161415612f3457612e676064612e0e6007546011600086815260200190815260200160002060060154613a4490919063ffffffff16565b81612e1557fe5b04600f60008773ffffffffffffffffffffffffffffffffffffffff1673ffffffffffffffffffffffffffffffffffffffff1681526020019081526020016000206000015461348890919063ffffffff16565b612f2a612ed9601060008873ffffffffffffffffffffffffffffffffffffffff1673ffffffffffffffffffffffffffffffffffffffff168152602001908152602001600020600085815260200190815260200160002060020154612ecb8886613f9d565b613aca90919063ffffffff16565b600f60008873ffffffffffffffffffffffffffffffffffffffff1673ffffffffffffffffffffffffffffffffffffffff1681526020019081526020016000206001015461348890919063ffffffff16565b925092505061312d565b600f60008573ffffffffffffffffffffffffffffffffffffffff1673ffffffffffffffffffffffffffffffffffffffff1681526020019081526020016000206000015461303a612fe9601060008873ffffffffffffffffffffffffffffffffffffffff1673ffffffffffffffffffffffffffffffffffffffff168152602001908152602001600020600085815260200190815260200160002060020154612fdb8886613f9d565b613aca90919063ffffffff16565b600f60008873ffffffffffffffffffffffffffffffffffffffff1673ffffffffffffffffffffffffffffffffffffffff1681526020019081526020016000206001015461348890919063ffffffff16565b925092505061312d565b600f60008573ffffffffffffffffffffffffffffffffffffffff1673ffffffffffffffffffffffffffffffffffffffff168152602001908152602001600020600001546131276130d686600f60008973ffffffffffffffffffffffffffffffffffffffff1673ffffffffffffffffffffffffffffffffffffffff16815260200190815260200160002060020154613ea1565b600f60008873ffffffffffffffffffffffffffffffffffffffff1673ffffffffffffffffffffffffffffffffffffffff1681526020019081526020016000206001015461348890919063ffffffff16565b92509250505b915091565b600d60009054906101000a900473ffffffffffffffffffffffffffffffffffffffff1673ffffffffffffffffffffffffffffffffffffffff163373ffffffffffffffffffffffffffffffffffffffff16146131c2576040517f08c379a00000000000000000000000000000000000000000000000000000000081526004016131b9906158d2565b60405180910390fd5b600d60009054906101000a900473ffffffffffffffffffffffffffffffffffffffff1673ffffffffffffffffffffffffffffffffffffffff163373ffffffffffffffffffffffffffffffffffffffff1614613252576040517f08c379a000000000000000000000000000000000000000000000000000000000815260040161324990615992565b60405180910390fd5b60011515600e60008373ffffffffffffffffffffffffffffffffffffffff1673ffffffffffffffffffffffffffffffffffffffff16815260200190815260200160002060009054906101000a900460ff16151514156132e6576040517f08c379a00000000000000000000000000000000000000000000000000000000081526004016132dd90615972565b60405180910390fd5b73__$9436495c816881953685746084c3158ab7$__6352a23bbb82600a60009054906101000a900473ffffffffffffffffffffffffffffffffffffffff167fffffffffffffffffffffffffffffffffffffffffffffffffffffffffffffffff6040518463ffffffff1660e01b8152600401613363939291906156c4565b60006040518083038186803b15801561337b57600080fd5b505af415801561338f573d6000803e3d6000fd5b505050506001600e60008373ffffffffffffffffffffffffffffffffffffffff1673ffffffffffffffffffffffffffffffffffffffff16815260200190815260200160002060006101000a81548160ff02191690831515021790555050565b600d60009054906101000a900473ffffffffffffffffffffffffffffffffffffffff1673ffffffffffffffffffffffffffffffffffffffff163373ffffffffffffffffffffffffffffffffffffffff161461347e576040517f08c379a0000000000000000000000000000000000000000000000000000000008152600401613475906158d2565b60405180910390fd5b8060068190555050565b60008183019050828110156134d2576040517f08c379a00000000000000000000000000000000000000000000000000000000081526004016134c990615a12565b60405180910390fd5b80905092915050565b60006135126134fb6134f68486613aca90919063ffffffff16565b613e12565b61350485613e12565b613aca90919063ffffffff16565b905092915050565b633b9aca00811015613561576040517f08c379a000000000000000000000000000000000000000000000000000000000815260040161355890615952565b60405180910390fd5b69152d02c7e14af68000008111156135ae576040517f08c379a00000000000000000000000000000000000000000000000000000000081526004016135a590615ab2565b60405180910390fd5b50565b6000600b5490506000429050601160008381526020019081526020016000206003015481118015613686575060116000838152602001908152602001600020600101548111158061368557506011600083815260200190815260200160002060010154811180156136845750600073ffffffffffffffffffffffffffffffffffffffff166011600084815260200190815260200160002060000160009054906101000a900473ffffffffffffffffffffffffffffffffffffffff1673ffffffffffffffffffffffffffffffffffffffff16145b5b5b156136fc576136a6836136988661378c565b613aca90919063ffffffff16565b600f60008673ffffffffffffffffffffffffffffffffffffffff1673ffffffffffffffffffffffffffffffffffffffff168152602001908152602001600020600101819055506136f7828585614034565b613786565b6011600083815260200190815260200160002060010154811180156137485750600015156011600084815260200190815260200160002060020160009054906101000a900460ff161515145b156137855760016011600084815260200190815260200160002060020160006101000a81548160ff0219169083151502179055506137846143c8565b5b5b50505050565b60006137da82600f60008573ffffffffffffffffffffffffffffffffffffffff1673ffffffffffffffffffffffffffffffffffffffff16815260200190815260200160002060020154614580565b6000613873600f60008573ffffffffffffffffffffffffffffffffffffffff1673ffffffffffffffffffffffffffffffffffffffff16815260200190815260200160002060010154600f60008673ffffffffffffffffffffffffffffffffffffffff1673ffffffffffffffffffffffffffffffffffffffff1681526020019081526020016000206000015461348890919063ffffffff16565b90506000811115613934576000600f60008573ffffffffffffffffffffffffffffffffffffffff1673ffffffffffffffffffffffffffffffffffffffff168152602001908152602001600020600001819055506000600f60008573ffffffffffffffffffffffffffffffffffffffff1673ffffffffffffffffffffffffffffffffffffffff16815260200190815260200160002060010181905550600061391b82600061393d565b90506139308183613aca90919063ffffffff16565b9150505b80915050919050565b600073__$9436495c816881953685746084c3158ab7$__63ed6de617600a60009054906101000a900473ffffffffffffffffffffffffffffffffffffffff16600960009054906101000a900473ffffffffffffffffffffffffffffffffffffffff16601354601454601260009054906101000a900473ffffffffffffffffffffffffffffffffffffffff1689896040518863ffffffff1660e01b81526004016139ec9796959493929190615732565b60206040518083038186803b158015613a0457600080fd5b505af4158015613a18573d6000803e3d6000fd5b505050506040513d601f19601f82011682018060405250810190613a3c9190614ecf565b905092915050565b600080831415613a575760009050613aab565b818302905081838281613a6657fe5b0414613aa7576040517f08c379a0000000000000000000000000000000000000000000000000000000008152600401613a9e906159b2565b60405180910390fd5b8090505b92915050565b600080828481613abd57fe5b0490508091505092915050565b600082821115613b0f576040517f08c379a0000000000000000000000000000000000000000000000000000000008152600401613b06906159d2565b60405180910390fd5b818303905092915050565b6000600b5490506000429050601160008381526020019081526020016000206003015481118015613bef5750601160008381526020019081526020016000206001015481111580613bee5750601160008381526020019081526020016000206001015481118015613bed5750600073ffffffffffffffffffffffffffffffffffffffff166011600084815260200190815260200160002060000160009054906101000a900473ffffffffffffffffffffffffffffffffffffffff1673ffffffffffffffffffffffffffffffffffffffff16145b5b5b15613c0457613bff828585614034565b613d29565b601160008381526020019081526020016000206001015481118015613c505750600015156011600084815260200190815260200160002060020160009054906101000a900460ff161515145b15613c8d5760016011600084815260200190815260200160002060020160006101000a81548160ff021916908315150217905550613c8c6143c8565b5b613ce283600f60008773ffffffffffffffffffffffffffffffffffffffff1673ffffffffffffffffffffffffffffffffffffffff1681526020019081526020016000206001015461348890919063ffffffff16565b600f60008673ffffffffffffffffffffffffffffffffffffffff1673ffffffffffffffffffffffffffffffffffffffff168152602001908152602001600020600101819055505b50505050565b6000613d66613d3d84613d6e565b613d58613d53858761348890919063ffffffff16565b613d6e565b613aca90919063ffffffff16565b905092915050565b60006309502f90613e036d03b2a1d15167e7c5699bfde00000613df5613df07a0dac7055469777a6122ee4310dd6c14410500f2904840000000000613de26b01027e72f1f1281308800000613dd4670de0b6b3a76400008b613a4490919063ffffffff16565b613a4490919063ffffffff16565b61348890919063ffffffff16565b6146f5565b613aca90919063ffffffff16565b81613e0a57fe5b049050919050565b6000613e25670de0b6b3a7640000614748565b613e926002613e5d613e48670de0b6b3a764000087613a4490919063ffffffff16565b65886c8f673070613a4490919063ffffffff16565b81613e6457fe5b04613e84613e7186614748565b6304a817c8613a4490919063ffffffff16565b61348890919063ffffffff16565b81613e9957fe5b049050919050565b6000613f95601060008573ffffffffffffffffffffffffffffffffffffffff1673ffffffffffffffffffffffffffffffffffffffff168152602001908152602001600020600084815260200190815260200160002060020154670de0b6b3a7640000613f7f601060008873ffffffffffffffffffffffffffffffffffffffff1673ffffffffffffffffffffffffffffffffffffffff1681526020019081526020016000206000878152602001908152602001600020600101546011600088815260200190815260200160002060070154613a4490919063ffffffff16565b81613f8657fe5b04613aca90919063ffffffff16565b905092915050565b6000670de0b6b3a7640000614024601060008673ffffffffffffffffffffffffffffffffffffffff1673ffffffffffffffffffffffffffffffffffffffff1681526020019081526020016000206000858152602001908152602001600020600101546011600086815260200190815260200160002060070154613a4490919063ffffffff16565b8161402b57fe5b04905092915050565b6000601060008473ffffffffffffffffffffffffffffffffffffffff1673ffffffffffffffffffffffffffffffffffffffff168152602001908152602001600020600085815260200190815260200160002060010154141561409a576140998261475b565b5b633b9aca008111156143c35760006140d1826011600087815260200190815260200160002060050154613d2f90919063ffffffff16565b9050670de0b6b3a764000081106141ac576140ec818561483e565b8273ffffffffffffffffffffffffffffffffffffffff166011600086815260200190815260200160002060000160009054906101000a900473ffffffffffffffffffffffffffffffffffffffff1673ffffffffffffffffffffffffffffffffffffffff16146141ab57826011600086815260200190815260200160002060000160006101000a81548173ffffffffffffffffffffffffffffffffffffffff021916908373ffffffffffffffffffffffffffffffffffffffff1602179055505b5b614212601060008573ffffffffffffffffffffffffffffffffffffffff1673ffffffffffffffffffffffffffffffffffffffff1681526020019081526020016000206000868152602001908152602001600020600101548261348890919063ffffffff16565b601060008573ffffffffffffffffffffffffffffffffffffffff1673ffffffffffffffffffffffffffffffffffffffff1681526020019081526020016000206000868152602001908152602001600020600101819055506142cf601060008573ffffffffffffffffffffffffffffffffffffffff1673ffffffffffffffffffffffffffffffffffffffff1681526020019081526020016000206000868152602001908152602001600020600001548361348890919063ffffffff16565b601060008573ffffffffffffffffffffffffffffffffffffffff1673ffffffffffffffffffffffffffffffffffffffff16815260200190815260200160002060008681526020019081526020016000206000018190555061434f60116000868152602001908152602001600020600401548261348890919063ffffffff16565b601160008681526020019081526020016000206004018190555061439260116000868152602001908152602001600020600501548361348890919063ffffffff16565b60116000868152602001908152602001600020600501819055506143b5826149d3565b6143c184848484614a0a565b505b505050565b6000600b54905060006011600083815260200190815260200160002060000160009054906101000a900473ffffffffffffffffffffffffffffffffffffffff1690506000601160008481526020019081526020016000206006015490506000606461443e60075484613a4490919063ffffffff16565b8161444557fe5b049050600061445d8284613aca90919063ffffffff16565b90506144b4600f60008673ffffffffffffffffffffffffffffffffffffffff1673ffffffffffffffffffffffffffffffffffffffff168152602001908152602001600020600001548361348890919063ffffffff16565b600f60008673ffffffffffffffffffffffffffffffffffffffff1673ffffffffffffffffffffffffffffffffffffffff16815260200190815260200160002060000181905550600b6000815480929190600101919050555084806001019550504260116000878152602001908152602001600020600301819055506145446001544261348890919063ffffffff16565b60116000878152602001908152602001600020600101819055508060116000878152602001908152602001600020600601819055505050505050565b600061458c8383613ea1565b905060008111156146f0576145ec600f60008573ffffffffffffffffffffffffffffffffffffffff1673ffffffffffffffffffffffffffffffffffffffff168152602001908152602001600020600101548261348890919063ffffffff16565b600f60008573ffffffffffffffffffffffffffffffffffffffff1673ffffffffffffffffffffffffffffffffffffffff16815260200190815260200160002060010181905550614698601060008573ffffffffffffffffffffffffffffffffffffffff1673ffffffffffffffffffffffffffffffffffffffff1681526020019081526020016000206000848152602001908152602001600020600201548261348890919063ffffffff16565b601060008573ffffffffffffffffffffffffffffffffffffffff1673ffffffffffffffffffffffffffffffffffffffff1681526020019081526020016000206000848152602001908152602001600020600201819055505b505050565b6000806002614705846001613488565b8161470c57fe5b0490508291505b8181101561474257809150600261473382858161472c57fe5b0483613488565b8161473a57fe5b049050614713565b50919050565b60006147548283613a44565b9050919050565b6000600f60008373ffffffffffffffffffffffffffffffffffffffff1673ffffffffffffffffffffffffffffffffffffffff16815260200190815260200160002060020154146147f2576147f181600f60008473ffffffffffffffffffffffffffffffffffffffff1673ffffffffffffffffffffffffffffffffffffffff16815260200190815260200160002060020154614580565b5b600b54600f60008373ffffffffffffffffffffffffffffffffffffffff1673ffffffffffffffffffffffffffffffffffffffff1681526020019081526020016000206002018190555050565b600042905060006011600084815260200190815260200160002060010154821180156148cc5750600073ffffffffffffffffffffffffffffffffffffffff166011600085815260200190815260200160002060000160009054906101000a900473ffffffffffffffffffffffffffffffffffffffff1673ffffffffffffffffffffffffffffffffffffffff16145b1561491057614909826148fb600254670de0b6b3a764000088816148ec57fe5b04613a4490919063ffffffff16565b61348890919063ffffffff16565b9050614961565b61495e6011600085815260200190815260200160002060010154614950600254670de0b6b3a7640000888161494157fe5b04613a4490919063ffffffff16565b61348890919063ffffffff16565b90505b6149768260035461348890919063ffffffff16565b81101561499d578060116000858152602001908152602001600020600101819055506149cd565b6149b28260035461348890919063ffffffff16565b60116000858152602001908152602001600020600101819055505b50505050565b60006149e9601483613ab190919063ffffffff16565b9050614a0081600c5461348890919063ffffffff16565b600c819055505050565b60006064614a2360065485613a4490919063ffffffff16565b81614a2a57fe5b049050614a5e6064614a4760045486613a4490919063ffffffff16565b81614a4e57fe5b0484613aca90919063ffffffff16565b92506000614a758285613aca90919063ffffffff16565b90506000614a8587878587614b04565b90506000811115614aa657614aa38184613aca90919063ffffffff16565b92505b614ae16011600089815260200190815260200160002060060154614ad3838561348890919063ffffffff16565b61348890919063ffffffff16565b601160008981526020019081526020016000206006018190555050505050505050565b6000806011600087815260200190815260200160002060040154614b39670de0b6b3a764000086613a4490919063ffffffff16565b81614b4057fe5b049050614b6c60116000888152602001908152602001600020600701548261348890919063ffffffff16565b60116000888152602001908152602001600020600701819055506000670de0b6b3a7640000614ba48584613a4490919063ffffffff16565b81614bab57fe5b049050614c5f601060008873ffffffffffffffffffffffffffffffffffffffff1673ffffffffffffffffffffffffffffffffffffffff168152602001908152602001600020600089815260200190815260200160002060020154614c5183670de0b6b3a7640000614c3b89601160008f815260200190815260200160002060070154613a4490919063ffffffff16565b81614c4257fe5b04613aca90919063ffffffff16565b61348890919063ffffffff16565b601060008873ffffffffffffffffffffffffffffffffffffffff1673ffffffffffffffffffffffffffffffffffffffff168152602001908152602001600020600089815260200190815260200160002060020181905550614d02670de0b6b3a7640000614ceb601160008b81526020019081526020016000206004015485613a4490919063ffffffff16565b81614cf257fe5b0486613aca90919063ffffffff16565b92505050949350505050565b600081359050614d1d81615d84565b92915050565b600081359050614d3281615d9b565b92915050565b600081359050614d4781615db2565b92915050565b600081519050614d5c81615db2565b92915050565b600081359050614d7181615dc9565b92915050565b600081519050614d8681615dc9565b92915050565b600060208284031215614d9e57600080fd5b6000614dac84828501614d0e565b91505092915050565b600060208284031215614dc757600080fd5b6000614dd584828501614d23565b91505092915050565b60008060008060808587031215614df457600080fd5b6000614e0287828801614d0e565b9450506020614e1387828801614d0e565b9350506040614e2487828801614d0e565b9250506060614e3587828801614d23565b91505092959194509250565b60008060408385031215614e5457600080fd5b6000614e6285828601614d0e565b9250506020614e7385828601614d62565b9150509250929050565b600060208284031215614e8f57600080fd5b6000614e9d84828501614d4d565b91505092915050565b600060208284031215614eb857600080fd5b6000614ec684828501614d62565b91505092915050565b600060208284031215614ee157600080fd5b6000614eef84828501614d77565b91505092915050565b60008060408385031215614f0b57600080fd5b6000614f1985828601614d62565b9250506020614f2a85828601614d38565b9150509250929050565b60008060408385031215614f4757600080fd5b6000614f5585828601614d62565b9250506020614f6685828601614d62565b9150509250929050565b600080600080600060a08688031215614f8857600080fd5b6000614f9688828901614d62565b9550506020614fa788828901614d62565b9450506040614fb888828901614d62565b9350506060614fc988828901614d62565b9250506080614fda88828901614d62565b9150509295509295909350565b614ff081615cb0565b82525050565b614fff81615cb0565b82525050565b61500e81615c56565b82525050565b61501d81615c56565b82525050565b61502c81615c7a565b82525050565b61503b81615c7a565b82525050565b600061504c82615c24565b6150568185615c3a565b9350615066818560208601615d40565b80840191505092915050565b61507b81615cc2565b82525050565b61508a81615ce6565b82525050565b61509981615d0a565b82525050565b60006150aa82615c2f565b6150b48185615c45565b93506150c4818560208601615d40565b6150cd81615d73565b840191505092915050565b60006150e5600783615c45565b91507f6d617820313030000000000000000000000000000000000000000000000000006000830152602082019050919050565b6000615125600683615c45565b91507f6d696e20383000000000000000000000000000000000000000000000000000006000830152602082019050919050565b6000615165602e83615c45565b91507f4572726f723a204f6e6c79206f776e65722063616e2068616e646c652074686960008301527f73206f7065726174696f6e203b290000000000000000000000000000000000006020830152604082019050919050565b60006151cb601183615c45565b91507f736f7272792068756d616e73206f6e6c790000000000000000000000000000006000830152602082019050919050565b600061520b601c83615c45565b91507f6f6e6c79206f776e6572206a7573742063616e206163746976617465000000006000830152602082019050919050565b600061524b602483615c45565b91507f736166655472616e736665724554483a20424e42207472616e7366657220666160008301527f696c6564000000000000000000000000000000000000000000000000000000006020830152604082019050919050565b60006152b1600f83615c45565b91507f6d696e20302e30303030303030303100000000000000000000000000000000006000830152602082019050919050565b60006152f1601983615c45565b91507f746f6b656e20616c72656164792077686974656c6973746564000000000000006000830152602082019050919050565b6000615331600a83615c45565b91507f6f6e6c79206f776e6572000000000000000000000000000000000000000000006000830152602082019050919050565b6000615371601383615c45565b91507f536166654d617468206d756c206661696c6564000000000000000000000000006000830152602082019050919050565b60006153b1600083615c3a565b9150600082019050919050565b60006153cb601383615c45565b91507f536166654d61746820737562206661696c6564000000000000000000000000006000830152602082019050919050565b600061540b601583615c45565b91507f4572726f723a20696e76616c696420616d6f756e7400000000000000000000006000830152602082019050919050565b600061544b601383615c45565b91507f536166654d61746820616464206661696c6564000000000000000000000000006000830152602082019050919050565b600061548b601b83615c45565b91507f666f6d6f6c6f74746f20616c72656164792061637469766174656400000000006000830152602082019050919050565b60006154cb601183615c45565b91507f697473206e6f74207265616479207965740000000000000000000000000000006000830152602082019050919050565b600061550b601f83615c45565b91507f5265656e7472616e637947756172643a207265656e7472616e742063616c6c006000830152602082019050919050565b600061554b603083615c45565b91507f4572726f723a2043616e6e6f7420776974686472617720746f2074686520666f60008301527f756e646174696f6e2061646472657373000000000000000000000000000000006020830152604082019050919050565b60006155b1600a83615c45565b91507f6d617820313030303030000000000000000000000000000000000000000000006000830152602082019050919050565b6155ed81615ca6565b82525050565b6155fc81615ca6565b82525050565b600061560e8284615041565b915081905092915050565b6000615624826153a4565b9150819050919050565b60006020820190506156436000830184615005565b92915050565b600060208201905061565e6000830184614fe7565b92915050565b60006060820190506156796000830186614ff6565b6156866020830185615014565b61569360408301846155f3565b949350505050565b60006040820190506156b06000830185614fe7565b6156bd60208301846155e4565b9392505050565b60006060820190506156d96000830186615014565b6156e66020830185615014565b6156f36040830184615090565b949350505050565b60006060820190506157106000830186615014565b61571d6020830185615014565b61572a60408301846155f3565b949350505050565b600060e082019050615747600083018a615014565b6157546020830189615014565b61576160408301886155f3565b61576e60608301876155f3565b61577b6080830186614ff6565b61578860a08301856155f3565b61579560c0830184615032565b98975050505050505050565b6000610100820190506157b7600083018b615005565b6157c4602083018a6155e4565b6157d16040830189615023565b6157de60608301886155e4565b6157eb60808301876155e4565b6157f860a08301866155e4565b61580560c08301856155e4565b61581260e08301846155e4565b9998505050505050505050565b60006020820190506158346000830184615023565b92915050565b600060208201905061584f6000830184615072565b92915050565b600060208201905061586a6000830184615081565b92915050565b6000602082019050818103600083015261588a818461509f565b905092915050565b600060208201905081810360008301526158ab816150d8565b9050919050565b600060208201905081810360008301526158cb81615118565b9050919050565b600060208201905081810360008301526158eb81615158565b9050919050565b6000602082019050818103600083015261590b816151be565b9050919050565b6000602082019050818103600083015261592b816151fe565b9050919050565b6000602082019050818103600083015261594b8161523e565b9050919050565b6000602082019050818103600083015261596b816152a4565b9050919050565b6000602082019050818103600083015261598b816152e4565b9050919050565b600060208201905081810360008301526159ab81615324565b9050919050565b600060208201905081810360008301526159cb81615364565b9050919050565b600060208201905081810360008301526159eb816153be565b9050919050565b60006020820190508181036000830152615a0b816153fe565b9050919050565b60006020820190508181036000830152615a2b8161543e565b9050919050565b60006020820190508181036000830152615a4b8161547e565b9050919050565b60006020820190508181036000830152615a6b816154be565b9050919050565b60006020820190508181036000830152615a8b816154fe565b9050919050565b60006020820190508181036000830152615aab8161553e565b9050919050565b60006020820190508181036000830152615acb816155a4565b9050919050565b6000602082019050615ae760008301846155e4565b92915050565b6000604082019050615b0260008301856155e4565b615b0f60208301846155e4565b9392505050565b6000608082019050615b2b60008301876155e4565b615b3860208301866155e4565b615b4560408301856155e4565b615b5260608301846155e4565b95945050505050565b600060a082019050615b7060008301886155e4565b615b7d60208301876155e4565b615b8a60408301866155e4565b615b9760608301856155e4565b8181036080830152615ba9818461509f565b90509695505050505050565b600060e082019050615bca600083018a6155e4565b615bd760208301896155e4565b615be460408301886155e4565b615bf160608301876155e4565b615bfe60808301866155e4565b615c0b60a08301856155e4565b615c1860c0830184615005565b98975050505050505050565b600081519050919050565b600081519050919050565b600081905092915050565b600082825260208201905092915050565b6000615c6182615c86565b9050919050565b6000615c7382615c86565b9050919050565b60008115159050919050565b600073ffffffffffffffffffffffffffffffffffffffff82169050919050565b6000819050919050565b6000615cbb82615d1c565b9050919050565b6000615ccd82615cd4565b9050919050565b6000615cdf82615c86565b9050919050565b6000615cf182615cf8565b9050919050565b6000615d0382615c86565b9050919050565b6000615d1582615ca6565b9050919050565b6000615d2782615d2e565b9050919050565b6000615d3982615c86565b9050919050565b60005b83811015615d5e578082015181840152602081019050615d43565b83811115615d6d576000848401525b50505050565b6000601f19601f8301169050919050565b615d8d81615c56565b8114615d9857600080fd5b50565b615da481615c68565b8114615daf57600080fd5b50565b615dbb81615c7a565b8114615dc657600080fd5b50565b615dd281615ca6565b8114615ddd57600080fd5b5056fea2646970667358221220f550d8499c95d66018aa531d6e0cea8f394ab5e57271bd40eff31f988900076264736f6c63430006080033",
  "linkReferences": {
    "contracts/games/FomoLotto/library/Utils.sol": {
      "Utils": [
        {
          "length": 20,
          "start": 7291
        },
        {
          "length": 20,
          "start": 7628
        },
        {
          "length": 20,
          "start": 11339
        },
        {
          "length": 20,
          "start": 13220
        },
        {
          "length": 20,
          "start": 14845
        }
      ]
    }
  },
  "deployedLinkReferences": {
    "contracts/games/FomoLotto/library/Utils.sol": {
      "Utils": [
        {
          "length": 20,
          "start": 7103
        },
        {
          "length": 20,
          "start": 7440
        },
        {
          "length": 20,
          "start": 11151
        },
        {
          "length": 20,
          "start": 13032
        },
        {
          "length": 20,
          "start": 14657
        }
      ]
    }
  }
}