{
  "_format": "hh-sol-artifact-1",
  "contractName": "MysticDealer",
  "sourceName": "contracts/distribution/MysticDealer.sol",
  "abi": [
    {
      "inputs": [
        {
          "internalType": "address",
          "name": "_tokenInstance",
          "type": "address"
        },
        {
          "internalType": "address payable",
          "name": "_foundationAddress",
          "type": "address"
        },
        {
          "internalType": "uint256",
          "name": "_purchasePeriodWaitTime",
          "type": "uint256"
        },
        {
          "internalType": "uint256",
          "name": "_exchangeRate",
          "type": "uint256"
        },
        {
          "internalType": "uint256",
          "name": "_minBidAmount",
          "type": "uint256"
        },
        {
          "internalType": "uint256",
          "name": "_maxBidAmount",
          "type": "uint256"
        }
      ],
      "stateMutability": "nonpayable",
      "type": "constructor"
    },
    {
      "anonymous": false,
      "inputs": [
        {
          "indexed": false,
          "internalType": "uint256",
          "name": "price",
          "type": "uint256"
        },
        {
          "indexed": true,
          "internalType": "address",
          "name": "buyer",
          "type": "address"
        },
        {
          "indexed": false,
          "internalType": "uint256",
          "name": "bonus",
          "type": "uint256"
        },
        {
          "indexed": false,
          "internalType": "uint256",
          "name": "timestamp",
          "type": "uint256"
        },
        {
          "indexed": false,
          "internalType": "uint256",
          "name": "purchasedTokenAmount",
          "type": "uint256"
        },
        {
          "indexed": false,
          "internalType": "uint256",
          "name": "totalETHValue",
          "type": "uint256"
        }
      ],
      "name": "OnSuccessfulSale",
      "type": "event"
    },
    {
      "stateMutability": "payable",
      "type": "fallback"
    },
    {
      "inputs": [],
      "name": "exchangeToken",
      "outputs": [],
      "stateMutability": "payable",
      "type": "function"
    },
    {
      "inputs": [],
      "name": "getOrderBook",
      "outputs": [
        {
          "components": [
            {
              "internalType": "uint256",
              "name": "price",
              "type": "uint256"
            },
            {
              "internalType": "address",
              "name": "buyer",
              "type": "address"
            },
            {
              "internalType": "uint256",
              "name": "bonus",
              "type": "uint256"
            },
            {
              "internalType": "uint256",
              "name": "timestamp",
              "type": "uint256"
            },
            {
              "internalType": "uint256",
              "name": "purchasedTokenAmount",
              "type": "uint256"
            },
            {
              "internalType": "uint256",
              "name": "totalETHValue",
              "type": "uint256"
            }
          ],
          "internalType": "struct MysticDealer.OrderInformation[]",
          "name": "",
          "type": "tuple[]"
        }
      ],
      "stateMutability": "view",
      "type": "function"
    },
    {
      "inputs": [
        {
          "internalType": "address",
          "name": "who",
          "type": "address"
        }
      ],
      "name": "getOrderMetaOf",
      "outputs": [
        {
          "components": [
            {
              "internalType": "uint256",
              "name": "luckyNumber",
              "type": "uint256"
            },
            {
              "internalType": "uint256",
              "name": "participantWaitTime",
              "type": "uint256"
            }
          ],
          "internalType": "struct MysticDealer.OrderMeta",
          "name": "",
          "type": "tuple"
        }
      ],
      "stateMutability": "view",
      "type": "function"
    },
    {
      "inputs": [],
      "name": "getSaleRule",
      "outputs": [
        {
          "internalType": "uint256",
          "name": "",
          "type": "uint256"
        },
        {
          "internalType": "uint256",
          "name": "",
          "type": "uint256"
        },
        {
          "internalType": "uint256",
          "name": "",
          "type": "uint256"
        }
      ],
      "stateMutability": "view",
      "type": "function"
    },
    {
      "inputs": [],
      "name": "getSaleSupply",
      "outputs": [
        {
          "internalType": "uint256",
          "name": "",
          "type": "uint256"
        }
      ],
      "stateMutability": "view",
      "type": "function"
    },
    {
      "inputs": [
        {
          "internalType": "address payable",
          "name": "_foundationAddress",
          "type": "address"
        }
      ],
      "name": "setFoundationAddress",
      "outputs": [],
      "stateMutability": "nonpayable",
      "type": "function"
    },
    {
      "inputs": [
        {
          "internalType": "uint256",
          "name": "_purchasePeriodWaitTime",
          "type": "uint256"
        }
      ],
      "name": "setPurchasePeriodWaitTime",
      "outputs": [],
      "stateMutability": "nonpayable",
      "type": "function"
    },
    {
      "inputs": [
        {
          "internalType": "uint256",
          "name": "_exchangeRate",
          "type": "uint256"
        },
        {
          "internalType": "uint256",
          "name": "_minBidAmount",
          "type": "uint256"
        },
        {
          "internalType": "uint256",
          "name": "_maxBidAmount",
          "type": "uint256"
        }
      ],
      "name": "setQuantityRules",
      "outputs": [],
      "stateMutability": "nonpayable",
      "type": "function"
    },
    {
      "inputs": [],
      "name": "withdrawFund",
      "outputs": [],
      "stateMutability": "nonpayable",
      "type": "function"
    }
  ],
  "bytecode": "0x60806040523480156200001157600080fd5b5060405162002a4338038062002a4383398181016040528101906200003791906200055f565b33600360006101000a81548173ffffffffffffffffffffffffffffffffffffffff021916908373ffffffffffffffffffffffffffffffffffffffff160217905550600073ffffffffffffffffffffffffffffffffffffffff168673ffffffffffffffffffffffffffffffffffffffff161415620000eb576040517f08c379a0000000000000000000000000000000000000000000000000000000008152600401620000e2906200097b565b60405180910390fd5b85600260006101000a81548173ffffffffffffffffffffffffffffffffffffffff021916908373ffffffffffffffffffffffffffffffffffffffff1602179055506200013d856200016d60201b60201c565b6200014e84620002b760201b60201c565b620001618383836200039b60201b60201c565b50505050505062000a92565b3373ffffffffffffffffffffffffffffffffffffffff16600360009054906101000a900473ffffffffffffffffffffffffffffffffffffffff1673ffffffffffffffffffffffffffffffffffffffff161462000200576040517f08c379a0000000000000000000000000000000000000000000000000000000008152600401620001f79062000959565b60405180910390fd5b600073ffffffffffffffffffffffffffffffffffffffff168173ffffffffffffffffffffffffffffffffffffffff16141562000273576040517f08c379a00000000000000000000000000000000000000000000000000000000081526004016200026a906200099d565b60405180910390fd5b80600460006101000a81548173ffffffffffffffffffffffffffffffffffffffff021916908373ffffffffffffffffffffffffffffffffffffffff16021790555050565b3373ffffffffffffffffffffffffffffffffffffffff16600360009054906101000a900473ffffffffffffffffffffffffffffffffffffffff1673ffffffffffffffffffffffffffffffffffffffff16146200034a576040517f08c379a0000000000000000000000000000000000000000000000000000000008152600401620003419062000959565b60405180910390fd5b603c81101562000391576040517f08c379a00000000000000000000000000000000000000000000000000000000081526004016200038890620009bf565b60405180910390fd5b8060058190555050565b3373ffffffffffffffffffffffffffffffffffffffff16600360009054906101000a900473ffffffffffffffffffffffffffffffffffffffff1673ffffffffffffffffffffffffffffffffffffffff16146200042e576040517f08c379a0000000000000000000000000000000000000000000000000000000008152600401620004259062000959565b60405180910390fd5b6000821162000474576040517f08c379a00000000000000000000000000000000000000000000000000000000081526004016200046b90620008f3565b60405180910390fd5b81811015620004ba576040517f08c379a0000000000000000000000000000000000000000000000000000000008152600401620004b19062000937565b60405180910390fd5b6000831162000500576040517f08c379a0000000000000000000000000000000000000000000000000000000008152600401620004f79062000915565b60405180910390fd5b816007819055508060088190555082600681905550505050565b6000815190506200052b8162000a44565b92915050565b600081519050620005428162000a5e565b92915050565b600081519050620005598162000a78565b92915050565b60008060008060008060c087890312156200057957600080fd5b60006200058989828a016200051a565b96505060206200059c89828a0162000531565b9550506040620005af89828a0162000548565b9450506060620005c289828a0162000548565b9350506080620005d589828a0162000548565b92505060a0620005e889828a0162000548565b9150509295509295509295565b600062000604602483620009e1565b91507f4572726f723a206d696e2062696420616d6f756e742063616e6e6f742062652060008301527f7a65726f000000000000000000000000000000000000000000000000000000006020830152604082019050919050565b60006200066c602383620009e1565b91507f4572726f723a2065786368616e676520726174652063616e6e6f74206265207a60008301527f65726f00000000000000000000000000000000000000000000000000000000006020830152604082019050919050565b6000620006d4604283620009e1565b91507f4572726f723a206d61782062696420616d6f756e74206d75737420626520677260008301527f6561746572207468616e206f7220657175616c206d696e2062696420616d6f7560208301527f6e740000000000000000000000000000000000000000000000000000000000006040830152606082019050919050565b600062000762603683620009e1565b91507f4572726f723a206f6e6c79206f776e65722063616e2061646a7573742070757260008301527f636861736520706572696f6420776169742074696d65000000000000000000006020830152604082019050919050565b6000620007ca602583620009e1565b91507f4572726f723a2063616e6e6f742061646420746f6b656e206174204e6f57686560008301527f7265203a290000000000000000000000000000000000000000000000000000006020830152604082019050919050565b600062000832602783620009e1565b91507f4572726f723a2063616e6e6f74206164642061646472657373206174204e6f5760008301527f68657265203a29000000000000000000000000000000000000000000000000006020830152604082019050919050565b60006200089a603a83620009e1565b91507f4572726f723a20707572636861736520706572696f6420776169742074696d6560008301527f206d757374206265206174206c656173742031206d696e7574650000000000006020830152604082019050919050565b600060208201905081810360008301526200090e81620005f5565b9050919050565b6000602082019050818103600083015262000930816200065d565b9050919050565b600060208201905081810360008301526200095281620006c5565b9050919050565b60006020820190508181036000830152620009748162000753565b9050919050565b600060208201905081810360008301526200099681620007bb565b9050919050565b60006020820190508181036000830152620009b88162000823565b9050919050565b60006020820190508181036000830152620009da816200088b565b9050919050565b600082825260208201905092915050565b6000620009ff8262000a1a565b9050919050565b600062000a138262000a1a565b9050919050565b600073ffffffffffffffffffffffffffffffffffffffff82169050919050565b6000819050919050565b62000a4f81620009f2565b811462000a5b57600080fd5b50565b62000a698162000a06565b811462000a7557600080fd5b50565b62000a838162000a3a565b811462000a8f57600080fd5b50565b611fa18062000aa26000396000f3fe60806040526004361061008a5760003560e01c8063a25eb5d911610059578063a25eb5d91461013f578063b248c4ef14610149578063c4394cf814610174578063e07fa3c1146101b1578063f41377ca146101c85761008b565b806327fde8b9146100955780633a871b60146100c25780635303ad21146100eb57806395d8e499146101145761008b565b5b6100936101f1565b005b3480156100a157600080fd5b506100aa61069c565b6040516100b993929190611d47565b60405180910390f35b3480156100ce57600080fd5b506100e960048036038101906100e491906112b3565b6106b5565b005b3480156100f757600080fd5b50610112600480360381019061010d9190611305565b610793565b005b34801561012057600080fd5b50610129610906565b6040516101369190611d2c565b60405180910390f35b6101476101f1565b005b34801561015557600080fd5b5061015e6109b8565b60405161016b9190611b0d565b60405180910390f35b34801561018057600080fd5b5061019b60048036038101906101969190611238565b610a9f565b6040516101a89190611d11565b60405180910390f35b3480156101bd57600080fd5b506101c6610b0c565b005b3480156101d457600080fd5b506101ef60048036038101906101ea9190611261565b610c6d565b005b60008060006101ff34610db1565b925092509250600083600260009054906101000a900473ffffffffffffffffffffffffffffffffffffffff1673ffffffffffffffffffffffffffffffffffffffff166370a08231306040518263ffffffff1660e01b81526004016102639190611ac9565b60206040518083038186803b15801561027b57600080fd5b505afa15801561028f573d6000803e3d6000fd5b505050506040513d601f19601f820116820180604052508101906102b391906112dc565b03905060008112156102fa576040517f08c379a00000000000000000000000000000000000000000000000000000000081526004016102f190611cb1565b60405180910390fd5b42600160003373ffffffffffffffffffffffffffffffffffffffff1673ffffffffffffffffffffffffffffffffffffffff16815260200190815260200160002060010154111561037f576040517f08c379a000000000000000000000000000000000000000000000000000000000815260040161037690611bf1565b60405180910390fd5b600260009054906101000a900473ffffffffffffffffffffffffffffffffffffffff1673ffffffffffffffffffffffffffffffffffffffff1663a9059cbb33866040518363ffffffff1660e01b81526004016103dc929190611ae4565b602060405180830381600087803b1580156103f657600080fd5b505af115801561040a573d6000803e3d6000fd5b505050506040513d601f19601f8201168201806040525081019061042e919061128a565b50610437611169565b6040518060c0016040528060008152602001600073ffffffffffffffffffffffffffffffffffffffff168152602001600081526020016000815260200160008152602001600081525090508281604001818152505033816020019073ffffffffffffffffffffffffffffffffffffffff16908173ffffffffffffffffffffffffffffffffffffffff16815250506006548160000181815250508481608001818152505042816060018181525050348160a001818152505060008190806001815401808255809150506001900390600052602060002090600602016000909190919091506000820151816000015560208201518160010160006101000a81548173ffffffffffffffffffffffffffffffffffffffff021916908373ffffffffffffffffffffffffffffffffffffffff16021790555060408201518160020155606082015181600301556080820151816004015560a0820151816005015550506005544201600160003373ffffffffffffffffffffffffffffffffffffffff1673ffffffffffffffffffffffffffffffffffffffff1681526020019081526020016000206001018190555083600160003373ffffffffffffffffffffffffffffffffffffffff1673ffffffffffffffffffffffffffffffffffffffff16815260200190815260200160002060000181905550806020015173ffffffffffffffffffffffffffffffffffffffff167f61f08aa3ba3d7a412094c9e62607373fa5394bcfb297941e25d1997aa8c571da82600001518360400151846060015185608001518660a0015160405161068d959493929190611d7e565b60405180910390a25050505050565b6000806000600754600854600654925092509250909192565b3373ffffffffffffffffffffffffffffffffffffffff16600360009054906101000a900473ffffffffffffffffffffffffffffffffffffffff1673ffffffffffffffffffffffffffffffffffffffff1614610745576040517f08c379a000000000000000000000000000000000000000000000000000000000815260040161073c90611c11565b60405180910390fd5b603c811015610789576040517f08c379a000000000000000000000000000000000000000000000000000000000815260040161078090611c71565b60405180910390fd5b8060058190555050565b3373ffffffffffffffffffffffffffffffffffffffff16600360009054906101000a900473ffffffffffffffffffffffffffffffffffffffff1673ffffffffffffffffffffffffffffffffffffffff1614610823576040517f08c379a000000000000000000000000000000000000000000000000000000000815260040161081a90611c11565b60405180910390fd5b60008211610866576040517f08c379a000000000000000000000000000000000000000000000000000000000815260040161085d90611b51565b60405180910390fd5b818110156108a9576040517f08c379a00000000000000000000000000000000000000000000000000000000081526004016108a090611bb1565b60405180910390fd5b600083116108ec576040517f08c379a00000000000000000000000000000000000000000000000000000000081526004016108e390611b91565b60405180910390fd5b816007819055508060088190555082600681905550505050565b6000600260009054906101000a900473ffffffffffffffffffffffffffffffffffffffff1673ffffffffffffffffffffffffffffffffffffffff166370a08231306040518263ffffffff1660e01b81526004016109639190611ac9565b60206040518083038186803b15801561097b57600080fd5b505afa15801561098f573d6000803e3d6000fd5b505050506040513d601f19601f820116820180604052508101906109b391906112dc565b905090565b60606000805480602002602001604051908101604052809291908181526020016000905b82821015610a9657838290600052602060002090600602016040518060c0016040529081600082015481526020016001820160009054906101000a900473ffffffffffffffffffffffffffffffffffffffff1673ffffffffffffffffffffffffffffffffffffffff1673ffffffffffffffffffffffffffffffffffffffff168152602001600282015481526020016003820154815260200160048201548152602001600582015481525050815260200190600101906109dc565b50505050905090565b610aa76111b5565b600160008373ffffffffffffffffffffffffffffffffffffffff1673ffffffffffffffffffffffffffffffffffffffff168152602001908152602001600020604051806040016040529081600082015481526020016001820154815250509050919050565b3373ffffffffffffffffffffffffffffffffffffffff16600360009054906101000a900473ffffffffffffffffffffffffffffffffffffffff1673ffffffffffffffffffffffffffffffffffffffff1614610b9c576040517f08c379a0000000000000000000000000000000000000000000000000000000008152600401610b9390611b71565b60405180910390fd5b6000600460009054906101000a900473ffffffffffffffffffffffffffffffffffffffff1673ffffffffffffffffffffffffffffffffffffffff1647604051610be490611a88565b60006040518083038185875af1925050503d8060008114610c21576040519150601f19603f3d011682016040523d82523d6000602084013e610c26565b606091505b5050905080610c6a576040517f08c379a0000000000000000000000000000000000000000000000000000000008152600401610c6190611cf1565b60405180910390fd5b50565b3373ffffffffffffffffffffffffffffffffffffffff16600360009054906101000a900473ffffffffffffffffffffffffffffffffffffffff1673ffffffffffffffffffffffffffffffffffffffff1614610cfd576040517f08c379a0000000000000000000000000000000000000000000000000000000008152600401610cf490611c11565b60405180910390fd5b600073ffffffffffffffffffffffffffffffffffffffff168173ffffffffffffffffffffffffffffffffffffffff161415610d6d576040517f08c379a0000000000000000000000000000000000000000000000000000000008152600401610d6490611c31565b60405180910390fd5b80600460006101000a81548173ffffffffffffffffffffffffffffffffffffffff021916908373ffffffffffffffffffffffffffffffffffffffff16021790555050565b6000806000600854841115610dfb576040517f08c379a0000000000000000000000000000000000000000000000000000000008152600401610df290611c91565b60405180910390fd5b600754841015610e40576040517f08c379a0000000000000000000000000000000000000000000000000000000008152600401610e3790611cd1565b60405180910390fd5b6000610e4e60006064610efc565b905060008090506000610e86670de0b6b3a7640000610e786006548a610f5390919063ffffffff16565b610fc390919063ffffffff16565b90506000610eb8670de0b6b3a7640000610eaa60648b610f5390919063ffffffff16565b610fc390919063ffffffff16565b90506011811115610ec857601190505b808411610ed3578192505b610ee6838361100d90919063ffffffff16565b9150818484965096509650505050509193909250565b6000804442604051602001610f12929190611a9d565b6040516020818303038152906040528051906020012060001c9050600084610f458686038461106290919063ffffffff16565b019050809250505092915050565b600080831415610f665760009050610fbd565b6000828402905082848281610f7757fe5b0414610fb8576040517f08c379a0000000000000000000000000000000000000000000000000000000008152600401610faf90611c51565b60405180910390fd5b809150505b92915050565b600061100583836040518060400160405280601a81526020017f536166654d6174683a206469766973696f6e206279207a65726f0000000000008152506110ac565b905092915050565b600080828401905083811015611058576040517f08c379a000000000000000000000000000000000000000000000000000000000815260040161104f90611bd1565b60405180910390fd5b8091505092915050565b60006110a483836040518060400160405280601881526020017f536166654d6174683a206d6f64756c6f206279207a65726f000000000000000081525061110d565b905092915050565b600080831182906110f3576040517f08c379a00000000000000000000000000000000000000000000000000000000081526004016110ea9190611b2f565b60405180910390fd5b5060008385816110ff57fe5b049050809150509392505050565b6000808314158290611155576040517f08c379a000000000000000000000000000000000000000000000000000000000815260040161114c9190611b2f565b60405180910390fd5b5082848161115f57fe5b0690509392505050565b6040518060c0016040528060008152602001600073ffffffffffffffffffffffffffffffffffffffff168152602001600081526020016000815260200160008152602001600081525090565b604051806040016040528060008152602001600081525090565b6000813590506111de81611f0f565b92915050565b6000813590506111f381611f26565b92915050565b60008151905061120881611f3d565b92915050565b60008135905061121d81611f54565b92915050565b60008151905061123281611f54565b92915050565b60006020828403121561124a57600080fd5b6000611258848285016111cf565b91505092915050565b60006020828403121561127357600080fd5b6000611281848285016111e4565b91505092915050565b60006020828403121561129c57600080fd5b60006112aa848285016111f9565b91505092915050565b6000602082840312156112c557600080fd5b60006112d38482850161120e565b91505092915050565b6000602082840312156112ee57600080fd5b60006112fc84828501611223565b91505092915050565b60008060006060848603121561131a57600080fd5b60006113288682870161120e565b93505060206113398682870161120e565b925050604061134a8682870161120e565b9150509250925092565b600061136083836119a9565b60c08301905092915050565b61137581611e8b565b82525050565b61138481611e31565b82525050565b600061139582611de1565b61139f8185611e04565b93506113aa83611dd1565b8060005b838110156113db5781516113c28882611354565b97506113cd83611df7565b9250506001810190506113ae565b5085935050505092915050565b60006113f382611dec565b6113fd8185611e20565b935061140d818560208601611ec1565b61141681611efe565b840191505092915050565b600061142e602483611e20565b91507f4572726f723a206d696e2062696420616d6f756e742063616e6e6f742062652060008301527f7a65726f000000000000000000000000000000000000000000000000000000006020830152604082019050919050565b6000611494602983611e20565b91507f4572726f723a206f6e6c79206f776e65722063616e2063616c6c20666f72207760008301527f69746864726177616c00000000000000000000000000000000000000000000006020830152604082019050919050565b60006114fa602383611e20565b91507f4572726f723a2065786368616e676520726174652063616e6e6f74206265207a60008301527f65726f00000000000000000000000000000000000000000000000000000000006020830152604082019050919050565b6000611560604283611e20565b91507f4572726f723a206d61782062696420616d6f756e74206d75737420626520677260008301527f6561746572207468616e206f7220657175616c206d696e2062696420616d6f7560208301527f6e740000000000000000000000000000000000000000000000000000000000006040830152606082019050919050565b60006115ec601b83611e20565b91507f536166654d6174683a206164646974696f6e206f766572666c6f7700000000006000830152602082019050919050565b600061162c602b83611e20565b91507f4572726f723a207061727469636970616e7420776169742074696d652069732060008301527f6e6f7420726561636865640000000000000000000000000000000000000000006020830152604082019050919050565b6000611692603683611e20565b91507f4572726f723a206f6e6c79206f776e65722063616e2061646a7573742070757260008301527f636861736520706572696f6420776169742074696d65000000000000000000006020830152604082019050919050565b60006116f8602783611e20565b91507f4572726f723a2063616e6e6f74206164642061646472657373206174204e6f5760008301527f68657265203a29000000000000000000000000000000000000000000000000006020830152604082019050919050565b600061175e602183611e20565b91507f536166654d6174683a206d756c7469706c69636174696f6e206f766572666c6f60008301527f77000000000000000000000000000000000000000000000000000000000000006020830152604082019050919050565b60006117c4603a83611e20565b91507f4572726f723a20707572636861736520706572696f6420776169742074696d6560008301527f206d757374206265206174206c656173742031206d696e7574650000000000006020830152604082019050919050565b600061182a600083611e15565b9150600082019050919050565b6000611844602783611e20565b91507f4572726f723a206d757374206265206c657373207468616e206d61782062696460008301527f20616d6f756e74000000000000000000000000000000000000000000000000006020830152604082019050919050565b60006118aa602083611e20565b91507f4572726f723a20636f6e74726163742066756e642069732065786365656465646000830152602082019050919050565b60006118ea602a83611e20565b91507f4572726f723a206d7573742062652067726561746572207468616e206d696e2060008301527f62696420616d6f756e74000000000000000000000000000000000000000000006020830152604082019050919050565b6000611950603083611e20565b91507f4572726f723a2043616e6e6f7420776974686472617720746f2074686520666f60008301527f756e646174696f6e2061646472657373000000000000000000000000000000006020830152604082019050919050565b60c0820160008201516119bf6000850182611a53565b5060208201516119d2602085018261137b565b5060408201516119e56040850182611a53565b5060608201516119f86060850182611a53565b506080820151611a0b6080850182611a53565b5060a0820151611a1e60a0850182611a53565b50505050565b604082016000820151611a3a6000850182611a53565b506020820151611a4d6020850182611a53565b50505050565b611a5c81611e81565b82525050565b611a6b81611e81565b82525050565b611a82611a7d82611e81565b611ef4565b82525050565b6000611a938261181d565b9150819050919050565b6000611aa98285611a71565b602082019150611ab98284611a71565b6020820191508190509392505050565b6000602082019050611ade600083018461136c565b92915050565b6000604082019050611af9600083018561136c565b611b066020830184611a62565b9392505050565b60006020820190508181036000830152611b27818461138a565b905092915050565b60006020820190508181036000830152611b4981846113e8565b905092915050565b60006020820190508181036000830152611b6a81611421565b9050919050565b60006020820190508181036000830152611b8a81611487565b9050919050565b60006020820190508181036000830152611baa816114ed565b9050919050565b60006020820190508181036000830152611bca81611553565b9050919050565b60006020820190508181036000830152611bea816115df565b9050919050565b60006020820190508181036000830152611c0a8161161f565b9050919050565b60006020820190508181036000830152611c2a81611685565b9050919050565b60006020820190508181036000830152611c4a816116eb565b9050919050565b60006020820190508181036000830152611c6a81611751565b9050919050565b60006020820190508181036000830152611c8a816117b7565b9050919050565b60006020820190508181036000830152611caa81611837565b9050919050565b60006020820190508181036000830152611cca8161189d565b9050919050565b60006020820190508181036000830152611cea816118dd565b9050919050565b60006020820190508181036000830152611d0a81611943565b9050919050565b6000604082019050611d266000830184611a24565b92915050565b6000602082019050611d416000830184611a62565b92915050565b6000606082019050611d5c6000830186611a62565b611d696020830185611a62565b611d766040830184611a62565b949350505050565b600060a082019050611d936000830188611a62565b611da06020830187611a62565b611dad6040830186611a62565b611dba6060830185611a62565b611dc76080830184611a62565b9695505050505050565b6000819050602082019050919050565b600081519050919050565b600081519050919050565b6000602082019050919050565b600082825260208201905092915050565b600081905092915050565b600082825260208201905092915050565b6000611e3c82611e61565b9050919050565b6000611e4e82611e61565b9050919050565b60008115159050919050565b600073ffffffffffffffffffffffffffffffffffffffff82169050919050565b6000819050919050565b6000611e9682611e9d565b9050919050565b6000611ea882611eaf565b9050919050565b6000611eba82611e61565b9050919050565b60005b83811015611edf578082015181840152602081019050611ec4565b83811115611eee576000848401525b50505050565b6000819050919050565b6000601f19601f8301169050919050565b611f1881611e31565b8114611f2357600080fd5b50565b611f2f81611e43565b8114611f3a57600080fd5b50565b611f4681611e55565b8114611f5157600080fd5b50565b611f5d81611e81565b8114611f6857600080fd5b5056fea264697066735822122078184e5868392b4a6ebe6440c8bc8d5482c99d2ddc070dc8603e66071bd283e064736f6c63430006080033",
  "linkReferences": {},
  "deployedLinkReferences": {}
}