{
  "_format": "hh-sol-artifact-1",
  "contractName": "MysticDealer",
  "sourceName": "contracts/distribution/MysticDealer.sol",
  "abi": [
    {
      "inputs": [
        {
          "internalType": "address",
          "name": "_tokenInstance",
          "type": "address"
        },
        {
          "internalType": "address payable",
          "name": "_foundationAddress",
          "type": "address"
        },
        {
          "internalType": "uint256",
          "name": "_purchasePeriodWaitTime",
          "type": "uint256"
        },
        {
          "internalType": "uint256",
          "name": "_exchangeRate",
          "type": "uint256"
        },
        {
          "internalType": "uint256",
          "name": "_minBidAmount",
          "type": "uint256"
        },
        {
          "internalType": "uint256",
          "name": "_maxBidAmount",
          "type": "uint256"
        }
      ],
      "stateMutability": "nonpayable",
      "type": "constructor"
    },
    {
      "stateMutability": "payable",
      "type": "fallback"
    },
    {
      "inputs": [],
      "name": "exchangeToken",
      "outputs": [],
      "stateMutability": "payable",
      "type": "function"
    },
    {
      "inputs": [],
      "name": "getOrderBook",
      "outputs": [
        {
          "components": [
            {
              "internalType": "uint256",
              "name": "price",
              "type": "uint256"
            },
            {
              "internalType": "address",
              "name": "buyer",
              "type": "address"
            },
            {
              "internalType": "uint256",
              "name": "bonus",
              "type": "uint256"
            },
            {
              "internalType": "uint256",
              "name": "timestamp",
              "type": "uint256"
            },
            {
              "internalType": "uint256",
              "name": "purchasedTokenAmount",
              "type": "uint256"
            }
          ],
          "internalType": "struct MysticDealer.OrderInformation[]",
          "name": "",
          "type": "tuple[]"
        }
      ],
      "stateMutability": "view",
      "type": "function"
    },
    {
      "inputs": [
        {
          "internalType": "address",
          "name": "who",
          "type": "address"
        }
      ],
      "name": "getOrderMetaOf",
      "outputs": [
        {
          "components": [
            {
              "internalType": "uint256",
              "name": "luckyNumber",
              "type": "uint256"
            },
            {
              "internalType": "uint256",
              "name": "participantWaitTime",
              "type": "uint256"
            }
          ],
          "internalType": "struct MysticDealer.OrderMeta",
          "name": "",
          "type": "tuple"
        }
      ],
      "stateMutability": "view",
      "type": "function"
    },
    {
      "inputs": [
        {
          "internalType": "address payable",
          "name": "_foundationAddress",
          "type": "address"
        }
      ],
      "name": "setFoundationAddress",
      "outputs": [],
      "stateMutability": "nonpayable",
      "type": "function"
    },
    {
      "inputs": [
        {
          "internalType": "uint256",
          "name": "_purchasePeriodWaitTime",
          "type": "uint256"
        }
      ],
      "name": "setPurchasePeriodWaitTime",
      "outputs": [],
      "stateMutability": "nonpayable",
      "type": "function"
    },
    {
      "inputs": [
        {
          "internalType": "uint256",
          "name": "_exchangeRate",
          "type": "uint256"
        },
        {
          "internalType": "uint256",
          "name": "_minBidAmount",
          "type": "uint256"
        },
        {
          "internalType": "uint256",
          "name": "_maxBidAmount",
          "type": "uint256"
        }
      ],
      "name": "setQuantityRules",
      "outputs": [],
      "stateMutability": "nonpayable",
      "type": "function"
    },
    {
      "inputs": [],
      "name": "withdrawFund",
      "outputs": [],
      "stateMutability": "nonpayable",
      "type": "function"
    }
  ],
  "bytecode": "0x60806040523480156200001157600080fd5b50604051620027b8380380620027b883398181016040528101906200003791906200055f565b33600360006101000a81548173ffffffffffffffffffffffffffffffffffffffff021916908373ffffffffffffffffffffffffffffffffffffffff160217905550600073ffffffffffffffffffffffffffffffffffffffff168673ffffffffffffffffffffffffffffffffffffffff161415620000eb576040517f08c379a0000000000000000000000000000000000000000000000000000000008152600401620000e2906200097b565b60405180910390fd5b85600260006101000a81548173ffffffffffffffffffffffffffffffffffffffff021916908373ffffffffffffffffffffffffffffffffffffffff1602179055506200013d856200016d60201b60201c565b6200014e84620002b760201b60201c565b620001618383836200039b60201b60201c565b50505050505062000a92565b3373ffffffffffffffffffffffffffffffffffffffff16600360009054906101000a900473ffffffffffffffffffffffffffffffffffffffff1673ffffffffffffffffffffffffffffffffffffffff161462000200576040517f08c379a0000000000000000000000000000000000000000000000000000000008152600401620001f79062000959565b60405180910390fd5b600073ffffffffffffffffffffffffffffffffffffffff168173ffffffffffffffffffffffffffffffffffffffff16141562000273576040517f08c379a00000000000000000000000000000000000000000000000000000000081526004016200026a906200099d565b60405180910390fd5b80600460006101000a81548173ffffffffffffffffffffffffffffffffffffffff021916908373ffffffffffffffffffffffffffffffffffffffff16021790555050565b3373ffffffffffffffffffffffffffffffffffffffff16600360009054906101000a900473ffffffffffffffffffffffffffffffffffffffff1673ffffffffffffffffffffffffffffffffffffffff16146200034a576040517f08c379a0000000000000000000000000000000000000000000000000000000008152600401620003419062000959565b60405180910390fd5b603c81101562000391576040517f08c379a00000000000000000000000000000000000000000000000000000000081526004016200038890620009bf565b60405180910390fd5b8060058190555050565b3373ffffffffffffffffffffffffffffffffffffffff16600360009054906101000a900473ffffffffffffffffffffffffffffffffffffffff1673ffffffffffffffffffffffffffffffffffffffff16146200042e576040517f08c379a0000000000000000000000000000000000000000000000000000000008152600401620004259062000959565b60405180910390fd5b6000821162000474576040517f08c379a00000000000000000000000000000000000000000000000000000000081526004016200046b90620008f3565b60405180910390fd5b81811015620004ba576040517f08c379a0000000000000000000000000000000000000000000000000000000008152600401620004b19062000937565b60405180910390fd5b6000831162000500576040517f08c379a0000000000000000000000000000000000000000000000000000000008152600401620004f79062000915565b60405180910390fd5b816007819055508060088190555082600681905550505050565b6000815190506200052b8162000a44565b92915050565b600081519050620005428162000a5e565b92915050565b600081519050620005598162000a78565b92915050565b60008060008060008060c087890312156200057957600080fd5b60006200058989828a016200051a565b96505060206200059c89828a0162000531565b9550506040620005af89828a0162000548565b9450506060620005c289828a0162000548565b9350506080620005d589828a0162000548565b92505060a0620005e889828a0162000548565b9150509295509295509295565b600062000604602483620009e1565b91507f4572726f723a206d696e2062696420616d6f756e742063616e6e6f742062652060008301527f7a65726f000000000000000000000000000000000000000000000000000000006020830152604082019050919050565b60006200066c602383620009e1565b91507f4572726f723a2065786368616e676520726174652063616e6e6f74206265207a60008301527f65726f00000000000000000000000000000000000000000000000000000000006020830152604082019050919050565b6000620006d4604283620009e1565b91507f4572726f723a206d61782062696420616d6f756e74206d75737420626520677260008301527f6561746572207468616e206f7220657175616c206d696e2062696420616d6f7560208301527f6e740000000000000000000000000000000000000000000000000000000000006040830152606082019050919050565b600062000762603683620009e1565b91507f4572726f723a206f6e6c79206f776e65722063616e2061646a7573742070757260008301527f636861736520706572696f6420776169742074696d65000000000000000000006020830152604082019050919050565b6000620007ca602583620009e1565b91507f4572726f723a2063616e6e6f742061646420746f6b656e206174204e6f57686560008301527f7265203a290000000000000000000000000000000000000000000000000000006020830152604082019050919050565b600062000832602783620009e1565b91507f4572726f723a2063616e6e6f74206164642061646472657373206174204e6f5760008301527f68657265203a29000000000000000000000000000000000000000000000000006020830152604082019050919050565b60006200089a603a83620009e1565b91507f4572726f723a20707572636861736520706572696f6420776169742074696d6560008301527f206d757374206265206174206c656173742031206d696e7574650000000000006020830152604082019050919050565b600060208201905081810360008301526200090e81620005f5565b9050919050565b6000602082019050818103600083015262000930816200065d565b9050919050565b600060208201905081810360008301526200095281620006c5565b9050919050565b60006020820190508181036000830152620009748162000753565b9050919050565b600060208201905081810360008301526200099681620007bb565b9050919050565b60006020820190508181036000830152620009b88162000823565b9050919050565b60006020820190508181036000830152620009da816200088b565b9050919050565b600082825260208201905092915050565b6000620009ff8262000a1a565b9050919050565b600062000a138262000a1a565b9050919050565b600073ffffffffffffffffffffffffffffffffffffffff82169050919050565b6000819050919050565b62000a4f81620009f2565b811462000a5b57600080fd5b50565b62000a698162000a06565b811462000a7557600080fd5b50565b62000a838162000a3a565b811462000a8f57600080fd5b50565b611d168062000aa26000396000f3fe6080604052600436106100745760003560e01c8063b248c4ef1161004e578063b248c4ef146100db578063c4394cf814610106578063e07fa3c114610143578063f41377ca1461015a57610075565b80633a871b601461007f5780635303ad21146100a8578063a25eb5d9146100d157610075565b5b61007d610183565b005b34801561008b57600080fd5b506100a660048036038101906100a191906110e0565b6105a5565b005b3480156100b457600080fd5b506100cf60048036038101906100ca9190611132565b610683565b005b6100d9610183565b005b3480156100e757600080fd5b506100f06107f6565b6040516100fd9190611927565b60405180910390f35b34801561011257600080fd5b5061012d60048036038101906101289190611065565b6108d3565b60405161013a9190611b2b565b60405180910390f35b34801561014f57600080fd5b50610158610940565b005b34801561016657600080fd5b50610181600480360381019061017c919061108e565b610aa1565b005b600080600061019134610be5565b925092509250600083600260009054906101000a900473ffffffffffffffffffffffffffffffffffffffff1673ffffffffffffffffffffffffffffffffffffffff166370a08231306040518263ffffffff1660e01b81526004016101f591906118e3565b60206040518083038186803b15801561020d57600080fd5b505afa158015610221573d6000803e3d6000fd5b505050506040513d601f19601f820116820180604052508101906102459190611109565b039050600081121561028c576040517f08c379a000000000000000000000000000000000000000000000000000000000815260040161028390611acb565b60405180910390fd5b42600160003373ffffffffffffffffffffffffffffffffffffffff1673ffffffffffffffffffffffffffffffffffffffff168152602001908152602001600020600101541115610311576040517f08c379a000000000000000000000000000000000000000000000000000000000815260040161030890611a0b565b60405180910390fd5b600260009054906101000a900473ffffffffffffffffffffffffffffffffffffffff1673ffffffffffffffffffffffffffffffffffffffff1663a9059cbb33866040518363ffffffff1660e01b815260040161036e9291906118fe565b602060405180830381600087803b15801561038857600080fd5b505af115801561039c573d6000803e3d6000fd5b505050506040513d601f19601f820116820180604052508101906103c091906110b7565b506103c9610f9d565b6040518060a0016040528060008152602001600073ffffffffffffffffffffffffffffffffffffffff1681526020016000815260200160008152602001600081525090508281604001818152505033816020019073ffffffffffffffffffffffffffffffffffffffff16908173ffffffffffffffffffffffffffffffffffffffff1681525050600654816000018181525050848160800181815250504281606001818152505060008190806001815401808255809150506001900390600052602060002090600502016000909190919091506000820151816000015560208201518160010160006101000a81548173ffffffffffffffffffffffffffffffffffffffff021916908373ffffffffffffffffffffffffffffffffffffffff16021790555060408201518160020155606082015181600301556080820151816004015550506005544201600160003373ffffffffffffffffffffffffffffffffffffffff1673ffffffffffffffffffffffffffffffffffffffff1681526020019081526020016000206001018190555083600160003373ffffffffffffffffffffffffffffffffffffffff1673ffffffffffffffffffffffffffffffffffffffff168152602001908152602001600020600001819055505050505050565b3373ffffffffffffffffffffffffffffffffffffffff16600360009054906101000a900473ffffffffffffffffffffffffffffffffffffffff1673ffffffffffffffffffffffffffffffffffffffff1614610635576040517f08c379a000000000000000000000000000000000000000000000000000000000815260040161062c90611a2b565b60405180910390fd5b603c811015610679576040517f08c379a000000000000000000000000000000000000000000000000000000000815260040161067090611a8b565b60405180910390fd5b8060058190555050565b3373ffffffffffffffffffffffffffffffffffffffff16600360009054906101000a900473ffffffffffffffffffffffffffffffffffffffff1673ffffffffffffffffffffffffffffffffffffffff1614610713576040517f08c379a000000000000000000000000000000000000000000000000000000000815260040161070a90611a2b565b60405180910390fd5b60008211610756576040517f08c379a000000000000000000000000000000000000000000000000000000000815260040161074d9061196b565b60405180910390fd5b81811015610799576040517f08c379a0000000000000000000000000000000000000000000000000000000008152600401610790906119cb565b60405180910390fd5b600083116107dc576040517f08c379a00000000000000000000000000000000000000000000000000000000081526004016107d3906119ab565b60405180910390fd5b816007819055508060088190555082600681905550505050565b60606000805480602002602001604051908101604052809291908181526020016000905b828210156108ca57838290600052602060002090600502016040518060a0016040529081600082015481526020016001820160009054906101000a900473ffffffffffffffffffffffffffffffffffffffff1673ffffffffffffffffffffffffffffffffffffffff1673ffffffffffffffffffffffffffffffffffffffff16815260200160028201548152602001600382015481526020016004820154815250508152602001906001019061081a565b50505050905090565b6108db610fe2565b600160008373ffffffffffffffffffffffffffffffffffffffff1673ffffffffffffffffffffffffffffffffffffffff168152602001908152602001600020604051806040016040529081600082015481526020016001820154815250509050919050565b3373ffffffffffffffffffffffffffffffffffffffff16600360009054906101000a900473ffffffffffffffffffffffffffffffffffffffff1673ffffffffffffffffffffffffffffffffffffffff16146109d0576040517f08c379a00000000000000000000000000000000000000000000000000000000081526004016109c79061198b565b60405180910390fd5b6000600460009054906101000a900473ffffffffffffffffffffffffffffffffffffffff1673ffffffffffffffffffffffffffffffffffffffff1647604051610a18906118a2565b60006040518083038185875af1925050503d8060008114610a55576040519150601f19603f3d011682016040523d82523d6000602084013e610a5a565b606091505b5050905080610a9e576040517f08c379a0000000000000000000000000000000000000000000000000000000008152600401610a9590611b0b565b60405180910390fd5b50565b3373ffffffffffffffffffffffffffffffffffffffff16600360009054906101000a900473ffffffffffffffffffffffffffffffffffffffff1673ffffffffffffffffffffffffffffffffffffffff1614610b31576040517f08c379a0000000000000000000000000000000000000000000000000000000008152600401610b2890611a2b565b60405180910390fd5b600073ffffffffffffffffffffffffffffffffffffffff168173ffffffffffffffffffffffffffffffffffffffff161415610ba1576040517f08c379a0000000000000000000000000000000000000000000000000000000008152600401610b9890611a4b565b60405180910390fd5b80600460006101000a81548173ffffffffffffffffffffffffffffffffffffffff021916908373ffffffffffffffffffffffffffffffffffffffff16021790555050565b6000806000600854841115610c2f576040517f08c379a0000000000000000000000000000000000000000000000000000000008152600401610c2690611aab565b60405180910390fd5b600754841015610c74576040517f08c379a0000000000000000000000000000000000000000000000000000000008152600401610c6b90611aeb565b60405180910390fd5b6000610c8260006064610d30565b905060008090506000610cba670de0b6b3a7640000610cac6006548a610d8790919063ffffffff16565b610df790919063ffffffff16565b90506000610cec670de0b6b3a7640000610cde60648b610d8790919063ffffffff16565b610df790919063ffffffff16565b90506011811115610cfc57601190505b808411610d07578192505b610d1a8383610e4190919063ffffffff16565b9150818484965096509650505050509193909250565b6000804442604051602001610d469291906118b7565b6040516020818303038152906040528051906020012060001c9050600084610d7986860384610e9690919063ffffffff16565b019050809250505092915050565b600080831415610d9a5760009050610df1565b6000828402905082848281610dab57fe5b0414610dec576040517f08c379a0000000000000000000000000000000000000000000000000000000008152600401610de390611a6b565b60405180910390fd5b809150505b92915050565b6000610e3983836040518060400160405280601a81526020017f536166654d6174683a206469766973696f6e206279207a65726f000000000000815250610ee0565b905092915050565b600080828401905083811015610e8c576040517f08c379a0000000000000000000000000000000000000000000000000000000008152600401610e83906119eb565b60405180910390fd5b8091505092915050565b6000610ed883836040518060400160405280601881526020017f536166654d6174683a206d6f64756c6f206279207a65726f0000000000000000815250610f41565b905092915050565b60008083118290610f27576040517f08c379a0000000000000000000000000000000000000000000000000000000008152600401610f1e9190611949565b60405180910390fd5b506000838581610f3357fe5b049050809150509392505050565b6000808314158290610f89576040517f08c379a0000000000000000000000000000000000000000000000000000000008152600401610f809190611949565b60405180910390fd5b50828481610f9357fe5b0690509392505050565b6040518060a0016040528060008152602001600073ffffffffffffffffffffffffffffffffffffffff1681526020016000815260200160008152602001600081525090565b604051806040016040528060008152602001600081525090565b60008135905061100b81611c84565b92915050565b60008135905061102081611c9b565b92915050565b60008151905061103581611cb2565b92915050565b60008135905061104a81611cc9565b92915050565b60008151905061105f81611cc9565b92915050565b60006020828403121561107757600080fd5b600061108584828501610ffc565b91505092915050565b6000602082840312156110a057600080fd5b60006110ae84828501611011565b91505092915050565b6000602082840312156110c957600080fd5b60006110d784828501611026565b91505092915050565b6000602082840312156110f257600080fd5b60006111008482850161103b565b91505092915050565b60006020828403121561111b57600080fd5b600061112984828501611050565b91505092915050565b60008060006060848603121561114757600080fd5b60006111558682870161103b565b93505060206111668682870161103b565b92505060406111778682870161103b565b9150509250925092565b600061118d83836117d6565b60a08301905092915050565b6111a281611c00565b82525050565b6111b181611ba6565b82525050565b60006111c282611b56565b6111cc8185611b79565b93506111d783611b46565b8060005b838110156112085781516111ef8882611181565b97506111fa83611b6c565b9250506001810190506111db565b5085935050505092915050565b600061122082611b61565b61122a8185611b95565b935061123a818560208601611c36565b61124381611c73565b840191505092915050565b600061125b602483611b95565b91507f4572726f723a206d696e2062696420616d6f756e742063616e6e6f742062652060008301527f7a65726f000000000000000000000000000000000000000000000000000000006020830152604082019050919050565b60006112c1602983611b95565b91507f4572726f723a206f6e6c79206f776e65722063616e2063616c6c20666f72207760008301527f69746864726177616c00000000000000000000000000000000000000000000006020830152604082019050919050565b6000611327602383611b95565b91507f4572726f723a2065786368616e676520726174652063616e6e6f74206265207a60008301527f65726f00000000000000000000000000000000000000000000000000000000006020830152604082019050919050565b600061138d604283611b95565b91507f4572726f723a206d61782062696420616d6f756e74206d75737420626520677260008301527f6561746572207468616e206f7220657175616c206d696e2062696420616d6f7560208301527f6e740000000000000000000000000000000000000000000000000000000000006040830152606082019050919050565b6000611419601b83611b95565b91507f536166654d6174683a206164646974696f6e206f766572666c6f7700000000006000830152602082019050919050565b6000611459602b83611b95565b91507f4572726f723a207061727469636970616e7420776169742074696d652069732060008301527f6e6f7420726561636865640000000000000000000000000000000000000000006020830152604082019050919050565b60006114bf603683611b95565b91507f4572726f723a206f6e6c79206f776e65722063616e2061646a7573742070757260008301527f636861736520706572696f6420776169742074696d65000000000000000000006020830152604082019050919050565b6000611525602783611b95565b91507f4572726f723a2063616e6e6f74206164642061646472657373206174204e6f5760008301527f68657265203a29000000000000000000000000000000000000000000000000006020830152604082019050919050565b600061158b602183611b95565b91507f536166654d6174683a206d756c7469706c69636174696f6e206f766572666c6f60008301527f77000000000000000000000000000000000000000000000000000000000000006020830152604082019050919050565b60006115f1603a83611b95565b91507f4572726f723a20707572636861736520706572696f6420776169742074696d6560008301527f206d757374206265206174206c656173742031206d696e7574650000000000006020830152604082019050919050565b6000611657600083611b8a565b9150600082019050919050565b6000611671602783611b95565b91507f4572726f723a206d757374206265206c657373207468616e206d61782062696460008301527f20616d6f756e74000000000000000000000000000000000000000000000000006020830152604082019050919050565b60006116d7602083611b95565b91507f4572726f723a20636f6e74726163742066756e642069732065786365656465646000830152602082019050919050565b6000611717602a83611b95565b91507f4572726f723a206d7573742062652067726561746572207468616e206d696e2060008301527f62696420616d6f756e74000000000000000000000000000000000000000000006020830152604082019050919050565b600061177d603083611b95565b91507f4572726f723a2043616e6e6f7420776974686472617720746f2074686520666f60008301527f756e646174696f6e2061646472657373000000000000000000000000000000006020830152604082019050919050565b60a0820160008201516117ec600085018261186d565b5060208201516117ff60208501826111a8565b506040820151611812604085018261186d565b506060820151611825606085018261186d565b506080820151611838608085018261186d565b50505050565b604082016000820151611854600085018261186d565b506020820151611867602085018261186d565b50505050565b61187681611bf6565b82525050565b61188581611bf6565b82525050565b61189c61189782611bf6565b611c69565b82525050565b60006118ad8261164a565b9150819050919050565b60006118c3828561188b565b6020820191506118d3828461188b565b6020820191508190509392505050565b60006020820190506118f86000830184611199565b92915050565b60006040820190506119136000830185611199565b611920602083018461187c565b9392505050565b6000602082019050818103600083015261194181846111b7565b905092915050565b600060208201905081810360008301526119638184611215565b905092915050565b600060208201905081810360008301526119848161124e565b9050919050565b600060208201905081810360008301526119a4816112b4565b9050919050565b600060208201905081810360008301526119c48161131a565b9050919050565b600060208201905081810360008301526119e481611380565b9050919050565b60006020820190508181036000830152611a048161140c565b9050919050565b60006020820190508181036000830152611a248161144c565b9050919050565b60006020820190508181036000830152611a44816114b2565b9050919050565b60006020820190508181036000830152611a6481611518565b9050919050565b60006020820190508181036000830152611a848161157e565b9050919050565b60006020820190508181036000830152611aa4816115e4565b9050919050565b60006020820190508181036000830152611ac481611664565b9050919050565b60006020820190508181036000830152611ae4816116ca565b9050919050565b60006020820190508181036000830152611b048161170a565b9050919050565b60006020820190508181036000830152611b2481611770565b9050919050565b6000604082019050611b40600083018461183e565b92915050565b6000819050602082019050919050565b600081519050919050565b600081519050919050565b6000602082019050919050565b600082825260208201905092915050565b600081905092915050565b600082825260208201905092915050565b6000611bb182611bd6565b9050919050565b6000611bc382611bd6565b9050919050565b60008115159050919050565b600073ffffffffffffffffffffffffffffffffffffffff82169050919050565b6000819050919050565b6000611c0b82611c12565b9050919050565b6000611c1d82611c24565b9050919050565b6000611c2f82611bd6565b9050919050565b60005b83811015611c54578082015181840152602081019050611c39565b83811115611c63576000848401525b50505050565b6000819050919050565b6000601f19601f8301169050919050565b611c8d81611ba6565b8114611c9857600080fd5b50565b611ca481611bb8565b8114611caf57600080fd5b50565b611cbb81611bca565b8114611cc657600080fd5b50565b611cd281611bf6565b8114611cdd57600080fd5b5056fea2646970667358221220b4d5d53775f264a214eda3e57198a638209e3c150a47839c7b93cb8981ac51b364736f6c63430006080033",
  "linkReferences": {},
  "deployedLinkReferences": {}
}