{
  "_format": "hh-sol-artifact-1",
  "contractName": "MysticDealer",
  "sourceName": "contracts/distribution/MysticDealer.sol",
  "abi": [
    {
      "inputs": [
        {
          "internalType": "address",
          "name": "_tokenInstance",
          "type": "address"
        },
        {
          "internalType": "address payable",
          "name": "_foundationAddress",
          "type": "address"
        },
        {
          "internalType": "uint256",
          "name": "_purchasePeriodWaitTime",
          "type": "uint256"
        },
        {
          "internalType": "uint256",
          "name": "_exchangeRate",
          "type": "uint256"
        },
        {
          "internalType": "uint256",
          "name": "_minBidAmount",
          "type": "uint256"
        },
        {
          "internalType": "uint256",
          "name": "_maxBidAmount",
          "type": "uint256"
        }
      ],
      "stateMutability": "nonpayable",
      "type": "constructor"
    },
    {
      "anonymous": false,
      "inputs": [
        {
          "indexed": false,
          "internalType": "uint256",
          "name": "price",
          "type": "uint256"
        },
        {
          "indexed": true,
          "internalType": "address",
          "name": "buyer",
          "type": "address"
        },
        {
          "indexed": false,
          "internalType": "uint256",
          "name": "bonus",
          "type": "uint256"
        },
        {
          "indexed": false,
          "internalType": "uint256",
          "name": "timestamp",
          "type": "uint256"
        },
        {
          "indexed": false,
          "internalType": "uint256",
          "name": "purchasedTokenAmount",
          "type": "uint256"
        }
      ],
      "name": "OnSuccessfulSale",
      "type": "event"
    },
    {
      "stateMutability": "payable",
      "type": "fallback"
    },
    {
      "inputs": [],
      "name": "exchangeToken",
      "outputs": [],
      "stateMutability": "payable",
      "type": "function"
    },
    {
      "inputs": [],
      "name": "getOrderBook",
      "outputs": [
        {
          "components": [
            {
              "internalType": "uint256",
              "name": "price",
              "type": "uint256"
            },
            {
              "internalType": "address",
              "name": "buyer",
              "type": "address"
            },
            {
              "internalType": "uint256",
              "name": "bonus",
              "type": "uint256"
            },
            {
              "internalType": "uint256",
              "name": "timestamp",
              "type": "uint256"
            },
            {
              "internalType": "uint256",
              "name": "purchasedTokenAmount",
              "type": "uint256"
            }
          ],
          "internalType": "struct MysticDealer.OrderInformation[]",
          "name": "",
          "type": "tuple[]"
        }
      ],
      "stateMutability": "view",
      "type": "function"
    },
    {
      "inputs": [
        {
          "internalType": "address",
          "name": "who",
          "type": "address"
        }
      ],
      "name": "getOrderMetaOf",
      "outputs": [
        {
          "components": [
            {
              "internalType": "uint256",
              "name": "luckyNumber",
              "type": "uint256"
            },
            {
              "internalType": "uint256",
              "name": "participantWaitTime",
              "type": "uint256"
            }
          ],
          "internalType": "struct MysticDealer.OrderMeta",
          "name": "",
          "type": "tuple"
        }
      ],
      "stateMutability": "view",
      "type": "function"
    },
    {
      "inputs": [],
      "name": "getSaleRate",
      "outputs": [
        {
          "internalType": "uint256",
          "name": "",
          "type": "uint256"
        }
      ],
      "stateMutability": "view",
      "type": "function"
    },
    {
      "inputs": [],
      "name": "getSaleSupply",
      "outputs": [
        {
          "internalType": "uint256",
          "name": "",
          "type": "uint256"
        }
      ],
      "stateMutability": "view",
      "type": "function"
    },
    {
      "inputs": [
        {
          "internalType": "address payable",
          "name": "_foundationAddress",
          "type": "address"
        }
      ],
      "name": "setFoundationAddress",
      "outputs": [],
      "stateMutability": "nonpayable",
      "type": "function"
    },
    {
      "inputs": [
        {
          "internalType": "uint256",
          "name": "_purchasePeriodWaitTime",
          "type": "uint256"
        }
      ],
      "name": "setPurchasePeriodWaitTime",
      "outputs": [],
      "stateMutability": "nonpayable",
      "type": "function"
    },
    {
      "inputs": [
        {
          "internalType": "uint256",
          "name": "_exchangeRate",
          "type": "uint256"
        },
        {
          "internalType": "uint256",
          "name": "_minBidAmount",
          "type": "uint256"
        },
        {
          "internalType": "uint256",
          "name": "_maxBidAmount",
          "type": "uint256"
        }
      ],
      "name": "setQuantityRules",
      "outputs": [],
      "stateMutability": "nonpayable",
      "type": "function"
    },
    {
      "inputs": [],
      "name": "withdrawFund",
      "outputs": [],
      "stateMutability": "nonpayable",
      "type": "function"
    }
  ],
  "bytecode": "0x60806040523480156200001157600080fd5b50604051620029a8380380620029a883398181016040528101906200003791906200055f565b33600360006101000a81548173ffffffffffffffffffffffffffffffffffffffff021916908373ffffffffffffffffffffffffffffffffffffffff160217905550600073ffffffffffffffffffffffffffffffffffffffff168673ffffffffffffffffffffffffffffffffffffffff161415620000eb576040517f08c379a0000000000000000000000000000000000000000000000000000000008152600401620000e2906200097b565b60405180910390fd5b85600260006101000a81548173ffffffffffffffffffffffffffffffffffffffff021916908373ffffffffffffffffffffffffffffffffffffffff1602179055506200013d856200016d60201b60201c565b6200014e84620002b760201b60201c565b620001618383836200039b60201b60201c565b50505050505062000a92565b3373ffffffffffffffffffffffffffffffffffffffff16600360009054906101000a900473ffffffffffffffffffffffffffffffffffffffff1673ffffffffffffffffffffffffffffffffffffffff161462000200576040517f08c379a0000000000000000000000000000000000000000000000000000000008152600401620001f79062000959565b60405180910390fd5b600073ffffffffffffffffffffffffffffffffffffffff168173ffffffffffffffffffffffffffffffffffffffff16141562000273576040517f08c379a00000000000000000000000000000000000000000000000000000000081526004016200026a906200099d565b60405180910390fd5b80600460006101000a81548173ffffffffffffffffffffffffffffffffffffffff021916908373ffffffffffffffffffffffffffffffffffffffff16021790555050565b3373ffffffffffffffffffffffffffffffffffffffff16600360009054906101000a900473ffffffffffffffffffffffffffffffffffffffff1673ffffffffffffffffffffffffffffffffffffffff16146200034a576040517f08c379a0000000000000000000000000000000000000000000000000000000008152600401620003419062000959565b60405180910390fd5b603c81101562000391576040517f08c379a00000000000000000000000000000000000000000000000000000000081526004016200038890620009bf565b60405180910390fd5b8060058190555050565b3373ffffffffffffffffffffffffffffffffffffffff16600360009054906101000a900473ffffffffffffffffffffffffffffffffffffffff1673ffffffffffffffffffffffffffffffffffffffff16146200042e576040517f08c379a0000000000000000000000000000000000000000000000000000000008152600401620004259062000959565b60405180910390fd5b6000821162000474576040517f08c379a00000000000000000000000000000000000000000000000000000000081526004016200046b90620008f3565b60405180910390fd5b81811015620004ba576040517f08c379a0000000000000000000000000000000000000000000000000000000008152600401620004b19062000937565b60405180910390fd5b6000831162000500576040517f08c379a0000000000000000000000000000000000000000000000000000000008152600401620004f79062000915565b60405180910390fd5b816007819055508060088190555082600681905550505050565b6000815190506200052b8162000a44565b92915050565b600081519050620005428162000a5e565b92915050565b600081519050620005598162000a78565b92915050565b60008060008060008060c087890312156200057957600080fd5b60006200058989828a016200051a565b96505060206200059c89828a0162000531565b9550506040620005af89828a0162000548565b9450506060620005c289828a0162000548565b9350506080620005d589828a0162000548565b92505060a0620005e889828a0162000548565b9150509295509295509295565b600062000604602483620009e1565b91507f4572726f723a206d696e2062696420616d6f756e742063616e6e6f742062652060008301527f7a65726f000000000000000000000000000000000000000000000000000000006020830152604082019050919050565b60006200066c602383620009e1565b91507f4572726f723a2065786368616e676520726174652063616e6e6f74206265207a60008301527f65726f00000000000000000000000000000000000000000000000000000000006020830152604082019050919050565b6000620006d4604283620009e1565b91507f4572726f723a206d61782062696420616d6f756e74206d75737420626520677260008301527f6561746572207468616e206f7220657175616c206d696e2062696420616d6f7560208301527f6e740000000000000000000000000000000000000000000000000000000000006040830152606082019050919050565b600062000762603683620009e1565b91507f4572726f723a206f6e6c79206f776e65722063616e2061646a7573742070757260008301527f636861736520706572696f6420776169742074696d65000000000000000000006020830152604082019050919050565b6000620007ca602583620009e1565b91507f4572726f723a2063616e6e6f742061646420746f6b656e206174204e6f57686560008301527f7265203a290000000000000000000000000000000000000000000000000000006020830152604082019050919050565b600062000832602783620009e1565b91507f4572726f723a2063616e6e6f74206164642061646472657373206174204e6f5760008301527f68657265203a29000000000000000000000000000000000000000000000000006020830152604082019050919050565b60006200089a603a83620009e1565b91507f4572726f723a20707572636861736520706572696f6420776169742074696d6560008301527f206d757374206265206174206c656173742031206d696e7574650000000000006020830152604082019050919050565b600060208201905081810360008301526200090e81620005f5565b9050919050565b6000602082019050818103600083015262000930816200065d565b9050919050565b600060208201905081810360008301526200095281620006c5565b9050919050565b60006020820190508181036000830152620009748162000753565b9050919050565b600060208201905081810360008301526200099681620007bb565b9050919050565b60006020820190508181036000830152620009b88162000823565b9050919050565b60006020820190508181036000830152620009da816200088b565b9050919050565b600082825260208201905092915050565b6000620009ff8262000a1a565b9050919050565b600062000a138262000a1a565b9050919050565b600073ffffffffffffffffffffffffffffffffffffffff82169050919050565b6000819050919050565b62000a4f81620009f2565b811462000a5b57600080fd5b50565b62000a698162000a06565b811462000a7557600080fd5b50565b62000a838162000a3a565b811462000a8f57600080fd5b50565b611f068062000aa26000396000f3fe60806040526004361061008a5760003560e01c8063a25eb5d911610059578063a25eb5d91461013d578063b248c4ef14610147578063c4394cf814610172578063e07fa3c1146101af578063f41377ca146101c65761008b565b80632e8e89bf146100955780633a871b60146100c05780635303ad21146100e957806395d8e499146101125761008b565b5b6100936101ef565b005b3480156100a157600080fd5b506100aa610679565b6040516100b79190611cd6565b60405180910390f35b3480156100cc57600080fd5b506100e760048036038101906100e29190611270565b610683565b005b3480156100f557600080fd5b50610110600480360381019061010b91906112c2565b610761565b005b34801561011e57600080fd5b506101276108d4565b6040516101349190611cd6565b60405180910390f35b6101456101ef565b005b34801561015357600080fd5b5061015c610986565b6040516101699190611ab7565b60405180910390f35b34801561017e57600080fd5b50610199600480360381019061019491906111f5565b610a63565b6040516101a69190611cbb565b60405180910390f35b3480156101bb57600080fd5b506101c4610ad0565b005b3480156101d257600080fd5b506101ed60048036038101906101e8919061121e565b610c31565b005b60008060006101fd34610d75565b925092509250600083600260009054906101000a900473ffffffffffffffffffffffffffffffffffffffff1673ffffffffffffffffffffffffffffffffffffffff166370a08231306040518263ffffffff1660e01b81526004016102619190611a73565b60206040518083038186803b15801561027957600080fd5b505afa15801561028d573d6000803e3d6000fd5b505050506040513d601f19601f820116820180604052508101906102b19190611299565b03905060008112156102f8576040517f08c379a00000000000000000000000000000000000000000000000000000000081526004016102ef90611c5b565b60405180910390fd5b42600160003373ffffffffffffffffffffffffffffffffffffffff1673ffffffffffffffffffffffffffffffffffffffff16815260200190815260200160002060010154111561037d576040517f08c379a000000000000000000000000000000000000000000000000000000000815260040161037490611b9b565b60405180910390fd5b600260009054906101000a900473ffffffffffffffffffffffffffffffffffffffff1673ffffffffffffffffffffffffffffffffffffffff1663a9059cbb33866040518363ffffffff1660e01b81526004016103da929190611a8e565b602060405180830381600087803b1580156103f457600080fd5b505af1158015610408573d6000803e3d6000fd5b505050506040513d601f19601f8201168201806040525081019061042c9190611247565b5061043561112d565b6040518060a0016040528060008152602001600073ffffffffffffffffffffffffffffffffffffffff1681526020016000815260200160008152602001600081525090508281604001818152505033816020019073ffffffffffffffffffffffffffffffffffffffff16908173ffffffffffffffffffffffffffffffffffffffff1681525050600654816000018181525050848160800181815250504281606001818152505060008190806001815401808255809150506001900390600052602060002090600502016000909190919091506000820151816000015560208201518160010160006101000a81548173ffffffffffffffffffffffffffffffffffffffff021916908373ffffffffffffffffffffffffffffffffffffffff16021790555060408201518160020155606082015181600301556080820151816004015550506005544201600160003373ffffffffffffffffffffffffffffffffffffffff1673ffffffffffffffffffffffffffffffffffffffff1681526020019081526020016000206001018190555083600160003373ffffffffffffffffffffffffffffffffffffffff1673ffffffffffffffffffffffffffffffffffffffff16815260200190815260200160002060000181905550806020015173ffffffffffffffffffffffffffffffffffffffff167f84d229648028b03b39e937b23be815ba8ab29e9b5d84c63ead27f745f6e0a6a8826000015183604001518460600151856080015160405161066a9493929190611cf1565b60405180910390a25050505050565b6000600654905090565b3373ffffffffffffffffffffffffffffffffffffffff16600360009054906101000a900473ffffffffffffffffffffffffffffffffffffffff1673ffffffffffffffffffffffffffffffffffffffff1614610713576040517f08c379a000000000000000000000000000000000000000000000000000000000815260040161070a90611bbb565b60405180910390fd5b603c811015610757576040517f08c379a000000000000000000000000000000000000000000000000000000000815260040161074e90611c1b565b60405180910390fd5b8060058190555050565b3373ffffffffffffffffffffffffffffffffffffffff16600360009054906101000a900473ffffffffffffffffffffffffffffffffffffffff1673ffffffffffffffffffffffffffffffffffffffff16146107f1576040517f08c379a00000000000000000000000000000000000000000000000000000000081526004016107e890611bbb565b60405180910390fd5b60008211610834576040517f08c379a000000000000000000000000000000000000000000000000000000000815260040161082b90611afb565b60405180910390fd5b81811015610877576040517f08c379a000000000000000000000000000000000000000000000000000000000815260040161086e90611b5b565b60405180910390fd5b600083116108ba576040517f08c379a00000000000000000000000000000000000000000000000000000000081526004016108b190611b3b565b60405180910390fd5b816007819055508060088190555082600681905550505050565b6000600260009054906101000a900473ffffffffffffffffffffffffffffffffffffffff1673ffffffffffffffffffffffffffffffffffffffff166370a08231306040518263ffffffff1660e01b81526004016109319190611a73565b60206040518083038186803b15801561094957600080fd5b505afa15801561095d573d6000803e3d6000fd5b505050506040513d601f19601f820116820180604052508101906109819190611299565b905090565b60606000805480602002602001604051908101604052809291908181526020016000905b82821015610a5a57838290600052602060002090600502016040518060a0016040529081600082015481526020016001820160009054906101000a900473ffffffffffffffffffffffffffffffffffffffff1673ffffffffffffffffffffffffffffffffffffffff1673ffffffffffffffffffffffffffffffffffffffff1681526020016002820154815260200160038201548152602001600482015481525050815260200190600101906109aa565b50505050905090565b610a6b611172565b600160008373ffffffffffffffffffffffffffffffffffffffff1673ffffffffffffffffffffffffffffffffffffffff168152602001908152602001600020604051806040016040529081600082015481526020016001820154815250509050919050565b3373ffffffffffffffffffffffffffffffffffffffff16600360009054906101000a900473ffffffffffffffffffffffffffffffffffffffff1673ffffffffffffffffffffffffffffffffffffffff1614610b60576040517f08c379a0000000000000000000000000000000000000000000000000000000008152600401610b5790611b1b565b60405180910390fd5b6000600460009054906101000a900473ffffffffffffffffffffffffffffffffffffffff1673ffffffffffffffffffffffffffffffffffffffff1647604051610ba890611a32565b60006040518083038185875af1925050503d8060008114610be5576040519150601f19603f3d011682016040523d82523d6000602084013e610bea565b606091505b5050905080610c2e576040517f08c379a0000000000000000000000000000000000000000000000000000000008152600401610c2590611c9b565b60405180910390fd5b50565b3373ffffffffffffffffffffffffffffffffffffffff16600360009054906101000a900473ffffffffffffffffffffffffffffffffffffffff1673ffffffffffffffffffffffffffffffffffffffff1614610cc1576040517f08c379a0000000000000000000000000000000000000000000000000000000008152600401610cb890611bbb565b60405180910390fd5b600073ffffffffffffffffffffffffffffffffffffffff168173ffffffffffffffffffffffffffffffffffffffff161415610d31576040517f08c379a0000000000000000000000000000000000000000000000000000000008152600401610d2890611bdb565b60405180910390fd5b80600460006101000a81548173ffffffffffffffffffffffffffffffffffffffff021916908373ffffffffffffffffffffffffffffffffffffffff16021790555050565b6000806000600854841115610dbf576040517f08c379a0000000000000000000000000000000000000000000000000000000008152600401610db690611c3b565b60405180910390fd5b600754841015610e04576040517f08c379a0000000000000000000000000000000000000000000000000000000008152600401610dfb90611c7b565b60405180910390fd5b6000610e1260006064610ec0565b905060008090506000610e4a670de0b6b3a7640000610e3c6006548a610f1790919063ffffffff16565b610f8790919063ffffffff16565b90506000610e7c670de0b6b3a7640000610e6e60648b610f1790919063ffffffff16565b610f8790919063ffffffff16565b90506011811115610e8c57601190505b808411610e97578192505b610eaa8383610fd190919063ffffffff16565b9150818484965096509650505050509193909250565b6000804442604051602001610ed6929190611a47565b6040516020818303038152906040528051906020012060001c9050600084610f098686038461102690919063ffffffff16565b019050809250505092915050565b600080831415610f2a5760009050610f81565b6000828402905082848281610f3b57fe5b0414610f7c576040517f08c379a0000000000000000000000000000000000000000000000000000000008152600401610f7390611bfb565b60405180910390fd5b809150505b92915050565b6000610fc983836040518060400160405280601a81526020017f536166654d6174683a206469766973696f6e206279207a65726f000000000000815250611070565b905092915050565b60008082840190508381101561101c576040517f08c379a000000000000000000000000000000000000000000000000000000000815260040161101390611b7b565b60405180910390fd5b8091505092915050565b600061106883836040518060400160405280601881526020017f536166654d6174683a206d6f64756c6f206279207a65726f00000000000000008152506110d1565b905092915050565b600080831182906110b7576040517f08c379a00000000000000000000000000000000000000000000000000000000081526004016110ae9190611ad9565b60405180910390fd5b5060008385816110c357fe5b049050809150509392505050565b6000808314158290611119576040517f08c379a00000000000000000000000000000000000000000000000000000000081526004016111109190611ad9565b60405180910390fd5b5082848161112357fe5b0690509392505050565b6040518060a0016040528060008152602001600073ffffffffffffffffffffffffffffffffffffffff1681526020016000815260200160008152602001600081525090565b604051806040016040528060008152602001600081525090565b60008135905061119b81611e74565b92915050565b6000813590506111b081611e8b565b92915050565b6000815190506111c581611ea2565b92915050565b6000813590506111da81611eb9565b92915050565b6000815190506111ef81611eb9565b92915050565b60006020828403121561120757600080fd5b60006112158482850161118c565b91505092915050565b60006020828403121561123057600080fd5b600061123e848285016111a1565b91505092915050565b60006020828403121561125957600080fd5b6000611267848285016111b6565b91505092915050565b60006020828403121561128257600080fd5b6000611290848285016111cb565b91505092915050565b6000602082840312156112ab57600080fd5b60006112b9848285016111e0565b91505092915050565b6000806000606084860312156112d757600080fd5b60006112e5868287016111cb565b93505060206112f6868287016111cb565b9250506040611307868287016111cb565b9150509250925092565b600061131d8383611966565b60a08301905092915050565b61133281611df0565b82525050565b61134181611d96565b82525050565b600061135282611d46565b61135c8185611d69565b935061136783611d36565b8060005b8381101561139857815161137f8882611311565b975061138a83611d5c565b92505060018101905061136b565b5085935050505092915050565b60006113b082611d51565b6113ba8185611d85565b93506113ca818560208601611e26565b6113d381611e63565b840191505092915050565b60006113eb602483611d85565b91507f4572726f723a206d696e2062696420616d6f756e742063616e6e6f742062652060008301527f7a65726f000000000000000000000000000000000000000000000000000000006020830152604082019050919050565b6000611451602983611d85565b91507f4572726f723a206f6e6c79206f776e65722063616e2063616c6c20666f72207760008301527f69746864726177616c00000000000000000000000000000000000000000000006020830152604082019050919050565b60006114b7602383611d85565b91507f4572726f723a2065786368616e676520726174652063616e6e6f74206265207a60008301527f65726f00000000000000000000000000000000000000000000000000000000006020830152604082019050919050565b600061151d604283611d85565b91507f4572726f723a206d61782062696420616d6f756e74206d75737420626520677260008301527f6561746572207468616e206f7220657175616c206d696e2062696420616d6f7560208301527f6e740000000000000000000000000000000000000000000000000000000000006040830152606082019050919050565b60006115a9601b83611d85565b91507f536166654d6174683a206164646974696f6e206f766572666c6f7700000000006000830152602082019050919050565b60006115e9602b83611d85565b91507f4572726f723a207061727469636970616e7420776169742074696d652069732060008301527f6e6f7420726561636865640000000000000000000000000000000000000000006020830152604082019050919050565b600061164f603683611d85565b91507f4572726f723a206f6e6c79206f776e65722063616e2061646a7573742070757260008301527f636861736520706572696f6420776169742074696d65000000000000000000006020830152604082019050919050565b60006116b5602783611d85565b91507f4572726f723a2063616e6e6f74206164642061646472657373206174204e6f5760008301527f68657265203a29000000000000000000000000000000000000000000000000006020830152604082019050919050565b600061171b602183611d85565b91507f536166654d6174683a206d756c7469706c69636174696f6e206f766572666c6f60008301527f77000000000000000000000000000000000000000000000000000000000000006020830152604082019050919050565b6000611781603a83611d85565b91507f4572726f723a20707572636861736520706572696f6420776169742074696d6560008301527f206d757374206265206174206c656173742031206d696e7574650000000000006020830152604082019050919050565b60006117e7600083611d7a565b9150600082019050919050565b6000611801602783611d85565b91507f4572726f723a206d757374206265206c657373207468616e206d61782062696460008301527f20616d6f756e74000000000000000000000000000000000000000000000000006020830152604082019050919050565b6000611867602083611d85565b91507f4572726f723a20636f6e74726163742066756e642069732065786365656465646000830152602082019050919050565b60006118a7602a83611d85565b91507f4572726f723a206d7573742062652067726561746572207468616e206d696e2060008301527f62696420616d6f756e74000000000000000000000000000000000000000000006020830152604082019050919050565b600061190d603083611d85565b91507f4572726f723a2043616e6e6f7420776974686472617720746f2074686520666f60008301527f756e646174696f6e2061646472657373000000000000000000000000000000006020830152604082019050919050565b60a08201600082015161197c60008501826119fd565b50602082015161198f6020850182611338565b5060408201516119a260408501826119fd565b5060608201516119b560608501826119fd565b5060808201516119c860808501826119fd565b50505050565b6040820160008201516119e460008501826119fd565b5060208201516119f760208501826119fd565b50505050565b611a0681611de6565b82525050565b611a1581611de6565b82525050565b611a2c611a2782611de6565b611e59565b82525050565b6000611a3d826117da565b9150819050919050565b6000611a538285611a1b565b602082019150611a638284611a1b565b6020820191508190509392505050565b6000602082019050611a886000830184611329565b92915050565b6000604082019050611aa36000830185611329565b611ab06020830184611a0c565b9392505050565b60006020820190508181036000830152611ad18184611347565b905092915050565b60006020820190508181036000830152611af381846113a5565b905092915050565b60006020820190508181036000830152611b14816113de565b9050919050565b60006020820190508181036000830152611b3481611444565b9050919050565b60006020820190508181036000830152611b54816114aa565b9050919050565b60006020820190508181036000830152611b7481611510565b9050919050565b60006020820190508181036000830152611b948161159c565b9050919050565b60006020820190508181036000830152611bb4816115dc565b9050919050565b60006020820190508181036000830152611bd481611642565b9050919050565b60006020820190508181036000830152611bf4816116a8565b9050919050565b60006020820190508181036000830152611c148161170e565b9050919050565b60006020820190508181036000830152611c3481611774565b9050919050565b60006020820190508181036000830152611c54816117f4565b9050919050565b60006020820190508181036000830152611c748161185a565b9050919050565b60006020820190508181036000830152611c948161189a565b9050919050565b60006020820190508181036000830152611cb481611900565b9050919050565b6000604082019050611cd060008301846119ce565b92915050565b6000602082019050611ceb6000830184611a0c565b92915050565b6000608082019050611d066000830187611a0c565b611d136020830186611a0c565b611d206040830185611a0c565b611d2d6060830184611a0c565b95945050505050565b6000819050602082019050919050565b600081519050919050565b600081519050919050565b6000602082019050919050565b600082825260208201905092915050565b600081905092915050565b600082825260208201905092915050565b6000611da182611dc6565b9050919050565b6000611db382611dc6565b9050919050565b60008115159050919050565b600073ffffffffffffffffffffffffffffffffffffffff82169050919050565b6000819050919050565b6000611dfb82611e02565b9050919050565b6000611e0d82611e14565b9050919050565b6000611e1f82611dc6565b9050919050565b60005b83811015611e44578082015181840152602081019050611e29565b83811115611e53576000848401525b50505050565b6000819050919050565b6000601f19601f8301169050919050565b611e7d81611d96565b8114611e8857600080fd5b50565b611e9481611da8565b8114611e9f57600080fd5b50565b611eab81611dba565b8114611eb657600080fd5b50565b611ec281611de6565b8114611ecd57600080fd5b5056fea2646970667358221220184f59e1692261a0681a9e7f5c6a639d137cf461b6eb8841c3c4daf90bd5fd8064736f6c63430006080033",
  "linkReferences": {},
  "deployedLinkReferences": {}
}