{
  "_format": "hh-sol-artifact-1",
  "contractName": "QuestAirdrop",
  "sourceName": "contracts/distribution/QuestAirdrop.sol",
  "abi": [
    {
      "inputs": [
        {
          "internalType": "address",
          "name": "_tokenInstance",
          "type": "address"
        },
        {
          "internalType": "uint256",
          "name": "_bonusMinRate",
          "type": "uint256"
        },
        {
          "internalType": "uint256",
          "name": "_bonusMaxRate",
          "type": "uint256"
        }
      ],
      "stateMutability": "nonpayable",
      "type": "constructor"
    },
    {
      "inputs": [
        {
          "internalType": "uint256",
          "name": "rewardCode",
          "type": "uint256"
        }
      ],
      "name": "claimRewardCode",
      "outputs": [],
      "stateMutability": "nonpayable",
      "type": "function"
    },
    {
      "inputs": [],
      "name": "emergencyWithdraw",
      "outputs": [],
      "stateMutability": "nonpayable",
      "type": "function"
    },
    {
      "inputs": [
        {
          "internalType": "uint256",
          "name": "quantity",
          "type": "uint256"
        },
        {
          "internalType": "uint256",
          "name": "amount",
          "type": "uint256"
        }
      ],
      "name": "generateQuestCode",
      "outputs": [],
      "stateMutability": "nonpayable",
      "type": "function"
    },
    {
      "inputs": [
        {
          "internalType": "uint256",
          "name": "rewardCode",
          "type": "uint256"
        }
      ],
      "name": "getCodeMetaData",
      "outputs": [
        {
          "components": [
            {
              "internalType": "uint256",
              "name": "rewardCode",
              "type": "uint256"
            },
            {
              "internalType": "uint256",
              "name": "status",
              "type": "uint256"
            },
            {
              "internalType": "uint256",
              "name": "claimableAmount",
              "type": "uint256"
            },
            {
              "internalType": "address",
              "name": "claimedBy",
              "type": "address"
            },
            {
              "internalType": "uint256",
              "name": "claimedAt",
              "type": "uint256"
            },
            {
              "internalType": "uint256",
              "name": "createdAt",
              "type": "uint256"
            }
          ],
          "internalType": "struct QuestAirdrop.QuestRewardCode",
          "name": "",
          "type": "tuple"
        }
      ],
      "stateMutability": "view",
      "type": "function"
    },
    {
      "inputs": [],
      "name": "getQuestCodes",
      "outputs": [
        {
          "internalType": "uint256[]",
          "name": "",
          "type": "uint256[]"
        }
      ],
      "stateMutability": "view",
      "type": "function"
    },
    {
      "inputs": [
        {
          "internalType": "uint256",
          "name": "",
          "type": "uint256"
        }
      ],
      "name": "rewardCodes",
      "outputs": [
        {
          "internalType": "uint256",
          "name": "",
          "type": "uint256"
        }
      ],
      "stateMutability": "view",
      "type": "function"
    },
    {
      "inputs": [
        {
          "internalType": "uint256",
          "name": "from",
          "type": "uint256"
        },
        {
          "internalType": "uint256",
          "name": "to",
          "type": "uint256"
        }
      ],
      "name": "setBonusRate",
      "outputs": [],
      "stateMutability": "nonpayable",
      "type": "function"
    },
    {
      "inputs": [
        {
          "internalType": "address",
          "name": "newOwner",
          "type": "address"
        }
      ],
      "name": "setOwner",
      "outputs": [],
      "stateMutability": "nonpayable",
      "type": "function"
    },
    {
      "inputs": [],
      "name": "tokenInstance",
      "outputs": [
        {
          "internalType": "contract ERC20UpgradeSafe",
          "name": "",
          "type": "address"
        }
      ],
      "stateMutability": "view",
      "type": "function"
    }
  ],
  "bytecode": "0x60806040523480156200001157600080fd5b5060405162001d0338038062001d0383398181016040528101906200003791906200025e565b600073ffffffffffffffffffffffffffffffffffffffff168373ffffffffffffffffffffffffffffffffffffffff161415620000aa576040517f08c379a0000000000000000000000000000000000000000000000000000000008152600401620000a1906200040e565b60405180910390fd5b826000806101000a81548173ffffffffffffffffffffffffffffffffffffffff021916908373ffffffffffffffffffffffffffffffffffffffff16021790555033600160006101000a81548173ffffffffffffffffffffffffffffffffffffffff021916908373ffffffffffffffffffffffffffffffffffffffff1602179055506200013d82826200014660201b60201c565b505050620004d5565b600160009054906101000a900473ffffffffffffffffffffffffffffffffffffffff1673ffffffffffffffffffffffffffffffffffffffff163373ffffffffffffffffffffffffffffffffffffffff1614620001d9576040517f08c379a0000000000000000000000000000000000000000000000000000000008152600401620001d090620003ec565b60405180910390fd5b8082106200021e576040517f08c379a0000000000000000000000000000000000000000000000000000000008152600401620002159062000430565b60405180910390fd5b81600281905550806003819055505050565b6000815190506200024181620004a1565b92915050565b6000815190506200025881620004bb565b92915050565b6000806000606084860312156200027457600080fd5b6000620002848682870162000230565b9350506020620002978682870162000247565b9250506040620002aa8682870162000247565b9150509250925092565b6000620002c3602e8362000452565b91507f4572726f723a204f6e6c79206f776e65722063616e2068616e646c652074686960008301527f73206f7065726174696f6e203b290000000000000000000000000000000000006020830152604082019050919050565b60006200032b60258362000452565b91507f4572726f723a2063616e6e6f742061646420746f6b656e206174204e6f57686560008301527f7265203a290000000000000000000000000000000000000000000000000000006020830152604082019050919050565b600062000393602c8362000452565b91507f4572726f723a2066726f6d2076616c7565206d757374206265206c657373207460008301527f68616e20746f2076616c756500000000000000000000000000000000000000006020830152604082019050919050565b600060208201905081810360008301526200040781620002b4565b9050919050565b6000602082019050818103600083015262000429816200031c565b9050919050565b600060208201905081810360008301526200044b8162000384565b9050919050565b600082825260208201905092915050565b6000620004708262000477565b9050919050565b600073ffffffffffffffffffffffffffffffffffffffff82169050919050565b6000819050919050565b620004ac8162000463565b8114620004b857600080fd5b50565b620004c68162000497565b8114620004d257600080fd5b50565b61181e80620004e56000396000f3fe608060405234801561001057600080fd5b50600436106100935760003560e01c80639416819211610066578063941681921461010a578063a97cb8a714610128578063d46724f314610144578063db2e21bc14610174578063ef2c64a01461017e57610093565b806313af4035146100985780633fcf5ec1146100b4578063658030b3146100d057806389604832146100ee575b600080fd5b6100b260048036038101906100ad9190611028565b6101ae565b005b6100ce60048036038101906100c9919061107a565b610282565b005b6100d861048e565b6040516100e59190611508565b60405180910390f35b610108600480360381019061010391906110cc565b6104b3565b005b610112610617565b60405161011f91906114e6565b60405180910390f35b610142600480360381019061013d91906110cc565b6106ff565b005b61015e6004803603810190610159919061107a565b6107e3565b60405161016b91906115e5565b60405180910390f35b61017c610898565b005b6101986004803603810190610193919061107a565b610a82565b6040516101a59190611600565b60405180910390f35b600160009054906101000a900473ffffffffffffffffffffffffffffffffffffffff1673ffffffffffffffffffffffffffffffffffffffff163373ffffffffffffffffffffffffffffffffffffffff161461023e576040517f08c379a000000000000000000000000000000000000000000000000000000000815260040161023590611565565b60405180910390fd5b80600160006101000a81548173ffffffffffffffffffffffffffffffffffffffff021916908373ffffffffffffffffffffffffffffffffffffffff16021790555050565b61028b81610aa3565b60006004600083815260200190815260200160002060020154905060006102b0610c58565b905060006102da60646102cc8486610c7890919063ffffffff16565b610ce890919063ffffffff16565b90506000816000809054906101000a900473ffffffffffffffffffffffffffffffffffffffff1673ffffffffffffffffffffffffffffffffffffffff166370a08231306040518263ffffffff1660e01b815260040161033991906114a2565b60206040518083038186803b15801561035157600080fd5b505afa158015610365573d6000803e3d6000fd5b505050506040513d601f19601f8201168201806040525081019061038991906110a3565b039050600081136103cf576040517f08c379a00000000000000000000000000000000000000000000000000000000081526004016103c6906115c5565b60405180910390fd5b6000809054906101000a900473ffffffffffffffffffffffffffffffffffffffff1673ffffffffffffffffffffffffffffffffffffffff1663a9059cbb33846040518363ffffffff1660e01b815260040161042b9291906114bd565b602060405180830381600087803b15801561044557600080fd5b505af1158015610459573d6000803e3d6000fd5b505050506040513d601f19601f8201168201806040525081019061047d9190611051565b5061048785610d32565b5050505050565b6000809054906101000a900473ffffffffffffffffffffffffffffffffffffffff1681565b600160009054906101000a900473ffffffffffffffffffffffffffffffffffffffff1673ffffffffffffffffffffffffffffffffffffffff163373ffffffffffffffffffffffffffffffffffffffff1614610543576040517f08c379a000000000000000000000000000000000000000000000000000000000815260040161053a90611565565b60405180910390fd5b60008090505b8281101561061257600061056c6000678ac7230489e80000600580549050610dc1565b9050826004600083815260200190815260200160002060020181905550600160046000838152602001908152602001600020600101819055508060046000838152602001908152602001600020600001819055504260046000838152602001908152602001600020600501819055506005819080600181540180825580915050600190039060005260206000200160009091909190915055508080600101915050610549565b505050565b6060600160009054906101000a900473ffffffffffffffffffffffffffffffffffffffff1673ffffffffffffffffffffffffffffffffffffffff163373ffffffffffffffffffffffffffffffffffffffff16146106a9576040517f08c379a00000000000000000000000000000000000000000000000000000000081526004016106a090611565565b60405180910390fd5b60058054806020026020016040519081016040528092919081815260200182805480156106f557602002820191906000526020600020905b8154815260200190600101908083116106e1575b5050505050905090565b600160009054906101000a900473ffffffffffffffffffffffffffffffffffffffff1673ffffffffffffffffffffffffffffffffffffffff163373ffffffffffffffffffffffffffffffffffffffff161461078f576040517f08c379a000000000000000000000000000000000000000000000000000000000815260040161078690611565565b60405180910390fd5b8082106107d1576040517f08c379a00000000000000000000000000000000000000000000000000000000081526004016107c8906115a5565b60405180910390fd5b81600281905550806003819055505050565b6107eb610f88565b600460008381526020019081526020016000206040518060c00160405290816000820154815260200160018201548152602001600282015481526020016003820160009054906101000a900473ffffffffffffffffffffffffffffffffffffffff1673ffffffffffffffffffffffffffffffffffffffff1673ffffffffffffffffffffffffffffffffffffffff168152602001600482015481526020016005820154815250509050919050565b600160009054906101000a900473ffffffffffffffffffffffffffffffffffffffff1673ffffffffffffffffffffffffffffffffffffffff163373ffffffffffffffffffffffffffffffffffffffff1614610928576040517f08c379a000000000000000000000000000000000000000000000000000000000815260040161091f90611565565b60405180910390fd5b6000809054906101000a900473ffffffffffffffffffffffffffffffffffffffff1673ffffffffffffffffffffffffffffffffffffffff1663a9059cbb336000809054906101000a900473ffffffffffffffffffffffffffffffffffffffff1673ffffffffffffffffffffffffffffffffffffffff166370a08231306040518263ffffffff1660e01b81526004016109c091906114a2565b60206040518083038186803b1580156109d857600080fd5b505afa1580156109ec573d6000803e3d6000fd5b505050506040513d601f19601f82011682018060405250810190610a1091906110a3565b6040518363ffffffff1660e01b8152600401610a2d9291906114bd565b602060405180830381600087803b158015610a4757600080fd5b505af1158015610a5b573d6000803e3d6000fd5b505050506040513d601f19601f82011682018060405250810190610a7f9190611051565b50565b60058181548110610a8f57fe5b906000526020600020016000915090505481565b6001600460008381526020019081526020016000206001015414610afc576040517f08c379a0000000000000000000000000000000000000000000000000000000008152600401610af390611545565b60405180910390fd5b600073ffffffffffffffffffffffffffffffffffffffff166004600083815260200190815260200160002060030160009054906101000a900473ffffffffffffffffffffffffffffffffffffffff1673ffffffffffffffffffffffffffffffffffffffff1614610ba1576040517f08c379a0000000000000000000000000000000000000000000000000000000008152600401610b9890611545565b60405180910390fd5b600060046000838152602001908152602001600020600001541415610bfb576040517f08c379a0000000000000000000000000000000000000000000000000000000008152600401610bf290611545565b60405180910390fd5b600060046000838152602001908152602001600020600201541415610c55576040517f08c379a0000000000000000000000000000000000000000000000000000000008152600401610c4c90611545565b60405180910390fd5b50565b600080610c6f600254600354600580549050610dc1565b90508091505090565b600080831415610c8b5760009050610ce2565b6000828402905082848281610c9c57fe5b0414610cdd576040517f08c379a0000000000000000000000000000000000000000000000000000000008152600401610cd490611585565b60405180910390fd5b809150505b92915050565b6000610d2a83836040518060400160405280601a81526020017f536166654d6174683a206469766973696f6e206279207a65726f000000000000815250610e81565b905092915050565b60006004600083815260200190815260200160002060010181905550336004600083815260200190815260200160002060030160006101000a81548173ffffffffffffffffffffffffffffffffffffffff021916908373ffffffffffffffffffffffffffffffffffffffff16021790555042600460008381526020019081526020016000206004018190555050565b60008082434233604051602001610dd8919061146c565b6040516020818303038152906040528051906020012060001c81610df857fe5b04454241604051602001610e0c919061146c565b6040516020818303038152906040528051906020012060001c81610e2c57fe5b044442010101010101604051602001610e459190611487565b6040516020818303038152906040528051906020012060001c905084610e7686860383610ee290919063ffffffff16565b019150509392505050565b60008083118290610ec8576040517f08c379a0000000000000000000000000000000000000000000000000000000008152600401610ebf9190611523565b60405180910390fd5b506000838581610ed457fe5b049050809150509392505050565b6000610f2483836040518060400160405280601881526020017f536166654d6174683a206d6f64756c6f206279207a65726f0000000000000000815250610f2c565b905092915050565b6000808314158290610f74576040517f08c379a0000000000000000000000000000000000000000000000000000000008152600401610f6b9190611523565b60405180910390fd5b50828481610f7e57fe5b0690509392505050565b6040518060c00160405280600081526020016000815260200160008152602001600073ffffffffffffffffffffffffffffffffffffffff16815260200160008152602001600081525090565b600081359050610fe3816117a3565b92915050565b600081519050610ff8816117ba565b92915050565b60008135905061100d816117d1565b92915050565b600081519050611022816117d1565b92915050565b60006020828403121561103a57600080fd5b600061104884828501610fd4565b91505092915050565b60006020828403121561106357600080fd5b600061107184828501610fe9565b91505092915050565b60006020828403121561108c57600080fd5b600061109a84828501610ffe565b91505092915050565b6000602082840312156110b557600080fd5b60006110c384828501611013565b91505092915050565b600080604083850312156110df57600080fd5b60006110ed85828601610ffe565b92505060206110fe85828601610ffe565b9150509250929050565b60006111148383611437565b60208301905092915050565b611129816116ca565b82525050565b61114061113b82611682565b611757565b82525050565b61114f81611670565b82525050565b61115e81611670565b82525050565b600061116f8261162b565b611179818561164e565b93506111848361161b565b8060005b838110156111b557815161119c8882611108565b97506111a783611641565b925050600181019050611188565b5085935050505092915050565b6111cb816116dc565b82525050565b60006111dc82611636565b6111e6818561165f565b93506111f6818560208601611724565b6111ff81611785565b840191505092915050565b6000611217601a8361165f565b91507f4572726f723a2054686520636f646520697320696e76616c69640000000000006000830152602082019050919050565b6000611257602e8361165f565b91507f4572726f723a204f6e6c79206f776e65722063616e2068616e646c652074686960008301527f73206f7065726174696f6e203b290000000000000000000000000000000000006020830152604082019050919050565b60006112bd60218361165f565b91507f536166654d6174683a206d756c7469706c69636174696f6e206f766572666c6f60008301527f77000000000000000000000000000000000000000000000000000000000000006020830152604082019050919050565b6000611323602c8361165f565b91507f4572726f723a2066726f6d2076616c7565206d757374206265206c657373207460008301527f68616e20746f2076616c756500000000000000000000000000000000000000006020830152604082019050919050565b600061138960208361165f565b91507f4572726f723a20636f6e74726163742066756e642069732065786365656465646000830152602082019050919050565b60c0820160008201516113d26000850182611437565b5060208201516113e56020850182611437565b5060408201516113f86040850182611437565b50606082015161140b6060850182611146565b50608082015161141e6080850182611437565b5060a082015161143160a0850182611437565b50505050565b611440816116c0565b82525050565b61144f816116c0565b82525050565b611466611461826116c0565b61177b565b82525050565b6000611478828461112f565b60148201915081905092915050565b60006114938284611455565b60208201915081905092915050565b60006020820190506114b76000830184611155565b92915050565b60006040820190506114d26000830185611120565b6114df6020830184611446565b9392505050565b600060208201905081810360008301526115008184611164565b905092915050565b600060208201905061151d60008301846111c2565b92915050565b6000602082019050818103600083015261153d81846111d1565b905092915050565b6000602082019050818103600083015261155e8161120a565b9050919050565b6000602082019050818103600083015261157e8161124a565b9050919050565b6000602082019050818103600083015261159e816112b0565b9050919050565b600060208201905081810360008301526115be81611316565b9050919050565b600060208201905081810360008301526115de8161137c565b9050919050565b600060c0820190506115fa60008301846113bc565b92915050565b60006020820190506116156000830184611446565b92915050565b6000819050602082019050919050565b600081519050919050565b600081519050919050565b6000602082019050919050565b600082825260208201905092915050565b600082825260208201905092915050565b600061167b826116a0565b9050919050565b600061168d826116a0565b9050919050565b60008115159050919050565b600073ffffffffffffffffffffffffffffffffffffffff82169050919050565b6000819050919050565b60006116d582611700565b9050919050565b60006116e7826116ee565b9050919050565b60006116f9826116a0565b9050919050565b600061170b82611712565b9050919050565b600061171d826116a0565b9050919050565b60005b83811015611742578082015181840152602081019050611727565b83811115611751576000848401525b50505050565b600061176282611769565b9050919050565b600061177482611796565b9050919050565b6000819050919050565b6000601f19601f8301169050919050565b60008160601b9050919050565b6117ac81611670565b81146117b757600080fd5b50565b6117c381611694565b81146117ce57600080fd5b50565b6117da816116c0565b81146117e557600080fd5b5056fea26469706673582212200b72c0ff3883b7b8258d8b15f73236cd16a6a1e9dde3c8eb37b6ac4269ce3c3764736f6c63430006080033",
  "linkReferences": {},
  "deployedLinkReferences": {}
}