{
  "_format": "hh-sol-artifact-1",
  "contractName": "QuestAirdrop",
  "sourceName": "contracts/distribution/QuestAirdrop.sol",
  "abi": [
    {
      "inputs": [
        {
          "internalType": "address",
          "name": "_tokenInstance",
          "type": "address"
        },
        {
          "internalType": "uint256",
          "name": "_bonusMinRate",
          "type": "uint256"
        },
        {
          "internalType": "uint256",
          "name": "_bonusMaxRate",
          "type": "uint256"
        }
      ],
      "stateMutability": "nonpayable",
      "type": "constructor"
    },
    {
      "inputs": [
        {
          "internalType": "uint256",
          "name": "rewardCode",
          "type": "uint256"
        }
      ],
      "name": "claimRewardCode",
      "outputs": [],
      "stateMutability": "nonpayable",
      "type": "function"
    },
    {
      "inputs": [],
      "name": "emergencyWithdraw",
      "outputs": [],
      "stateMutability": "nonpayable",
      "type": "function"
    },
    {
      "inputs": [
        {
          "internalType": "uint256",
          "name": "quantity",
          "type": "uint256"
        },
        {
          "internalType": "uint256",
          "name": "amount",
          "type": "uint256"
        }
      ],
      "name": "generateQuestCode",
      "outputs": [],
      "stateMutability": "nonpayable",
      "type": "function"
    },
    {
      "inputs": [
        {
          "internalType": "uint256",
          "name": "rewardCode",
          "type": "uint256"
        }
      ],
      "name": "getCodeMetaData",
      "outputs": [
        {
          "components": [
            {
              "internalType": "uint256",
              "name": "rewardCode",
              "type": "uint256"
            },
            {
              "internalType": "uint256",
              "name": "status",
              "type": "uint256"
            },
            {
              "internalType": "uint256",
              "name": "claimableAmount",
              "type": "uint256"
            },
            {
              "internalType": "address",
              "name": "claimedBy",
              "type": "address"
            },
            {
              "internalType": "uint256",
              "name": "claimedAt",
              "type": "uint256"
            },
            {
              "internalType": "uint256",
              "name": "createdAt",
              "type": "uint256"
            }
          ],
          "internalType": "struct QuestAirdrop.QuestRewardCode",
          "name": "",
          "type": "tuple"
        }
      ],
      "stateMutability": "view",
      "type": "function"
    },
    {
      "inputs": [],
      "name": "getQuestCodes",
      "outputs": [
        {
          "internalType": "uint256[]",
          "name": "",
          "type": "uint256[]"
        }
      ],
      "stateMutability": "view",
      "type": "function"
    },
    {
      "inputs": [
        {
          "internalType": "uint256",
          "name": "",
          "type": "uint256"
        }
      ],
      "name": "rewardCodes",
      "outputs": [
        {
          "internalType": "uint256",
          "name": "",
          "type": "uint256"
        }
      ],
      "stateMutability": "view",
      "type": "function"
    },
    {
      "inputs": [
        {
          "internalType": "uint256",
          "name": "from",
          "type": "uint256"
        },
        {
          "internalType": "uint256",
          "name": "to",
          "type": "uint256"
        }
      ],
      "name": "setBonusRate",
      "outputs": [],
      "stateMutability": "nonpayable",
      "type": "function"
    },
    {
      "inputs": [
        {
          "internalType": "address",
          "name": "newOwner",
          "type": "address"
        }
      ],
      "name": "setOwner",
      "outputs": [],
      "stateMutability": "nonpayable",
      "type": "function"
    },
    {
      "inputs": [],
      "name": "tokenInstance",
      "outputs": [
        {
          "internalType": "contract ERC20UpgradeSafe",
          "name": "",
          "type": "address"
        }
      ],
      "stateMutability": "view",
      "type": "function"
    }
  ],
  "bytecode": "0x60806040523480156200001157600080fd5b5060405162001cf438038062001cf483398181016040528101906200003791906200025e565b600073ffffffffffffffffffffffffffffffffffffffff168373ffffffffffffffffffffffffffffffffffffffff161415620000aa576040517f08c379a0000000000000000000000000000000000000000000000000000000008152600401620000a1906200040e565b60405180910390fd5b826000806101000a81548173ffffffffffffffffffffffffffffffffffffffff021916908373ffffffffffffffffffffffffffffffffffffffff16021790555033600160006101000a81548173ffffffffffffffffffffffffffffffffffffffff021916908373ffffffffffffffffffffffffffffffffffffffff1602179055506200013d82826200014660201b60201c565b505050620004d5565b600160009054906101000a900473ffffffffffffffffffffffffffffffffffffffff1673ffffffffffffffffffffffffffffffffffffffff163373ffffffffffffffffffffffffffffffffffffffff1614620001d9576040517f08c379a0000000000000000000000000000000000000000000000000000000008152600401620001d090620003ec565b60405180910390fd5b8082106200021e576040517f08c379a0000000000000000000000000000000000000000000000000000000008152600401620002159062000430565b60405180910390fd5b81600281905550806003819055505050565b6000815190506200024181620004a1565b92915050565b6000815190506200025881620004bb565b92915050565b6000806000606084860312156200027457600080fd5b6000620002848682870162000230565b9350506020620002978682870162000247565b9250506040620002aa8682870162000247565b9150509250925092565b6000620002c3602e8362000452565b91507f4572726f723a204f6e6c79206f776e65722063616e2068616e646c652074686960008301527f73206f7065726174696f6e203b290000000000000000000000000000000000006020830152604082019050919050565b60006200032b60258362000452565b91507f4572726f723a2063616e6e6f742061646420746f6b656e206174204e6f57686560008301527f7265203a290000000000000000000000000000000000000000000000000000006020830152604082019050919050565b600062000393602c8362000452565b91507f4572726f723a2066726f6d2076616c7565206d757374206265206c657373207460008301527f68616e20746f2076616c756500000000000000000000000000000000000000006020830152604082019050919050565b600060208201905081810360008301526200040781620002b4565b9050919050565b6000602082019050818103600083015262000429816200031c565b9050919050565b600060208201905081810360008301526200044b8162000384565b9050919050565b600082825260208201905092915050565b6000620004708262000477565b9050919050565b600073ffffffffffffffffffffffffffffffffffffffff82169050919050565b6000819050919050565b620004ac8162000463565b8114620004b857600080fd5b50565b620004c68162000497565b8114620004d257600080fd5b50565b61180f80620004e56000396000f3fe608060405234801561001057600080fd5b50600436106100935760003560e01c80639416819211610066578063941681921461010a578063a97cb8a714610128578063d46724f314610144578063db2e21bc14610174578063ef2c64a01461017e57610093565b806313af4035146100985780633fcf5ec1146100b4578063658030b3146100d057806389604832146100ee575b600080fd5b6100b260048036038101906100ad9190611019565b6101ae565b005b6100ce60048036038101906100c9919061106b565b610282565b005b6100d861048e565b6040516100e591906114f9565b60405180910390f35b610108600480360381019061010391906110bd565b6104b3565b005b610112610611565b60405161011f91906114d7565b60405180910390f35b610142600480360381019061013d91906110bd565b6106f9565b005b61015e6004803603810190610159919061106b565b6107dd565b60405161016b91906115d6565b60405180910390f35b61017c610892565b005b6101986004803603810190610193919061106b565b610a7c565b6040516101a591906115f1565b60405180910390f35b600160009054906101000a900473ffffffffffffffffffffffffffffffffffffffff1673ffffffffffffffffffffffffffffffffffffffff163373ffffffffffffffffffffffffffffffffffffffff161461023e576040517f08c379a000000000000000000000000000000000000000000000000000000000815260040161023590611556565b60405180910390fd5b80600160006101000a81548173ffffffffffffffffffffffffffffffffffffffff021916908373ffffffffffffffffffffffffffffffffffffffff16021790555050565b61028b81610a9d565b60006004600083815260200190815260200160002060020154905060006102b0610c52565b905060006102da60646102cc8486610c6c90919063ffffffff16565b610cdc90919063ffffffff16565b90506000816000809054906101000a900473ffffffffffffffffffffffffffffffffffffffff1673ffffffffffffffffffffffffffffffffffffffff166370a08231306040518263ffffffff1660e01b81526004016103399190611493565b60206040518083038186803b15801561035157600080fd5b505afa158015610365573d6000803e3d6000fd5b505050506040513d601f19601f820116820180604052508101906103899190611094565b039050600081136103cf576040517f08c379a00000000000000000000000000000000000000000000000000000000081526004016103c6906115b6565b60405180910390fd5b6000809054906101000a900473ffffffffffffffffffffffffffffffffffffffff1673ffffffffffffffffffffffffffffffffffffffff1663a9059cbb33846040518363ffffffff1660e01b815260040161042b9291906114ae565b602060405180830381600087803b15801561044557600080fd5b505af1158015610459573d6000803e3d6000fd5b505050506040513d601f19601f8201168201806040525081019061047d9190611042565b5061048785610d26565b5050505050565b6000809054906101000a900473ffffffffffffffffffffffffffffffffffffffff1681565b600160009054906101000a900473ffffffffffffffffffffffffffffffffffffffff1673ffffffffffffffffffffffffffffffffffffffff163373ffffffffffffffffffffffffffffffffffffffff1614610543576040517f08c379a000000000000000000000000000000000000000000000000000000000815260040161053a90611556565b60405180910390fd5b60008090505b8281101561060c5760006105666000678ac7230489e80000610db5565b9050826004600083815260200190815260200160002060020181905550600160046000838152602001908152602001600020600101819055508060046000838152602001908152602001600020600001819055504260046000838152602001908152602001600020600501819055506005819080600181540180825580915050600190039060005260206000200160009091909190915055508080600101915050610549565b505050565b6060600160009054906101000a900473ffffffffffffffffffffffffffffffffffffffff1673ffffffffffffffffffffffffffffffffffffffff163373ffffffffffffffffffffffffffffffffffffffff16146106a3576040517f08c379a000000000000000000000000000000000000000000000000000000000815260040161069a90611556565b60405180910390fd5b60058054806020026020016040519081016040528092919081815260200182805480156106ef57602002820191906000526020600020905b8154815260200190600101908083116106db575b5050505050905090565b600160009054906101000a900473ffffffffffffffffffffffffffffffffffffffff1673ffffffffffffffffffffffffffffffffffffffff163373ffffffffffffffffffffffffffffffffffffffff1614610789576040517f08c379a000000000000000000000000000000000000000000000000000000000815260040161078090611556565b60405180910390fd5b8082106107cb576040517f08c379a00000000000000000000000000000000000000000000000000000000081526004016107c290611596565b60405180910390fd5b81600281905550806003819055505050565b6107e5610f79565b600460008381526020019081526020016000206040518060c00160405290816000820154815260200160018201548152602001600282015481526020016003820160009054906101000a900473ffffffffffffffffffffffffffffffffffffffff1673ffffffffffffffffffffffffffffffffffffffff1673ffffffffffffffffffffffffffffffffffffffff168152602001600482015481526020016005820154815250509050919050565b600160009054906101000a900473ffffffffffffffffffffffffffffffffffffffff1673ffffffffffffffffffffffffffffffffffffffff163373ffffffffffffffffffffffffffffffffffffffff1614610922576040517f08c379a000000000000000000000000000000000000000000000000000000000815260040161091990611556565b60405180910390fd5b6000809054906101000a900473ffffffffffffffffffffffffffffffffffffffff1673ffffffffffffffffffffffffffffffffffffffff1663a9059cbb336000809054906101000a900473ffffffffffffffffffffffffffffffffffffffff1673ffffffffffffffffffffffffffffffffffffffff166370a08231306040518263ffffffff1660e01b81526004016109ba9190611493565b60206040518083038186803b1580156109d257600080fd5b505afa1580156109e6573d6000803e3d6000fd5b505050506040513d601f19601f82011682018060405250810190610a0a9190611094565b6040518363ffffffff1660e01b8152600401610a279291906114ae565b602060405180830381600087803b158015610a4157600080fd5b505af1158015610a55573d6000803e3d6000fd5b505050506040513d601f19601f82011682018060405250810190610a799190611042565b50565b60058181548110610a8957fe5b906000526020600020016000915090505481565b6001600460008381526020019081526020016000206001015414610af6576040517f08c379a0000000000000000000000000000000000000000000000000000000008152600401610aed90611536565b60405180910390fd5b600073ffffffffffffffffffffffffffffffffffffffff166004600083815260200190815260200160002060030160009054906101000a900473ffffffffffffffffffffffffffffffffffffffff1673ffffffffffffffffffffffffffffffffffffffff1614610b9b576040517f08c379a0000000000000000000000000000000000000000000000000000000008152600401610b9290611536565b60405180910390fd5b600060046000838152602001908152602001600020600001541415610bf5576040517f08c379a0000000000000000000000000000000000000000000000000000000008152600401610bec90611536565b60405180910390fd5b600060046000838152602001908152602001600020600201541415610c4f576040517f08c379a0000000000000000000000000000000000000000000000000000000008152600401610c4690611536565b60405180910390fd5b50565b600080610c63600254600354610db5565b90508091505090565b600080831415610c7f5760009050610cd6565b6000828402905082848281610c9057fe5b0414610cd1576040517f08c379a0000000000000000000000000000000000000000000000000000000008152600401610cc890611576565b60405180910390fd5b809150505b92915050565b6000610d1e83836040518060400160405280601a81526020017f536166654d6174683a206469766973696f6e206279207a65726f000000000000815250610e72565b905092915050565b60006004600083815260200190815260200160002060010181905550336004600083815260200190815260200160002060030160006101000a81548173ffffffffffffffffffffffffffffffffffffffff021916908373ffffffffffffffffffffffffffffffffffffffff16021790555042600460008381526020019081526020016000206004018190555050565b600080434233604051602001610dcb919061145d565b6040516020818303038152906040528051906020012060001c81610deb57fe5b04454241604051602001610dff919061145d565b6040516020818303038152906040528051906020012060001c81610e1f57fe5b0444420101010101604051602001610e379190611478565b6040516020818303038152906040528051906020012060001c905083610e6885850383610ed390919063ffffffff16565b0191505092915050565b60008083118290610eb9576040517f08c379a0000000000000000000000000000000000000000000000000000000008152600401610eb09190611514565b60405180910390fd5b506000838581610ec557fe5b049050809150509392505050565b6000610f1583836040518060400160405280601881526020017f536166654d6174683a206d6f64756c6f206279207a65726f0000000000000000815250610f1d565b905092915050565b6000808314158290610f65576040517f08c379a0000000000000000000000000000000000000000000000000000000008152600401610f5c9190611514565b60405180910390fd5b50828481610f6f57fe5b0690509392505050565b6040518060c00160405280600081526020016000815260200160008152602001600073ffffffffffffffffffffffffffffffffffffffff16815260200160008152602001600081525090565b600081359050610fd481611794565b92915050565b600081519050610fe9816117ab565b92915050565b600081359050610ffe816117c2565b92915050565b600081519050611013816117c2565b92915050565b60006020828403121561102b57600080fd5b600061103984828501610fc5565b91505092915050565b60006020828403121561105457600080fd5b600061106284828501610fda565b91505092915050565b60006020828403121561107d57600080fd5b600061108b84828501610fef565b91505092915050565b6000602082840312156110a657600080fd5b60006110b484828501611004565b91505092915050565b600080604083850312156110d057600080fd5b60006110de85828601610fef565b92505060206110ef85828601610fef565b9150509250929050565b60006111058383611428565b60208301905092915050565b61111a816116bb565b82525050565b61113161112c82611673565b611748565b82525050565b61114081611661565b82525050565b61114f81611661565b82525050565b60006111608261161c565b61116a818561163f565b93506111758361160c565b8060005b838110156111a657815161118d88826110f9565b975061119883611632565b925050600181019050611179565b5085935050505092915050565b6111bc816116cd565b82525050565b60006111cd82611627565b6111d78185611650565b93506111e7818560208601611715565b6111f081611776565b840191505092915050565b6000611208601a83611650565b91507f4572726f723a2054686520636f646520697320696e76616c69640000000000006000830152602082019050919050565b6000611248602e83611650565b91507f4572726f723a204f6e6c79206f776e65722063616e2068616e646c652074686960008301527f73206f7065726174696f6e203b290000000000000000000000000000000000006020830152604082019050919050565b60006112ae602183611650565b91507f536166654d6174683a206d756c7469706c69636174696f6e206f766572666c6f60008301527f77000000000000000000000000000000000000000000000000000000000000006020830152604082019050919050565b6000611314602c83611650565b91507f4572726f723a2066726f6d2076616c7565206d757374206265206c657373207460008301527f68616e20746f2076616c756500000000000000000000000000000000000000006020830152604082019050919050565b600061137a602083611650565b91507f4572726f723a20636f6e74726163742066756e642069732065786365656465646000830152602082019050919050565b60c0820160008201516113c36000850182611428565b5060208201516113d66020850182611428565b5060408201516113e96040850182611428565b5060608201516113fc6060850182611137565b50608082015161140f6080850182611428565b5060a082015161142260a0850182611428565b50505050565b611431816116b1565b82525050565b611440816116b1565b82525050565b611457611452826116b1565b61176c565b82525050565b60006114698284611120565b60148201915081905092915050565b60006114848284611446565b60208201915081905092915050565b60006020820190506114a86000830184611146565b92915050565b60006040820190506114c36000830185611111565b6114d06020830184611437565b9392505050565b600060208201905081810360008301526114f18184611155565b905092915050565b600060208201905061150e60008301846111b3565b92915050565b6000602082019050818103600083015261152e81846111c2565b905092915050565b6000602082019050818103600083015261154f816111fb565b9050919050565b6000602082019050818103600083015261156f8161123b565b9050919050565b6000602082019050818103600083015261158f816112a1565b9050919050565b600060208201905081810360008301526115af81611307565b9050919050565b600060208201905081810360008301526115cf8161136d565b9050919050565b600060c0820190506115eb60008301846113ad565b92915050565b60006020820190506116066000830184611437565b92915050565b6000819050602082019050919050565b600081519050919050565b600081519050919050565b6000602082019050919050565b600082825260208201905092915050565b600082825260208201905092915050565b600061166c82611691565b9050919050565b600061167e82611691565b9050919050565b60008115159050919050565b600073ffffffffffffffffffffffffffffffffffffffff82169050919050565b6000819050919050565b60006116c6826116f1565b9050919050565b60006116d8826116df565b9050919050565b60006116ea82611691565b9050919050565b60006116fc82611703565b9050919050565b600061170e82611691565b9050919050565b60005b83811015611733578082015181840152602081019050611718565b83811115611742576000848401525b50505050565b60006117538261175a565b9050919050565b600061176582611787565b9050919050565b6000819050919050565b6000601f19601f8301169050919050565b60008160601b9050919050565b61179d81611661565b81146117a857600080fd5b50565b6117b481611685565b81146117bf57600080fd5b50565b6117cb816116b1565b81146117d657600080fd5b5056fea2646970667358221220405db953cadb273b95d8b61d3d62ecbe08e23a8e843cc86f30da63535a1fb00d64736f6c63430006080033",
  "linkReferences": {},
  "deployedLinkReferences": {}
}