{
  "_format": "hh-sol-artifact-1",
  "contractName": "QuestAirdrop",
  "sourceName": "contracts/distribution/QuestAirdrop.sol",
  "abi": [
    {
      "inputs": [
        {
          "internalType": "address",
          "name": "_tokenInstance",
          "type": "address"
        },
        {
          "internalType": "uint256",
          "name": "_bonusMinRate",
          "type": "uint256"
        },
        {
          "internalType": "uint256",
          "name": "_bonusMaxRate",
          "type": "uint256"
        }
      ],
      "stateMutability": "nonpayable",
      "type": "constructor"
    },
    {
      "inputs": [
        {
          "internalType": "uint256",
          "name": "rewardCode",
          "type": "uint256"
        }
      ],
      "name": "claimRewardCode",
      "outputs": [],
      "stateMutability": "nonpayable",
      "type": "function"
    },
    {
      "inputs": [],
      "name": "emergencyWithdraw",
      "outputs": [],
      "stateMutability": "nonpayable",
      "type": "function"
    },
    {
      "inputs": [
        {
          "internalType": "uint256",
          "name": "quantity",
          "type": "uint256"
        },
        {
          "internalType": "uint256",
          "name": "amount",
          "type": "uint256"
        }
      ],
      "name": "generateQuestCode",
      "outputs": [],
      "stateMutability": "nonpayable",
      "type": "function"
    },
    {
      "inputs": [
        {
          "internalType": "uint256",
          "name": "rewardCodeIndex",
          "type": "uint256"
        }
      ],
      "name": "getCodeMetaData",
      "outputs": [
        {
          "components": [
            {
              "internalType": "uint256",
              "name": "rewardCode",
              "type": "uint256"
            },
            {
              "internalType": "uint256",
              "name": "status",
              "type": "uint256"
            },
            {
              "internalType": "uint256",
              "name": "claimableAmount",
              "type": "uint256"
            },
            {
              "internalType": "address",
              "name": "claimedBy",
              "type": "address"
            },
            {
              "internalType": "uint256",
              "name": "claimedAt",
              "type": "uint256"
            },
            {
              "internalType": "uint256",
              "name": "createdAt",
              "type": "uint256"
            }
          ],
          "internalType": "struct QuestAirdrop.QuestRewardCode",
          "name": "",
          "type": "tuple"
        }
      ],
      "stateMutability": "view",
      "type": "function"
    },
    {
      "inputs": [],
      "name": "getQuestCodeLength",
      "outputs": [
        {
          "internalType": "uint256",
          "name": "",
          "type": "uint256"
        }
      ],
      "stateMutability": "view",
      "type": "function"
    },
    {
      "inputs": [
        {
          "internalType": "uint256",
          "name": "from",
          "type": "uint256"
        },
        {
          "internalType": "uint256",
          "name": "to",
          "type": "uint256"
        }
      ],
      "name": "setBonusRate",
      "outputs": [],
      "stateMutability": "nonpayable",
      "type": "function"
    },
    {
      "inputs": [
        {
          "internalType": "address",
          "name": "newOwner",
          "type": "address"
        }
      ],
      "name": "setOwner",
      "outputs": [],
      "stateMutability": "nonpayable",
      "type": "function"
    },
    {
      "inputs": [],
      "name": "tokenInstance",
      "outputs": [
        {
          "internalType": "contract ERC20UpgradeSafe",
          "name": "",
          "type": "address"
        }
      ],
      "stateMutability": "view",
      "type": "function"
    }
  ],
  "bytecode": "0x608060405260006006553480156200001657600080fd5b5060405162001c3338038062001c3383398181016040528101906200003c919062000263565b600073ffffffffffffffffffffffffffffffffffffffff168373ffffffffffffffffffffffffffffffffffffffff161415620000af576040517f08c379a0000000000000000000000000000000000000000000000000000000008152600401620000a69062000413565b60405180910390fd5b826000806101000a81548173ffffffffffffffffffffffffffffffffffffffff021916908373ffffffffffffffffffffffffffffffffffffffff16021790555033600160006101000a81548173ffffffffffffffffffffffffffffffffffffffff021916908373ffffffffffffffffffffffffffffffffffffffff1602179055506200014282826200014b60201b60201c565b505050620004da565b600160009054906101000a900473ffffffffffffffffffffffffffffffffffffffff1673ffffffffffffffffffffffffffffffffffffffff163373ffffffffffffffffffffffffffffffffffffffff1614620001de576040517f08c379a0000000000000000000000000000000000000000000000000000000008152600401620001d590620003f1565b60405180910390fd5b80821062000223576040517f08c379a00000000000000000000000000000000000000000000000000000000081526004016200021a9062000435565b60405180910390fd5b81600281905550806003819055505050565b6000815190506200024681620004a6565b92915050565b6000815190506200025d81620004c0565b92915050565b6000806000606084860312156200027957600080fd5b6000620002898682870162000235565b93505060206200029c868287016200024c565b9250506040620002af868287016200024c565b9150509250925092565b6000620002c8602e8362000457565b91507f4572726f723a204f6e6c79206f776e65722063616e2068616e646c652074686960008301527f73206f7065726174696f6e203b290000000000000000000000000000000000006020830152604082019050919050565b60006200033060258362000457565b91507f4572726f723a2063616e6e6f742061646420746f6b656e206174204e6f57686560008301527f7265203a290000000000000000000000000000000000000000000000000000006020830152604082019050919050565b600062000398602c8362000457565b91507f4572726f723a2066726f6d2076616c7565206d757374206265206c657373207460008301527f68616e20746f2076616c756500000000000000000000000000000000000000006020830152604082019050919050565b600060208201905081810360008301526200040c81620002b9565b9050919050565b600060208201905081810360008301526200042e8162000321565b9050919050565b60006020820190508181036000830152620004508162000389565b9050919050565b600082825260208201905092915050565b600062000475826200047c565b9050919050565b600073ffffffffffffffffffffffffffffffffffffffff82169050919050565b6000819050919050565b620004b18162000468565b8114620004bd57600080fd5b50565b620004cb816200049c565b8114620004d757600080fd5b50565b61174980620004ea6000396000f3fe608060405234801561001057600080fd5b50600436106100885760003560e01c8063896048321161005b5780638960483214610101578063a97cb8a71461011d578063d46724f314610139578063db2e21bc1461016957610088565b806313af40351461008d5780633fcf5ec1146100a9578063542199c7146100c5578063658030b3146100e3575b600080fd5b6100a760048036038101906100a29190611024565b610173565b005b6100c360048036038101906100be9190611076565b610247565b005b6100cd610453565b6040516100da9190611564565b60405180910390f35b6100eb6104ed565b6040516100f8919061146c565b60405180910390f35b61011b600480360381019061011691906110c8565b610512565b005b610137600480360381019061013291906110c8565b610676565b005b610153600480360381019061014e9190611076565b61075a565b6040516101609190611549565b60405180910390f35b6101716108b8565b005b600160009054906101000a900473ffffffffffffffffffffffffffffffffffffffff1673ffffffffffffffffffffffffffffffffffffffff163373ffffffffffffffffffffffffffffffffffffffff1614610203576040517f08c379a00000000000000000000000000000000000000000000000000000000081526004016101fa906114c9565b60405180910390fd5b80600160006101000a81548173ffffffffffffffffffffffffffffffffffffffff021916908373ffffffffffffffffffffffffffffffffffffffff16021790555050565b61025081610aa2565b6000600460008381526020019081526020016000206002015490506000610275610c57565b9050600061029f60646102918486610c7490919063ffffffff16565b610ce490919063ffffffff16565b90506000816000809054906101000a900473ffffffffffffffffffffffffffffffffffffffff1673ffffffffffffffffffffffffffffffffffffffff166370a08231306040518263ffffffff1660e01b81526004016102fe9190611428565b60206040518083038186803b15801561031657600080fd5b505afa15801561032a573d6000803e3d6000fd5b505050506040513d601f19601f8201168201806040525081019061034e919061109f565b03905060008113610394576040517f08c379a000000000000000000000000000000000000000000000000000000000815260040161038b90611529565b60405180910390fd5b6000809054906101000a900473ffffffffffffffffffffffffffffffffffffffff1673ffffffffffffffffffffffffffffffffffffffff1663a9059cbb33846040518363ffffffff1660e01b81526004016103f0929190611443565b602060405180830381600087803b15801561040a57600080fd5b505af115801561041e573d6000803e3d6000fd5b505050506040513d601f19601f82011682018060405250810190610442919061104d565b5061044c85610d2e565b5050505050565b6000600160009054906101000a900473ffffffffffffffffffffffffffffffffffffffff1673ffffffffffffffffffffffffffffffffffffffff163373ffffffffffffffffffffffffffffffffffffffff16146104e5576040517f08c379a00000000000000000000000000000000000000000000000000000000081526004016104dc906114c9565b60405180910390fd5b600654905090565b6000809054906101000a900473ffffffffffffffffffffffffffffffffffffffff1681565b600160009054906101000a900473ffffffffffffffffffffffffffffffffffffffff1673ffffffffffffffffffffffffffffffffffffffff163373ffffffffffffffffffffffffffffffffffffffff16146105a2576040517f08c379a0000000000000000000000000000000000000000000000000000000008152600401610599906114c9565b60405180910390fd5b60008090505b828110156106715760006105c86000678ac7230489e80000600654610dbd565b90508260046000838152602001908152602001600020600201819055506001600460008381526020019081526020016000206001018190555080600460008381526020019081526020016000206000018190555042600460008381526020019081526020016000206005018190555080600560006006548152602001908152602001600020819055506006600081548092919060010191905055505080806001019150506105a8565b505050565b600160009054906101000a900473ffffffffffffffffffffffffffffffffffffffff1673ffffffffffffffffffffffffffffffffffffffff163373ffffffffffffffffffffffffffffffffffffffff1614610706576040517f08c379a00000000000000000000000000000000000000000000000000000000081526004016106fd906114c9565b60405180910390fd5b808210610748576040517f08c379a000000000000000000000000000000000000000000000000000000000815260040161073f90611509565b60405180910390fd5b81600281905550806003819055505050565b610762610f84565b600160009054906101000a900473ffffffffffffffffffffffffffffffffffffffff1673ffffffffffffffffffffffffffffffffffffffff163373ffffffffffffffffffffffffffffffffffffffff16146107f2576040517f08c379a00000000000000000000000000000000000000000000000000000000081526004016107e9906114c9565b60405180910390fd5b600060056000848152602001908152602001600020549050600460008281526020019081526020016000206040518060c00160405290816000820154815260200160018201548152602001600282015481526020016003820160009054906101000a900473ffffffffffffffffffffffffffffffffffffffff1673ffffffffffffffffffffffffffffffffffffffff1673ffffffffffffffffffffffffffffffffffffffff16815260200160048201548152602001600582015481525050915050919050565b600160009054906101000a900473ffffffffffffffffffffffffffffffffffffffff1673ffffffffffffffffffffffffffffffffffffffff163373ffffffffffffffffffffffffffffffffffffffff1614610948576040517f08c379a000000000000000000000000000000000000000000000000000000000815260040161093f906114c9565b60405180910390fd5b6000809054906101000a900473ffffffffffffffffffffffffffffffffffffffff1673ffffffffffffffffffffffffffffffffffffffff1663a9059cbb336000809054906101000a900473ffffffffffffffffffffffffffffffffffffffff1673ffffffffffffffffffffffffffffffffffffffff166370a08231306040518263ffffffff1660e01b81526004016109e09190611428565b60206040518083038186803b1580156109f857600080fd5b505afa158015610a0c573d6000803e3d6000fd5b505050506040513d601f19601f82011682018060405250810190610a30919061109f565b6040518363ffffffff1660e01b8152600401610a4d929190611443565b602060405180830381600087803b158015610a6757600080fd5b505af1158015610a7b573d6000803e3d6000fd5b505050506040513d601f19601f82011682018060405250810190610a9f919061104d565b50565b6001600460008381526020019081526020016000206001015414610afb576040517f08c379a0000000000000000000000000000000000000000000000000000000008152600401610af2906114a9565b60405180910390fd5b600073ffffffffffffffffffffffffffffffffffffffff166004600083815260200190815260200160002060030160009054906101000a900473ffffffffffffffffffffffffffffffffffffffff1673ffffffffffffffffffffffffffffffffffffffff1614610ba0576040517f08c379a0000000000000000000000000000000000000000000000000000000008152600401610b97906114a9565b60405180910390fd5b600060046000838152602001908152602001600020600001541415610bfa576040517f08c379a0000000000000000000000000000000000000000000000000000000008152600401610bf1906114a9565b60405180910390fd5b600060046000838152602001908152602001600020600201541415610c54576040517f08c379a0000000000000000000000000000000000000000000000000000000008152600401610c4b906114a9565b60405180910390fd5b50565b600080610c6b600254600354600654610dbd565b90508091505090565b600080831415610c875760009050610cde565b6000828402905082848281610c9857fe5b0414610cd9576040517f08c379a0000000000000000000000000000000000000000000000000000000008152600401610cd0906114e9565b60405180910390fd5b809150505b92915050565b6000610d2683836040518060400160405280601a81526020017f536166654d6174683a206469766973696f6e206279207a65726f000000000000815250610e7d565b905092915050565b60006004600083815260200190815260200160002060010181905550336004600083815260200190815260200160002060030160006101000a81548173ffffffffffffffffffffffffffffffffffffffff021916908373ffffffffffffffffffffffffffffffffffffffff16021790555042600460008381526020019081526020016000206004018190555050565b60008082434233604051602001610dd491906113f2565b6040516020818303038152906040528051906020012060001c81610df457fe5b04454241604051602001610e0891906113f2565b6040516020818303038152906040528051906020012060001c81610e2857fe5b044442010101010101604051602001610e41919061140d565b6040516020818303038152906040528051906020012060001c905084610e7286860383610ede90919063ffffffff16565b019150509392505050565b60008083118290610ec4576040517f08c379a0000000000000000000000000000000000000000000000000000000008152600401610ebb9190611487565b60405180910390fd5b506000838581610ed057fe5b049050809150509392505050565b6000610f2083836040518060400160405280601881526020017f536166654d6174683a206d6f64756c6f206279207a65726f0000000000000000815250610f28565b905092915050565b6000808314158290610f70576040517f08c379a0000000000000000000000000000000000000000000000000000000008152600401610f679190611487565b60405180910390fd5b50828481610f7a57fe5b0690509392505050565b6040518060c00160405280600081526020016000815260200160008152602001600073ffffffffffffffffffffffffffffffffffffffff16815260200160008152602001600081525090565b600081359050610fdf816116ce565b92915050565b600081519050610ff4816116e5565b92915050565b600081359050611009816116fc565b92915050565b60008151905061101e816116fc565b92915050565b60006020828403121561103657600080fd5b600061104484828501610fd0565b91505092915050565b60006020828403121561105f57600080fd5b600061106d84828501610fe5565b91505092915050565b60006020828403121561108857600080fd5b600061109684828501610ffa565b91505092915050565b6000602082840312156110b157600080fd5b60006110bf8482850161100f565b91505092915050565b600080604083850312156110db57600080fd5b60006110e985828601610ffa565b92505060206110fa85828601610ffa565b9150509250929050565b61110d816115f5565b82525050565b61112461111f826115ad565b611682565b82525050565b6111338161159b565b82525050565b6111428161159b565b82525050565b61115181611607565b82525050565b60006111628261157f565b61116c818561158a565b935061117c81856020860161164f565b611185816116b0565b840191505092915050565b600061119d601a8361158a565b91507f4572726f723a2054686520636f646520697320696e76616c69640000000000006000830152602082019050919050565b60006111dd602e8361158a565b91507f4572726f723a204f6e6c79206f776e65722063616e2068616e646c652074686960008301527f73206f7065726174696f6e203b290000000000000000000000000000000000006020830152604082019050919050565b600061124360218361158a565b91507f536166654d6174683a206d756c7469706c69636174696f6e206f766572666c6f60008301527f77000000000000000000000000000000000000000000000000000000000000006020830152604082019050919050565b60006112a9602c8361158a565b91507f4572726f723a2066726f6d2076616c7565206d757374206265206c657373207460008301527f68616e20746f2076616c756500000000000000000000000000000000000000006020830152604082019050919050565b600061130f60208361158a565b91507f4572726f723a20636f6e74726163742066756e642069732065786365656465646000830152602082019050919050565b60c08201600082015161135860008501826113bd565b50602082015161136b60208501826113bd565b50604082015161137e60408501826113bd565b506060820151611391606085018261112a565b5060808201516113a460808501826113bd565b5060a08201516113b760a08501826113bd565b50505050565b6113c6816115eb565b82525050565b6113d5816115eb565b82525050565b6113ec6113e7826115eb565b6116a6565b82525050565b60006113fe8284611113565b60148201915081905092915050565b600061141982846113db565b60208201915081905092915050565b600060208201905061143d6000830184611139565b92915050565b60006040820190506114586000830185611104565b61146560208301846113cc565b9392505050565b60006020820190506114816000830184611148565b92915050565b600060208201905081810360008301526114a18184611157565b905092915050565b600060208201905081810360008301526114c281611190565b9050919050565b600060208201905081810360008301526114e2816111d0565b9050919050565b6000602082019050818103600083015261150281611236565b9050919050565b600060208201905081810360008301526115228161129c565b9050919050565b6000602082019050818103600083015261154281611302565b9050919050565b600060c08201905061155e6000830184611342565b92915050565b600060208201905061157960008301846113cc565b92915050565b600081519050919050565b600082825260208201905092915050565b60006115a6826115cb565b9050919050565b60006115b8826115cb565b9050919050565b60008115159050919050565b600073ffffffffffffffffffffffffffffffffffffffff82169050919050565b6000819050919050565b60006116008261162b565b9050919050565b600061161282611619565b9050919050565b6000611624826115cb565b9050919050565b60006116368261163d565b9050919050565b6000611648826115cb565b9050919050565b60005b8381101561166d578082015181840152602081019050611652565b8381111561167c576000848401525b50505050565b600061168d82611694565b9050919050565b600061169f826116c1565b9050919050565b6000819050919050565b6000601f19601f8301169050919050565b60008160601b9050919050565b6116d78161159b565b81146116e257600080fd5b50565b6116ee816115bf565b81146116f957600080fd5b50565b611705816115eb565b811461171057600080fd5b5056fea26469706673582212209e30bf1f0c97fbf883ccedf18fdbd192468be4265fc0fa08a531d295f4c35bc264736f6c63430006080033",
  "linkReferences": {},
  "deployedLinkReferences": {}
}