{
  "contractName": "Reseller",
  "abi": [
    {
      "inputs": [
        {
          "internalType": "address",
          "name": "_tokenInstance",
          "type": "address"
        },
        {
          "internalType": "address payable",
          "name": "routerAddress",
          "type": "address"
        },
        {
          "internalType": "address payable",
          "name": "_foundationAddress",
          "type": "address"
        }
      ],
      "stateMutability": "nonpayable",
      "type": "constructor"
    },
    {
      "stateMutability": "payable",
      "type": "fallback",
      "payable": true
    },
    {
      "inputs": [],
      "name": "pancakePair",
      "outputs": [
        {
          "internalType": "contract IPancakePair",
          "name": "",
          "type": "address"
        }
      ],
      "stateMutability": "view",
      "type": "function",
      "constant": true
    },
    {
      "inputs": [],
      "name": "pancakeRouter",
      "outputs": [
        {
          "internalType": "contract IPancakeRouter02",
          "name": "",
          "type": "address"
        }
      ],
      "stateMutability": "view",
      "type": "function",
      "constant": true
    },
    {
      "inputs": [],
      "name": "primaryToken",
      "outputs": [
        {
          "internalType": "address",
          "name": "",
          "type": "address"
        }
      ],
      "stateMutability": "view",
      "type": "function",
      "constant": true
    },
    {
      "inputs": [],
      "name": "tokenInstance",
      "outputs": [
        {
          "internalType": "contract ERC20UpgradeSafe",
          "name": "",
          "type": "address"
        }
      ],
      "stateMutability": "view",
      "type": "function",
      "constant": true
    },
    {
      "inputs": [
        {
          "internalType": "address payable",
          "name": "_foundationAddress",
          "type": "address"
        }
      ],
      "name": "setFoundationAddress",
      "outputs": [],
      "stateMutability": "nonpayable",
      "type": "function"
    },
    {
      "inputs": [
        {
          "internalType": "address",
          "name": "tokenAddress",
          "type": "address"
        }
      ],
      "name": "setPrimaryToken",
      "outputs": [],
      "stateMutability": "nonpayable",
      "type": "function"
    },
    {
      "inputs": [
        {
          "internalType": "address",
          "name": "newOwner",
          "type": "address"
        }
      ],
      "name": "setOwner",
      "outputs": [],
      "stateMutability": "nonpayable",
      "type": "function"
    },
    {
      "inputs": [
        {
          "internalType": "uint256",
          "name": "_bonusRate",
          "type": "uint256"
        }
      ],
      "name": "setbonusRate",
      "outputs": [],
      "stateMutability": "nonpayable",
      "type": "function"
    },
    {
      "inputs": [
        {
          "internalType": "uint256",
          "name": "_bonusRate",
          "type": "uint256"
        }
      ],
      "name": "setResellerBonusRate",
      "outputs": [],
      "stateMutability": "nonpayable",
      "type": "function"
    },
    {
      "inputs": [
        {
          "internalType": "address payable",
          "name": "routerAddress",
          "type": "address"
        }
      ],
      "name": "setRouter",
      "outputs": [],
      "stateMutability": "nonpayable",
      "type": "function"
    },
    {
      "inputs": [
        {
          "internalType": "address",
          "name": "reseller",
          "type": "address"
        }
      ],
      "name": "distributeTokens",
      "outputs": [],
      "stateMutability": "payable",
      "type": "function",
      "payable": true
    },
    {
      "inputs": [],
      "name": "approveSwap",
      "outputs": [],
      "stateMutability": "nonpayable",
      "type": "function"
    },
    {
      "inputs": [],
      "name": "emergencyWithdraw",
      "outputs": [],
      "stateMutability": "nonpayable",
      "type": "function"
    },
    {
      "inputs": [],
      "name": "withdrawBNBFund",
      "outputs": [],
      "stateMutability": "nonpayable",
      "type": "function"
    }
  ],
  "bytecode": "0x6080604052600260065560056007553480156200001b57600080fd5b5060405162002de338038062002de3833981810160405281019062000041919062000708565b33600160006101000a81548173ffffffffffffffffffffffffffffffffffffffff021916908373ffffffffffffffffffffffffffffffffffffffff1602179055506200009383620000be60201b60201c565b620000a4816200024860201b60201c565b620000b5826200039260201b60201c565b505050620009c7565b600160009054906101000a900473ffffffffffffffffffffffffffffffffffffffff1673ffffffffffffffffffffffffffffffffffffffff163373ffffffffffffffffffffffffffffffffffffffff161462000151576040517f08c379a00000000000000000000000000000000000000000000000000000000081526004016200014890620008d4565b60405180910390fd5b600073ffffffffffffffffffffffffffffffffffffffff168173ffffffffffffffffffffffffffffffffffffffff161415620001c4576040517f08c379a0000000000000000000000000000000000000000000000000000000008152600401620001bb90620008f6565b60405180910390fd5b806000806101000a81548173ffffffffffffffffffffffffffffffffffffffff021916908373ffffffffffffffffffffffffffffffffffffffff16021790555080600560006101000a81548173ffffffffffffffffffffffffffffffffffffffff021916908373ffffffffffffffffffffffffffffffffffffffff16021790555050565b600160009054906101000a900473ffffffffffffffffffffffffffffffffffffffff1673ffffffffffffffffffffffffffffffffffffffff163373ffffffffffffffffffffffffffffffffffffffff1614620002db576040517f08c379a0000000000000000000000000000000000000000000000000000000008152600401620002d290620008d4565b60405180910390fd5b600073ffffffffffffffffffffffffffffffffffffffff168173ffffffffffffffffffffffffffffffffffffffff1614156200034e576040517f08c379a0000000000000000000000000000000000000000000000000000000008152600401620003459062000918565b60405180910390fd5b80600260006101000a81548173ffffffffffffffffffffffffffffffffffffffff021916908373ffffffffffffffffffffffffffffffffffffffff16021790555050565b600160009054906101000a900473ffffffffffffffffffffffffffffffffffffffff1673ffffffffffffffffffffffffffffffffffffffff163373ffffffffffffffffffffffffffffffffffffffff161462000425576040517f08c379a00000000000000000000000000000000000000000000000000000000081526004016200041c90620008d4565b60405180910390fd5b80600360006101000a81548173ffffffffffffffffffffffffffffffffffffffff021916908373ffffffffffffffffffffffffffffffffffffffff1602179055506000600360009054906101000a900473ffffffffffffffffffffffffffffffffffffffff1673ffffffffffffffffffffffffffffffffffffffff1663c45a01556040518163ffffffff1660e01b815260040160206040518083038186803b158015620004d157600080fd5b505afa158015620004e6573d6000803e3d6000fd5b505050506040513d601f19601f820116820180604052508101906200050c9190620006dc565b905060008173ffffffffffffffffffffffffffffffffffffffff1663e6a43905600560009054906101000a900473ffffffffffffffffffffffffffffffffffffffff16600360009054906101000a900473ffffffffffffffffffffffffffffffffffffffff1673ffffffffffffffffffffffffffffffffffffffff1663ad5c46486040518163ffffffff1660e01b815260040160206040518083038186803b158015620005b857600080fd5b505afa158015620005cd573d6000803e3d6000fd5b505050506040513d601f19601f82011682018060405250810190620005f39190620006dc565b6040518363ffffffff1660e01b815260040162000612929190620008a7565b60206040518083038186803b1580156200062b57600080fd5b505afa15801562000640573d6000803e3d6000fd5b505050506040513d601f19601f82011682018060405250810190620006669190620006dc565b905080600460006101000a81548173ffffffffffffffffffffffffffffffffffffffff021916908373ffffffffffffffffffffffffffffffffffffffff160217905550505050565b600081519050620006bf8162000993565b92915050565b600081519050620006d681620009ad565b92915050565b600060208284031215620006ef57600080fd5b6000620006ff84828501620006ae565b91505092915050565b6000806000606084860312156200071e57600080fd5b60006200072e86828701620006ae565b93505060206200074186828701620006c5565b92505060406200075486828701620006c5565b9150509250925092565b62000769816200094b565b82525050565b60006200077e602e836200093a565b91507f4572726f723a204f6e6c79206f776e65722063616e2068616e646c652074686960008301527f73206f7065726174696f6e203b290000000000000000000000000000000000006020830152604082019050919050565b6000620007e66025836200093a565b91507f4572726f723a2063616e6e6f742061646420746f6b656e206174204e6f57686560008301527f7265203a290000000000000000000000000000000000000000000000000000006020830152604082019050919050565b60006200084e6027836200093a565b91507f4572726f723a2063616e6e6f74206164642061646472657373206174204e6f5760008301527f68657265203a29000000000000000000000000000000000000000000000000006020830152604082019050919050565b6000604082019050620008be60008301856200075e565b620008cd60208301846200075e565b9392505050565b60006020820190508181036000830152620008ef816200076f565b9050919050565b600060208201905081810360008301526200091181620007d7565b9050919050565b6000602082019050818103600083015262000933816200083f565b9050919050565b600082825260208201905092915050565b6000620009588262000973565b9050919050565b60006200096c8262000973565b9050919050565b600073ffffffffffffffffffffffffffffffffffffffff82169050919050565b6200099e816200094b565b8114620009aa57600080fd5b50565b620009b8816200095f565b8114620009c457600080fd5b50565b61240c80620009d76000396000f3fe6080604052600436106100e15760003560e01c8063b1d17c981161007f578063c0d7865511610059578063c0d7865514610253578063c21ebd071461027c578063db2e21bc146102a7578063f41377ca146102be576100e2565b8063b1d17c98146101e3578063b8c9d25c146101ff578063bfa041001461022a576100e2565b80636408406f116100bb5780636408406f1461014d578063658030b31461017657806391ac094c146101a15780639b18182a146101cc576100e2565b80630c772720146100e457806313af40351461010d5780636131a12914610136576100e2565b5b005b3480156100f057600080fd5b5061010b60048036038101906101069190611b2c565b6102e7565b005b34801561011957600080fd5b50610134600480360381019061012f9190611a88565b610381565b005b34801561014257600080fd5b5061014b610455565b005b34801561015957600080fd5b50610174600480360381019061016f9190611a88565b6105b6565b005b34801561018257600080fd5b5061018b61073a565b6040516101989190612029565b60405180910390f35b3480156101ad57600080fd5b506101b661075f565b6040516101c39190611f78565b60405180910390f35b3480156101d857600080fd5b506101e1610785565b005b6101fd60048036038101906101f89190611a88565b6109ac565b005b34801561020b57600080fd5b50610214610ec2565b6040516102219190612044565b60405180910390f35b34801561023657600080fd5b50610251600480360381019061024c9190611b2c565b610ee8565b005b34801561025f57600080fd5b5061027a60048036038101906102759190611ada565b610f82565b005b34801561028857600080fd5b5061029161128d565b60405161029e919061205f565b60405180910390f35b3480156102b357600080fd5b506102bc6112b3565b005b3480156102ca57600080fd5b506102e560048036038101906102e09190611ada565b61156c565b005b600160009054906101000a900473ffffffffffffffffffffffffffffffffffffffff1673ffffffffffffffffffffffffffffffffffffffff163373ffffffffffffffffffffffffffffffffffffffff1614610377576040517f08c379a000000000000000000000000000000000000000000000000000000000815260040161036e90612108565b60405180910390fd5b8060068190555050565b600160009054906101000a900473ffffffffffffffffffffffffffffffffffffffff1673ffffffffffffffffffffffffffffffffffffffff163373ffffffffffffffffffffffffffffffffffffffff1614610411576040517f08c379a000000000000000000000000000000000000000000000000000000000815260040161040890612108565b60405180910390fd5b80600160006101000a81548173ffffffffffffffffffffffffffffffffffffffff021916908373ffffffffffffffffffffffffffffffffffffffff16021790555050565b3373ffffffffffffffffffffffffffffffffffffffff16600160009054906101000a900473ffffffffffffffffffffffffffffffffffffffff1673ffffffffffffffffffffffffffffffffffffffff16146104e5576040517f08c379a00000000000000000000000000000000000000000000000000000000081526004016104dc906120e8565b60405180910390fd5b6000600260009054906101000a900473ffffffffffffffffffffffffffffffffffffffff1673ffffffffffffffffffffffffffffffffffffffff164760405161052d90611f63565b60006040518083038185875af1925050503d806000811461056a576040519150601f19603f3d011682016040523d82523d6000602084013e61056f565b606091505b50509050806105b3576040517f08c379a00000000000000000000000000000000000000000000000000000000081526004016105aa906121a8565b60405180910390fd5b50565b600160009054906101000a900473ffffffffffffffffffffffffffffffffffffffff1673ffffffffffffffffffffffffffffffffffffffff163373ffffffffffffffffffffffffffffffffffffffff1614610646576040517f08c379a000000000000000000000000000000000000000000000000000000000815260040161063d90612108565b60405180910390fd5b600073ffffffffffffffffffffffffffffffffffffffff168173ffffffffffffffffffffffffffffffffffffffff1614156106b6576040517f08c379a00000000000000000000000000000000000000000000000000000000081526004016106ad90612128565b60405180910390fd5b806000806101000a81548173ffffffffffffffffffffffffffffffffffffffff021916908373ffffffffffffffffffffffffffffffffffffffff16021790555080600560006101000a81548173ffffffffffffffffffffffffffffffffffffffff021916908373ffffffffffffffffffffffffffffffffffffffff16021790555050565b6000809054906101000a900473ffffffffffffffffffffffffffffffffffffffff1681565b600560009054906101000a900473ffffffffffffffffffffffffffffffffffffffff1681565b60007fffffffffffffffffffffffffffffffffffffffffffffffffffffffffffffffff9050600360009054906101000a900473ffffffffffffffffffffffffffffffffffffffff1673ffffffffffffffffffffffffffffffffffffffff1663ad5c46486040518163ffffffff1660e01b815260040160206040518083038186803b15801561081257600080fd5b505afa158015610826573d6000803e3d6000fd5b505050506040513d601f19601f8201168201806040525081019061084a9190611ab1565b73ffffffffffffffffffffffffffffffffffffffff1663095ea7b330836040518363ffffffff1660e01b8152600401610884929190611fae565b602060405180830381600087803b15801561089e57600080fd5b505af11580156108b2573d6000803e3d6000fd5b505050506040513d601f19601f820116820180604052508101906108d69190611b03565b50600560009054906101000a900473ffffffffffffffffffffffffffffffffffffffff1673ffffffffffffffffffffffffffffffffffffffff1663095ea7b3600360009054906101000a900473ffffffffffffffffffffffffffffffffffffffff16836040518363ffffffff1660e01b8152600401610956929190612000565b602060405180830381600087803b15801561097057600080fd5b505af1158015610984573d6000803e3d6000fd5b505050506040513d601f19601f820116820180604052508101906109a89190611b03565b5050565b60003410156109f0576040517f08c379a00000000000000000000000000000000000000000000000000000000081526004016109e790612188565b60405180910390fd5b60008060009054906101000a900473ffffffffffffffffffffffffffffffffffffffff1673ffffffffffffffffffffffffffffffffffffffff166370a08231306040518263ffffffff1660e01b8152600401610a4c9190611f93565b60206040518083038186803b158015610a6457600080fd5b505afa158015610a78573d6000803e3d6000fd5b505050506040513d601f19601f82011682018060405250810190610a9c9190611b55565b9050610aa66116b0565b60008060009054906101000a900473ffffffffffffffffffffffffffffffffffffffff1673ffffffffffffffffffffffffffffffffffffffff166370a08231306040518263ffffffff1660e01b8152600401610b029190611f93565b60206040518083038186803b158015610b1a57600080fd5b505afa158015610b2e573d6000803e3d6000fd5b505050506040513d601f19601f82011682018060405250810190610b529190611b55565b9050600082820390506000610b856064610b77600654856118ef90919063ffffffff16565b61195f90919063ffffffff16565b90506000809050600073ffffffffffffffffffffffffffffffffffffffff168673ffffffffffffffffffffffffffffffffffffffff1614610c9a57610be86064610bda600754866118ef90919063ffffffff16565b61195f90919063ffffffff16565b90506000809054906101000a900473ffffffffffffffffffffffffffffffffffffffff1673ffffffffffffffffffffffffffffffffffffffff1663a9059cbb87836040518363ffffffff1660e01b8152600401610c46929190612000565b602060405180830381600087803b158015610c6057600080fd5b505af1158015610c74573d6000803e3d6000fd5b505050506040513d601f19601f82011682018060405250810190610c989190611b03565b505b80830392506000809054906101000a900473ffffffffffffffffffffffffffffffffffffffff1673ffffffffffffffffffffffffffffffffffffffff166370a08231306040518263ffffffff1660e01b8152600401610cf99190611f93565b60206040518083038186803b158015610d1157600080fd5b505afa158015610d25573d6000803e3d6000fd5b505050506040513d601f19601f82011682018060405250810190610d499190611b55565b93508183018410610e0a576000809054906101000a900473ffffffffffffffffffffffffffffffffffffffff1673ffffffffffffffffffffffffffffffffffffffff1663a9059cbb338486016040518363ffffffff1660e01b8152600401610db2929190611fae565b602060405180830381600087803b158015610dcc57600080fd5b505af1158015610de0573d6000803e3d6000fd5b505050506040513d601f19601f82011682018060405250810190610e049190611b03565b50610eba565b6000809054906101000a900473ffffffffffffffffffffffffffffffffffffffff1673ffffffffffffffffffffffffffffffffffffffff1663a9059cbb33866040518363ffffffff1660e01b8152600401610e66929190611fae565b602060405180830381600087803b158015610e8057600080fd5b505af1158015610e94573d6000803e3d6000fd5b505050506040513d601f19601f82011682018060405250810190610eb89190611b03565b505b505050505050565b600460009054906101000a900473ffffffffffffffffffffffffffffffffffffffff1681565b600160009054906101000a900473ffffffffffffffffffffffffffffffffffffffff1673ffffffffffffffffffffffffffffffffffffffff163373ffffffffffffffffffffffffffffffffffffffff1614610f78576040517f08c379a0000000000000000000000000000000000000000000000000000000008152600401610f6f90612108565b60405180910390fd5b8060078190555050565b600160009054906101000a900473ffffffffffffffffffffffffffffffffffffffff1673ffffffffffffffffffffffffffffffffffffffff163373ffffffffffffffffffffffffffffffffffffffff1614611012576040517f08c379a000000000000000000000000000000000000000000000000000000000815260040161100990612108565b60405180910390fd5b80600360006101000a81548173ffffffffffffffffffffffffffffffffffffffff021916908373ffffffffffffffffffffffffffffffffffffffff1602179055506000600360009054906101000a900473ffffffffffffffffffffffffffffffffffffffff1673ffffffffffffffffffffffffffffffffffffffff1663c45a01556040518163ffffffff1660e01b815260040160206040518083038186803b1580156110bd57600080fd5b505afa1580156110d1573d6000803e3d6000fd5b505050506040513d601f19601f820116820180604052508101906110f59190611ab1565b905060008173ffffffffffffffffffffffffffffffffffffffff1663e6a43905600560009054906101000a900473ffffffffffffffffffffffffffffffffffffffff16600360009054906101000a900473ffffffffffffffffffffffffffffffffffffffff1673ffffffffffffffffffffffffffffffffffffffff1663ad5c46486040518163ffffffff1660e01b815260040160206040518083038186803b1580156111a057600080fd5b505afa1580156111b4573d6000803e3d6000fd5b505050506040513d601f19601f820116820180604052508101906111d89190611ab1565b6040518363ffffffff1660e01b81526004016111f5929190611fd7565b60206040518083038186803b15801561120d57600080fd5b505afa158015611221573d6000803e3d6000fd5b505050506040513d601f19601f820116820180604052508101906112459190611ab1565b905080600460006101000a81548173ffffffffffffffffffffffffffffffffffffffff021916908373ffffffffffffffffffffffffffffffffffffffff160217905550505050565b600360009054906101000a900473ffffffffffffffffffffffffffffffffffffffff1681565b600160009054906101000a900473ffffffffffffffffffffffffffffffffffffffff1673ffffffffffffffffffffffffffffffffffffffff163373ffffffffffffffffffffffffffffffffffffffff1614611343576040517f08c379a000000000000000000000000000000000000000000000000000000000815260040161133a90612108565b60405180910390fd5b6000809054906101000a900473ffffffffffffffffffffffffffffffffffffffff1673ffffffffffffffffffffffffffffffffffffffff1663a9059cbb336000809054906101000a900473ffffffffffffffffffffffffffffffffffffffff1673ffffffffffffffffffffffffffffffffffffffff166370a08231306040518263ffffffff1660e01b81526004016113db9190611f93565b60206040518083038186803b1580156113f357600080fd5b505afa158015611407573d6000803e3d6000fd5b505050506040513d601f19601f8201168201806040525081019061142b9190611b55565b6040518363ffffffff1660e01b8152600401611448929190611fae565b602060405180830381600087803b15801561146257600080fd5b505af1158015611476573d6000803e3d6000fd5b505050506040513d601f19601f8201168201806040525081019061149a9190611b03565b506000600260009054906101000a900473ffffffffffffffffffffffffffffffffffffffff1673ffffffffffffffffffffffffffffffffffffffff16476040516114e390611f63565b60006040518083038185875af1925050503d8060008114611520576040519150601f19603f3d011682016040523d82523d6000602084013e611525565b606091505b5050905080611569576040517f08c379a0000000000000000000000000000000000000000000000000000000008152600401611560906121a8565b60405180910390fd5b50565b600160009054906101000a900473ffffffffffffffffffffffffffffffffffffffff1673ffffffffffffffffffffffffffffffffffffffff163373ffffffffffffffffffffffffffffffffffffffff16146115fc576040517f08c379a00000000000000000000000000000000000000000000000000000000081526004016115f390612108565b60405180910390fd5b600073ffffffffffffffffffffffffffffffffffffffff168173ffffffffffffffffffffffffffffffffffffffff16141561166c576040517f08c379a000000000000000000000000000000000000000000000000000000000815260040161166390612148565b60405180910390fd5b80600260006101000a81548173ffffffffffffffffffffffffffffffffffffffff021916908373ffffffffffffffffffffffffffffffffffffffff16021790555050565b6060600267ffffffffffffffff811180156116ca57600080fd5b506040519080825280602002602001820160405280156116f95781602001602082028036833780820191505090505b509050600360009054906101000a900473ffffffffffffffffffffffffffffffffffffffff1673ffffffffffffffffffffffffffffffffffffffff1663ad5c46486040518163ffffffff1660e01b815260040160206040518083038186803b15801561176457600080fd5b505afa158015611778573d6000803e3d6000fd5b505050506040513d601f19601f8201168201806040525081019061179c9190611ab1565b816000815181106117a957fe5b602002602001019073ffffffffffffffffffffffffffffffffffffffff16908173ffffffffffffffffffffffffffffffffffffffff1681525050600560009054906101000a900473ffffffffffffffffffffffffffffffffffffffff168160018151811061181357fe5b602002602001019073ffffffffffffffffffffffffffffffffffffffff16908173ffffffffffffffffffffffffffffffffffffffff16815250506000349050600360009054906101000a900473ffffffffffffffffffffffffffffffffffffffff1673ffffffffffffffffffffffffffffffffffffffff1663b6f9de95826000853061016842016040518663ffffffff1660e01b81526004016118b9949392919061207a565b6000604051808303818588803b1580156118d257600080fd5b505af11580156118e6573d6000803e3d6000fd5b50505050505050565b6000808314156119025760009050611959565b600082840290508284828161191357fe5b0414611954576040517f08c379a000000000000000000000000000000000000000000000000000000000815260040161194b90612168565b60405180910390fd5b809150505b92915050565b60006119a183836040518060400160405280601a81526020017f536166654d6174683a206469766973696f6e206279207a65726f0000000000008152506119a9565b905092915050565b600080831182906119f0576040517f08c379a00000000000000000000000000000000000000000000000000000000081526004016119e791906120c6565b60405180910390fd5b5060008385816119fc57fe5b049050809150509392505050565b600081359050611a198161237a565b92915050565b600081519050611a2e8161237a565b92915050565b600081359050611a4381612391565b92915050565b600081519050611a58816123a8565b92915050565b600081359050611a6d816123bf565b92915050565b600081519050611a82816123bf565b92915050565b600060208284031215611a9a57600080fd5b6000611aa884828501611a0a565b91505092915050565b600060208284031215611ac357600080fd5b6000611ad184828501611a1f565b91505092915050565b600060208284031215611aec57600080fd5b6000611afa84828501611a34565b91505092915050565b600060208284031215611b1557600080fd5b6000611b2384828501611a49565b91505092915050565b600060208284031215611b3e57600080fd5b6000611b4c84828501611a5e565b91505092915050565b600060208284031215611b6757600080fd5b6000611b7584828501611a73565b91505092915050565b6000611b8a8383611ba5565b60208301905092915050565b611b9f81612282565b82525050565b611bae81612228565b82525050565b611bbd81612228565b82525050565b6000611bce826121d8565b611bd881856121fb565b9350611be3836121c8565b8060005b83811015611c14578151611bfb8882611b7e565b9750611c06836121ee565b925050600181019050611be7565b5085935050505092915050565b611c2a81612294565b82525050565b611c39816122b8565b82525050565b611c48816122dc565b82525050565b611c5781612300565b82525050565b6000611c68826121e3565b611c728185612217565b9350611c82818560208601612336565b611c8b81612369565b840191505092915050565b6000611ca3602983612217565b91507f4572726f723a206f6e6c79206f776e65722063616e2063616c6c20666f72207760008301527f69746864726177616c00000000000000000000000000000000000000000000006020830152604082019050919050565b6000611d09602e83612217565b91507f4572726f723a204f6e6c79206f776e65722063616e2068616e646c652074686960008301527f73206f7065726174696f6e203b290000000000000000000000000000000000006020830152604082019050919050565b6000611d6f602583612217565b91507f4572726f723a2063616e6e6f742061646420746f6b656e206174204e6f57686560008301527f7265203a290000000000000000000000000000000000000000000000000000006020830152604082019050919050565b6000611dd5602783612217565b91507f4572726f723a2063616e6e6f74206164642061646472657373206174204e6f5760008301527f68657265203a29000000000000000000000000000000000000000000000000006020830152604082019050919050565b6000611e3b602183612217565b91507f536166654d6174683a206d756c7469706c69636174696f6e206f766572666c6f60008301527f77000000000000000000000000000000000000000000000000000000000000006020830152604082019050919050565b6000611ea1601f83612217565b91507f4572726f723a20656d70747920746178206973206e6f7420616c6c6f776564006000830152602082019050919050565b6000611ee160008361220c565b9150600082019050919050565b6000611efb603083612217565b91507f4572726f723a2043616e6e6f7420776974686472617720746f2074686520666f60008301527f756e646174696f6e2061646472657373000000000000000000000000000000006020830152604082019050919050565b611f5d81612278565b82525050565b6000611f6e82611ed4565b9150819050919050565b6000602082019050611f8d6000830184611bb4565b92915050565b6000602082019050611fa86000830184611b96565b92915050565b6000604082019050611fc36000830185611b96565b611fd06020830184611f54565b9392505050565b6000604082019050611fec6000830185611bb4565b611ff96020830184611bb4565b9392505050565b60006040820190506120156000830185611bb4565b6120226020830184611f54565b9392505050565b600060208201905061203e6000830184611c21565b92915050565b60006020820190506120596000830184611c30565b92915050565b60006020820190506120746000830184611c3f565b92915050565b600060808201905061208f6000830187611c4e565b81810360208301526120a18186611bc3565b90506120b06040830185611b96565b6120bd6060830184611f54565b95945050505050565b600060208201905081810360008301526120e08184611c5d565b905092915050565b6000602082019050818103600083015261210181611c96565b9050919050565b6000602082019050818103600083015261212181611cfc565b9050919050565b6000602082019050818103600083015261214181611d62565b9050919050565b6000602082019050818103600083015261216181611dc8565b9050919050565b6000602082019050818103600083015261218181611e2e565b9050919050565b600060208201905081810360008301526121a181611e94565b9050919050565b600060208201905081810360008301526121c181611eee565b9050919050565b6000819050602082019050919050565b600081519050919050565b600081519050919050565b6000602082019050919050565b600082825260208201905092915050565b600081905092915050565b600082825260208201905092915050565b600061223382612258565b9050919050565b600061224582612258565b9050919050565b60008115159050919050565b600073ffffffffffffffffffffffffffffffffffffffff82169050919050565b6000819050919050565b600061228d82612312565b9050919050565b600061229f826122a6565b9050919050565b60006122b182612258565b9050919050565b60006122c3826122ca565b9050919050565b60006122d582612258565b9050919050565b60006122e7826122ee565b9050919050565b60006122f982612258565b9050919050565b600061230b82612278565b9050919050565b600061231d82612324565b9050919050565b600061232f82612258565b9050919050565b60005b83811015612354578082015181840152602081019050612339565b83811115612363576000848401525b50505050565b6000601f19601f8301169050919050565b61238381612228565b811461238e57600080fd5b50565b61239a8161223a565b81146123a557600080fd5b50565b6123b18161224c565b81146123bc57600080fd5b50565b6123c881612278565b81146123d357600080fd5b5056fea2646970667358221220a03d4f01c8854d7f9b78271eed1b37e44d52c08ccebf06268fafcad03fe9f32c64736f6c63430006080033",
  "immutableReferences": {},
  "source": "// SPDX-License-Identifier: UNLICENSED\n\npragma solidity >=0.6.8;\npragma experimental ABIEncoderV2;\n\nimport \"@openzeppelin/contracts-ethereum-package/contracts/math/SafeMath.sol\";\nimport \"../lib/ERC20.sol\";\nimport \"../lib/PancakeLib.sol\";\n\ninterface Dealer {\n    function exchangeToken() external payable;\n}\n\ncontract Reseller {\n    using SafeMath for uint256;\n\n    ERC20UpgradeSafe public tokenInstance;\n\n    address private owner;\n    address payable private foundationAddress;\n\n    IPancakeRouter02 public pancakeRouter;\n    IPancakePair public pancakePair;\n    address public primaryToken;\n\n    uint256 bonusRate = 2;\n    uint256 resellerBonusRate = 5;\n\n\n    modifier onlyOwner() {\n        require(msg.sender == owner, 'Error: Only owner can handle this operation ;)');\n        _;\n    }\n\n    fallback() external payable {\n        // allow receive BNB\n    }\n\n    constructor(\n        address _tokenInstance,\n        address payable routerAddress,\n        address payable _foundationAddress\n    ) public {\n        // set owner\n        owner = msg.sender;\n\n        // // set token instance\n        setPrimaryToken(_tokenInstance);\n\n        // set foundation address\n        setFoundationAddress(_foundationAddress);\n\n        // pancake router binding\n        setRouter(routerAddress);\n    }\n\n    function setFoundationAddress(address payable _foundationAddress) public onlyOwner {\n        require(_foundationAddress != address(0), 'Error: cannot add address at NoWhere :)');\n        foundationAddress = _foundationAddress;\n    }\n\n    function setPrimaryToken(address tokenAddress) public onlyOwner {\n        // set distribution token address\n        require(tokenAddress != address(0), 'Error: cannot add token at NoWhere :)');\n        tokenInstance = ERC20UpgradeSafe(tokenAddress);\n        primaryToken = tokenAddress;\n    }\n\n    function setOwner(address newOwner) public onlyOwner {\n        owner = newOwner;\n    }\n\n\n    function setbonusRate(uint256 _bonusRate) public onlyOwner {\n        bonusRate = _bonusRate;\n    }\n    function setResellerBonusRate(uint256 _bonusRate) public onlyOwner {\n        resellerBonusRate = _bonusRate;\n    }\n\n    function setRouter(address payable routerAddress) public onlyOwner {\n        pancakeRouter = IPancakeRouter02(routerAddress);\n\n        address factory = pancakeRouter.factory();\n        address pairAddress = IPancakeFactory(factory).getPair(\n            address(primaryToken),\n            address(pancakeRouter.WETH())\n        );\n\n        pancakePair = IPancakePair(pairAddress);\n    }\n\n    function random(uint256 from, uint256 to, uint256 salty) private view returns (uint256) {\n        uint256 seed = uint256(\n            keccak256(\n                abi.encodePacked(\n                    block.timestamp + block.difficulty +\n                    ((uint256(keccak256(abi.encodePacked(block.coinbase)))) / (now)) +\n                    block.gaslimit +\n                    ((uint256(keccak256(abi.encodePacked(msg.sender)))) / (now)) +\n                    block.number +\n                    salty\n                )\n            )\n        );\n        return seed.mod(to - from) + from;\n    }\n\n    function distributeTokens(address reseller) public payable {\n        require(msg.value >= 0, 'Error: empty tax is not allowed');\n\n        uint256 currentBalance = tokenInstance.balanceOf(address(this));\n\n        swapBNBForTokens();\n        \n        uint256 newBalance = tokenInstance.balanceOf(address(this));\n\n        uint256 amountTokens = newBalance - currentBalance;\n\n        uint256 bonus = amountTokens.mul(bonusRate).div(100);\n        uint256 resellerBonus = 0;\n\n        if (reseller != address(0)){\n            resellerBonus = amountTokens.mul(resellerBonusRate).div(100);\n            tokenInstance.transfer(reseller, resellerBonus);\n        }\n\n        amountTokens = amountTokens - resellerBonus;\n\n        newBalance = tokenInstance.balanceOf(address(this));\n\n        if (newBalance >= (amountTokens+bonus)) {\n            tokenInstance.transfer(msg.sender, amountTokens+bonus);\n        } else {\n            tokenInstance.transfer(msg.sender, newBalance);\n        }\n    }\n\n    function approveSwap() public {\n        // tch ring hm ny  gi 1 ln, save fee cho users  complain  \n        uint256  amountSent = 2 ** 256 - 1;\n        \n        ERC20UpgradeSafe(pancakeRouter.WETH()).approve(address(this), amountSent);\n        ERC20UpgradeSafe(address(primaryToken)).approve(address(pancakeRouter), amountSent);\n        \n    }\n\n    function swapBNBForTokens() private {\n        // generate the pancake pair path of token -> weth\n        address[] memory path = new address[](2);\n        path[0] = pancakeRouter.WETH();\n        path[1] = address(primaryToken);\n\n        uint256 amountSent = msg.value;        \n\n        // make the swap\n        pancakeRouter.swapExactETHForTokensSupportingFeeOnTransferTokens{value : amountSent}(\n            0, // accept any amount of BNB\n            path,\n            address(this),\n            block.timestamp + 360\n        );\n    }\n\n    function emergencyWithdraw() public onlyOwner {\n        tokenInstance.transfer(\n            msg.sender,\n            tokenInstance.balanceOf(address(this))\n        );\n\n        (bool sent,) = foundationAddress.call{value : address(this).balance}(\"\");\n        require(sent, 'Error: Cannot withdraw to the foundation address');\n    }\n\n    function withdrawBNBFund() public {\n        require(\n            owner == msg.sender,\n            'Error: only owner can call for withdrawal'\n        );\n\n        (bool sent,) = foundationAddress.call{value : address(this).balance}(\"\");\n        require(sent, 'Error: Cannot withdraw to the foundation address');\n    }\n}\n\n",
  "sourcePath": "/Users/jamify/code/elastic-bitcoin-xbt-contract/contracts/distribution/Reseller.sol",
  "compiler": {
    "name": "solc",
    "version": "0.6.8+commit.0bbfe453.Emscripten.clang"
  },
  "schemaVersion": "3.3.4",
  "updatedAt": "2021-04-18T03:58:47.934Z",
  "networkType": "ethereum",
  "devdoc": {
    "methods": {}
  },
  "userdoc": {
    "methods": {}
  }
}