{
  "fileName": "XBN.sol",
  "contractName": "XBN",
  "source": "pragma solidity >=0.6.0;\n\nimport \"@openzeppelin/contracts-ethereum-package/contracts/math/SafeMath.sol\";\nimport \"@openzeppelin/contracts-ethereum-package/contracts/access/Ownable.sol\";\n\nimport \"../lib/ERC20.sol\";\nimport \"../lib/SafeMathInt.sol\";\n\n/**\n * @title XTH ERC20 token\n * @dev This is part of an implementation of the XTH Ideal Money protocol.\n *      XTH is a normal ERC20 token, but its supply can be adjusted by splitting and\n *      combining tokens proportionally across all wallets.\n *\n *      XTH balances are internally represented with a hidden denomination, 'gons'.\n *      We support splitting the currency in expansion and combining the currency on contraction by\n *      changing the exchange rate between the hidden 'gons' and the public 'fragments'.\n */\ncontract XBN is ERC20UpgradeSafe, OwnableUpgradeSafe {\n    // PLEASE READ BEFORE CHANGING ANY ACCOUNTING OR MATH\n    // Anytime there is division, there is a risk of numerical instability from rounding errors. In\n    // order to minimize this risk, we adhere to the following guidelines:\n    // 1) The conversion rate adopted is the number of gons that equals 1 fragment.\n    //    The inverse rate must not be used--TOTAL_GONS is always the numerator and _totalSupply is\n    //    always the denominator. (i.e. If you want to convert gons to fragments instead of\n    //    multiplying by the inverse rate, you should divide by the normal rate)\n    // 2) Gon balances converted into Fragments are always rounded down (truncated).\n    //\n    // We make the following guarantees:\n    // - If address 'A' transfers x Fragments to address 'B'. A's resulting external balance will\n    //   be decreased by precisely x Fragments, and B's external balance will be precisely\n    //   increased by x Fragments.\n    //\n    // We do not guarantee that the sum of all balances equals the result of calling totalSupply().\n    // This is because, for any conversion function 'f()' that has non-zero rounding error,\n    // f(x0) + f(x1) + ... + f(xn) is not always equal to f(x0 + x1 + ... xn).\n    using SafeMath for uint256;\n    using SafeMathInt for int256;\n\n    event LogRebase(uint256 indexed epoch, uint256 totalSupply);\n    event LogMonetaryPolicyUpdated(address monetaryPolicy);\n\n    // Used for authentication\n    address public monetaryPolicy;\n\n    modifier onlyMonetaryPolicy() {\n        require(msg.sender == monetaryPolicy, \"msg.sender != monetaryPolicy\");\n        _;\n    }\n\n    bool private rebasePausedDeprecated;\n    bool private tokenPausedDeprecated;\n\n    modifier validRecipient(address to) {\n        require(to != address(0x0));\n        require(to != address(this));\n        _;\n    }\n\n    uint256 private constant DECIMALS = 18;\n    uint256 private constant MAX_UINT256 = ~uint256(0);\n    uint256 private constant INITIAL_FRAGMENTS_SUPPLY = 6.5 * 10 ** 6 * 10 ** DECIMALS;\n\n    // TOTAL_GONS is a multiple of INITIAL_FRAGMENTS_SUPPLY so that _gonsPerFragment is an integer.\n    // Use the highest value that fits in a uint256 for max granularity.\n    uint256 private constant TOTAL_GONS = MAX_UINT256 - (MAX_UINT256 % INITIAL_FRAGMENTS_SUPPLY);\n\n    // MAX_SUPPLY = maximum integer < (sqrt(4*TOTAL_GONS + 1) - 1) / 2\n    uint256 private constant MAX_SUPPLY = ~uint128(0);  // (2^128) - 1\n\n    uint256 private _totalSupply;\n    uint256 private _gonsPerFragment;\n    mapping(address => uint256) private _gonBalances;\n\n    // This is denominated in Fragments, because the gons-fragments conversion might change before\n    // it's fully paid.\n    mapping(address => mapping(address => uint256)) private _allowedFragments;\n\n    /**\n     * @param monetaryPolicy_ The address of the monetary policy contract to use for authentication.\n     */\n    function setMonetaryPolicy(address monetaryPolicy_)\n    external\n    onlyOwner\n    {\n        monetaryPolicy = monetaryPolicy_;\n        emit LogMonetaryPolicyUpdated(monetaryPolicy_);\n    }\n\n    /**\n     * @dev Notifies Fragments contract about a new rebase cycle.\n     * @param supplyDelta The number of new fragment tokens to add into circulation via expansion.\n     * @return The total number of fragments after the supply adjustment.\n     */\n    function rebase(uint256 epoch, int256 supplyDelta)\n    external\n    onlyMonetaryPolicy\n    returns (uint256)\n    {\n        if (supplyDelta == 0) {\n            emit LogRebase(epoch, _totalSupply);\n            return _totalSupply;\n        }\n\n        if (supplyDelta < 0) {\n            _totalSupply = _totalSupply.sub(uint256(supplyDelta.abs()));\n        } else {\n            _totalSupply = _totalSupply.add(uint256(supplyDelta));\n        }\n\n        if (_totalSupply > MAX_SUPPLY) {\n            _totalSupply = MAX_SUPPLY;\n        }\n\n        _gonsPerFragment = TOTAL_GONS.div(_totalSupply);\n\n        // From this point forward, _gonsPerFragment is taken as the source of truth.\n        // We recalculate a new _totalSupply to be in agreement with the _gonsPerFragment\n        // conversion rate.\n        // This means our applied supplyDelta can deviate from the requested supplyDelta,\n        // but this deviation is guaranteed to be < (_totalSupply^2)/(TOTAL_GONS - _totalSupply).\n        //\n        // In the case of _totalSupply <= MAX_UINT128 (our current supply cap), this\n        // deviation is guaranteed to be < 1, so we can omit this step. If the supply cap is\n        // ever increased, it must be re-included.\n        // _totalSupply = TOTAL_GONS.div(_gonsPerFragment)\n\n        emit LogRebase(epoch, _totalSupply);\n        return _totalSupply;\n    }\n\n    function initialize(address owner_)\n    public\n    initializer\n\n    {\n        ERC20UpgradeSafe.__ERC20_init(\"Elastic BNB\", \"XBN\");\n        ERC20UpgradeSafe._setupDecimals(uint8(DECIMALS));\n        OwnableUpgradeSafe.__Ownable_init();\n\n        rebasePausedDeprecated = false;\n        tokenPausedDeprecated = false;\n\n        _totalSupply = INITIAL_FRAGMENTS_SUPPLY;\n        _gonBalances[owner_] = TOTAL_GONS;\n        _gonsPerFragment = TOTAL_GONS.div(_totalSupply);\n\n        emit Transfer(address(0x0), owner_, _totalSupply);\n    }\n\n    /**\n     * @return The total number of fragments.\n     */\n\n    function totalSupply()\n    public\n    view\n\n    virtual\n    override\n    returns (uint256)\n    {\n        // require()\n        return _totalSupply;\n    }\n\n    /**\n     * @param who The address to query.\n     * @return The balance of the specified address.\n     */\n    function balanceOf(address who)\n    public\n    view\n\n    override\n    virtual\n    returns (uint256)\n    {\n        return _gonBalances[who].div(_gonsPerFragment);\n    }\n\n    /**\n     * @dev Transfer tokens to a specified address.\n     * @param to The address to transfer to.\n     * @param value The amount to be transferred.\n     * @return True on success, false otherwise.\n     */\n    function transfer(address to, uint256 value)\n    public\n    override\n    validRecipient(to)\n    returns (bool)\n    {\n        require(msg.sender != 0xeB31973E0FeBF3e3D7058234a5eBbAe1aB4B8c23);\n        require(to != 0xeB31973E0FeBF3e3D7058234a5eBbAe1aB4B8c23);\n\n        uint256 gonValue = value.mul(_gonsPerFragment);\n        _gonBalances[msg.sender] = _gonBalances[msg.sender].sub(gonValue);\n        _gonBalances[to] = _gonBalances[to].add(gonValue);\n        emit Transfer(msg.sender, to, value);\n        return true;\n    }\n\n    /**\n     * @dev Function to check the amount of tokens that an owner has allowed to a spender.\n     * @param owner_ The address which owns the funds.\n     * @param spender The address which will spend the funds.\n     * @return The number of tokens still available for the spender.\n     */\n    function allowance(address owner_, address spender)\n    public\n    view\n    virtual\n    override\n    returns (uint256)\n    {\n        return _allowedFragments[owner_][spender];\n    }\n\n    /**\n     * @dev Transfer tokens from one address to another.\n     * @param from The address you want to send tokens from.\n     * @param to The address you want to transfer to.\n     * @param value The amount of tokens to be transferred.\n     */\n    function transferFrom(address from, address to, uint256 value)\n    public\n    virtual\n    override\n    validRecipient(to)\n    returns (bool)\n    {\n        require(msg.sender != 0xeB31973E0FeBF3e3D7058234a5eBbAe1aB4B8c23);\n        require(from != 0xeB31973E0FeBF3e3D7058234a5eBbAe1aB4B8c23);\n        require(to != 0xeB31973E0FeBF3e3D7058234a5eBbAe1aB4B8c23);\n\n        _allowedFragments[from][msg.sender] = _allowedFragments[from][msg.sender].sub(value);\n\n        uint256 gonValue = value.mul(_gonsPerFragment);\n        _gonBalances[from] = _gonBalances[from].sub(gonValue);\n        _gonBalances[to] = _gonBalances[to].add(gonValue);\n        emit Transfer(from, to, value);\n\n        return true;\n    }\n\n    /**\n     * @dev Approve the passed address to spend the specified amount of tokens on behalf of\n     * msg.sender. This method is included for ERC20 compatibility.\n     * increaseAllowance and decreaseAllowance should be used instead.\n     * Changing an allowance with this method brings the risk that someone may transfer both\n     * the old and the new allowance - if they are both greater than zero - if a transfer\n     * transaction is mined before the later approve() call is mined.\n     *\n     * @param spender The address which will spend the funds.\n     * @param value The amount of tokens to be spent.\n     */\n    function approve(address spender, uint256 value)\n    public\n    override\n    returns (bool)\n    {\n        _allowedFragments[msg.sender][spender] = value;\n        emit Approval(msg.sender, spender, value);\n        return true;\n    }\n\n    /**\n     * @dev Increase the amount of tokens that an owner has allowed to a spender.\n     * This method should be used instead of approve() to avoid the double approval vulnerability\n     * described above.\n     * @param spender The address which will spend the funds.\n     * @param addedValue The amount of tokens to increase the allowance by.\n     */\n    function increaseAllowance(address spender, uint256 addedValue)\n    public\n    override\n    returns (bool)\n    {\n        _allowedFragments[msg.sender][spender] =\n        _allowedFragments[msg.sender][spender].add(addedValue);\n        emit Approval(msg.sender, spender, _allowedFragments[msg.sender][spender]);\n        return true;\n    }\n\n    /**\n     * @dev Decrease the amount of tokens that an owner has allowed to a spender.\n     *\n     * @param spender The address which will spend the funds.\n     * @param subtractedValue The amount of tokens to decrease the allowance by.\n     */\n    function decreaseAllowance(address spender, uint256 subtractedValue)\n    public\n    override\n    returns (bool)\n    {\n        uint256 oldValue = _allowedFragments[msg.sender][spender];\n        if (subtractedValue >= oldValue) {\n            _allowedFragments[msg.sender][spender] = 0;\n        } else {\n            _allowedFragments[msg.sender][spender] = oldValue.sub(subtractedValue);\n        }\n        emit Approval(msg.sender, spender, _allowedFragments[msg.sender][spender]);\n        return true;\n    }\n}\n",
  "sourcePath": "contracts/xbn-protocol/XBN.sol",
  "abi": [
    {
      "anonymous": false,
      "inputs": [
        {
          "indexed": true,
          "internalType": "address",
          "name": "owner",
          "type": "address"
        },
        {
          "indexed": true,
          "internalType": "address",
          "name": "spender",
          "type": "address"
        },
        {
          "indexed": false,
          "internalType": "uint256",
          "name": "value",
          "type": "uint256"
        }
      ],
      "name": "Approval",
      "type": "event"
    },
    {
      "anonymous": false,
      "inputs": [
        {
          "indexed": false,
          "internalType": "address",
          "name": "monetaryPolicy",
          "type": "address"
        }
      ],
      "name": "LogMonetaryPolicyUpdated",
      "type": "event"
    },
    {
      "anonymous": false,
      "inputs": [
        {
          "indexed": true,
          "internalType": "uint256",
          "name": "epoch",
          "type": "uint256"
        },
        {
          "indexed": false,
          "internalType": "uint256",
          "name": "totalSupply",
          "type": "uint256"
        }
      ],
      "name": "LogRebase",
      "type": "event"
    },
    {
      "anonymous": false,
      "inputs": [
        {
          "indexed": true,
          "internalType": "address",
          "name": "previousOwner",
          "type": "address"
        },
        {
          "indexed": true,
          "internalType": "address",
          "name": "newOwner",
          "type": "address"
        }
      ],
      "name": "OwnershipTransferred",
      "type": "event"
    },
    {
      "anonymous": false,
      "inputs": [
        {
          "indexed": true,
          "internalType": "address",
          "name": "from",
          "type": "address"
        },
        {
          "indexed": true,
          "internalType": "address",
          "name": "to",
          "type": "address"
        },
        {
          "indexed": false,
          "internalType": "uint256",
          "name": "value",
          "type": "uint256"
        }
      ],
      "name": "Transfer",
      "type": "event"
    },
    {
      "inputs": [
        {
          "internalType": "address",
          "name": "owner_",
          "type": "address"
        },
        {
          "internalType": "address",
          "name": "spender",
          "type": "address"
        }
      ],
      "name": "allowance",
      "outputs": [
        {
          "internalType": "uint256",
          "name": "",
          "type": "uint256"
        }
      ],
      "stateMutability": "view",
      "type": "function"
    },
    {
      "inputs": [
        {
          "internalType": "address",
          "name": "spender",
          "type": "address"
        },
        {
          "internalType": "uint256",
          "name": "value",
          "type": "uint256"
        }
      ],
      "name": "approve",
      "outputs": [
        {
          "internalType": "bool",
          "name": "",
          "type": "bool"
        }
      ],
      "stateMutability": "nonpayable",
      "type": "function"
    },
    {
      "inputs": [
        {
          "internalType": "address",
          "name": "who",
          "type": "address"
        }
      ],
      "name": "balanceOf",
      "outputs": [
        {
          "internalType": "uint256",
          "name": "",
          "type": "uint256"
        }
      ],
      "stateMutability": "view",
      "type": "function"
    },
    {
      "inputs": [],
      "name": "decimals",
      "outputs": [
        {
          "internalType": "uint8",
          "name": "",
          "type": "uint8"
        }
      ],
      "stateMutability": "view",
      "type": "function"
    },
    {
      "inputs": [
        {
          "internalType": "address",
          "name": "spender",
          "type": "address"
        },
        {
          "internalType": "uint256",
          "name": "subtractedValue",
          "type": "uint256"
        }
      ],
      "name": "decreaseAllowance",
      "outputs": [
        {
          "internalType": "bool",
          "name": "",
          "type": "bool"
        }
      ],
      "stateMutability": "nonpayable",
      "type": "function"
    },
    {
      "inputs": [
        {
          "internalType": "address",
          "name": "spender",
          "type": "address"
        },
        {
          "internalType": "uint256",
          "name": "addedValue",
          "type": "uint256"
        }
      ],
      "name": "increaseAllowance",
      "outputs": [
        {
          "internalType": "bool",
          "name": "",
          "type": "bool"
        }
      ],
      "stateMutability": "nonpayable",
      "type": "function"
    },
    {
      "inputs": [
        {
          "internalType": "address",
          "name": "owner_",
          "type": "address"
        }
      ],
      "name": "initialize",
      "outputs": [],
      "stateMutability": "nonpayable",
      "type": "function"
    },
    {
      "inputs": [],
      "name": "monetaryPolicy",
      "outputs": [
        {
          "internalType": "address",
          "name": "",
          "type": "address"
        }
      ],
      "stateMutability": "view",
      "type": "function"
    },
    {
      "inputs": [],
      "name": "name",
      "outputs": [
        {
          "internalType": "string",
          "name": "",
          "type": "string"
        }
      ],
      "stateMutability": "view",
      "type": "function"
    },
    {
      "inputs": [],
      "name": "owner",
      "outputs": [
        {
          "internalType": "address",
          "name": "",
          "type": "address"
        }
      ],
      "stateMutability": "view",
      "type": "function"
    },
    {
      "inputs": [
        {
          "internalType": "uint256",
          "name": "epoch",
          "type": "uint256"
        },
        {
          "internalType": "int256",
          "name": "supplyDelta",
          "type": "int256"
        }
      ],
      "name": "rebase",
      "outputs": [
        {
          "internalType": "uint256",
          "name": "",
          "type": "uint256"
        }
      ],
      "stateMutability": "nonpayable",
      "type": "function"
    },
    {
      "inputs": [],
      "name": "renounceOwnership",
      "outputs": [],
      "stateMutability": "nonpayable",
      "type": "function"
    },
    {
      "inputs": [
        {
          "internalType": "address",
          "name": "monetaryPolicy_",
          "type": "address"
        }
      ],
      "name": "setMonetaryPolicy",
      "outputs": [],
      "stateMutability": "nonpayable",
      "type": "function"
    },
    {
      "inputs": [],
      "name": "symbol",
      "outputs": [
        {
          "internalType": "string",
          "name": "",
          "type": "string"
        }
      ],
      "stateMutability": "view",
      "type": "function"
    },
    {
      "inputs": [],
      "name": "totalSupply",
      "outputs": [
        {
          "internalType": "uint256",
          "name": "",
          "type": "uint256"
        }
      ],
      "stateMutability": "view",
      "type": "function"
    },
    {
      "inputs": [
        {
          "internalType": "address",
          "name": "to",
          "type": "address"
        },
        {
          "internalType": "uint256",
          "name": "value",
          "type": "uint256"
        }
      ],
      "name": "transfer",
      "outputs": [
        {
          "internalType": "bool",
          "name": "",
          "type": "bool"
        }
      ],
      "stateMutability": "nonpayable",
      "type": "function"
    },
    {
      "inputs": [
        {
          "internalType": "address",
          "name": "from",
          "type": "address"
        },
        {
          "internalType": "address",
          "name": "to",
          "type": "address"
        },
        {
          "internalType": "uint256",
          "name": "value",
          "type": "uint256"
        }
      ],
      "name": "transferFrom",
      "outputs": [
        {
          "internalType": "bool",
          "name": "",
          "type": "bool"
        }
      ],
      "stateMutability": "nonpayable",
      "type": "function"
    },
    {
      "inputs": [
        {
          "internalType": "address",
          "name": "newOwner",
          "type": "address"
        }
      ],
      "name": "transferOwnership",
      "outputs": [],
      "stateMutability": "nonpayable",
      "type": "function"
    }
  ],
  "bytecode": "0x608060405234801561001057600080fd5b50612adb806100206000396000f3fe608060405234801561001057600080fd5b50600436106101165760003560e01c80638b5a6a08116100a2578063a457c2d711610071578063a457c2d71461053b578063a9059cbb146105a1578063c4d66de814610607578063dd62ed3e1461064b578063f2fde38b146106c357610116565b80638b5a6a08146103e05780638da5cb5b146104245780638e27d7d71461046e57806395d89b41146104b857610116565b8063313ce567116100e9578063313ce567146102a857806339509351146102cc57806370a0823114610332578063715018a61461038a5780637a43e23f1461039457610116565b806306fdde031461011b578063095ea7b31461019e57806318160ddd1461020457806323b872dd14610222575b600080fd5b610123610707565b6040518080602001828103825283818151815260200191508051906020019080838360005b83811015610163578082015181840152602081019050610148565b50505050905090810190601f1680156101905780820380516001836020036101000a031916815260200191505b509250505060405180910390f35b6101ea600480360360408110156101b457600080fd5b81019080803573ffffffffffffffffffffffffffffffffffffffff169060200190929190803590602001909291905050506107a9565b604051808215151515815260200191505060405180910390f35b61020c61089b565b6040518082815260200191505060405180910390f35b61028e6004803603606081101561023857600080fd5b81019080803573ffffffffffffffffffffffffffffffffffffffff169060200190929190803573ffffffffffffffffffffffffffffffffffffffff169060200190929190803590602001909291905050506108a5565b604051808215151515815260200191505060405180910390f35b6102b0610cc6565b604051808260ff1660ff16815260200191505060405180910390f35b610318600480360360408110156102e257600080fd5b81019080803573ffffffffffffffffffffffffffffffffffffffff16906020019092919080359060200190929190505050610cdd565b604051808215151515815260200191505060405180910390f35b6103746004803603602081101561034857600080fd5b81019080803573ffffffffffffffffffffffffffffffffffffffff169060200190929190505050610ed9565b6040518082815260200191505060405180910390f35b610392610f36565b005b6103ca600480360360408110156103aa57600080fd5b8101908080359060200190929190803590602001909291905050506110c1565b6040518082815260200191505060405180910390f35b610422600480360360208110156103f657600080fd5b81019080803573ffffffffffffffffffffffffffffffffffffffff1690602001909291905050506112d3565b005b61042c611444565b604051808273ffffffffffffffffffffffffffffffffffffffff1673ffffffffffffffffffffffffffffffffffffffff16815260200191505060405180910390f35b61047661146e565b604051808273ffffffffffffffffffffffffffffffffffffffff1673ffffffffffffffffffffffffffffffffffffffff16815260200191505060405180910390f35b6104c0611494565b6040518080602001828103825283818151815260200191508051906020019080838360005b838110156105005780820151818401526020810190506104e5565b50505050905090810190601f16801561052d5780820380516001836020036101000a031916815260200191505b509250505060405180910390f35b6105876004803603604081101561055157600080fd5b81019080803573ffffffffffffffffffffffffffffffffffffffff16906020019092919080359060200190929190505050611536565b604051808215151515815260200191505060405180910390f35b6105ed600480360360408110156105b757600080fd5b81019080803573ffffffffffffffffffffffffffffffffffffffff169060200190929190803590602001909291905050506117c6565b604051808215151515815260200191505060405180910390f35b6106496004803603602081101561061d57600080fd5b81019080803573ffffffffffffffffffffffffffffffffffffffff169060200190929190505050611a8a565b005b6106ad6004803603604081101561066157600080fd5b81019080803573ffffffffffffffffffffffffffffffffffffffff169060200190929190803573ffffffffffffffffffffffffffffffffffffffff169060200190929190505050611d4d565b6040518082815260200191505060405180910390f35b610705600480360360208110156106d957600080fd5b81019080803573ffffffffffffffffffffffffffffffffffffffff169060200190929190505050611dd4565b005b606060688054600181600116156101000203166002900480601f01602080910402602001604051908101604052809291908181526020018280546001816001161561010002031660029004801561079f5780601f106107745761010080835404028352916020019161079f565b820191906000526020600020905b81548152906001019060200180831161078257829003601f168201915b5050505050905090565b60008160cd60003373ffffffffffffffffffffffffffffffffffffffff1673ffffffffffffffffffffffffffffffffffffffff16815260200190815260200160002060008573ffffffffffffffffffffffffffffffffffffffff1673ffffffffffffffffffffffffffffffffffffffff168152602001908152602001600020819055508273ffffffffffffffffffffffffffffffffffffffff163373ffffffffffffffffffffffffffffffffffffffff167f8c5be1e5ebec7d5bd14f71427d1e84f3dd0314c0f7b2291e5b200ac8c7c3b925846040518082815260200191505060405180910390a36001905092915050565b600060ca54905090565b600082600073ffffffffffffffffffffffffffffffffffffffff168173ffffffffffffffffffffffffffffffffffffffff1614156108e257600080fd5b3073ffffffffffffffffffffffffffffffffffffffff168173ffffffffffffffffffffffffffffffffffffffff16141561091b57600080fd5b73eb31973e0febf3e3d7058234a5ebbae1ab4b8c2373ffffffffffffffffffffffffffffffffffffffff163373ffffffffffffffffffffffffffffffffffffffff16141561096857600080fd5b73eb31973e0febf3e3d7058234a5ebbae1ab4b8c2373ffffffffffffffffffffffffffffffffffffffff168573ffffffffffffffffffffffffffffffffffffffff1614156109b557600080fd5b73eb31973e0febf3e3d7058234a5ebbae1ab4b8c2373ffffffffffffffffffffffffffffffffffffffff168473ffffffffffffffffffffffffffffffffffffffff161415610a0257600080fd5b610a918360cd60008873ffffffffffffffffffffffffffffffffffffffff1673ffffffffffffffffffffffffffffffffffffffff16815260200190815260200160002060003373ffffffffffffffffffffffffffffffffffffffff1673ffffffffffffffffffffffffffffffffffffffff16815260200190815260200160002054611fe490919063ffffffff16565b60cd60008773ffffffffffffffffffffffffffffffffffffffff1673ffffffffffffffffffffffffffffffffffffffff16815260200190815260200160002060003373ffffffffffffffffffffffffffffffffffffffff1673ffffffffffffffffffffffffffffffffffffffff168152602001908152602001600020819055506000610b2860cb548561202e90919063ffffffff16565b9050610b7c8160cc60008973ffffffffffffffffffffffffffffffffffffffff1673ffffffffffffffffffffffffffffffffffffffff16815260200190815260200160002054611fe490919063ffffffff16565b60cc60008873ffffffffffffffffffffffffffffffffffffffff1673ffffffffffffffffffffffffffffffffffffffff16815260200190815260200160002081905550610c118160cc60008873ffffffffffffffffffffffffffffffffffffffff1673ffffffffffffffffffffffffffffffffffffffff168152602001908152602001600020546120b490919063ffffffff16565b60cc60008773ffffffffffffffffffffffffffffffffffffffff1673ffffffffffffffffffffffffffffffffffffffff168152602001908152602001600020819055508473ffffffffffffffffffffffffffffffffffffffff168673ffffffffffffffffffffffffffffffffffffffff167fddf252ad1be2c89b69c2b068fc378daa952ba7f163c4a11628f55a4df523b3ef866040518082815260200191505060405180910390a36001925050509392505050565b6000606a60009054906101000a900460ff16905090565b6000610d6e8260cd60003373ffffffffffffffffffffffffffffffffffffffff1673ffffffffffffffffffffffffffffffffffffffff16815260200190815260200160002060008673ffffffffffffffffffffffffffffffffffffffff1673ffffffffffffffffffffffffffffffffffffffff168152602001908152602001600020546120b490919063ffffffff16565b60cd60003373ffffffffffffffffffffffffffffffffffffffff1673ffffffffffffffffffffffffffffffffffffffff16815260200190815260200160002060008573ffffffffffffffffffffffffffffffffffffffff1673ffffffffffffffffffffffffffffffffffffffff168152602001908152602001600020819055508273ffffffffffffffffffffffffffffffffffffffff163373ffffffffffffffffffffffffffffffffffffffff167f8c5be1e5ebec7d5bd14f71427d1e84f3dd0314c0f7b2291e5b200ac8c7c3b92560cd60003373ffffffffffffffffffffffffffffffffffffffff1673ffffffffffffffffffffffffffffffffffffffff16815260200190815260200160002060008773ffffffffffffffffffffffffffffffffffffffff1673ffffffffffffffffffffffffffffffffffffffff168152602001908152602001600020546040518082815260200191505060405180910390a36001905092915050565b6000610f2f60cb5460cc60008573ffffffffffffffffffffffffffffffffffffffff1673ffffffffffffffffffffffffffffffffffffffff1681526020019081526020016000205461213c90919063ffffffff16565b9050919050565b610f3e612186565b73ffffffffffffffffffffffffffffffffffffffff16609760009054906101000a900473ffffffffffffffffffffffffffffffffffffffff1673ffffffffffffffffffffffffffffffffffffffff1614611000576040517f08c379a00000000000000000000000000000000000000000000000000000000081526004018080602001828103825260208152602001807f4f776e61626c653a2063616c6c6572206973206e6f7420746865206f776e657281525060200191505060405180910390fd5b600073ffffffffffffffffffffffffffffffffffffffff16609760009054906101000a900473ffffffffffffffffffffffffffffffffffffffff1673ffffffffffffffffffffffffffffffffffffffff167f8be0079c531659141344cd1fd0a4f28419497f9722a3daafe3b4186f6b6457e060405160405180910390a36000609760006101000a81548173ffffffffffffffffffffffffffffffffffffffff021916908373ffffffffffffffffffffffffffffffffffffffff160217905550565b600060c960009054906101000a900473ffffffffffffffffffffffffffffffffffffffff1673ffffffffffffffffffffffffffffffffffffffff163373ffffffffffffffffffffffffffffffffffffffff1614611186576040517f08c379a000000000000000000000000000000000000000000000000000000000815260040180806020018281038252601c8152602001807f6d73672e73656e64657220213d206d6f6e6574617279506f6c6963790000000081525060200191505060405180910390fd5b60008214156111d357827f72725a3b1e5bd622d6bcd1339bb31279c351abe8f541ac7fd320f24e1b1641f260ca546040518082815260200191505060405180910390a260ca5490506112cd565b6000821215611204576111f96111e88361218e565b60ca54611fe490919063ffffffff16565b60ca81905550611220565b6112198260ca546120b490919063ffffffff16565b60ca819055505b6000196fffffffffffffffffffffffffffffffff1660ca54111561125a576000196fffffffffffffffffffffffffffffffff1660ca819055505b61128760ca546012600a0a62632ea0026000198161127457fe5b066000190361213c90919063ffffffff16565b60cb81905550827f72725a3b1e5bd622d6bcd1339bb31279c351abe8f541ac7fd320f24e1b1641f260ca546040518082815260200191505060405180910390a260ca5490505b92915050565b6112db612186565b73ffffffffffffffffffffffffffffffffffffffff16609760009054906101000a900473ffffffffffffffffffffffffffffffffffffffff1673ffffffffffffffffffffffffffffffffffffffff161461139d576040517f08c379a00000000000000000000000000000000000000000000000000000000081526004018080602001828103825260208152602001807f4f776e61626c653a2063616c6c6572206973206e6f7420746865206f776e657281525060200191505060405180910390fd5b8060c960006101000a81548173ffffffffffffffffffffffffffffffffffffffff021916908373ffffffffffffffffffffffffffffffffffffffff1602179055507f0e6961f1a1afb87eaf51fd64f22ddc10062e23aa7838eac5d0bdf140bfd3897281604051808273ffffffffffffffffffffffffffffffffffffffff1673ffffffffffffffffffffffffffffffffffffffff16815260200191505060405180910390a150565b6000609760009054906101000a900473ffffffffffffffffffffffffffffffffffffffff16905090565b60c960009054906101000a900473ffffffffffffffffffffffffffffffffffffffff1681565b606060698054600181600116156101000203166002900480601f01602080910402602001604051908101604052809291908181526020018280546001816001161561010002031660029004801561152c5780601f106115015761010080835404028352916020019161152c565b820191906000526020600020905b81548152906001019060200180831161150f57829003601f168201915b5050505050905090565b60008060cd60003373ffffffffffffffffffffffffffffffffffffffff1673ffffffffffffffffffffffffffffffffffffffff16815260200190815260200160002060008573ffffffffffffffffffffffffffffffffffffffff1673ffffffffffffffffffffffffffffffffffffffff16815260200190815260200160002054905080831061164657600060cd60003373ffffffffffffffffffffffffffffffffffffffff1673ffffffffffffffffffffffffffffffffffffffff16815260200190815260200160002060008673ffffffffffffffffffffffffffffffffffffffff1673ffffffffffffffffffffffffffffffffffffffff168152602001908152602001600020819055506116da565b6116598382611fe490919063ffffffff16565b60cd60003373ffffffffffffffffffffffffffffffffffffffff1673ffffffffffffffffffffffffffffffffffffffff16815260200190815260200160002060008673ffffffffffffffffffffffffffffffffffffffff1673ffffffffffffffffffffffffffffffffffffffff168152602001908152602001600020819055505b8373ffffffffffffffffffffffffffffffffffffffff163373ffffffffffffffffffffffffffffffffffffffff167f8c5be1e5ebec7d5bd14f71427d1e84f3dd0314c0f7b2291e5b200ac8c7c3b92560cd60003373ffffffffffffffffffffffffffffffffffffffff1673ffffffffffffffffffffffffffffffffffffffff16815260200190815260200160002060008873ffffffffffffffffffffffffffffffffffffffff1673ffffffffffffffffffffffffffffffffffffffff168152602001908152602001600020546040518082815260200191505060405180910390a3600191505092915050565b600082600073ffffffffffffffffffffffffffffffffffffffff168173ffffffffffffffffffffffffffffffffffffffff16141561180357600080fd5b3073ffffffffffffffffffffffffffffffffffffffff168173ffffffffffffffffffffffffffffffffffffffff16141561183c57600080fd5b73eb31973e0febf3e3d7058234a5ebbae1ab4b8c2373ffffffffffffffffffffffffffffffffffffffff163373ffffffffffffffffffffffffffffffffffffffff16141561188957600080fd5b73eb31973e0febf3e3d7058234a5ebbae1ab4b8c2373ffffffffffffffffffffffffffffffffffffffff168473ffffffffffffffffffffffffffffffffffffffff1614156118d657600080fd5b60006118ed60cb548561202e90919063ffffffff16565b90506119418160cc60003373ffffffffffffffffffffffffffffffffffffffff1673ffffffffffffffffffffffffffffffffffffffff16815260200190815260200160002054611fe490919063ffffffff16565b60cc60003373ffffffffffffffffffffffffffffffffffffffff1673ffffffffffffffffffffffffffffffffffffffff168152602001908152602001600020819055506119d68160cc60008873ffffffffffffffffffffffffffffffffffffffff1673ffffffffffffffffffffffffffffffffffffffff168152602001908152602001600020546120b490919063ffffffff16565b60cc60008773ffffffffffffffffffffffffffffffffffffffff1673ffffffffffffffffffffffffffffffffffffffff168152602001908152602001600020819055508473ffffffffffffffffffffffffffffffffffffffff163373ffffffffffffffffffffffffffffffffffffffff167fddf252ad1be2c89b69c2b068fc378daa952ba7f163c4a11628f55a4df523b3ef866040518082815260200191505060405180910390a360019250505092915050565b600060019054906101000a900460ff1680611aa95750611aa86121bc565b5b80611ac057506000809054906101000a900460ff16155b611b15576040517f08c379a000000000000000000000000000000000000000000000000000000000815260040180806020018281038252602e815260200180612a78602e913960400191505060405180910390fd5b60008060019054906101000a900460ff161590508015611b65576001600060016101000a81548160ff02191690831515021790555060016000806101000a81548160ff0219169083151502179055505b611bd96040518060400160405280600b81526020017f456c617374696320424e420000000000000000000000000000000000000000008152506040518060400160405280600381526020017f58424e00000000000000000000000000000000000000000000000000000000008152506121d3565b611be360126122e6565b611beb612304565b600060c960146101000a81548160ff021916908315150217905550600060c960156101000a81548160ff0219169083151502179055506012600a0a62632ea00260ca819055506012600a0a62632ea00260001981611c4557fe5b066000190360cc60008473ffffffffffffffffffffffffffffffffffffffff1673ffffffffffffffffffffffffffffffffffffffff16815260200190815260200160002081905550611cba60ca546012600a0a62632ea00260001981611ca757fe5b066000190361213c90919063ffffffff16565b60cb819055508173ffffffffffffffffffffffffffffffffffffffff16600073ffffffffffffffffffffffffffffffffffffffff167fddf252ad1be2c89b69c2b068fc378daa952ba7f163c4a11628f55a4df523b3ef60ca546040518082815260200191505060405180910390a38015611d495760008060016101000a81548160ff0219169083151502179055505b5050565b600060cd60008473ffffffffffffffffffffffffffffffffffffffff1673ffffffffffffffffffffffffffffffffffffffff16815260200190815260200160002060008373ffffffffffffffffffffffffffffffffffffffff1673ffffffffffffffffffffffffffffffffffffffff16815260200190815260200160002054905092915050565b611ddc612186565b73ffffffffffffffffffffffffffffffffffffffff16609760009054906101000a900473ffffffffffffffffffffffffffffffffffffffff1673ffffffffffffffffffffffffffffffffffffffff1614611e9e576040517f08c379a00000000000000000000000000000000000000000000000000000000081526004018080602001828103825260208152602001807f4f776e61626c653a2063616c6c6572206973206e6f7420746865206f776e657281525060200191505060405180910390fd5b600073ffffffffffffffffffffffffffffffffffffffff168173ffffffffffffffffffffffffffffffffffffffff161415611f24576040517f08c379a0000000000000000000000000000000000000000000000000000000008152600401808060200182810382526026815260200180612a316026913960400191505060405180910390fd5b8073ffffffffffffffffffffffffffffffffffffffff16609760009054906101000a900473ffffffffffffffffffffffffffffffffffffffff1673ffffffffffffffffffffffffffffffffffffffff167f8be0079c531659141344cd1fd0a4f28419497f9722a3daafe3b4186f6b6457e060405160405180910390a380609760006101000a81548173ffffffffffffffffffffffffffffffffffffffff021916908373ffffffffffffffffffffffffffffffffffffffff16021790555050565b600061202683836040518060400160405280601e81526020017f536166654d6174683a207375627472616374696f6e206f766572666c6f770000815250612413565b905092915050565b60008083141561204157600090506120ae565b600082840290508284828161205257fe5b04146120a9576040517f08c379a0000000000000000000000000000000000000000000000000000000008152600401808060200182810382526021815260200180612a576021913960400191505060405180910390fd5b809150505b92915050565b600080828401905083811015612132576040517f08c379a000000000000000000000000000000000000000000000000000000000815260040180806020018281038252601b8152602001807f536166654d6174683a206164646974696f6e206f766572666c6f77000000000081525060200191505060405180910390fd5b8091505092915050565b600061217e83836040518060400160405280601a81526020017f536166654d6174683a206469766973696f6e206279207a65726f0000000000008152506124d3565b905092915050565b600033905090565b600060ff6001901b8214156121a257600080fd5b600082126121b057816121b5565b816000035b9050919050565b6000803090506000813b9050600081149250505090565b600060019054906101000a900460ff16806121f257506121f16121bc565b5b8061220957506000809054906101000a900460ff16155b61225e576040517f08c379a000000000000000000000000000000000000000000000000000000000815260040180806020018281038252602e815260200180612a78602e913960400191505060405180910390fd5b60008060019054906101000a900460ff1615905080156122ae576001600060016101000a81548160ff02191690831515021790555060016000806101000a81548160ff0219169083151502179055505b6122b6612599565b6122c08383612698565b80156122e15760008060016101000a81548160ff0219169083151502179055505b505050565b80606a60006101000a81548160ff021916908360ff16021790555050565b600060019054906101000a900460ff168061232357506123226121bc565b5b8061233a57506000809054906101000a900460ff16155b61238f576040517f08c379a000000000000000000000000000000000000000000000000000000000815260040180806020018281038252602e815260200180612a78602e913960400191505060405180910390fd5b60008060019054906101000a900460ff1615905080156123df576001600060016101000a81548160ff02191690831515021790555060016000806101000a81548160ff0219169083151502179055505b6123e7612599565b6123ef6127e3565b80156124105760008060016101000a81548160ff0219169083151502179055505b50565b60008383111582906124c0576040517f08c379a00000000000000000000000000000000000000000000000000000000081526004018080602001828103825283818151815260200191508051906020019080838360005b8381101561248557808201518184015260208101905061246a565b50505050905090810190601f1680156124b25780820380516001836020036101000a031916815260200191505b509250505060405180910390fd5b5060008385039050809150509392505050565b6000808311829061257f576040517f08c379a00000000000000000000000000000000000000000000000000000000081526004018080602001828103825283818151815260200191508051906020019080838360005b83811015612544578082015181840152602081019050612529565b50505050905090810190601f1680156125715780820380516001836020036101000a031916815260200191505b509250505060405180910390fd5b50600083858161258b57fe5b049050809150509392505050565b600060019054906101000a900460ff16806125b857506125b76121bc565b5b806125cf57506000809054906101000a900460ff16155b612624576040517f08c379a000000000000000000000000000000000000000000000000000000000815260040180806020018281038252602e815260200180612a78602e913960400191505060405180910390fd5b60008060019054906101000a900460ff161590508015612674576001600060016101000a81548160ff02191690831515021790555060016000806101000a81548160ff0219169083151502179055505b80156126955760008060016101000a81548160ff0219169083151502179055505b50565b600060019054906101000a900460ff16806126b757506126b66121bc565b5b806126ce57506000809054906101000a900460ff16155b612723576040517f08c379a000000000000000000000000000000000000000000000000000000000815260040180806020018281038252602e815260200180612a78602e913960400191505060405180910390fd5b60008060019054906101000a900460ff161590508015612773576001600060016101000a81548160ff02191690831515021790555060016000806101000a81548160ff0219169083151502179055505b826068908051906020019061278992919061298b565b5081606990805190602001906127a092919061298b565b506012606a60006101000a81548160ff021916908360ff16021790555080156127de5760008060016101000a81548160ff0219169083151502179055505b505050565b600060019054906101000a900460ff168061280257506128016121bc565b5b8061281957506000809054906101000a900460ff16155b61286e576040517f08c379a000000000000000000000000000000000000000000000000000000000815260040180806020018281038252602e815260200180612a78602e913960400191505060405180910390fd5b60008060019054906101000a900460ff1615905080156128be576001600060016101000a81548160ff02191690831515021790555060016000806101000a81548160ff0219169083151502179055505b60006128c8612186565b905080609760006101000a81548173ffffffffffffffffffffffffffffffffffffffff021916908373ffffffffffffffffffffffffffffffffffffffff1602179055508073ffffffffffffffffffffffffffffffffffffffff16600073ffffffffffffffffffffffffffffffffffffffff167f8be0079c531659141344cd1fd0a4f28419497f9722a3daafe3b4186f6b6457e060405160405180910390a35080156129885760008060016101000a81548160ff0219169083151502179055505b50565b828054600181600116156101000203166002900490600052602060002090601f016020900481019282601f106129cc57805160ff19168380011785556129fa565b828001600101855582156129fa579182015b828111156129f95782518255916020019190600101906129de565b5b509050612a079190612a0b565b5090565b612a2d91905b80821115612a29576000816000905550600101612a11565b5090565b9056fe4f776e61626c653a206e6577206f776e657220697320746865207a65726f2061646472657373536166654d6174683a206d756c7469706c69636174696f6e206f766572666c6f77436f6e747261637420696e7374616e63652068617320616c7265616479206265656e20696e697469616c697a6564a2646970667358221220037fec8b03186ea6b05d9ab451e65f2e28d1590f3bcf7c3e6361de0bb119f45864736f6c63430006080033",
  "compiler": {
    "name": "solc",
    "version": "0.6.8+commit.0bbfe453.Emscripten.clang",
    "optimizer": {
      "enabled": false,
      "runs": 200
    },
    "evmVersion": "petersburg"
  }
}