{
  "contractName": "XDrop",
  "abi": [
    {
      "anonymous": false,
      "inputs": [
        {
          "indexed": true,
          "internalType": "address",
          "name": "previousOwner",
          "type": "address"
        },
        {
          "indexed": true,
          "internalType": "address",
          "name": "newOwner",
          "type": "address"
        }
      ],
      "name": "OwnershipTransferred",
      "type": "event"
    },
    {
      "inputs": [],
      "name": "owner",
      "outputs": [
        {
          "internalType": "address",
          "name": "",
          "type": "address"
        }
      ],
      "stateMutability": "view",
      "type": "function",
      "constant": true
    },
    {
      "inputs": [],
      "name": "pancakeRouter",
      "outputs": [
        {
          "internalType": "contract IPancakeRouter02",
          "name": "",
          "type": "address"
        }
      ],
      "stateMutability": "view",
      "type": "function",
      "constant": true
    },
    {
      "inputs": [],
      "name": "renounceOwnership",
      "outputs": [],
      "stateMutability": "nonpayable",
      "type": "function"
    },
    {
      "inputs": [
        {
          "internalType": "address",
          "name": "newOwner",
          "type": "address"
        }
      ],
      "name": "transferOwnership",
      "outputs": [],
      "stateMutability": "nonpayable",
      "type": "function"
    },
    {
      "inputs": [
        {
          "internalType": "address payable",
          "name": "routerAddress",
          "type": "address"
        }
      ],
      "name": "initialize",
      "outputs": [],
      "stateMutability": "nonpayable",
      "type": "function"
    },
    {
      "inputs": [
        {
          "internalType": "uint256",
          "name": "_bonusRate",
          "type": "uint256"
        }
      ],
      "name": "setBonusRate",
      "outputs": [],
      "stateMutability": "nonpayable",
      "type": "function"
    },
    {
      "inputs": [
        {
          "internalType": "uint256",
          "name": "_amount",
          "type": "uint256"
        },
        {
          "internalType": "address",
          "name": "_token",
          "type": "address"
        }
      ],
      "name": "getReturnAmount",
      "outputs": [
        {
          "internalType": "uint256",
          "name": "",
          "type": "uint256"
        }
      ],
      "stateMutability": "view",
      "type": "function",
      "constant": true
    },
    {
      "inputs": [
        {
          "internalType": "address",
          "name": "_token",
          "type": "address"
        },
        {
          "internalType": "address",
          "name": "ref",
          "type": "address"
        }
      ],
      "name": "distributeTokens",
      "outputs": [],
      "stateMutability": "payable",
      "type": "function",
      "payable": true
    },
    {
      "inputs": [
        {
          "internalType": "address",
          "name": "_token",
          "type": "address"
        }
      ],
      "name": "approveSwap",
      "outputs": [],
      "stateMutability": "nonpayable",
      "type": "function"
    },
    {
      "inputs": [
        {
          "internalType": "address payable",
          "name": "routerAddress",
          "type": "address"
        }
      ],
      "name": "setRouter",
      "outputs": [],
      "stateMutability": "nonpayable",
      "type": "function"
    },
    {
      "inputs": [
        {
          "internalType": "address",
          "name": "tokenAddress",
          "type": "address"
        },
        {
          "internalType": "uint256",
          "name": "amount",
          "type": "uint256"
        }
      ],
      "name": "withdrawErc20",
      "outputs": [],
      "stateMutability": "nonpayable",
      "type": "function"
    },
    {
      "inputs": [],
      "name": "emergencyBNBWithdraw",
      "outputs": [],
      "stateMutability": "nonpayable",
      "type": "function"
    }
  ],
  "bytecode": "0x608060405234801561001057600080fd5b50611383806100206000396000f3fe6080604052600436106100a75760003560e01c8063c21ebd0711610064578063c21ebd0714610161578063c4d66de814610176578063e4fcf32914610196578063f2fde38b146101b6578063f57c70ec146101d6578063fe7c1efc14610203576100a7565b80631cb9ca07146100ac578063715018a6146100c15780638da5cb5b146100d65780639f08b31914610101578063bd1f4b5214610121578063c0d7865514610141575b600080fd5b6100bf6100ba366004610f0f565b610218565b005b3480156100cd57600080fd5b506100bf6104e7565b3480156100e257600080fd5b506100eb610532565b6040516100f8919061110c565b60405180910390f35b34801561010d57600080fd5b506100bf61011c366004610ed7565b610541565b34801561012d57600080fd5b506100bf61013c366004610f47565b6105ce565b34801561014d57600080fd5b506100bf61015c366004610ed7565b6106a5565b34801561016d57600080fd5b506100eb610706565b34801561018257600080fd5b506100bf610191366004610ed7565b610715565b3480156101a257600080fd5b506100bf6101b136600461104c565b6107ae565b3480156101c257600080fd5b506100bf6101d1366004610ed7565b6107f2565b3480156101e257600080fd5b506101f66101f136600461107c565b610863565b6040516100f89190611103565b34801561020f57600080fd5b506100bf610a2b565b610226565b60405180910390fd5b6040516370a0823160e01b815282906000906001600160a01b038316906370a082319061025790309060040161110c565b60206040518083038186803b15801561026f57600080fd5b505afa158015610283573d6000803e3d6000fd5b505050506040513d601f19601f820116820180604052508101906102a79190611064565b905060006102b53486610863565b90506802b5e3af16b1880000808211156102cd578091505b60006102db60016005610ae6565b9050600061030260646102fc846066546102f59190611280565b8790610bd8565b90610beb565b9050600061031560646102fc8786610bd8565b9050806103228387611280565b61032c9190611280565b8610610452576001600160a01b03871663a9059cbb3361034c8589611280565b6040518363ffffffff1660e01b8152600401610369929190611120565b602060405180830381600087803b15801561038357600080fd5b505af1158015610397573d6000803e3d6000fd5b505050506040513d601f19601f820116820180604052508101906103bb919061102c565b506001600160a01b0388161561044d5760405163a9059cbb60e01b81526001600160a01b0388169063a9059cbb906103f9908b908590600401611120565b602060405180830381600087803b15801561041357600080fd5b505af1158015610427573d6000803e3d6000fd5b505050506040513d601f19601f8201168201806040525081019061044b919061102c565b505b6104dc565b60405163a9059cbb60e01b81526001600160a01b0388169063a9059cbb906104809033908a90600401611120565b602060405180830381600087803b15801561049a57600080fd5b505af11580156104ae573d6000803e3d6000fd5b505050506040513d601f19601f820116820180604052508101906104d2919061102c565b506104dc89610bf7565b505050505050505050565b6104ef610d91565b6001600160a01b0316610500610532565b6001600160a01b0316146105265760405162461bcd60e51b815260040161021d90611232565b6105306000610d95565b565b6033546001600160a01b031690565b60655460405163095ea7b360e01b8152600019916001600160a01b038085169263095ea7b3926105779216908590600401611120565b602060405180830381600087803b15801561059157600080fd5b505af11580156105a5573d6000803e3d6000fd5b505050506040513d601f19601f820116820180604052508101906105c9919061102c565b505050565b6105d6610d91565b6001600160a01b03166105e7610532565b6001600160a01b03161461060d5760405162461bcd60e51b815260040161021d90611232565b816001600160a01b03811663a9059cbb3361063085670de0b6b3a76400006112ac565b6040518363ffffffff1660e01b815260040161064d929190611120565b602060405180830381600087803b15801561066757600080fd5b505af115801561067b573d6000803e3d6000fd5b505050506040513d601f19601f8201168201806040525081019061069f919061102c565b50505050565b6106ad610d91565b6001600160a01b03166106be610532565b6001600160a01b0316146106e45760405162461bcd60e51b815260040161021d90611232565b606580546001600160a01b0319166001600160a01b0392909216919091179055565b6065546001600160a01b031681565b600054610100900460ff168061072e575060005460ff16155b61074a5760405162461bcd60e51b815260040161021d906111b4565b600054610100900460ff16158015610775576000805460ff1961ff0019909116610100171660011790555b61077d610de7565b610785610e5b565b61078e826106a5565b610798600a6107ae565b80156107aa576000805461ff00191690555b5050565b6107b6610d91565b6001600160a01b03166107c7610532565b6001600160a01b0316146107ed5760405162461bcd60e51b815260040161021d90611232565b606655565b6107fa610d91565b6001600160a01b031661080b610532565b6001600160a01b0316146108315760405162461bcd60e51b815260040161021d90611232565b6001600160a01b0381166108575760405162461bcd60e51b815260040161021d9061116e565b61086081610d95565b50565b604080516002808252606082018352600092839291906020830190803683375050606554604080516315ab88c960e31b815290519394506001600160a01b039091169263ad5c464892506004808301926020929190829003018186803b1580156108cc57600080fd5b505afa1580156108e0573d6000803e3d6000fd5b505050506040513d601f19601f820116820180604052508101906109049190610ef3565b8160008151811061092557634e487b7160e01b600052603260045260246000fd5b60200260200101906001600160a01b031690816001600160a01b031681525050828160018151811061096757634e487b7160e01b600052603260045260246000fd5b6001600160a01b03928316602091820292909201015260655460405163d06ca61f60e01b815291169063d06ca61f906109a69087908590600401611267565b60006040518083038186803b1580156109be57600080fd5b505afa1580156109d2573d6000803e3d6000fd5b505050506040513d6000823e601f3d908101601f191682016040526109fa9190810190610f72565b600181518110610a1a57634e487b7160e01b600052603260045260246000fd5b602002602001015191505092915050565b610a33610d91565b6001600160a01b0316610a44610532565b6001600160a01b031614610a6a5760405162461bcd60e51b815260040161021d90611232565b6000336001600160a01b031647604051610a8390611100565b60006040518083038185875af1925050503d8060008114610ac0576040519150601f19603f3d011682016040523d82523d6000602084013e610ac5565b606091505b50509050806108605760405162461bcd60e51b815260040161021d90611202565b600080434233604051602001610afc91906110e3565b6040516020818303038152906040528051906020012060001c610b1f9190611298565b454241604051602001610b3291906110e3565b6040516020818303038152906040528051906020012060001c610b559190611298565b610b5f4442611280565b610b699190611280565b610b739190611280565b610b7d9190611280565b610b879190611280565b604051602001610b979190611103565b60408051601f198184030181529190528051602090910120905083610bc6610bbf82866112cb565b8390610ecb565b610bd09190611280565b949350505050565b6000610be482846112ac565b9392505050565b6000610be48284611298565b6040805160028082526060820183526000926020830190803683375050606554604080516315ab88c960e31b815290519394506001600160a01b039091169263ad5c464892506004808301926020929190829003018186803b158015610c5c57600080fd5b505afa158015610c70573d6000803e3d6000fd5b505050506040513d601f19601f82011682018060405250810190610c949190610ef3565b81600081518110610cb557634e487b7160e01b600052603260045260246000fd5b60200260200101906001600160a01b031690816001600160a01b0316815250508181600181518110610cf757634e487b7160e01b600052603260045260246000fd5b6001600160a01b0392831660209182029290920101526065541663b6f9de95610d2c6002610d26476003610beb565b90610bd8565b60008430610d3c42610168611280565b6040518663ffffffff1660e01b8152600401610d5b9493929190611139565b6000604051808303818588803b158015610d7457600080fd5b505af1158015610d88573d6000803e3d6000fd5b50505050505050565b3390565b603380546001600160a01b038381166001600160a01b0319831681179093556040519116919082907f8be0079c531659141344cd1fd0a4f28419497f9722a3daafe3b4186f6b6457e090600090a35050565b600054610100900460ff1680610e00575060005460ff16155b610e1c5760405162461bcd60e51b815260040161021d906111b4565b600054610100900460ff16158015610e47576000805460ff1961ff0019909116610100171660011790555b8015610860576000805461ff001916905550565b600054610100900460ff1680610e74575060005460ff16155b610e905760405162461bcd60e51b815260040161021d906111b4565b600054610100900460ff16158015610ebb576000805460ff1961ff0019909116610100171660011790555b610e47610ec6610d91565b610d95565b6000610be482846112e2565b600060208284031215610ee8578081fd5b8135610be481611338565b600060208284031215610f04578081fd5b8151610be481611338565b60008060408385031215610f21578081fd5b8235610f2c81611338565b91506020830135610f3c81611338565b809150509250929050565b60008060408385031215610f59578182fd5b8235610f6481611338565b946020939093013593505050565b60006020808385031215610f84578182fd5b825167ffffffffffffffff80821115610f9b578384fd5b818501915085601f830112610fae578384fd5b815181811115610fc057610fc0611322565b83810260405185828201018181108582111715610fdf57610fdf611322565b604052828152858101935084860182860187018a1015610ffd578788fd5b8795505b8386101561101f578051855260019590950194938601938601611001565b5098975050505050505050565b60006020828403121561103d578081fd5b81518015158114610be4578182fd5b60006020828403121561105d578081fd5b5035919050565b600060208284031215611075578081fd5b5051919050565b6000806040838503121561108e578182fd5b823591506020830135610f3c81611338565b6000815180845260208085019450808401835b838110156110d85781516001600160a01b0316875295820195908201906001016110b3565b509495945050505050565b60609190911b6bffffffffffffffffffffffff1916815260140190565b90565b90815260200190565b6001600160a01b0391909116815260200190565b6001600160a01b03929092168252602082015260400190565b60008582526080602083015261115260808301866110a0565b6001600160a01b03949094166040830152506060015292915050565b60208082526026908201527f4f776e61626c653a206e6577206f776e657220697320746865207a65726f206160408201526564647265737360d01b606082015260800190565b6020808252602e908201527f496e697469616c697a61626c653a20636f6e747261637420697320616c72656160408201526d191e481a5b9a5d1a585b1a5e995960921b606082015260800190565b6020808252601690820152754572726f723a2043616e6e6f7420776974686472617760501b604082015260600190565b6020808252818101527f4f776e61626c653a2063616c6c6572206973206e6f7420746865206f776e6572604082015260600190565b600083825260406020830152610bd060408301846110a0565b60008219821115611293576112936112f6565b500190565b6000826112a7576112a761130c565b500490565b60008160001904831182151516156112c6576112c66112f6565b500290565b6000828210156112dd576112dd6112f6565b500390565b6000826112f1576112f161130c565b500690565b634e487b7160e01b600052601160045260246000fd5b634e487b7160e01b600052601260045260246000fd5b634e487b7160e01b600052604160045260246000fd5b6001600160a01b038116811461086057600080fdfea2646970667358221220491ebc9f53788a59f8b97ec2992c12fdaf6252c3c6af13606c642cbd725cfc3e64736f6c63430008000033",
  "immutableReferences": {},
  "source": "// SPDX-License-Identifier: UNLICENSED\npragma solidity ^0.8.0;\npragma experimental ABIEncoderV2;\n\n// import \"./lib/Utils.sol\";\nimport \"./lib/IBEP20.sol\";\n\nimport \"@openzeppelin/contracts-upgradeable/access/OwnableUpgradeable.sol\";\nimport \"@openzeppelin/contracts/utils/math/SafeMath.sol\";\nimport \"./lib/IPancakeRouter02.sol\";\nimport \"./lib/IPancakePair.sol\";\n\ncontract XDrop is OwnableUpgradeable {\n    using SafeMath for uint256;\n    // IBEP20 public tokenInstance;\n\n    // address private owner;\n    // address payable private foundationAddress;\n\n    IPancakeRouter02 public pancakeRouter;\n    // IPancakePair public pancakePair;\n    // address public primaryToken;\n\n    uint256 bonusRate;\n\n    function initialize(address payable routerAddress) public initializer {\n        __Context_init_unchained();\n        __Ownable_init_unchained();\n\n        // set token instance\n        // setPrimaryToken(_tokenInstance);\n\n        // set foundation address\n        // setFoundationAddress(_foundationAddress);\n\n        // pancake router binding\n        setRouter(routerAddress);\n        setBonusRate(10);\n    }\n\n    // fallback() external payable {\n    //     // allow receive BNB\n    // }\n\n    function setBonusRate(uint256 _bonusRate) public onlyOwner {\n        bonusRate = _bonusRate;\n    }\n\n    function random(uint256 from, uint256 to) private view returns (uint256) {\n        uint256 seed = uint256(\n            keccak256(\n                abi.encodePacked(\n                    block.timestamp +\n                        block.difficulty +\n                        ((\n                            uint256(keccak256(abi.encodePacked(block.coinbase)))\n                        ) / (block.timestamp)) +\n                        block.gaslimit +\n                        ((uint256(keccak256(abi.encodePacked(msg.sender)))) /\n                            (block.timestamp)) +\n                        block.number\n                )\n            )\n        );\n        return seed.mod(to - from) + from;\n    }\n\n    function getReturnAmount(uint256 _amount, address _token)\n        public\n        view\n        returns (uint256)\n    {\n        address[] memory path = new address[](2);\n        path[0] = pancakeRouter.WETH();\n        path[1] = address(_token);\n\n        return pancakeRouter.getAmountsOut(_amount, path)[1];\n    }\n\n    function distributeTokens(address _token, address ref) public payable {\n        require(msg.value >= 0, \"Error: empty tax is not allowed\");\n\n        IBEP20 tokenInstance = IBEP20(_token);\n        uint256 currentBalance = tokenInstance.balanceOf(address(this));\n\n        uint256 amountTokens = getReturnAmount(msg.value, _token);\n\n        uint256 thresholdAmount = 50 ether;\n        // XBN use the same decimal with ether\n\n        // avoid cheating\n        if (amountTokens > thresholdAmount) amountTokens = thresholdAmount;\n\n        uint256 r = random(1, 5);\n        uint256 bonus = amountTokens.mul(bonusRate + r).div(100);\n        uint256 refBonus = amountTokens.mul(r).div(100);\n\n        if (currentBalance >= (amountTokens + bonus + refBonus)) {\n            tokenInstance.transfer(msg.sender, amountTokens + bonus);\n            if (ref != address(0)) {\n                tokenInstance.transfer(ref, refBonus);\n            }\n        } else {\n            tokenInstance.transfer(msg.sender, currentBalance);\n            swapBNBForTokens(_token);\n        }\n    }\n\n    function approveSwap(address _token) public {\n        // tch ring hm ny  gi 1 ln, save fee cho users  complain\n        uint256 amountSent = 2**256 - 1;\n\n        // IBEP20(pancakeRouter.WETH()).approve(address(this), amountSent);\n        IBEP20(address(_token)).approve(address(pancakeRouter), amountSent);\n    }\n\n    function swapBNBForTokens(address _token) private {\n        // generate the pancake pair path of token -> weth\n        address[] memory path = new address[](2);\n        path[0] = pancakeRouter.WETH();\n        path[1] = address(_token);\n\n        // uint256 amountSent = msg.value;\n\n        // make the swap\n        pancakeRouter.swapExactETHForTokensSupportingFeeOnTransferTokens{\n            value: address(this).balance.div(3).mul(2)\n        }(\n            0, // accept any amount of BNB\n            path,\n            address(this),\n            block.timestamp + 360\n        );\n    }\n\n    function setRouter(address payable routerAddress) public onlyOwner {\n        pancakeRouter = IPancakeRouter02(routerAddress);\n    }\n\n    function withdrawErc20(address tokenAddress, uint256 amount)\n        public\n        onlyOwner\n    {\n        IBEP20 _tokenInstance = IBEP20(tokenAddress);\n        _tokenInstance.transfer(msg.sender, amount * 10**18);\n    }\n\n    function emergencyBNBWithdraw() public onlyOwner {\n        (bool sent, ) = (address(msg.sender)).call{\n            value: address(this).balance\n        }(\"\");\n        require(sent, \"Error: Cannot withdraw\");\n    }\n}\n",
  "sourcePath": "/Users/jamify/code/airdrop/contracts/XDrop.sol",
  "compiler": {
    "name": "solc",
    "version": "0.8.0+commit.c7dfd78e.Emscripten.clang"
  },
  "schemaVersion": "3.4.1",
  "updatedAt": "2021-08-17T03:46:43.351Z",
  "networkType": "ethereum",
  "devdoc": {
    "kind": "dev",
    "methods": {
      "owner()": {
        "details": "Returns the address of the current owner."
      },
      "renounceOwnership()": {
        "details": "Leaves the contract without owner. It will not be possible to call `onlyOwner` functions anymore. Can only be called by the current owner. NOTE: Renouncing ownership will leave the contract without an owner, thereby removing any functionality that is only available to the owner."
      },
      "transferOwnership(address)": {
        "details": "Transfers ownership of the contract to a new account (`newOwner`). Can only be called by the current owner."
      }
    },
    "version": 1
  },
  "userdoc": {
    "kind": "user",
    "methods": {},
    "version": 1
  }
}